{
	"AutomatorCoin.sol": {
		"ATC": {
			"abi": [
				{
					"inputs": [],
					"stateMutability": "nonpayable",
					"type": "constructor"
				},
				{
					"inputs": [
						{
							"internalType": "address",
							"name": "spender",
							"type": "address"
						},
						{
							"internalType": "uint256",
							"name": "allowance",
							"type": "uint256"
						},
						{
							"internalType": "uint256",
							"name": "needed",
							"type": "uint256"
						}
					],
					"name": "ERC20InsufficientAllowance",
					"type": "error"
				},
				{
					"inputs": [
						{
							"internalType": "address",
							"name": "sender",
							"type": "address"
						},
						{
							"internalType": "uint256",
							"name": "balance",
							"type": "uint256"
						},
						{
							"internalType": "uint256",
							"name": "needed",
							"type": "uint256"
						}
					],
					"name": "ERC20InsufficientBalance",
					"type": "error"
				},
				{
					"inputs": [
						{
							"internalType": "address",
							"name": "approver",
							"type": "address"
						}
					],
					"name": "ERC20InvalidApprover",
					"type": "error"
				},
				{
					"inputs": [
						{
							"internalType": "address",
							"name": "receiver",
							"type": "address"
						}
					],
					"name": "ERC20InvalidReceiver",
					"type": "error"
				},
				{
					"inputs": [
						{
							"internalType": "address",
							"name": "sender",
							"type": "address"
						}
					],
					"name": "ERC20InvalidSender",
					"type": "error"
				},
				{
					"inputs": [
						{
							"internalType": "address",
							"name": "spender",
							"type": "address"
						}
					],
					"name": "ERC20InvalidSpender",
					"type": "error"
				},
				{
					"inputs": [
						{
							"internalType": "address",
							"name": "owner",
							"type": "address"
						}
					],
					"name": "OwnableInvalidOwner",
					"type": "error"
				},
				{
					"inputs": [
						{
							"internalType": "address",
							"name": "account",
							"type": "address"
						}
					],
					"name": "OwnableUnauthorizedAccount",
					"type": "error"
				},
				{
					"anonymous": false,
					"inputs": [
						{
							"indexed": true,
							"internalType": "address",
							"name": "owner",
							"type": "address"
						},
						{
							"indexed": true,
							"internalType": "address",
							"name": "spender",
							"type": "address"
						},
						{
							"indexed": false,
							"internalType": "uint256",
							"name": "value",
							"type": "uint256"
						}
					],
					"name": "Approval",
					"type": "event"
				},
				{
					"anonymous": false,
					"inputs": [
						{
							"indexed": true,
							"internalType": "address",
							"name": "previousOwner",
							"type": "address"
						},
						{
							"indexed": true,
							"internalType": "address",
							"name": "newOwner",
							"type": "address"
						}
					],
					"name": "OwnershipTransferred",
					"type": "event"
				},
				{
					"anonymous": false,
					"inputs": [
						{
							"indexed": false,
							"internalType": "uint256",
							"name": "tokensSwapped",
							"type": "uint256"
						},
						{
							"indexed": false,
							"internalType": "uint256",
							"name": "bnbReceived",
							"type": "uint256"
						},
						{
							"indexed": false,
							"internalType": "uint256",
							"name": "tokensIntoLiquidity",
							"type": "uint256"
						}
					],
					"name": "SwapAndLiquify",
					"type": "event"
				},
				{
					"anonymous": false,
					"inputs": [
						{
							"indexed": true,
							"internalType": "address",
							"name": "from",
							"type": "address"
						},
						{
							"indexed": true,
							"internalType": "address",
							"name": "to",
							"type": "address"
						},
						{
							"indexed": false,
							"internalType": "uint256",
							"name": "value",
							"type": "uint256"
						}
					],
					"name": "Transfer",
					"type": "event"
				},
				{
					"inputs": [],
					"name": "BUY_TAX",
					"outputs": [
						{
							"internalType": "uint256",
							"name": "",
							"type": "uint256"
						}
					],
					"stateMutability": "view",
					"type": "function"
				},
				{
					"inputs": [],
					"name": "SELL_TAX",
					"outputs": [
						{
							"internalType": "uint256",
							"name": "",
							"type": "uint256"
						}
					],
					"stateMutability": "view",
					"type": "function"
				},
				{
					"inputs": [
						{
							"internalType": "address",
							"name": "owner",
							"type": "address"
						},
						{
							"internalType": "address",
							"name": "spender",
							"type": "address"
						}
					],
					"name": "allowance",
					"outputs": [
						{
							"internalType": "uint256",
							"name": "",
							"type": "uint256"
						}
					],
					"stateMutability": "view",
					"type": "function"
				},
				{
					"inputs": [
						{
							"internalType": "address",
							"name": "spender",
							"type": "address"
						},
						{
							"internalType": "uint256",
							"name": "value",
							"type": "uint256"
						}
					],
					"name": "approve",
					"outputs": [
						{
							"internalType": "bool",
							"name": "",
							"type": "bool"
						}
					],
					"stateMutability": "nonpayable",
					"type": "function"
				},
				{
					"inputs": [],
					"name": "artistTax",
					"outputs": [
						{
							"internalType": "uint256",
							"name": "",
							"type": "uint256"
						}
					],
					"stateMutability": "view",
					"type": "function"
				},
				{
					"inputs": [],
					"name": "artistWallet",
					"outputs": [
						{
							"internalType": "address",
							"name": "",
							"type": "address"
						}
					],
					"stateMutability": "view",
					"type": "function"
				},
				{
					"inputs": [
						{
							"internalType": "address",
							"name": "account",
							"type": "address"
						}
					],
					"name": "balanceOf",
					"outputs": [
						{
							"internalType": "uint256",
							"name": "",
							"type": "uint256"
						}
					],
					"stateMutability": "view",
					"type": "function"
				},
				{
					"inputs": [],
					"name": "decimals",
					"outputs": [
						{
							"internalType": "uint8",
							"name": "",
							"type": "uint8"
						}
					],
					"stateMutability": "view",
					"type": "function"
				},
				{
					"inputs": [],
					"name": "devTax",
					"outputs": [
						{
							"internalType": "uint256",
							"name": "",
							"type": "uint256"
						}
					],
					"stateMutability": "view",
					"type": "function"
				},
				{
					"inputs": [],
					"name": "devWallet",
					"outputs": [
						{
							"internalType": "address",
							"name": "",
							"type": "address"
						}
					],
					"stateMutability": "view",
					"type": "function"
				},
				{
					"inputs": [],
					"name": "enableTrading",
					"outputs": [],
					"stateMutability": "nonpayable",
					"type": "function"
				},
				{
					"inputs": [
						{
							"internalType": "address",
							"name": "",
							"type": "address"
						}
					],
					"name": "isExcludedFromFee",
					"outputs": [
						{
							"internalType": "bool",
							"name": "",
							"type": "bool"
						}
					],
					"stateMutability": "view",
					"type": "function"
				},
				{
					"inputs": [],
					"name": "lpTax",
					"outputs": [
						{
							"internalType": "uint256",
							"name": "",
							"type": "uint256"
						}
					],
					"stateMutability": "view",
					"type": "function"
				},
				{
					"inputs": [],
					"name": "marketingTax",
					"outputs": [
						{
							"internalType": "uint256",
							"name": "",
							"type": "uint256"
						}
					],
					"stateMutability": "view",
					"type": "function"
				},
				{
					"inputs": [],
					"name": "marketingWallet",
					"outputs": [
						{
							"internalType": "address",
							"name": "",
							"type": "address"
						}
					],
					"stateMutability": "view",
					"type": "function"
				},
				{
					"inputs": [],
					"name": "name",
					"outputs": [
						{
							"internalType": "string",
							"name": "",
							"type": "string"
						}
					],
					"stateMutability": "view",
					"type": "function"
				},
				{
					"inputs": [],
					"name": "owner",
					"outputs": [
						{
							"internalType": "address",
							"name": "",
							"type": "address"
						}
					],
					"stateMutability": "view",
					"type": "function"
				},
				{
					"inputs": [],
					"name": "pair",
					"outputs": [
						{
							"internalType": "address",
							"name": "",
							"type": "address"
						}
					],
					"stateMutability": "view",
					"type": "function"
				},
				{
					"inputs": [],
					"name": "renounceOwnership",
					"outputs": [],
					"stateMutability": "nonpayable",
					"type": "function"
				},
				{
					"inputs": [],
					"name": "router",
					"outputs": [
						{
							"internalType": "contract IPancakeRouter",
							"name": "",
							"type": "address"
						}
					],
					"stateMutability": "view",
					"type": "function"
				},
				{
					"inputs": [
						{
							"internalType": "address",
							"name": "account",
							"type": "address"
						},
						{
							"internalType": "bool",
							"name": "excluded",
							"type": "bool"
						}
					],
					"name": "setExcludedFromFee",
					"outputs": [],
					"stateMutability": "nonpayable",
					"type": "function"
				},
				{
					"inputs": [
						{
							"internalType": "uint256",
							"name": "amount",
							"type": "uint256"
						}
					],
					"name": "setSwapThreshold",
					"outputs": [],
					"stateMutability": "nonpayable",
					"type": "function"
				},
				{
					"inputs": [],
					"name": "swapThreshold",
					"outputs": [
						{
							"internalType": "uint256",
							"name": "",
							"type": "uint256"
						}
					],
					"stateMutability": "view",
					"type": "function"
				},
				{
					"inputs": [],
					"name": "symbol",
					"outputs": [
						{
							"internalType": "string",
							"name": "",
							"type": "string"
						}
					],
					"stateMutability": "view",
					"type": "function"
				},
				{
					"inputs": [],
					"name": "totalSupply",
					"outputs": [
						{
							"internalType": "uint256",
							"name": "",
							"type": "uint256"
						}
					],
					"stateMutability": "view",
					"type": "function"
				},
				{
					"inputs": [],
					"name": "tradingEnabled",
					"outputs": [
						{
							"internalType": "bool",
							"name": "",
							"type": "bool"
						}
					],
					"stateMutability": "view",
					"type": "function"
				},
				{
					"inputs": [
						{
							"internalType": "address",
							"name": "recipient",
							"type": "address"
						},
						{
							"internalType": "uint256",
							"name": "amount",
							"type": "uint256"
						}
					],
					"name": "transfer",
					"outputs": [
						{
							"internalType": "bool",
							"name": "",
							"type": "bool"
						}
					],
					"stateMutability": "nonpayable",
					"type": "function"
				},
				{
					"inputs": [
						{
							"internalType": "address",
							"name": "sender",
							"type": "address"
						},
						{
							"internalType": "address",
							"name": "recipient",
							"type": "address"
						},
						{
							"internalType": "uint256",
							"name": "amount",
							"type": "uint256"
						}
					],
					"name": "transferFrom",
					"outputs": [
						{
							"internalType": "bool",
							"name": "",
							"type": "bool"
						}
					],
					"stateMutability": "nonpayable",
					"type": "function"
				},
				{
					"inputs": [
						{
							"internalType": "address",
							"name": "newOwner",
							"type": "address"
						}
					],
					"name": "transferOwnership",
					"outputs": [],
					"stateMutability": "nonpayable",
					"type": "function"
				},
				{
					"inputs": [
						{
							"internalType": "address",
							"name": "_dev",
							"type": "address"
						},
						{
							"internalType": "address",
							"name": "_artist",
							"type": "address"
						},
						{
							"internalType": "address",
							"name": "_marketing",
							"type": "address"
						}
					],
					"name": "updateWallets",
					"outputs": [],
					"stateMutability": "nonpayable",
					"type": "function"
				},
				{
					"inputs": [
						{
							"internalType": "address",
							"name": "token",
							"type": "address"
						}
					],
					"name": "withdrawStuckTokens",
					"outputs": [],
					"stateMutability": "nonpayable",
					"type": "function"
				},
				{
					"stateMutability": "payable",
					"type": "receive"
				}
			],
			"devdoc": {
				"errors": {
					"ERC20InsufficientAllowance(address,uint256,uint256)": [
						{
							"details": "Indicates a failure with the `spender`’s `allowance`. Used in transfers.",
							"params": {
								"allowance": "Amount of tokens a `spender` is allowed to operate with.",
								"needed": "Minimum amount required to perform a transfer.",
								"spender": "Address that may be allowed to operate on tokens without being their owner."
							}
						}
					],
					"ERC20InsufficientBalance(address,uint256,uint256)": [
						{
							"details": "Indicates an error related to the current `balance` of a `sender`. Used in transfers.",
							"params": {
								"balance": "Current balance for the interacting account.",
								"needed": "Minimum amount required to perform a transfer.",
								"sender": "Address whose tokens are being transferred."
							}
						}
					],
					"ERC20InvalidApprover(address)": [
						{
							"details": "Indicates a failure with the `approver` of a token to be approved. Used in approvals.",
							"params": {
								"approver": "Address initiating an approval operation."
							}
						}
					],
					"ERC20InvalidReceiver(address)": [
						{
							"details": "Indicates a failure with the token `receiver`. Used in transfers.",
							"params": {
								"receiver": "Address to which tokens are being transferred."
							}
						}
					],
					"ERC20InvalidSender(address)": [
						{
							"details": "Indicates a failure with the token `sender`. Used in transfers.",
							"params": {
								"sender": "Address whose tokens are being transferred."
							}
						}
					],
					"ERC20InvalidSpender(address)": [
						{
							"details": "Indicates a failure with the `spender` to be approved. Used in approvals.",
							"params": {
								"spender": "Address that may be allowed to operate on tokens without being their owner."
							}
						}
					],
					"OwnableInvalidOwner(address)": [
						{
							"details": "The owner is not a valid owner account. (eg. `address(0)`)"
						}
					],
					"OwnableUnauthorizedAccount(address)": [
						{
							"details": "The caller account is not authorized to perform an operation."
						}
					]
				},
				"events": {
					"Approval(address,address,uint256)": {
						"details": "Emitted when the allowance of a `spender` for an `owner` is set by a call to {approve}. `value` is the new allowance."
					},
					"Transfer(address,address,uint256)": {
						"details": "Emitted when `value` tokens are moved from one account (`from`) to another (`to`). Note that `value` may be zero."
					}
				},
				"kind": "dev",
				"methods": {
					"allowance(address,address)": {
						"details": "See {IERC20-allowance}."
					},
					"approve(address,uint256)": {
						"details": "See {IERC20-approve}. NOTE: If `value` is the maximum `uint256`, the allowance is not updated on `transferFrom`. This is semantically equivalent to an infinite approval. Requirements: - `spender` cannot be the zero address."
					},
					"balanceOf(address)": {
						"details": "See {IERC20-balanceOf}."
					},
					"decimals()": {
						"details": "Returns the number of decimals used to get its user representation. For example, if `decimals` equals `2`, a balance of `505` tokens should be displayed to a user as `5.05` (`505 / 10 ** 2`). Tokens usually opt for a value of 18, imitating the relationship between Ether and Wei. This is the default value returned by this function, unless it's overridden. NOTE: This information is only used for _display_ purposes: it in no way affects any of the arithmetic of the contract, including {IERC20-balanceOf} and {IERC20-transfer}."
					},
					"name()": {
						"details": "Returns the name of the token."
					},
					"owner()": {
						"details": "Returns the address of the current owner."
					},
					"renounceOwnership()": {
						"details": "Leaves the contract without owner. It will not be possible to call `onlyOwner` functions. Can only be called by the current owner. NOTE: Renouncing ownership will leave the contract without an owner, thereby disabling any functionality that is only available to the owner."
					},
					"symbol()": {
						"details": "Returns the symbol of the token, usually a shorter version of the name."
					},
					"totalSupply()": {
						"details": "See {IERC20-totalSupply}."
					},
					"transferOwnership(address)": {
						"details": "Transfers ownership of the contract to a new account (`newOwner`). Can only be called by the current owner."
					}
				},
				"version": 1
			},
			"evm": {
				"assembly": "    /* \"AutomatorCoin.sol\":931:6766  contract ATC is ERC20, Ownable, ReentrancyGuard {... */\n  mstore(0x40, 0x80)\n    /* \"AutomatorCoin.sol\":1283:1286  500 */\n  0x01f4\n    /* \"AutomatorCoin.sol\":1260:1286  uint256 public lpTax = 500 */\n  0x09\n  sstore\n    /* \"AutomatorCoin.sol\":1333:1337  1000 */\n  0x03e8\n    /* \"AutomatorCoin.sol\":1309:1337  uint256 public devTax = 1000 */\n  0x0a\n  sstore\n    /* \"AutomatorCoin.sol\":1386:1389  500 */\n  0x01f4\n    /* \"AutomatorCoin.sol\":1359:1389  uint256 public artistTax = 500 */\n  0x0b\n  sstore\n    /* \"AutomatorCoin.sol\":1438:1441  500 */\n  0x01f4\n    /* \"AutomatorCoin.sol\":1408:1441  uint256 public marketingTax = 500 */\n  0x0c\n  sstore\n    /* \"AutomatorCoin.sol\":1628:1643  50_000 * 10**18 */\n  0x0a968163f0a57b400000\n    /* \"AutomatorCoin.sol\":1597:1643  uint256 public swapThreshold = 50_000 * 10**18 */\n  0x10\n  sstore\n    /* \"AutomatorCoin.sol\":1888:2743  constructor() ERC20(\"Automator Coin\", \"ATC\") Ownable(msg.sender) {... */\n  callvalue\n  dup1\n  iszero\n  tag_1\n  jumpi\n  0x00\n  dup1\n  revert\ntag_1:\n  pop\n    /* \"AutomatorCoin.sol\":1941:1951  msg.sender */\n  caller\n    /* \"@openzeppelin/contracts/token/ERC20/ERC20.sol\":1582:1695  constructor(string memory name_, string memory symbol_) {... */\n  mload(0x40)\n  dup1\n  0x40\n  add\n  0x40\n  mstore\n  dup1\n  0x0e\n  dup2\n  mstore\n  0x20\n  add\n  0x4175746f6d61746f7220436f696e000000000000000000000000000000000000\n  dup2\n  mstore\n  pop\n  mload(0x40)\n  dup1\n  0x40\n  add\n  0x40\n  mstore\n  dup1\n  0x03\n  dup2\n  mstore\n  0x20\n  add\n  0x4154430000000000000000000000000000000000000000000000000000000000\n  dup2\n  mstore\n  pop\n    /* \"@openzeppelin/contracts/token/ERC20/ERC20.sol\":1656:1661  name_ */\n  dup2\n    /* \"@openzeppelin/contracts/token/ERC20/ERC20.sol\":1648:1653  _name */\n  0x03\n    /* \"@openzeppelin/contracts/token/ERC20/ERC20.sol\":1648:1661  _name = name_ */\n  swap1\n  dup2\n  tag_7\n  swap2\n  swap1\n  tag_8\n  jump\t// in\ntag_7:\n  pop\n    /* \"@openzeppelin/contracts/token/ERC20/ERC20.sol\":1681:1688  symbol_ */\n  dup1\n    /* \"@openzeppelin/contracts/token/ERC20/ERC20.sol\":1671:1678  _symbol */\n  0x04\n    /* \"@openzeppelin/contracts/token/ERC20/ERC20.sol\":1671:1688  _symbol = symbol_ */\n  swap1\n  dup2\n  tag_9\n  swap2\n  swap1\n  tag_8\n  jump\t// in\ntag_9:\n  pop\n    /* \"@openzeppelin/contracts/token/ERC20/ERC20.sol\":1582:1695  constructor(string memory name_, string memory symbol_) {... */\n  pop\n  pop\n    /* \"@openzeppelin/contracts/access/Ownable.sol\":1297:1298  0 */\n  0x00\n    /* \"@openzeppelin/contracts/access/Ownable.sol\":1273:1299  initialOwner == address(0) */\n  0xffffffffffffffffffffffffffffffffffffffff\n  and\n    /* \"@openzeppelin/contracts/access/Ownable.sol\":1273:1285  initialOwner */\n  dup2\n    /* \"@openzeppelin/contracts/access/Ownable.sol\":1273:1299  initialOwner == address(0) */\n  0xffffffffffffffffffffffffffffffffffffffff\n  and\n  sub\n    /* \"@openzeppelin/contracts/access/Ownable.sol\":1269:1364  if (initialOwner == address(0)) {... */\n  tag_11\n  jumpi\n    /* \"@openzeppelin/contracts/access/Ownable.sol\":1350:1351  0 */\n  0x00\n    /* \"@openzeppelin/contracts/access/Ownable.sol\":1322:1353  OwnableInvalidOwner(address(0)) */\n  mload(0x40)\n  0x1e4fbdf700000000000000000000000000000000000000000000000000000000\n  dup2\n  mstore\n  0x04\n  add\n  tag_12\n  swap2\n  swap1\n  tag_13\n  jump\t// in\ntag_12:\n  mload(0x40)\n  dup1\n  swap2\n  sub\n  swap1\n  revert\n    /* \"@openzeppelin/contracts/access/Ownable.sol\":1269:1364  if (initialOwner == address(0)) {... */\ntag_11:\n    /* \"@openzeppelin/contracts/access/Ownable.sol\":1373:1405  _transferOwnership(initialOwner) */\n  tag_14\n    /* \"@openzeppelin/contracts/access/Ownable.sol\":1392:1404  initialOwner */\n  dup2\n    /* \"@openzeppelin/contracts/access/Ownable.sol\":1373:1391  _transferOwnership */\n  shl(0x20, tag_15)\n    /* \"@openzeppelin/contracts/access/Ownable.sol\":1373:1405  _transferOwnership(initialOwner) */\n  0x20\n  shr\n  jump\t// in\ntag_14:\n    /* \"@openzeppelin/contracts/access/Ownable.sol\":1225:1412  constructor(address initialOwner) {... */\n  pop\n    /* \"@openzeppelin/contracts/security/ReentrancyGuard.sol\":1716:1717  1 */\n  0x01\n    /* \"@openzeppelin/contracts/security/ReentrancyGuard.sol\":1821:1828  _status */\n  0x06\n    /* \"@openzeppelin/contracts/security/ReentrancyGuard.sol\":1821:1843  _status = _NOT_ENTERED */\n  dup2\n  swap1\n  sstore\n  pop\n    /* \"AutomatorCoin.sol\":1963:2004  _mint(msg.sender, 1_000_000_000 * 10**18) */\n  tag_18\n    /* \"AutomatorCoin.sol\":1969:1979  msg.sender */\n  caller\n    /* \"AutomatorCoin.sol\":1981:2003  1_000_000_000 * 10**18 */\n  0x033b2e3c9fd0803ce8000000\n    /* \"AutomatorCoin.sol\":1963:1968  _mint */\n  shl(0x20, tag_19)\n    /* \"AutomatorCoin.sol\":1963:2004  _mint(msg.sender, 1_000_000_000 * 10**18) */\n  0x20\n  shr\n  jump\t// in\ntag_18:\n    /* \"AutomatorCoin.sol\":2073:2115  0x10ED43C718714eb63d5aA57B78B54704E256024E */\n  0x10ed43c718714eb63d5aa57b78b54704e256024e\n    /* \"AutomatorCoin.sol\":2049:2055  router */\n  0x07\n  0x00\n    /* \"AutomatorCoin.sol\":2049:2116  router = IPancakeRouter(0x10ED43C718714eb63d5aA57B78B54704E256024E) */\n  0x0100\n  exp\n  dup2\n  sload\n  dup2\n  0xffffffffffffffffffffffffffffffffffffffff\n  mul\n  not\n  and\n  swap1\n  dup4\n  0xffffffffffffffffffffffffffffffffffffffff\n  and\n  mul\n  or\n  swap1\n  sstore\n  pop\n    /* \"AutomatorCoin.sol\":2149:2155  router */\n  0x07\n  0x00\n  swap1\n  sload\n  swap1\n  0x0100\n  exp\n  swap1\n  div\n  0xffffffffffffffffffffffffffffffffffffffff\n  and\n    /* \"AutomatorCoin.sol\":2149:2163  router.factory */\n  0xffffffffffffffffffffffffffffffffffffffff\n  and\n  0xc45a0155\n    /* \"AutomatorCoin.sol\":2149:2165  router.factory() */\n  mload(0x40)\n  dup2\n  0xffffffff\n  and\n  0xe0\n  shl\n  dup2\n  mstore\n  0x04\n  add\n  0x20\n  mload(0x40)\n  dup1\n  dup4\n  sub\n  dup2\n  dup7\n  gas\n  staticcall\n  iszero\n  dup1\n  iszero\n  tag_21\n  jumpi\n  returndatasize\n  0x00\n  dup1\n  returndatacopy\n  revert(0x00, returndatasize)\ntag_21:\n  pop\n  pop\n  pop\n  pop\n  mload(0x40)\n  returndatasize\n  not(0x1f)\n  0x1f\n  dup3\n  add\n  and\n  dup3\n  add\n  dup1\n  0x40\n  mstore\n  pop\n  dup2\n  add\n  swap1\n  tag_22\n  swap2\n  swap1\n  tag_23\n  jump\t// in\ntag_22:\n    /* \"AutomatorCoin.sol\":2133:2177  IPancakeFactory(router.factory()).createPair */\n  0xffffffffffffffffffffffffffffffffffffffff\n  and\n  0xc9c65396\n    /* \"AutomatorCoin.sol\":2186:2190  this */\n  address\n    /* \"AutomatorCoin.sol\":2193:2199  router */\n  0x07\n  0x00\n  swap1\n  sload\n  swap1\n  0x0100\n  exp\n  swap1\n  div\n  0xffffffffffffffffffffffffffffffffffffffff\n  and\n    /* \"AutomatorCoin.sol\":2193:2204  router.WETH */\n  0xffffffffffffffffffffffffffffffffffffffff\n  and\n  0xad5c4648\n    /* \"AutomatorCoin.sol\":2193:2206  router.WETH() */\n  mload(0x40)\n  dup2\n  0xffffffff\n  and\n  0xe0\n  shl\n  dup2\n  mstore\n  0x04\n  add\n  0x20\n  mload(0x40)\n  dup1\n  dup4\n  sub\n  dup2\n  dup7\n  gas\n  staticcall\n  iszero\n  dup1\n  iszero\n  tag_25\n  jumpi\n  returndatasize\n  0x00\n  dup1\n  returndatacopy\n  revert(0x00, returndatasize)\ntag_25:\n  pop\n  pop\n  pop\n  pop\n  mload(0x40)\n  returndatasize\n  not(0x1f)\n  0x1f\n  dup3\n  add\n  and\n  dup3\n  add\n  dup1\n  0x40\n  mstore\n  pop\n  dup2\n  add\n  swap1\n  tag_26\n  swap2\n  swap1\n  tag_23\n  jump\t// in\ntag_26:\n    /* \"AutomatorCoin.sol\":2133:2207  IPancakeFactory(router.factory()).createPair(address(this), router.WETH()) */\n  mload(0x40)\n  dup4\n  0xffffffff\n  and\n  0xe0\n  shl\n  dup2\n  mstore\n  0x04\n  add\n  tag_27\n  swap3\n  swap2\n  swap1\n  tag_28\n  jump\t// in\ntag_27:\n  0x20\n  mload(0x40)\n  dup1\n  dup4\n  sub\n  dup2\n  0x00\n  dup8\n  gas\n  call\n  iszero\n  dup1\n  iszero\n  tag_30\n  jumpi\n  returndatasize\n  0x00\n  dup1\n  returndatacopy\n  revert(0x00, returndatasize)\ntag_30:\n  pop\n  pop\n  pop\n  pop\n  mload(0x40)\n  returndatasize\n  not(0x1f)\n  0x1f\n  dup3\n  add\n  and\n  dup3\n  add\n  dup1\n  0x40\n  mstore\n  pop\n  dup2\n  add\n  swap1\n  tag_31\n  swap2\n  swap1\n  tag_23\n  jump\t// in\ntag_31:\n    /* \"AutomatorCoin.sol\":2126:2130  pair */\n  0x08\n  0x00\n    /* \"AutomatorCoin.sol\":2126:2207  pair = IPancakeFactory(router.factory()).createPair(address(this), router.WETH()) */\n  0x0100\n  exp\n  dup2\n  sload\n  dup2\n  0xffffffffffffffffffffffffffffffffffffffff\n  mul\n  not\n  and\n  swap1\n  dup4\n  0xffffffffffffffffffffffffffffffffffffffff\n  and\n  mul\n  or\n  swap1\n  sstore\n  pop\n    /* \"AutomatorCoin.sol\":2253:2295  0x73aDd9B0Fae851F9f203Ba5346D240C32d5af259 */\n  0x73add9b0fae851f9f203ba5346d240c32d5af259\n    /* \"AutomatorCoin.sol\":2241:2250  devWallet */\n  0x0d\n  0x00\n    /* \"AutomatorCoin.sol\":2241:2295  devWallet = 0x73aDd9B0Fae851F9f203Ba5346D240C32d5af259 */\n  0x0100\n  exp\n  dup2\n  sload\n  dup2\n  0xffffffffffffffffffffffffffffffffffffffff\n  mul\n  not\n  and\n  swap1\n  dup4\n  0xffffffffffffffffffffffffffffffffffffffff\n  and\n  mul\n  or\n  swap1\n  sstore\n  pop\n    /* \"AutomatorCoin.sol\":2320:2362  0xfbd336B10D3Aa003bB0491277bd1b100a7600b7A */\n  0xfbd336b10d3aa003bb0491277bd1b100a7600b7a\n    /* \"AutomatorCoin.sol\":2305:2317  artistWallet */\n  0x0e\n  0x00\n    /* \"AutomatorCoin.sol\":2305:2362  artistWallet = 0xfbd336B10D3Aa003bB0491277bd1b100a7600b7A */\n  0x0100\n  exp\n  dup2\n  sload\n  dup2\n  0xffffffffffffffffffffffffffffffffffffffff\n  mul\n  not\n  and\n  swap1\n  dup4\n  0xffffffffffffffffffffffffffffffffffffffff\n  and\n  mul\n  or\n  swap1\n  sstore\n  pop\n    /* \"AutomatorCoin.sol\":2390:2432  0xc5e979514ebE80172EdBa7c7cfE38B599E4e4823 */\n  0xc5e979514ebe80172edba7c7cfe38b599e4e4823\n    /* \"AutomatorCoin.sol\":2372:2387  marketingWallet */\n  0x0f\n  0x00\n    /* \"AutomatorCoin.sol\":2372:2432  marketingWallet = 0xc5e979514ebE80172EdBa7c7cfE38B599E4e4823 */\n  0x0100\n  exp\n  dup2\n  sload\n  dup2\n  0xffffffffffffffffffffffffffffffffffffffff\n  mul\n  not\n  and\n  swap1\n  dup4\n  0xffffffffffffffffffffffffffffffffffffffff\n  and\n  mul\n  or\n  swap1\n  sstore\n  pop\n    /* \"AutomatorCoin.sol\":2539:2543  true */\n  0x01\n    /* \"AutomatorCoin.sol\":2507:2524  isExcludedFromFee */\n  0x12\n    /* \"AutomatorCoin.sol\":2507:2536  isExcludedFromFee[msg.sender] */\n  0x00\n    /* \"AutomatorCoin.sol\":2525:2535  msg.sender */\n  caller\n    /* \"AutomatorCoin.sol\":2507:2536  isExcludedFromFee[msg.sender] */\n  0xffffffffffffffffffffffffffffffffffffffff\n  and\n  0xffffffffffffffffffffffffffffffffffffffff\n  and\n  dup2\n  mstore\n  0x20\n  add\n  swap1\n  dup2\n  mstore\n  0x20\n  add\n  0x00\n  keccak256\n  0x00\n    /* \"AutomatorCoin.sol\":2507:2543  isExcludedFromFee[msg.sender] = true */\n  0x0100\n  exp\n  dup2\n  sload\n  dup2\n  0xff\n  mul\n  not\n  and\n  swap1\n  dup4\n  iszero\n  iszero\n  mul\n  or\n  swap1\n  sstore\n  pop\n    /* \"AutomatorCoin.sol\":2588:2592  true */\n  0x01\n    /* \"AutomatorCoin.sol\":2553:2570  isExcludedFromFee */\n  0x12\n    /* \"AutomatorCoin.sol\":2553:2585  isExcludedFromFee[address(this)] */\n  0x00\n    /* \"AutomatorCoin.sol\":2579:2583  this */\n  address\n    /* \"AutomatorCoin.sol\":2553:2585  isExcludedFromFee[address(this)] */\n  0xffffffffffffffffffffffffffffffffffffffff\n  and\n  0xffffffffffffffffffffffffffffffffffffffff\n  and\n  dup2\n  mstore\n  0x20\n  add\n  swap1\n  dup2\n  mstore\n  0x20\n  add\n  0x00\n  keccak256\n  0x00\n    /* \"AutomatorCoin.sol\":2553:2592  isExcludedFromFee[address(this)] = true */\n  0x0100\n  exp\n  dup2\n  sload\n  dup2\n  0xff\n  mul\n  not\n  and\n  swap1\n  dup4\n  iszero\n  iszero\n  mul\n  or\n  swap1\n  sstore\n  pop\n    /* \"AutomatorCoin.sol\":2633:2637  true */\n  0x01\n    /* \"AutomatorCoin.sol\":2602:2619  isExcludedFromFee */\n  0x12\n    /* \"AutomatorCoin.sol\":2602:2630  isExcludedFromFee[devWallet] */\n  0x00\n    /* \"AutomatorCoin.sol\":2620:2629  devWallet */\n  0x0d\n  0x00\n  swap1\n  sload\n  swap1\n  0x0100\n  exp\n  swap1\n  div\n  0xffffffffffffffffffffffffffffffffffffffff\n  and\n    /* \"AutomatorCoin.sol\":2602:2630  isExcludedFromFee[devWallet] */\n  0xffffffffffffffffffffffffffffffffffffffff\n  and\n  0xffffffffffffffffffffffffffffffffffffffff\n  and\n  dup2\n  mstore\n  0x20\n  add\n  swap1\n  dup2\n  mstore\n  0x20\n  add\n  0x00\n  keccak256\n  0x00\n    /* \"AutomatorCoin.sol\":2602:2637  isExcludedFromFee[devWallet] = true */\n  0x0100\n  exp\n  dup2\n  sload\n  dup2\n  0xff\n  mul\n  not\n  and\n  swap1\n  dup4\n  iszero\n  iszero\n  mul\n  or\n  swap1\n  sstore\n  pop\n    /* \"AutomatorCoin.sol\":2681:2685  true */\n  0x01\n    /* \"AutomatorCoin.sol\":2647:2664  isExcludedFromFee */\n  0x12\n    /* \"AutomatorCoin.sol\":2647:2678  isExcludedFromFee[artistWallet] */\n  0x00\n    /* \"AutomatorCoin.sol\":2665:2677  artistWallet */\n  0x0e\n  0x00\n  swap1\n  sload\n  swap1\n  0x0100\n  exp\n  swap1\n  div\n  0xffffffffffffffffffffffffffffffffffffffff\n  and\n    /* \"AutomatorCoin.sol\":2647:2678  isExcludedFromFee[artistWallet] */\n  0xffffffffffffffffffffffffffffffffffffffff\n  and\n  0xffffffffffffffffffffffffffffffffffffffff\n  and\n  dup2\n  mstore\n  0x20\n  add\n  swap1\n  dup2\n  mstore\n  0x20\n  add\n  0x00\n  keccak256\n  0x00\n    /* \"AutomatorCoin.sol\":2647:2685  isExcludedFromFee[artistWallet] = true */\n  0x0100\n  exp\n  dup2\n  sload\n  dup2\n  0xff\n  mul\n  not\n  and\n  swap1\n  dup4\n  iszero\n  iszero\n  mul\n  or\n  swap1\n  sstore\n  pop\n    /* \"AutomatorCoin.sol\":2732:2736  true */\n  0x01\n    /* \"AutomatorCoin.sol\":2695:2712  isExcludedFromFee */\n  0x12\n    /* \"AutomatorCoin.sol\":2695:2729  isExcludedFromFee[marketingWallet] */\n  0x00\n    /* \"AutomatorCoin.sol\":2713:2728  marketingWallet */\n  0x0f\n  0x00\n  swap1\n  sload\n  swap1\n  0x0100\n  exp\n  swap1\n  div\n  0xffffffffffffffffffffffffffffffffffffffff\n  and\n    /* \"AutomatorCoin.sol\":2695:2729  isExcludedFromFee[marketingWallet] */\n  0xffffffffffffffffffffffffffffffffffffffff\n  and\n  0xffffffffffffffffffffffffffffffffffffffff\n  and\n  dup2\n  mstore\n  0x20\n  add\n  swap1\n  dup2\n  mstore\n  0x20\n  add\n  0x00\n  keccak256\n  0x00\n    /* \"AutomatorCoin.sol\":2695:2736  isExcludedFromFee[marketingWallet] = true */\n  0x0100\n  exp\n  dup2\n  sload\n  dup2\n  0xff\n  mul\n  not\n  and\n  swap1\n  dup4\n  iszero\n  iszero\n  mul\n  or\n  swap1\n  sstore\n  pop\n    /* \"AutomatorCoin.sol\":931:6766  contract ATC is ERC20, Ownable, ReentrancyGuard {... */\n  jump(tag_32)\n    /* \"@openzeppelin/contracts/access/Ownable.sol\":2912:3099  function _transferOwnership(address newOwner) internal virtual {... */\ntag_15:\n    /* \"@openzeppelin/contracts/access/Ownable.sol\":2985:3001  address oldOwner */\n  0x00\n    /* \"@openzeppelin/contracts/access/Ownable.sol\":3004:3010  _owner */\n  0x05\n  0x00\n  swap1\n  sload\n  swap1\n  0x0100\n  exp\n  swap1\n  div\n  0xffffffffffffffffffffffffffffffffffffffff\n  and\n    /* \"@openzeppelin/contracts/access/Ownable.sol\":2985:3010  address oldOwner = _owner */\n  swap1\n  pop\n    /* \"@openzeppelin/contracts/access/Ownable.sol\":3029:3037  newOwner */\n  dup2\n    /* \"@openzeppelin/contracts/access/Ownable.sol\":3020:3026  _owner */\n  0x05\n  0x00\n    /* \"@openzeppelin/contracts/access/Ownable.sol\":3020:3037  _owner = newOwner */\n  0x0100\n  exp\n  dup2\n  sload\n  dup2\n  0xffffffffffffffffffffffffffffffffffffffff\n  mul\n  not\n  and\n  swap1\n  dup4\n  0xffffffffffffffffffffffffffffffffffffffff\n  and\n  mul\n  or\n  swap1\n  sstore\n  pop\n    /* \"@openzeppelin/contracts/access/Ownable.sol\":3083:3091  newOwner */\n  dup2\n    /* \"@openzeppelin/contracts/access/Ownable.sol\":3052:3092  OwnershipTransferred(oldOwner, newOwner) */\n  0xffffffffffffffffffffffffffffffffffffffff\n  and\n    /* \"@openzeppelin/contracts/access/Ownable.sol\":3073:3081  oldOwner */\n  dup2\n    /* \"@openzeppelin/contracts/access/Ownable.sol\":3052:3092  OwnershipTransferred(oldOwner, newOwner) */\n  0xffffffffffffffffffffffffffffffffffffffff\n  and\n  0x8be0079c531659141344cd1fd0a4f28419497f9722a3daafe3b4186f6b6457e0\n  mload(0x40)\n  mload(0x40)\n  dup1\n  swap2\n  sub\n  swap1\n  log3\n    /* \"@openzeppelin/contracts/access/Ownable.sol\":2975:3099  {... */\n  pop\n    /* \"@openzeppelin/contracts/access/Ownable.sol\":2912:3099  function _transferOwnership(address newOwner) internal virtual {... */\n  pop\n  jump\t// out\n    /* \"@openzeppelin/contracts/token/ERC20/ERC20.sol\":7439:7647  function _mint(address account, uint256 value) internal {... */\ntag_19:\n    /* \"@openzeppelin/contracts/token/ERC20/ERC20.sol\":7528:7529  0 */\n  0x00\n    /* \"@openzeppelin/contracts/token/ERC20/ERC20.sol\":7509:7530  account == address(0) */\n  0xffffffffffffffffffffffffffffffffffffffff\n  and\n    /* \"@openzeppelin/contracts/token/ERC20/ERC20.sol\":7509:7516  account */\n  dup3\n    /* \"@openzeppelin/contracts/token/ERC20/ERC20.sol\":7509:7530  account == address(0) */\n  0xffffffffffffffffffffffffffffffffffffffff\n  and\n  sub\n    /* \"@openzeppelin/contracts/token/ERC20/ERC20.sol\":7505:7596  if (account == address(0)) {... */\n  tag_35\n  jumpi\n    /* \"@openzeppelin/contracts/token/ERC20/ERC20.sol\":7582:7583  0 */\n  0x00\n    /* \"@openzeppelin/contracts/token/ERC20/ERC20.sol\":7553:7585  ERC20InvalidReceiver(address(0)) */\n  mload(0x40)\n  0xec442f0500000000000000000000000000000000000000000000000000000000\n  dup2\n  mstore\n  0x04\n  add\n  tag_36\n  swap2\n  swap1\n  tag_13\n  jump\t// in\ntag_36:\n  mload(0x40)\n  dup1\n  swap2\n  sub\n  swap1\n  revert\n    /* \"@openzeppelin/contracts/token/ERC20/ERC20.sol\":7505:7596  if (account == address(0)) {... */\ntag_35:\n    /* \"@openzeppelin/contracts/token/ERC20/ERC20.sol\":7605:7640  _update(address(0), account, value) */\n  tag_37\n    /* \"@openzeppelin/contracts/token/ERC20/ERC20.sol\":7621:7622  0 */\n  0x00\n    /* \"@openzeppelin/contracts/token/ERC20/ERC20.sol\":7625:7632  account */\n  dup4\n    /* \"@openzeppelin/contracts/token/ERC20/ERC20.sol\":7634:7639  value */\n  dup4\n    /* \"@openzeppelin/contracts/token/ERC20/ERC20.sol\":7605:7612  _update */\n  shl(0x20, tag_38)\n    /* \"@openzeppelin/contracts/token/ERC20/ERC20.sol\":7605:7640  _update(address(0), account, value) */\n  0x20\n  shr\n  jump\t// in\ntag_37:\n    /* \"@openzeppelin/contracts/token/ERC20/ERC20.sol\":7439:7647  function _mint(address account, uint256 value) internal {... */\n  pop\n  pop\n  jump\t// out\n    /* \"@openzeppelin/contracts/token/ERC20/ERC20.sol\":5989:7096  function _update(address from, address to, uint256 value) internal virtual {... */\ntag_38:\n    /* \"@openzeppelin/contracts/token/ERC20/ERC20.sol\":6094:6095  0 */\n  0x00\n    /* \"@openzeppelin/contracts/token/ERC20/ERC20.sol\":6078:6096  from == address(0) */\n  0xffffffffffffffffffffffffffffffffffffffff\n  and\n    /* \"@openzeppelin/contracts/token/ERC20/ERC20.sol\":6078:6082  from */\n  dup4\n    /* \"@openzeppelin/contracts/token/ERC20/ERC20.sol\":6078:6096  from == address(0) */\n  0xffffffffffffffffffffffffffffffffffffffff\n  and\n  sub\n    /* \"@openzeppelin/contracts/token/ERC20/ERC20.sol\":6074:6614  if (from == address(0)) {... */\n  tag_40\n  jumpi\n    /* \"@openzeppelin/contracts/token/ERC20/ERC20.sol\":6230:6235  value */\n  dup1\n    /* \"@openzeppelin/contracts/token/ERC20/ERC20.sol\":6214:6226  _totalSupply */\n  0x02\n  0x00\n    /* \"@openzeppelin/contracts/token/ERC20/ERC20.sol\":6214:6235  _totalSupply += value */\n  dup3\n  dup3\n  sload\n  tag_41\n  swap2\n  swap1\n  tag_42\n  jump\t// in\ntag_41:\n  swap3\n  pop\n  pop\n  dup2\n  swap1\n  sstore\n  pop\n    /* \"@openzeppelin/contracts/token/ERC20/ERC20.sol\":6074:6614  if (from == address(0)) {... */\n  jump(tag_43)\ntag_40:\n    /* \"@openzeppelin/contracts/token/ERC20/ERC20.sol\":6266:6285  uint256 fromBalance */\n  0x00\n    /* \"@openzeppelin/contracts/token/ERC20/ERC20.sol\":6288:6297  _balances */\n  dup1\n    /* \"@openzeppelin/contracts/token/ERC20/ERC20.sol\":6288:6303  _balances[from] */\n  0x00\n    /* \"@openzeppelin/contracts/token/ERC20/ERC20.sol\":6298:6302  from */\n  dup6\n    /* \"@openzeppelin/contracts/token/ERC20/ERC20.sol\":6288:6303  _balances[from] */\n  0xffffffffffffffffffffffffffffffffffffffff\n  and\n  0xffffffffffffffffffffffffffffffffffffffff\n  and\n  dup2\n  mstore\n  0x20\n  add\n  swap1\n  dup2\n  mstore\n  0x20\n  add\n  0x00\n  keccak256\n  sload\n    /* \"@openzeppelin/contracts/token/ERC20/ERC20.sol\":6266:6303  uint256 fromBalance = _balances[from] */\n  swap1\n  pop\n    /* \"@openzeppelin/contracts/token/ERC20/ERC20.sol\":6335:6340  value */\n  dup2\n    /* \"@openzeppelin/contracts/token/ERC20/ERC20.sol\":6321:6332  fromBalance */\n  dup2\n    /* \"@openzeppelin/contracts/token/ERC20/ERC20.sol\":6321:6340  fromBalance < value */\n  lt\n    /* \"@openzeppelin/contracts/token/ERC20/ERC20.sol\":6317:6432  if (fromBalance < value) {... */\n  iszero\n  tag_44\n  jumpi\n    /* \"@openzeppelin/contracts/token/ERC20/ERC20.sol\":6392:6396  from */\n  dup4\n    /* \"@openzeppelin/contracts/token/ERC20/ERC20.sol\":6398:6409  fromBalance */\n  dup2\n    /* \"@openzeppelin/contracts/token/ERC20/ERC20.sol\":6411:6416  value */\n  dup4\n    /* \"@openzeppelin/contracts/token/ERC20/ERC20.sol\":6367:6417  ERC20InsufficientBalance(from, fromBalance, value) */\n  mload(0x40)\n  0xe450d38c00000000000000000000000000000000000000000000000000000000\n  dup2\n  mstore\n  0x04\n  add\n  tag_45\n  swap4\n  swap3\n  swap2\n  swap1\n  tag_46\n  jump\t// in\ntag_45:\n  mload(0x40)\n  dup1\n  swap2\n  sub\n  swap1\n  revert\n    /* \"@openzeppelin/contracts/token/ERC20/ERC20.sol\":6317:6432  if (fromBalance < value) {... */\ntag_44:\n    /* \"@openzeppelin/contracts/token/ERC20/ERC20.sol\":6584:6589  value */\n  dup2\n    /* \"@openzeppelin/contracts/token/ERC20/ERC20.sol\":6570:6581  fromBalance */\n  dup2\n    /* \"@openzeppelin/contracts/token/ERC20/ERC20.sol\":6570:6589  fromBalance - value */\n  sub\n    /* \"@openzeppelin/contracts/token/ERC20/ERC20.sol\":6552:6561  _balances */\n  0x00\n    /* \"@openzeppelin/contracts/token/ERC20/ERC20.sol\":6552:6567  _balances[from] */\n  dup1\n    /* \"@openzeppelin/contracts/token/ERC20/ERC20.sol\":6562:6566  from */\n  dup7\n    /* \"@openzeppelin/contracts/token/ERC20/ERC20.sol\":6552:6567  _balances[from] */\n  0xffffffffffffffffffffffffffffffffffffffff\n  and\n  0xffffffffffffffffffffffffffffffffffffffff\n  and\n  dup2\n  mstore\n  0x20\n  add\n  swap1\n  dup2\n  mstore\n  0x20\n  add\n  0x00\n  keccak256\n    /* \"@openzeppelin/contracts/token/ERC20/ERC20.sol\":6552:6589  _balances[from] = fromBalance - value */\n  dup2\n  swap1\n  sstore\n  pop\n    /* \"@openzeppelin/contracts/token/ERC20/ERC20.sol\":6252:6614  {... */\n  pop\n    /* \"@openzeppelin/contracts/token/ERC20/ERC20.sol\":6074:6614  if (from == address(0)) {... */\ntag_43:\n    /* \"@openzeppelin/contracts/token/ERC20/ERC20.sol\":6642:6643  0 */\n  0x00\n    /* \"@openzeppelin/contracts/token/ERC20/ERC20.sol\":6628:6644  to == address(0) */\n  0xffffffffffffffffffffffffffffffffffffffff\n  and\n    /* \"@openzeppelin/contracts/token/ERC20/ERC20.sol\":6628:6630  to */\n  dup3\n    /* \"@openzeppelin/contracts/token/ERC20/ERC20.sol\":6628:6644  to == address(0) */\n  0xffffffffffffffffffffffffffffffffffffffff\n  and\n  sub\n    /* \"@openzeppelin/contracts/token/ERC20/ERC20.sol\":6624:7049  if (to == address(0)) {... */\n  tag_47\n  jumpi\n    /* \"@openzeppelin/contracts/token/ERC20/ERC20.sol\":6807:6812  value */\n  dup1\n    /* \"@openzeppelin/contracts/token/ERC20/ERC20.sol\":6791:6803  _totalSupply */\n  0x02\n  0x00\n    /* \"@openzeppelin/contracts/token/ERC20/ERC20.sol\":6791:6812  _totalSupply -= value */\n  dup3\n  dup3\n  sload\n  sub\n  swap3\n  pop\n  pop\n  dup2\n  swap1\n  sstore\n  pop\n    /* \"@openzeppelin/contracts/token/ERC20/ERC20.sol\":6624:7049  if (to == address(0)) {... */\n  jump(tag_48)\ntag_47:\n    /* \"@openzeppelin/contracts/token/ERC20/ERC20.sol\":7019:7024  value */\n  dup1\n    /* \"@openzeppelin/contracts/token/ERC20/ERC20.sol\":7002:7011  _balances */\n  0x00\n    /* \"@openzeppelin/contracts/token/ERC20/ERC20.sol\":7002:7015  _balances[to] */\n  dup1\n    /* \"@openzeppelin/contracts/token/ERC20/ERC20.sol\":7012:7014  to */\n  dup5\n    /* \"@openzeppelin/contracts/token/ERC20/ERC20.sol\":7002:7015  _balances[to] */\n  0xffffffffffffffffffffffffffffffffffffffff\n  and\n  0xffffffffffffffffffffffffffffffffffffffff\n  and\n  dup2\n  mstore\n  0x20\n  add\n  swap1\n  dup2\n  mstore\n  0x20\n  add\n  0x00\n  keccak256\n  0x00\n    /* \"@openzeppelin/contracts/token/ERC20/ERC20.sol\":7002:7024  _balances[to] += value */\n  dup3\n  dup3\n  sload\n  add\n  swap3\n  pop\n  pop\n  dup2\n  swap1\n  sstore\n  pop\n    /* \"@openzeppelin/contracts/token/ERC20/ERC20.sol\":6624:7049  if (to == address(0)) {... */\ntag_48:\n    /* \"@openzeppelin/contracts/token/ERC20/ERC20.sol\":7079:7081  to */\n  dup2\n    /* \"@openzeppelin/contracts/token/ERC20/ERC20.sol\":7064:7089  Transfer(from, to, value) */\n  0xffffffffffffffffffffffffffffffffffffffff\n  and\n    /* \"@openzeppelin/contracts/token/ERC20/ERC20.sol\":7073:7077  from */\n  dup4\n    /* \"@openzeppelin/contracts/token/ERC20/ERC20.sol\":7064:7089  Transfer(from, to, value) */\n  0xffffffffffffffffffffffffffffffffffffffff\n  and\n  0xddf252ad1be2c89b69c2b068fc378daa952ba7f163c4a11628f55a4df523b3ef\n    /* \"@openzeppelin/contracts/token/ERC20/ERC20.sol\":7083:7088  value */\n  dup4\n    /* \"@openzeppelin/contracts/token/ERC20/ERC20.sol\":7064:7089  Transfer(from, to, value) */\n  mload(0x40)\n  tag_49\n  swap2\n  swap1\n  tag_50\n  jump\t// in\ntag_49:\n  mload(0x40)\n  dup1\n  swap2\n  sub\n  swap1\n  log3\n    /* \"@openzeppelin/contracts/token/ERC20/ERC20.sol\":5989:7096  function _update(address from, address to, uint256 value) internal virtual {... */\n  pop\n  pop\n  pop\n  jump\t// out\n    /* \"#utility.yul\":7:106   */\ntag_51:\n    /* \"#utility.yul\":59:65   */\n  0x00\n    /* \"#utility.yul\":93:98   */\n  dup2\n    /* \"#utility.yul\":87:99   */\n  mload\n    /* \"#utility.yul\":77:99   */\n  swap1\n  pop\n    /* \"#utility.yul\":7:106   */\n  swap2\n  swap1\n  pop\n  jump\t// out\n    /* \"#utility.yul\":112:292   */\ntag_52:\n    /* \"#utility.yul\":160:237   */\n  0x4e487b7100000000000000000000000000000000000000000000000000000000\n    /* \"#utility.yul\":157:158   */\n  0x00\n    /* \"#utility.yul\":150:238   */\n  mstore\n    /* \"#utility.yul\":257:261   */\n  0x41\n    /* \"#utility.yul\":254:255   */\n  0x04\n    /* \"#utility.yul\":247:262   */\n  mstore\n    /* \"#utility.yul\":281:285   */\n  0x24\n    /* \"#utility.yul\":278:279   */\n  0x00\n    /* \"#utility.yul\":271:286   */\n  revert\n    /* \"#utility.yul\":298:478   */\ntag_53:\n    /* \"#utility.yul\":346:423   */\n  0x4e487b7100000000000000000000000000000000000000000000000000000000\n    /* \"#utility.yul\":343:344   */\n  0x00\n    /* \"#utility.yul\":336:424   */\n  mstore\n    /* \"#utility.yul\":443:447   */\n  0x22\n    /* \"#utility.yul\":440:441   */\n  0x04\n    /* \"#utility.yul\":433:448   */\n  mstore\n    /* \"#utility.yul\":467:471   */\n  0x24\n    /* \"#utility.yul\":464:465   */\n  0x00\n    /* \"#utility.yul\":457:472   */\n  revert\n    /* \"#utility.yul\":484:804   */\ntag_54:\n    /* \"#utility.yul\":528:534   */\n  0x00\n    /* \"#utility.yul\":565:566   */\n  0x02\n    /* \"#utility.yul\":559:563   */\n  dup3\n    /* \"#utility.yul\":555:567   */\n  div\n    /* \"#utility.yul\":545:567   */\n  swap1\n  pop\n    /* \"#utility.yul\":612:613   */\n  0x01\n    /* \"#utility.yul\":606:610   */\n  dup3\n    /* \"#utility.yul\":602:614   */\n  and\n    /* \"#utility.yul\":633:651   */\n  dup1\n    /* \"#utility.yul\":623:704   */\n  tag_86\n  jumpi\n    /* \"#utility.yul\":689:693   */\n  0x7f\n    /* \"#utility.yul\":681:687   */\n  dup3\n    /* \"#utility.yul\":677:694   */\n  and\n    /* \"#utility.yul\":667:694   */\n  swap2\n  pop\n    /* \"#utility.yul\":623:704   */\ntag_86:\n    /* \"#utility.yul\":751:753   */\n  0x20\n    /* \"#utility.yul\":743:749   */\n  dup3\n    /* \"#utility.yul\":740:754   */\n  lt\n    /* \"#utility.yul\":720:738   */\n  dup2\n    /* \"#utility.yul\":717:755   */\n  sub\n    /* \"#utility.yul\":714:798   */\n  tag_87\n  jumpi\n    /* \"#utility.yul\":770:788   */\n  tag_88\n  tag_53\n  jump\t// in\ntag_88:\n    /* \"#utility.yul\":714:798   */\ntag_87:\n    /* \"#utility.yul\":535:804   */\n  pop\n    /* \"#utility.yul\":484:804   */\n  swap2\n  swap1\n  pop\n  jump\t// out\n    /* \"#utility.yul\":810:951   */\ntag_55:\n    /* \"#utility.yul\":859:863   */\n  0x00\n    /* \"#utility.yul\":882:885   */\n  dup2\n    /* \"#utility.yul\":874:885   */\n  swap1\n  pop\n    /* \"#utility.yul\":905:908   */\n  dup2\n    /* \"#utility.yul\":902:903   */\n  0x00\n    /* \"#utility.yul\":895:909   */\n  mstore\n    /* \"#utility.yul\":939:943   */\n  0x20\n    /* \"#utility.yul\":936:937   */\n  0x00\n    /* \"#utility.yul\":926:944   */\n  keccak256\n    /* \"#utility.yul\":918:944   */\n  swap1\n  pop\n    /* \"#utility.yul\":810:951   */\n  swap2\n  swap1\n  pop\n  jump\t// out\n    /* \"#utility.yul\":957:1050   */\ntag_56:\n    /* \"#utility.yul\":994:1000   */\n  0x00\n    /* \"#utility.yul\":1041:1043   */\n  0x20\n    /* \"#utility.yul\":1036:1038   */\n  0x1f\n    /* \"#utility.yul\":1029:1034   */\n  dup4\n    /* \"#utility.yul\":1025:1039   */\n  add\n    /* \"#utility.yul\":1021:1044   */\n  div\n    /* \"#utility.yul\":1011:1044   */\n  swap1\n  pop\n    /* \"#utility.yul\":957:1050   */\n  swap2\n  swap1\n  pop\n  jump\t// out\n    /* \"#utility.yul\":1056:1163   */\ntag_57:\n    /* \"#utility.yul\":1100:1108   */\n  0x00\n    /* \"#utility.yul\":1150:1155   */\n  dup3\n    /* \"#utility.yul\":1144:1148   */\n  dup3\n    /* \"#utility.yul\":1140:1156   */\n  shl\n    /* \"#utility.yul\":1119:1156   */\n  swap1\n  pop\n    /* \"#utility.yul\":1056:1163   */\n  swap3\n  swap2\n  pop\n  pop\n  jump\t// out\n    /* \"#utility.yul\":1169:1562   */\ntag_58:\n    /* \"#utility.yul\":1238:1244   */\n  0x00\n    /* \"#utility.yul\":1288:1289   */\n  0x08\n    /* \"#utility.yul\":1276:1286   */\n  dup4\n    /* \"#utility.yul\":1272:1290   */\n  mul\n    /* \"#utility.yul\":1311:1408   */\n  tag_93\n    /* \"#utility.yul\":1341:1407   */\n  0xffffffffffffffffffffffffffffffffffffffffffffffffffffffffffffffff\n    /* \"#utility.yul\":1330:1339   */\n  dup3\n    /* \"#utility.yul\":1311:1408   */\n  tag_57\n  jump\t// in\ntag_93:\n    /* \"#utility.yul\":1429:1468   */\n  tag_94\n    /* \"#utility.yul\":1459:1467   */\n  dup7\n    /* \"#utility.yul\":1448:1457   */\n  dup4\n    /* \"#utility.yul\":1429:1468   */\n  tag_57\n  jump\t// in\ntag_94:\n    /* \"#utility.yul\":1417:1468   */\n  swap6\n  pop\n    /* \"#utility.yul\":1501:1505   */\n  dup1\n    /* \"#utility.yul\":1497:1506   */\n  not\n    /* \"#utility.yul\":1490:1495   */\n  dup5\n    /* \"#utility.yul\":1486:1507   */\n  and\n    /* \"#utility.yul\":1477:1507   */\n  swap4\n  pop\n    /* \"#utility.yul\":1550:1554   */\n  dup1\n    /* \"#utility.yul\":1540:1548   */\n  dup7\n    /* \"#utility.yul\":1536:1555   */\n  and\n    /* \"#utility.yul\":1529:1534   */\n  dup5\n    /* \"#utility.yul\":1526:1556   */\n  or\n    /* \"#utility.yul\":1516:1556   */\n  swap3\n  pop\n    /* \"#utility.yul\":1245:1562   */\n  pop\n  pop\n    /* \"#utility.yul\":1169:1562   */\n  swap4\n  swap3\n  pop\n  pop\n  pop\n  jump\t// out\n    /* \"#utility.yul\":1568:1645   */\ntag_59:\n    /* \"#utility.yul\":1605:1612   */\n  0x00\n    /* \"#utility.yul\":1634:1639   */\n  dup2\n    /* \"#utility.yul\":1623:1639   */\n  swap1\n  pop\n    /* \"#utility.yul\":1568:1645   */\n  swap2\n  swap1\n  pop\n  jump\t// out\n    /* \"#utility.yul\":1651:1711   */\ntag_60:\n    /* \"#utility.yul\":1679:1682   */\n  0x00\n    /* \"#utility.yul\":1700:1705   */\n  dup2\n    /* \"#utility.yul\":1693:1705   */\n  swap1\n  pop\n    /* \"#utility.yul\":1651:1711   */\n  swap2\n  swap1\n  pop\n  jump\t// out\n    /* \"#utility.yul\":1717:1859   */\ntag_61:\n    /* \"#utility.yul\":1767:1776   */\n  0x00\n    /* \"#utility.yul\":1800:1853   */\n  tag_98\n    /* \"#utility.yul\":1818:1852   */\n  tag_99\n    /* \"#utility.yul\":1827:1851   */\n  tag_100\n    /* \"#utility.yul\":1845:1850   */\n  dup5\n    /* \"#utility.yul\":1827:1851   */\n  tag_59\n  jump\t// in\ntag_100:\n    /* \"#utility.yul\":1818:1852   */\n  tag_60\n  jump\t// in\ntag_99:\n    /* \"#utility.yul\":1800:1853   */\n  tag_59\n  jump\t// in\ntag_98:\n    /* \"#utility.yul\":1787:1853   */\n  swap1\n  pop\n    /* \"#utility.yul\":1717:1859   */\n  swap2\n  swap1\n  pop\n  jump\t// out\n    /* \"#utility.yul\":1865:1940   */\ntag_62:\n    /* \"#utility.yul\":1908:1911   */\n  0x00\n    /* \"#utility.yul\":1929:1934   */\n  dup2\n    /* \"#utility.yul\":1922:1934   */\n  swap1\n  pop\n    /* \"#utility.yul\":1865:1940   */\n  swap2\n  swap1\n  pop\n  jump\t// out\n    /* \"#utility.yul\":1946:2215   */\ntag_63:\n    /* \"#utility.yul\":2056:2095   */\n  tag_103\n    /* \"#utility.yul\":2087:2094   */\n  dup4\n    /* \"#utility.yul\":2056:2095   */\n  tag_61\n  jump\t// in\ntag_103:\n    /* \"#utility.yul\":2117:2208   */\n  tag_104\n    /* \"#utility.yul\":2166:2207   */\n  tag_105\n    /* \"#utility.yul\":2190:2206   */\n  dup3\n    /* \"#utility.yul\":2166:2207   */\n  tag_62\n  jump\t// in\ntag_105:\n    /* \"#utility.yul\":2158:2164   */\n  dup5\n    /* \"#utility.yul\":2151:2155   */\n  dup5\n    /* \"#utility.yul\":2145:2156   */\n  sload\n    /* \"#utility.yul\":2117:2208   */\n  tag_58\n  jump\t// in\ntag_104:\n    /* \"#utility.yul\":2111:2115   */\n  dup3\n    /* \"#utility.yul\":2104:2209   */\n  sstore\n    /* \"#utility.yul\":2022:2215   */\n  pop\n    /* \"#utility.yul\":1946:2215   */\n  pop\n  pop\n  pop\n  jump\t// out\n    /* \"#utility.yul\":2221:2294   */\ntag_64:\n    /* \"#utility.yul\":2266:2269   */\n  0x00\n    /* \"#utility.yul\":2221:2294   */\n  swap1\n  jump\t// out\n    /* \"#utility.yul\":2300:2489   */\ntag_65:\n    /* \"#utility.yul\":2377:2409   */\n  tag_108\n  tag_64\n  jump\t// in\ntag_108:\n    /* \"#utility.yul\":2418:2483   */\n  tag_109\n    /* \"#utility.yul\":2476:2482   */\n  dup2\n    /* \"#utility.yul\":2468:2474   */\n  dup5\n    /* \"#utility.yul\":2462:2466   */\n  dup5\n    /* \"#utility.yul\":2418:2483   */\n  tag_63\n  jump\t// in\ntag_109:\n    /* \"#utility.yul\":2353:2489   */\n  pop\n    /* \"#utility.yul\":2300:2489   */\n  pop\n  pop\n  jump\t// out\n    /* \"#utility.yul\":2495:2681   */\ntag_66:\n    /* \"#utility.yul\":2555:2675   */\ntag_111:\n    /* \"#utility.yul\":2572:2575   */\n  dup2\n    /* \"#utility.yul\":2565:2570   */\n  dup2\n    /* \"#utility.yul\":2562:2576   */\n  lt\n    /* \"#utility.yul\":2555:2675   */\n  iszero\n  tag_113\n  jumpi\n    /* \"#utility.yul\":2626:2665   */\n  tag_114\n    /* \"#utility.yul\":2663:2664   */\n  0x00\n    /* \"#utility.yul\":2656:2661   */\n  dup3\n    /* \"#utility.yul\":2626:2665   */\n  tag_65\n  jump\t// in\ntag_114:\n    /* \"#utility.yul\":2599:2600   */\n  0x01\n    /* \"#utility.yul\":2592:2597   */\n  dup2\n    /* \"#utility.yul\":2588:2601   */\n  add\n    /* \"#utility.yul\":2579:2601   */\n  swap1\n  pop\n    /* \"#utility.yul\":2555:2675   */\n  jump(tag_111)\ntag_113:\n    /* \"#utility.yul\":2495:2681   */\n  pop\n  pop\n  jump\t// out\n    /* \"#utility.yul\":2687:3230   */\ntag_67:\n    /* \"#utility.yul\":2788:2790   */\n  0x1f\n    /* \"#utility.yul\":2783:2786   */\n  dup3\n    /* \"#utility.yul\":2780:2791   */\n  gt\n    /* \"#utility.yul\":2777:3223   */\n  iszero\n  tag_116\n  jumpi\n    /* \"#utility.yul\":2822:2860   */\n  tag_117\n    /* \"#utility.yul\":2854:2859   */\n  dup2\n    /* \"#utility.yul\":2822:2860   */\n  tag_55\n  jump\t// in\ntag_117:\n    /* \"#utility.yul\":2906:2935   */\n  tag_118\n    /* \"#utility.yul\":2924:2934   */\n  dup5\n    /* \"#utility.yul\":2906:2935   */\n  tag_56\n  jump\t// in\ntag_118:\n    /* \"#utility.yul\":2896:2904   */\n  dup2\n    /* \"#utility.yul\":2892:2936   */\n  add\n    /* \"#utility.yul\":3089:3091   */\n  0x20\n    /* \"#utility.yul\":3077:3087   */\n  dup6\n    /* \"#utility.yul\":3074:3092   */\n  lt\n    /* \"#utility.yul\":3071:3120   */\n  iszero\n  tag_119\n  jumpi\n    /* \"#utility.yul\":3110:3118   */\n  dup2\n    /* \"#utility.yul\":3095:3118   */\n  swap1\n  pop\n    /* \"#utility.yul\":3071:3120   */\ntag_119:\n    /* \"#utility.yul\":3133:3213   */\n  tag_120\n    /* \"#utility.yul\":3189:3211   */\n  tag_121\n    /* \"#utility.yul\":3207:3210   */\n  dup6\n    /* \"#utility.yul\":3189:3211   */\n  tag_56\n  jump\t// in\ntag_121:\n    /* \"#utility.yul\":3179:3187   */\n  dup4\n    /* \"#utility.yul\":3175:3212   */\n  add\n    /* \"#utility.yul\":3162:3173   */\n  dup3\n    /* \"#utility.yul\":3133:3213   */\n  tag_66\n  jump\t// in\ntag_120:\n    /* \"#utility.yul\":2792:3223   */\n  pop\n  pop\n    /* \"#utility.yul\":2777:3223   */\ntag_116:\n    /* \"#utility.yul\":2687:3230   */\n  pop\n  pop\n  pop\n  jump\t// out\n    /* \"#utility.yul\":3236:3353   */\ntag_68:\n    /* \"#utility.yul\":3290:3298   */\n  0x00\n    /* \"#utility.yul\":3340:3345   */\n  dup3\n    /* \"#utility.yul\":3334:3338   */\n  dup3\n    /* \"#utility.yul\":3330:3346   */\n  shr\n    /* \"#utility.yul\":3309:3346   */\n  swap1\n  pop\n    /* \"#utility.yul\":3236:3353   */\n  swap3\n  swap2\n  pop\n  pop\n  jump\t// out\n    /* \"#utility.yul\":3359:3528   */\ntag_69:\n    /* \"#utility.yul\":3403:3409   */\n  0x00\n    /* \"#utility.yul\":3436:3487   */\n  tag_124\n    /* \"#utility.yul\":3484:3485   */\n  0x00\n    /* \"#utility.yul\":3480:3486   */\n  not\n    /* \"#utility.yul\":3472:3477   */\n  dup5\n    /* \"#utility.yul\":3469:3470   */\n  0x08\n    /* \"#utility.yul\":3465:3478   */\n  mul\n    /* \"#utility.yul\":3436:3487   */\n  tag_68\n  jump\t// in\ntag_124:\n    /* \"#utility.yul\":3432:3488   */\n  not\n    /* \"#utility.yul\":3517:3521   */\n  dup1\n    /* \"#utility.yul\":3511:3515   */\n  dup4\n    /* \"#utility.yul\":3507:3522   */\n  and\n    /* \"#utility.yul\":3497:3522   */\n  swap2\n  pop\n    /* \"#utility.yul\":3410:3528   */\n  pop\n    /* \"#utility.yul\":3359:3528   */\n  swap3\n  swap2\n  pop\n  pop\n  jump\t// out\n    /* \"#utility.yul\":3533:3828   */\ntag_70:\n    /* \"#utility.yul\":3609:3613   */\n  0x00\n    /* \"#utility.yul\":3755:3784   */\n  tag_126\n    /* \"#utility.yul\":3780:3783   */\n  dup4\n    /* \"#utility.yul\":3774:3778   */\n  dup4\n    /* \"#utility.yul\":3755:3784   */\n  tag_69\n  jump\t// in\ntag_126:\n    /* \"#utility.yul\":3747:3784   */\n  swap2\n  pop\n    /* \"#utility.yul\":3817:3820   */\n  dup3\n    /* \"#utility.yul\":3814:3815   */\n  0x02\n    /* \"#utility.yul\":3810:3821   */\n  mul\n    /* \"#utility.yul\":3804:3808   */\n  dup3\n    /* \"#utility.yul\":3801:3822   */\n  or\n    /* \"#utility.yul\":3793:3822   */\n  swap1\n  pop\n    /* \"#utility.yul\":3533:3828   */\n  swap3\n  swap2\n  pop\n  pop\n  jump\t// out\n    /* \"#utility.yul\":3833:5228   */\ntag_8:\n    /* \"#utility.yul\":3950:3987   */\n  tag_128\n    /* \"#utility.yul\":3983:3986   */\n  dup3\n    /* \"#utility.yul\":3950:3987   */\n  tag_51\n  jump\t// in\ntag_128:\n    /* \"#utility.yul\":4052:4070   */\n  0xffffffffffffffff\n    /* \"#utility.yul\":4044:4050   */\n  dup2\n    /* \"#utility.yul\":4041:4071   */\n  gt\n    /* \"#utility.yul\":4038:4094   */\n  iszero\n  tag_129\n  jumpi\n    /* \"#utility.yul\":4074:4092   */\n  tag_130\n  tag_52\n  jump\t// in\ntag_130:\n    /* \"#utility.yul\":4038:4094   */\ntag_129:\n    /* \"#utility.yul\":4118:4156   */\n  tag_131\n    /* \"#utility.yul\":4150:4154   */\n  dup3\n    /* \"#utility.yul\":4144:4155   */\n  sload\n    /* \"#utility.yul\":4118:4156   */\n  tag_54\n  jump\t// in\ntag_131:\n    /* \"#utility.yul\":4203:4270   */\n  tag_132\n    /* \"#utility.yul\":4263:4269   */\n  dup3\n    /* \"#utility.yul\":4255:4261   */\n  dup3\n    /* \"#utility.yul\":4249:4253   */\n  dup6\n    /* \"#utility.yul\":4203:4270   */\n  tag_67\n  jump\t// in\ntag_132:\n    /* \"#utility.yul\":4297:4298   */\n  0x00\n    /* \"#utility.yul\":4321:4325   */\n  0x20\n    /* \"#utility.yul\":4308:4325   */\n  swap1\n  pop\n    /* \"#utility.yul\":4353:4355   */\n  0x1f\n    /* \"#utility.yul\":4345:4351   */\n  dup4\n    /* \"#utility.yul\":4342:4356   */\n  gt\n    /* \"#utility.yul\":4370:4371   */\n  0x01\n    /* \"#utility.yul\":4365:4983   */\n  dup2\n  eq\n  tag_134\n  jumpi\n    /* \"#utility.yul\":5027:5028   */\n  0x00\n    /* \"#utility.yul\":5044:5050   */\n  dup5\n    /* \"#utility.yul\":5041:5118   */\n  iszero\n  tag_135\n  jumpi\n    /* \"#utility.yul\":5093:5102   */\n  dup3\n    /* \"#utility.yul\":5088:5091   */\n  dup8\n    /* \"#utility.yul\":5084:5103   */\n  add\n    /* \"#utility.yul\":5078:5104   */\n  mload\n    /* \"#utility.yul\":5069:5104   */\n  swap1\n  pop\n    /* \"#utility.yul\":5041:5118   */\ntag_135:\n    /* \"#utility.yul\":5144:5211   */\n  tag_136\n    /* \"#utility.yul\":5204:5210   */\n  dup6\n    /* \"#utility.yul\":5197:5202   */\n  dup3\n    /* \"#utility.yul\":5144:5211   */\n  tag_70\n  jump\t// in\ntag_136:\n    /* \"#utility.yul\":5138:5142   */\n  dup7\n    /* \"#utility.yul\":5131:5212   */\n  sstore\n    /* \"#utility.yul\":5000:5222   */\n  pop\n    /* \"#utility.yul\":4335:5222   */\n  jump(tag_133)\n    /* \"#utility.yul\":4365:4983   */\ntag_134:\n    /* \"#utility.yul\":4417:4421   */\n  0x1f\n    /* \"#utility.yul\":4413:4422   */\n  not\n    /* \"#utility.yul\":4405:4411   */\n  dup5\n    /* \"#utility.yul\":4401:4423   */\n  and\n    /* \"#utility.yul\":4451:4488   */\n  tag_137\n    /* \"#utility.yul\":4483:4487   */\n  dup7\n    /* \"#utility.yul\":4451:4488   */\n  tag_55\n  jump\t// in\ntag_137:\n    /* \"#utility.yul\":4510:4511   */\n  0x00\n    /* \"#utility.yul\":4524:4732   */\ntag_138:\n    /* \"#utility.yul\":4538:4545   */\n  dup3\n    /* \"#utility.yul\":4535:4536   */\n  dup2\n    /* \"#utility.yul\":4532:4546   */\n  lt\n    /* \"#utility.yul\":4524:4732   */\n  iszero\n  tag_140\n  jumpi\n    /* \"#utility.yul\":4617:4626   */\n  dup5\n    /* \"#utility.yul\":4612:4615   */\n  dup10\n    /* \"#utility.yul\":4608:4627   */\n  add\n    /* \"#utility.yul\":4602:4628   */\n  mload\n    /* \"#utility.yul\":4594:4600   */\n  dup3\n    /* \"#utility.yul\":4587:4629   */\n  sstore\n    /* \"#utility.yul\":4668:4669   */\n  0x01\n    /* \"#utility.yul\":4660:4666   */\n  dup3\n    /* \"#utility.yul\":4656:4670   */\n  add\n    /* \"#utility.yul\":4646:4670   */\n  swap2\n  pop\n    /* \"#utility.yul\":4715:4717   */\n  0x20\n    /* \"#utility.yul\":4704:4713   */\n  dup6\n    /* \"#utility.yul\":4700:4718   */\n  add\n    /* \"#utility.yul\":4687:4718   */\n  swap5\n  pop\n    /* \"#utility.yul\":4561:4565   */\n  0x20\n    /* \"#utility.yul\":4558:4559   */\n  dup2\n    /* \"#utility.yul\":4554:4566   */\n  add\n    /* \"#utility.yul\":4549:4566   */\n  swap1\n  pop\n    /* \"#utility.yul\":4524:4732   */\n  jump(tag_138)\ntag_140:\n    /* \"#utility.yul\":4760:4766   */\n  dup7\n    /* \"#utility.yul\":4751:4758   */\n  dup4\n    /* \"#utility.yul\":4748:4767   */\n  lt\n    /* \"#utility.yul\":4745:4924   */\n  iszero\n  tag_141\n  jumpi\n    /* \"#utility.yul\":4818:4827   */\n  dup5\n    /* \"#utility.yul\":4813:4816   */\n  dup10\n    /* \"#utility.yul\":4809:4828   */\n  add\n    /* \"#utility.yul\":4803:4829   */\n  mload\n    /* \"#utility.yul\":4861:4909   */\n  tag_142\n    /* \"#utility.yul\":4903:4907   */\n  0x1f\n    /* \"#utility.yul\":4895:4901   */\n  dup10\n    /* \"#utility.yul\":4891:4908   */\n  and\n    /* \"#utility.yul\":4880:4889   */\n  dup3\n    /* \"#utility.yul\":4861:4909   */\n  tag_69\n  jump\t// in\ntag_142:\n    /* \"#utility.yul\":4853:4859   */\n  dup4\n    /* \"#utility.yul\":4846:4910   */\n  sstore\n    /* \"#utility.yul\":4768:4924   */\n  pop\n    /* \"#utility.yul\":4745:4924   */\ntag_141:\n    /* \"#utility.yul\":4970:4971   */\n  0x01\n    /* \"#utility.yul\":4966:4967   */\n  0x02\n    /* \"#utility.yul\":4958:4964   */\n  dup9\n    /* \"#utility.yul\":4954:4968   */\n  mul\n    /* \"#utility.yul\":4950:4972   */\n  add\n    /* \"#utility.yul\":4944:4948   */\n  dup9\n    /* \"#utility.yul\":4937:4973   */\n  sstore\n    /* \"#utility.yul\":4372:4983   */\n  pop\n  pop\n  pop\n    /* \"#utility.yul\":4335:5222   */\ntag_133:\n  pop\n    /* \"#utility.yul\":3925:5228   */\n  pop\n  pop\n  pop\n    /* \"#utility.yul\":3833:5228   */\n  pop\n  pop\n  jump\t// out\n    /* \"#utility.yul\":5234:5360   */\ntag_71:\n    /* \"#utility.yul\":5271:5278   */\n  0x00\n    /* \"#utility.yul\":5311:5353   */\n  0xffffffffffffffffffffffffffffffffffffffff\n    /* \"#utility.yul\":5304:5309   */\n  dup3\n    /* \"#utility.yul\":5300:5354   */\n  and\n    /* \"#utility.yul\":5289:5354   */\n  swap1\n  pop\n    /* \"#utility.yul\":5234:5360   */\n  swap2\n  swap1\n  pop\n  jump\t// out\n    /* \"#utility.yul\":5366:5462   */\ntag_72:\n    /* \"#utility.yul\":5403:5410   */\n  0x00\n    /* \"#utility.yul\":5432:5456   */\n  tag_145\n    /* \"#utility.yul\":5450:5455   */\n  dup3\n    /* \"#utility.yul\":5432:5456   */\n  tag_71\n  jump\t// in\ntag_145:\n    /* \"#utility.yul\":5421:5456   */\n  swap1\n  pop\n    /* \"#utility.yul\":5366:5462   */\n  swap2\n  swap1\n  pop\n  jump\t// out\n    /* \"#utility.yul\":5468:5586   */\ntag_73:\n    /* \"#utility.yul\":5555:5579   */\n  tag_147\n    /* \"#utility.yul\":5573:5578   */\n  dup2\n    /* \"#utility.yul\":5555:5579   */\n  tag_72\n  jump\t// in\ntag_147:\n    /* \"#utility.yul\":5550:5553   */\n  dup3\n    /* \"#utility.yul\":5543:5580   */\n  mstore\n    /* \"#utility.yul\":5468:5586   */\n  pop\n  pop\n  jump\t// out\n    /* \"#utility.yul\":5592:5814   */\ntag_13:\n    /* \"#utility.yul\":5685:5689   */\n  0x00\n    /* \"#utility.yul\":5723:5725   */\n  0x20\n    /* \"#utility.yul\":5712:5721   */\n  dup3\n    /* \"#utility.yul\":5708:5726   */\n  add\n    /* \"#utility.yul\":5700:5726   */\n  swap1\n  pop\n    /* \"#utility.yul\":5736:5807   */\n  tag_149\n    /* \"#utility.yul\":5804:5805   */\n  0x00\n    /* \"#utility.yul\":5793:5802   */\n  dup4\n    /* \"#utility.yul\":5789:5806   */\n  add\n    /* \"#utility.yul\":5780:5786   */\n  dup5\n    /* \"#utility.yul\":5736:5807   */\n  tag_73\n  jump\t// in\ntag_149:\n    /* \"#utility.yul\":5592:5814   */\n  swap3\n  swap2\n  pop\n  pop\n  jump\t// out\n    /* \"#utility.yul\":5901:6018   */\ntag_75:\n    /* \"#utility.yul\":6010:6011   */\n  0x00\n    /* \"#utility.yul\":6007:6008   */\n  dup1\n    /* \"#utility.yul\":6000:6012   */\n  revert\n    /* \"#utility.yul\":6147:6269   */\ntag_77:\n    /* \"#utility.yul\":6220:6244   */\n  tag_154\n    /* \"#utility.yul\":6238:6243   */\n  dup2\n    /* \"#utility.yul\":6220:6244   */\n  tag_72\n  jump\t// in\ntag_154:\n    /* \"#utility.yul\":6213:6218   */\n  dup2\n    /* \"#utility.yul\":6210:6245   */\n  eq\n    /* \"#utility.yul\":6200:6263   */\n  tag_155\n  jumpi\n    /* \"#utility.yul\":6259:6260   */\n  0x00\n    /* \"#utility.yul\":6256:6257   */\n  dup1\n    /* \"#utility.yul\":6249:6261   */\n  revert\n    /* \"#utility.yul\":6200:6263   */\ntag_155:\n    /* \"#utility.yul\":6147:6269   */\n  pop\n  jump\t// out\n    /* \"#utility.yul\":6275:6418   */\ntag_78:\n    /* \"#utility.yul\":6332:6337   */\n  0x00\n    /* \"#utility.yul\":6363:6369   */\n  dup2\n    /* \"#utility.yul\":6357:6370   */\n  mload\n    /* \"#utility.yul\":6348:6370   */\n  swap1\n  pop\n    /* \"#utility.yul\":6379:6412   */\n  tag_157\n    /* \"#utility.yul\":6406:6411   */\n  dup2\n    /* \"#utility.yul\":6379:6412   */\n  tag_77\n  jump\t// in\ntag_157:\n    /* \"#utility.yul\":6275:6418   */\n  swap3\n  swap2\n  pop\n  pop\n  jump\t// out\n    /* \"#utility.yul\":6424:6775   */\ntag_23:\n    /* \"#utility.yul\":6494:6500   */\n  0x00\n    /* \"#utility.yul\":6543:6545   */\n  0x20\n    /* \"#utility.yul\":6531:6540   */\n  dup3\n    /* \"#utility.yul\":6522:6529   */\n  dup5\n    /* \"#utility.yul\":6518:6541   */\n  sub\n    /* \"#utility.yul\":6514:6546   */\n  slt\n    /* \"#utility.yul\":6511:6630   */\n  iszero\n  tag_159\n  jumpi\n    /* \"#utility.yul\":6549:6628   */\n  tag_160\n  tag_75\n  jump\t// in\ntag_160:\n    /* \"#utility.yul\":6511:6630   */\ntag_159:\n    /* \"#utility.yul\":6669:6670   */\n  0x00\n    /* \"#utility.yul\":6694:6758   */\n  tag_161\n    /* \"#utility.yul\":6750:6757   */\n  dup5\n    /* \"#utility.yul\":6741:6747   */\n  dup3\n    /* \"#utility.yul\":6730:6739   */\n  dup6\n    /* \"#utility.yul\":6726:6748   */\n  add\n    /* \"#utility.yul\":6694:6758   */\n  tag_78\n  jump\t// in\ntag_161:\n    /* \"#utility.yul\":6684:6758   */\n  swap2\n  pop\n    /* \"#utility.yul\":6640:6768   */\n  pop\n    /* \"#utility.yul\":6424:6775   */\n  swap3\n  swap2\n  pop\n  pop\n  jump\t// out\n    /* \"#utility.yul\":6781:7113   */\ntag_28:\n    /* \"#utility.yul\":6902:6906   */\n  0x00\n    /* \"#utility.yul\":6940:6942   */\n  0x40\n    /* \"#utility.yul\":6929:6938   */\n  dup3\n    /* \"#utility.yul\":6925:6943   */\n  add\n    /* \"#utility.yul\":6917:6943   */\n  swap1\n  pop\n    /* \"#utility.yul\":6953:7024   */\n  tag_163\n    /* \"#utility.yul\":7021:7022   */\n  0x00\n    /* \"#utility.yul\":7010:7019   */\n  dup4\n    /* \"#utility.yul\":7006:7023   */\n  add\n    /* \"#utility.yul\":6997:7003   */\n  dup6\n    /* \"#utility.yul\":6953:7024   */\n  tag_73\n  jump\t// in\ntag_163:\n    /* \"#utility.yul\":7034:7106   */\n  tag_164\n    /* \"#utility.yul\":7102:7104   */\n  0x20\n    /* \"#utility.yul\":7091:7100   */\n  dup4\n    /* \"#utility.yul\":7087:7105   */\n  add\n    /* \"#utility.yul\":7078:7084   */\n  dup5\n    /* \"#utility.yul\":7034:7106   */\n  tag_73\n  jump\t// in\ntag_164:\n    /* \"#utility.yul\":6781:7113   */\n  swap4\n  swap3\n  pop\n  pop\n  pop\n  jump\t// out\n    /* \"#utility.yul\":7119:7299   */\ntag_79:\n    /* \"#utility.yul\":7167:7244   */\n  0x4e487b7100000000000000000000000000000000000000000000000000000000\n    /* \"#utility.yul\":7164:7165   */\n  0x00\n    /* \"#utility.yul\":7157:7245   */\n  mstore\n    /* \"#utility.yul\":7264:7268   */\n  0x11\n    /* \"#utility.yul\":7261:7262   */\n  0x04\n    /* \"#utility.yul\":7254:7269   */\n  mstore\n    /* \"#utility.yul\":7288:7292   */\n  0x24\n    /* \"#utility.yul\":7285:7286   */\n  0x00\n    /* \"#utility.yul\":7278:7293   */\n  revert\n    /* \"#utility.yul\":7305:7496   */\ntag_42:\n    /* \"#utility.yul\":7345:7348   */\n  0x00\n    /* \"#utility.yul\":7364:7384   */\n  tag_167\n    /* \"#utility.yul\":7382:7383   */\n  dup3\n    /* \"#utility.yul\":7364:7384   */\n  tag_59\n  jump\t// in\ntag_167:\n    /* \"#utility.yul\":7359:7384   */\n  swap2\n  pop\n    /* \"#utility.yul\":7398:7418   */\n  tag_168\n    /* \"#utility.yul\":7416:7417   */\n  dup4\n    /* \"#utility.yul\":7398:7418   */\n  tag_59\n  jump\t// in\ntag_168:\n    /* \"#utility.yul\":7393:7418   */\n  swap3\n  pop\n    /* \"#utility.yul\":7441:7442   */\n  dup3\n    /* \"#utility.yul\":7438:7439   */\n  dup3\n    /* \"#utility.yul\":7434:7443   */\n  add\n    /* \"#utility.yul\":7427:7443   */\n  swap1\n  pop\n    /* \"#utility.yul\":7462:7465   */\n  dup1\n    /* \"#utility.yul\":7459:7460   */\n  dup3\n    /* \"#utility.yul\":7456:7466   */\n  gt\n    /* \"#utility.yul\":7453:7489   */\n  iszero\n  tag_169\n  jumpi\n    /* \"#utility.yul\":7469:7487   */\n  tag_170\n  tag_79\n  jump\t// in\ntag_170:\n    /* \"#utility.yul\":7453:7489   */\ntag_169:\n    /* \"#utility.yul\":7305:7496   */\n  swap3\n  swap2\n  pop\n  pop\n  jump\t// out\n    /* \"#utility.yul\":7502:7620   */\ntag_80:\n    /* \"#utility.yul\":7589:7613   */\n  tag_172\n    /* \"#utility.yul\":7607:7612   */\n  dup2\n    /* \"#utility.yul\":7589:7613   */\n  tag_59\n  jump\t// in\ntag_172:\n    /* \"#utility.yul\":7584:7587   */\n  dup3\n    /* \"#utility.yul\":7577:7614   */\n  mstore\n    /* \"#utility.yul\":7502:7620   */\n  pop\n  pop\n  jump\t// out\n    /* \"#utility.yul\":7626:8068   */\ntag_46:\n    /* \"#utility.yul\":7775:7779   */\n  0x00\n    /* \"#utility.yul\":7813:7815   */\n  0x60\n    /* \"#utility.yul\":7802:7811   */\n  dup3\n    /* \"#utility.yul\":7798:7816   */\n  add\n    /* \"#utility.yul\":7790:7816   */\n  swap1\n  pop\n    /* \"#utility.yul\":7826:7897   */\n  tag_174\n    /* \"#utility.yul\":7894:7895   */\n  0x00\n    /* \"#utility.yul\":7883:7892   */\n  dup4\n    /* \"#utility.yul\":7879:7896   */\n  add\n    /* \"#utility.yul\":7870:7876   */\n  dup7\n    /* \"#utility.yul\":7826:7897   */\n  tag_73\n  jump\t// in\ntag_174:\n    /* \"#utility.yul\":7907:7979   */\n  tag_175\n    /* \"#utility.yul\":7975:7977   */\n  0x20\n    /* \"#utility.yul\":7964:7973   */\n  dup4\n    /* \"#utility.yul\":7960:7978   */\n  add\n    /* \"#utility.yul\":7951:7957   */\n  dup6\n    /* \"#utility.yul\":7907:7979   */\n  tag_80\n  jump\t// in\ntag_175:\n    /* \"#utility.yul\":7989:8061   */\n  tag_176\n    /* \"#utility.yul\":8057:8059   */\n  0x40\n    /* \"#utility.yul\":8046:8055   */\n  dup4\n    /* \"#utility.yul\":8042:8060   */\n  add\n    /* \"#utility.yul\":8033:8039   */\n  dup5\n    /* \"#utility.yul\":7989:8061   */\n  tag_80\n  jump\t// in\ntag_176:\n    /* \"#utility.yul\":7626:8068   */\n  swap5\n  swap4\n  pop\n  pop\n  pop\n  pop\n  jump\t// out\n    /* \"#utility.yul\":8074:8296   */\ntag_50:\n    /* \"#utility.yul\":8167:8171   */\n  0x00\n    /* \"#utility.yul\":8205:8207   */\n  0x20\n    /* \"#utility.yul\":8194:8203   */\n  dup3\n    /* \"#utility.yul\":8190:8208   */\n  add\n    /* \"#utility.yul\":8182:8208   */\n  swap1\n  pop\n    /* \"#utility.yul\":8218:8289   */\n  tag_178\n    /* \"#utility.yul\":8286:8287   */\n  0x00\n    /* \"#utility.yul\":8275:8284   */\n  dup4\n    /* \"#utility.yul\":8271:8288   */\n  add\n    /* \"#utility.yul\":8262:8268   */\n  dup5\n    /* \"#utility.yul\":8218:8289   */\n  tag_80\n  jump\t// in\ntag_178:\n    /* \"#utility.yul\":8074:8296   */\n  swap3\n  swap2\n  pop\n  pop\n  jump\t// out\n    /* \"AutomatorCoin.sol\":931:6766  contract ATC is ERC20, Ownable, ReentrancyGuard {... */\ntag_32:\n  dataSize(sub_0)\n  dup1\n  dataOffset(sub_0)\n  0x00\n  codecopy\n  0x00\n  return\nstop\n\nsub_0: assembly {\n        /* \"AutomatorCoin.sol\":931:6766  contract ATC is ERC20, Ownable, ReentrancyGuard {... */\n      mstore(0x40, 0x80)\n      jumpi(tag_1, lt(calldatasize, 0x04))\n      shr(0xe0, calldataload(0x00))\n      dup1\n      0x70a08231\n      gt\n      tag_34\n      jumpi\n      dup1\n      0xa3342fba\n      gt\n      tag_35\n      jumpi\n      dup1\n      0xd862686b\n      gt\n      tag_36\n      jumpi\n      dup1\n      0xd862686b\n      eq\n      tag_30\n      jumpi\n      dup1\n      0xdd62ed3e\n      eq\n      tag_31\n      jumpi\n      dup1\n      0xf2fde38b\n      eq\n      tag_32\n      jumpi\n      dup1\n      0xf887ea40\n      eq\n      tag_33\n      jumpi\n      jump(tag_2)\n    tag_36:\n      dup1\n      0xa3342fba\n      eq\n      tag_26\n      jumpi\n      dup1\n      0xa8aa1b31\n      eq\n      tag_27\n      jumpi\n      dup1\n      0xa9059cbb\n      eq\n      tag_28\n      jumpi\n      dup1\n      0xcb963728\n      eq\n      tag_29\n      jumpi\n      jump(tag_2)\n    tag_35:\n      dup1\n      0x8da5cb5b\n      gt\n      tag_37\n      jumpi\n      dup1\n      0x8da5cb5b\n      eq\n      tag_22\n      jumpi\n      dup1\n      0x8ea5220f\n      eq\n      tag_23\n      jumpi\n      dup1\n      0x95d89b41\n      eq\n      tag_24\n      jumpi\n      dup1\n      0x9d0014b1\n      eq\n      tag_25\n      jumpi\n      jump(tag_2)\n    tag_37:\n      dup1\n      0x70a08231\n      eq\n      tag_18\n      jumpi\n      dup1\n      0x715018a6\n      eq\n      tag_19\n      jumpi\n      dup1\n      0x75f0a874\n      eq\n      tag_20\n      jumpi\n      dup1\n      0x8a8c523c\n      eq\n      tag_21\n      jumpi\n      jump(tag_2)\n    tag_34:\n      dup1\n      0x1de3b450\n      gt\n      tag_38\n      jumpi\n      dup1\n      0x5342acb4\n      gt\n      tag_39\n      jumpi\n      dup1\n      0x5342acb4\n      eq\n      tag_14\n      jumpi\n      dup1\n      0x54ad8aee\n      eq\n      tag_15\n      jumpi\n      dup1\n      0x6612e66f\n      eq\n      tag_16\n      jumpi\n      dup1\n      0x665c6de9\n      eq\n      tag_17\n      jumpi\n      jump(tag_2)\n    tag_39:\n      dup1\n      0x1de3b450\n      eq\n      tag_10\n      jumpi\n      dup1\n      0x23b872dd\n      eq\n      tag_11\n      jumpi\n      dup1\n      0x313ce567\n      eq\n      tag_12\n      jumpi\n      dup1\n      0x4ada218b\n      eq\n      tag_13\n      jumpi\n      jump(tag_2)\n    tag_38:\n      dup1\n      0x095ea7b3\n      gt\n      tag_40\n      jumpi\n      dup1\n      0x095ea7b3\n      eq\n      tag_6\n      jumpi\n      dup1\n      0x147c9f6d\n      eq\n      tag_7\n      jumpi\n      dup1\n      0x18160ddd\n      eq\n      tag_8\n      jumpi\n      dup1\n      0x1d2cb02d\n      eq\n      tag_9\n      jumpi\n      jump(tag_2)\n    tag_40:\n      dup1\n      0x02af37bb\n      eq\n      tag_3\n      jumpi\n      dup1\n      0x0445b667\n      eq\n      tag_4\n      jumpi\n      dup1\n      0x06fdde03\n      eq\n      tag_5\n      jumpi\n      jump(tag_2)\n    tag_1:\n      jumpi(tag_2, calldatasize)\n      stop\n    tag_2:\n      0x00\n      dup1\n      revert\n        /* \"AutomatorCoin.sol\":1078:1116  uint256 public constant BUY_TAX = 2500 */\n    tag_3:\n      callvalue\n      dup1\n      iszero\n      tag_43\n      jumpi\n      0x00\n      dup1\n      revert\n    tag_43:\n      pop\n      tag_44\n      tag_45\n      jump\t// in\n    tag_44:\n      mload(0x40)\n      tag_46\n      swap2\n      swap1\n      tag_47\n      jump\t// in\n    tag_46:\n      mload(0x40)\n      dup1\n      swap2\n      sub\n      swap1\n      return\n        /* \"AutomatorCoin.sol\":1597:1643  uint256 public swapThreshold = 50_000 * 10**18 */\n    tag_4:\n      callvalue\n      dup1\n      iszero\n      tag_48\n      jumpi\n      0x00\n      dup1\n      revert\n    tag_48:\n      pop\n      tag_49\n      tag_50\n      jump\t// in\n    tag_49:\n      mload(0x40)\n      tag_51\n      swap2\n      swap1\n      tag_47\n      jump\t// in\n    tag_51:\n      mload(0x40)\n      dup1\n      swap2\n      sub\n      swap1\n      return\n        /* \"@openzeppelin/contracts/token/ERC20/ERC20.sol\":1760:1849  function name() public view virtual returns (string memory) {... */\n    tag_5:\n      callvalue\n      dup1\n      iszero\n      tag_52\n      jumpi\n      0x00\n      dup1\n      revert\n    tag_52:\n      pop\n      tag_53\n      tag_54\n      jump\t// in\n    tag_53:\n      mload(0x40)\n      tag_55\n      swap2\n      swap1\n      tag_56\n      jump\t// in\n    tag_55:\n      mload(0x40)\n      dup1\n      swap2\n      sub\n      swap1\n      return\n        /* \"@openzeppelin/contracts/token/ERC20/ERC20.sol\":3979:4165  function approve(address spender, uint256 value) public virtual returns (bool) {... */\n    tag_6:\n      callvalue\n      dup1\n      iszero\n      tag_57\n      jumpi\n      0x00\n      dup1\n      revert\n    tag_57:\n      pop\n      tag_58\n      0x04\n      dup1\n      calldatasize\n      sub\n      dup2\n      add\n      swap1\n      tag_59\n      swap2\n      swap1\n      tag_60\n      jump\t// in\n    tag_59:\n      tag_61\n      jump\t// in\n    tag_58:\n      mload(0x40)\n      tag_62\n      swap2\n      swap1\n      tag_63\n      jump\t// in\n    tag_62:\n      mload(0x40)\n      dup1\n      swap2\n      sub\n      swap1\n      return\n        /* \"AutomatorCoin.sol\":5920:6260  function updateWallets(address _dev, address _artist, address _marketing) external onlyOwner {... */\n    tag_7:\n      callvalue\n      dup1\n      iszero\n      tag_64\n      jumpi\n      0x00\n      dup1\n      revert\n    tag_64:\n      pop\n      tag_65\n      0x04\n      dup1\n      calldatasize\n      sub\n      dup2\n      add\n      swap1\n      tag_66\n      swap2\n      swap1\n      tag_67\n      jump\t// in\n    tag_66:\n      tag_68\n      jump\t// in\n    tag_65:\n      stop\n        /* \"@openzeppelin/contracts/token/ERC20/ERC20.sol\":2830:2927  function totalSupply() public view virtual returns (uint256) {... */\n    tag_8:\n      callvalue\n      dup1\n      iszero\n      tag_69\n      jumpi\n      0x00\n      dup1\n      revert\n    tag_69:\n      pop\n      tag_70\n      tag_71\n      jump\t// in\n    tag_70:\n      mload(0x40)\n      tag_72\n      swap2\n      swap1\n      tag_47\n      jump\t// in\n    tag_72:\n      mload(0x40)\n      dup1\n      swap2\n      sub\n      swap1\n      return\n        /* \"AutomatorCoin.sol\":1408:1441  uint256 public marketingTax = 500 */\n    tag_9:\n      callvalue\n      dup1\n      iszero\n      tag_73\n      jumpi\n      0x00\n      dup1\n      revert\n    tag_73:\n      pop\n      tag_74\n      tag_75\n      jump\t// in\n    tag_74:\n      mload(0x40)\n      tag_76\n      swap2\n      swap1\n      tag_47\n      jump\t// in\n    tag_76:\n      mload(0x40)\n      dup1\n      swap2\n      sub\n      swap1\n      return\n        /* \"AutomatorCoin.sol\":1260:1286  uint256 public lpTax = 500 */\n    tag_10:\n      callvalue\n      dup1\n      iszero\n      tag_77\n      jumpi\n      0x00\n      dup1\n      revert\n    tag_77:\n      pop\n      tag_78\n      tag_79\n      jump\t// in\n    tag_78:\n      mload(0x40)\n      tag_80\n      swap2\n      swap1\n      tag_47\n      jump\t// in\n    tag_80:\n      mload(0x40)\n      dup1\n      swap2\n      sub\n      swap1\n      return\n        /* \"AutomatorCoin.sol\":2925:3199  function transferFrom(address sender, address recipient, uint256 amount) public override returns (bool) {... */\n    tag_11:\n      callvalue\n      dup1\n      iszero\n      tag_81\n      jumpi\n      0x00\n      dup1\n      revert\n    tag_81:\n      pop\n      tag_82\n      0x04\n      dup1\n      calldatasize\n      sub\n      dup2\n      add\n      swap1\n      tag_83\n      swap2\n      swap1\n      tag_84\n      jump\t// in\n    tag_83:\n      tag_85\n      jump\t// in\n    tag_82:\n      mload(0x40)\n      tag_86\n      swap2\n      swap1\n      tag_63\n      jump\t// in\n    tag_86:\n      mload(0x40)\n      dup1\n      swap2\n      sub\n      swap1\n      return\n        /* \"@openzeppelin/contracts/token/ERC20/ERC20.sol\":2688:2770  function decimals() public view virtual returns (uint8) {... */\n    tag_12:\n      callvalue\n      dup1\n      iszero\n      tag_87\n      jumpi\n      0x00\n      dup1\n      revert\n    tag_87:\n      pop\n      tag_88\n      tag_89\n      jump\t// in\n    tag_88:\n      mload(0x40)\n      tag_90\n      swap2\n      swap1\n      tag_91\n      jump\t// in\n    tag_90:\n      mload(0x40)\n      dup1\n      swap2\n      sub\n      swap1\n      return\n        /* \"AutomatorCoin.sol\":1700:1726  bool public tradingEnabled */\n    tag_13:\n      callvalue\n      dup1\n      iszero\n      tag_92\n      jumpi\n      0x00\n      dup1\n      revert\n    tag_92:\n      pop\n      tag_93\n      tag_94\n      jump\t// in\n    tag_93:\n      mload(0x40)\n      tag_95\n      swap2\n      swap1\n      tag_63\n      jump\t// in\n    tag_95:\n      mload(0x40)\n      dup1\n      swap2\n      sub\n      swap1\n      return\n        /* \"AutomatorCoin.sol\":1732:1781  mapping(address => bool) public isExcludedFromFee */\n    tag_14:\n      callvalue\n      dup1\n      iszero\n      tag_96\n      jumpi\n      0x00\n      dup1\n      revert\n    tag_96:\n      pop\n      tag_97\n      0x04\n      dup1\n      calldatasize\n      sub\n      dup2\n      add\n      swap1\n      tag_98\n      swap2\n      swap1\n      tag_99\n      jump\t// in\n    tag_98:\n      tag_100\n      jump\t// in\n    tag_97:\n      mload(0x40)\n      tag_101\n      swap2\n      swap1\n      tag_63\n      jump\t// in\n    tag_101:\n      mload(0x40)\n      dup1\n      swap2\n      sub\n      swap1\n      return\n        /* \"AutomatorCoin.sol\":1129:1168  uint256 public constant SELL_TAX = 2500 */\n    tag_15:\n      callvalue\n      dup1\n      iszero\n      tag_102\n      jumpi\n      0x00\n      dup1\n      revert\n    tag_102:\n      pop\n      tag_103\n      tag_104\n      jump\t// in\n    tag_103:\n      mload(0x40)\n      tag_105\n      swap2\n      swap1\n      tag_47\n      jump\t// in\n    tag_105:\n      mload(0x40)\n      dup1\n      swap2\n      sub\n      swap1\n      return\n        /* \"AutomatorCoin.sol\":6266:6399  function setExcludedFromFee(address account, bool excluded) external onlyOwner {... */\n    tag_16:\n      callvalue\n      dup1\n      iszero\n      tag_106\n      jumpi\n      0x00\n      dup1\n      revert\n    tag_106:\n      pop\n      tag_107\n      0x04\n      dup1\n      calldatasize\n      sub\n      dup2\n      add\n      swap1\n      tag_108\n      swap2\n      swap1\n      tag_109\n      jump\t// in\n    tag_108:\n      tag_110\n      jump\t// in\n    tag_107:\n      stop\n        /* \"AutomatorCoin.sol\":1309:1337  uint256 public devTax = 1000 */\n    tag_17:\n      callvalue\n      dup1\n      iszero\n      tag_111\n      jumpi\n      0x00\n      dup1\n      revert\n    tag_111:\n      pop\n      tag_112\n      tag_113\n      jump\t// in\n    tag_112:\n      mload(0x40)\n      tag_114\n      swap2\n      swap1\n      tag_47\n      jump\t// in\n    tag_114:\n      mload(0x40)\n      dup1\n      swap2\n      sub\n      swap1\n      return\n        /* \"@openzeppelin/contracts/token/ERC20/ERC20.sol\":2985:3101  function balanceOf(address account) public view virtual returns (uint256) {... */\n    tag_18:\n      callvalue\n      dup1\n      iszero\n      tag_115\n      jumpi\n      0x00\n      dup1\n      revert\n    tag_115:\n      pop\n      tag_116\n      0x04\n      dup1\n      calldatasize\n      sub\n      dup2\n      add\n      swap1\n      tag_117\n      swap2\n      swap1\n      tag_99\n      jump\t// in\n    tag_117:\n      tag_118\n      jump\t// in\n    tag_116:\n      mload(0x40)\n      tag_119\n      swap2\n      swap1\n      tag_47\n      jump\t// in\n    tag_119:\n      mload(0x40)\n      dup1\n      swap2\n      sub\n      swap1\n      return\n        /* \"@openzeppelin/contracts/access/Ownable.sol\":2293:2394  function renounceOwnership() public virtual onlyOwner {... */\n    tag_19:\n      callvalue\n      dup1\n      iszero\n      tag_120\n      jumpi\n      0x00\n      dup1\n      revert\n    tag_120:\n      pop\n      tag_121\n      tag_122\n      jump\t// in\n    tag_121:\n      stop\n        /* \"AutomatorCoin.sol\":1539:1569  address public marketingWallet */\n    tag_20:\n      callvalue\n      dup1\n      iszero\n      tag_123\n      jumpi\n      0x00\n      dup1\n      revert\n    tag_123:\n      pop\n      tag_124\n      tag_125\n      jump\t// in\n    tag_124:\n      mload(0x40)\n      tag_126\n      swap2\n      swap1\n      tag_127\n      jump\t// in\n    tag_126:\n      mload(0x40)\n      dup1\n      swap2\n      sub\n      swap1\n      return\n        /* \"AutomatorCoin.sol\":5832:5914  function enableTrading() external onlyOwner {... */\n    tag_21:\n      callvalue\n      dup1\n      iszero\n      tag_128\n      jumpi\n      0x00\n      dup1\n      revert\n    tag_128:\n      pop\n      tag_129\n      tag_130\n      jump\t// in\n    tag_129:\n      stop\n        /* \"@openzeppelin/contracts/access/Ownable.sol\":1638:1723  function owner() public view virtual returns (address) {... */\n    tag_22:\n      callvalue\n      dup1\n      iszero\n      tag_131\n      jumpi\n      0x00\n      dup1\n      revert\n    tag_131:\n      pop\n      tag_132\n      tag_133\n      jump\t// in\n    tag_132:\n      mload(0x40)\n      tag_134\n      swap2\n      swap1\n      tag_127\n      jump\t// in\n    tag_134:\n      mload(0x40)\n      dup1\n      swap2\n      sub\n      swap1\n      return\n        /* \"AutomatorCoin.sol\":1476:1500  address public devWallet */\n    tag_23:\n      callvalue\n      dup1\n      iszero\n      tag_135\n      jumpi\n      0x00\n      dup1\n      revert\n    tag_135:\n      pop\n      tag_136\n      tag_137\n      jump\t// in\n    tag_136:\n      mload(0x40)\n      tag_138\n      swap2\n      swap1\n      tag_127\n      jump\t// in\n    tag_138:\n      mload(0x40)\n      dup1\n      swap2\n      sub\n      swap1\n      return\n        /* \"@openzeppelin/contracts/token/ERC20/ERC20.sol\":1962:2055  function symbol() public view virtual returns (string memory) {... */\n    tag_24:\n      callvalue\n      dup1\n      iszero\n      tag_139\n      jumpi\n      0x00\n      dup1\n      revert\n    tag_139:\n      pop\n      tag_140\n      tag_141\n      jump\t// in\n    tag_140:\n      mload(0x40)\n      tag_142\n      swap2\n      swap1\n      tag_56\n      jump\t// in\n    tag_142:\n      mload(0x40)\n      dup1\n      swap2\n      sub\n      swap1\n      return\n        /* \"AutomatorCoin.sol\":6405:6505  function setSwapThreshold(uint256 amount) external onlyOwner {... */\n    tag_25:\n      callvalue\n      dup1\n      iszero\n      tag_143\n      jumpi\n      0x00\n      dup1\n      revert\n    tag_143:\n      pop\n      tag_144\n      0x04\n      dup1\n      calldatasize\n      sub\n      dup2\n      add\n      swap1\n      tag_145\n      swap2\n      swap1\n      tag_146\n      jump\t// in\n    tag_145:\n      tag_147\n      jump\t// in\n    tag_144:\n      stop\n        /* \"AutomatorCoin.sol\":1506:1533  address public artistWallet */\n    tag_26:\n      callvalue\n      dup1\n      iszero\n      tag_148\n      jumpi\n      0x00\n      dup1\n      revert\n    tag_148:\n      pop\n      tag_149\n      tag_150\n      jump\t// in\n    tag_149:\n      mload(0x40)\n      tag_151\n      swap2\n      swap1\n      tag_127\n      jump\t// in\n    tag_151:\n      mload(0x40)\n      dup1\n      swap2\n      sub\n      swap1\n      return\n        /* \"AutomatorCoin.sol\":1019:1038  address public pair */\n    tag_27:\n      callvalue\n      dup1\n      iszero\n      tag_152\n      jumpi\n      0x00\n      dup1\n      revert\n    tag_152:\n      pop\n      tag_153\n      tag_154\n      jump\t// in\n    tag_153:\n      mload(0x40)\n      tag_155\n      swap2\n      swap1\n      tag_127\n      jump\t// in\n    tag_155:\n      mload(0x40)\n      dup1\n      swap2\n      sub\n      swap1\n      return\n        /* \"AutomatorCoin.sol\":2749:2919  function transfer(address recipient, uint256 amount) public override returns (bool) {... */\n    tag_28:\n      callvalue\n      dup1\n      iszero\n      tag_156\n      jumpi\n      0x00\n      dup1\n      revert\n    tag_156:\n      pop\n      tag_157\n      0x04\n      dup1\n      calldatasize\n      sub\n      dup2\n      add\n      swap1\n      tag_158\n      swap2\n      swap1\n      tag_60\n      jump\t// in\n    tag_158:\n      tag_159\n      jump\t// in\n    tag_157:\n      mload(0x40)\n      tag_160\n      swap2\n      swap1\n      tag_63\n      jump\t// in\n    tag_160:\n      mload(0x40)\n      dup1\n      swap2\n      sub\n      swap1\n      return\n        /* \"AutomatorCoin.sol\":6511:6729  function withdrawStuckTokens(address token) external onlyOwner {... */\n    tag_29:\n      callvalue\n      dup1\n      iszero\n      tag_161\n      jumpi\n      0x00\n      dup1\n      revert\n    tag_161:\n      pop\n      tag_162\n      0x04\n      dup1\n      calldatasize\n      sub\n      dup2\n      add\n      swap1\n      tag_163\n      swap2\n      swap1\n      tag_99\n      jump\t// in\n    tag_163:\n      tag_164\n      jump\t// in\n    tag_162:\n      stop\n        /* \"AutomatorCoin.sol\":1359:1389  uint256 public artistTax = 500 */\n    tag_30:\n      callvalue\n      dup1\n      iszero\n      tag_165\n      jumpi\n      0x00\n      dup1\n      revert\n    tag_165:\n      pop\n      tag_166\n      tag_167\n      jump\t// in\n    tag_166:\n      mload(0x40)\n      tag_168\n      swap2\n      swap1\n      tag_47\n      jump\t// in\n    tag_168:\n      mload(0x40)\n      dup1\n      swap2\n      sub\n      swap1\n      return\n        /* \"@openzeppelin/contracts/token/ERC20/ERC20.sol\":3532:3672  function allowance(address owner, address spender) public view virtual returns (uint256) {... */\n    tag_31:\n      callvalue\n      dup1\n      iszero\n      tag_169\n      jumpi\n      0x00\n      dup1\n      revert\n    tag_169:\n      pop\n      tag_170\n      0x04\n      dup1\n      calldatasize\n      sub\n      dup2\n      add\n      swap1\n      tag_171\n      swap2\n      swap1\n      tag_172\n      jump\t// in\n    tag_171:\n      tag_173\n      jump\t// in\n    tag_170:\n      mload(0x40)\n      tag_174\n      swap2\n      swap1\n      tag_47\n      jump\t// in\n    tag_174:\n      mload(0x40)\n      dup1\n      swap2\n      sub\n      swap1\n      return\n        /* \"@openzeppelin/contracts/access/Ownable.sol\":2543:2758  function transferOwnership(address newOwner) public virtual onlyOwner {... */\n    tag_32:\n      callvalue\n      dup1\n      iszero\n      tag_175\n      jumpi\n      0x00\n      dup1\n      revert\n    tag_175:\n      pop\n      tag_176\n      0x04\n      dup1\n      calldatasize\n      sub\n      dup2\n      add\n      swap1\n      tag_177\n      swap2\n      swap1\n      tag_99\n      jump\t// in\n    tag_177:\n      tag_178\n      jump\t// in\n    tag_176:\n      stop\n        /* \"AutomatorCoin.sol\":985:1013  IPancakeRouter public router */\n    tag_33:\n      callvalue\n      dup1\n      iszero\n      tag_179\n      jumpi\n      0x00\n      dup1\n      revert\n    tag_179:\n      pop\n      tag_180\n      tag_181\n      jump\t// in\n    tag_180:\n      mload(0x40)\n      tag_182\n      swap2\n      swap1\n      tag_183\n      jump\t// in\n    tag_182:\n      mload(0x40)\n      dup1\n      swap2\n      sub\n      swap1\n      return\n        /* \"AutomatorCoin.sol\":1078:1116  uint256 public constant BUY_TAX = 2500 */\n    tag_45:\n        /* \"AutomatorCoin.sol\":1112:1116  2500 */\n      0x09c4\n        /* \"AutomatorCoin.sol\":1078:1116  uint256 public constant BUY_TAX = 2500 */\n      dup2\n      jump\t// out\n        /* \"AutomatorCoin.sol\":1597:1643  uint256 public swapThreshold = 50_000 * 10**18 */\n    tag_50:\n      sload(0x10)\n      dup2\n      jump\t// out\n        /* \"@openzeppelin/contracts/token/ERC20/ERC20.sol\":1760:1849  function name() public view virtual returns (string memory) {... */\n    tag_54:\n        /* \"@openzeppelin/contracts/token/ERC20/ERC20.sol\":1805:1818  string memory */\n      0x60\n        /* \"@openzeppelin/contracts/token/ERC20/ERC20.sol\":1837:1842  _name */\n      0x03\n        /* \"@openzeppelin/contracts/token/ERC20/ERC20.sol\":1830:1842  return _name */\n      dup1\n      sload\n      tag_185\n      swap1\n      tag_186\n      jump\t// in\n    tag_185:\n      dup1\n      0x1f\n      add\n      0x20\n      dup1\n      swap2\n      div\n      mul\n      0x20\n      add\n      mload(0x40)\n      swap1\n      dup2\n      add\n      0x40\n      mstore\n      dup1\n      swap3\n      swap2\n      swap1\n      dup2\n      dup2\n      mstore\n      0x20\n      add\n      dup3\n      dup1\n      sload\n      tag_187\n      swap1\n      tag_186\n      jump\t// in\n    tag_187:\n      dup1\n      iszero\n      tag_188\n      jumpi\n      dup1\n      0x1f\n      lt\n      tag_189\n      jumpi\n      0x0100\n      dup1\n      dup4\n      sload\n      div\n      mul\n      dup4\n      mstore\n      swap2\n      0x20\n      add\n      swap2\n      jump(tag_188)\n    tag_189:\n      dup3\n      add\n      swap2\n      swap1\n      0x00\n      mstore\n      keccak256(0x00, 0x20)\n      swap1\n    tag_190:\n      dup2\n      sload\n      dup2\n      mstore\n      swap1\n      0x01\n      add\n      swap1\n      0x20\n      add\n      dup1\n      dup4\n      gt\n      tag_190\n      jumpi\n      dup3\n      swap1\n      sub\n      0x1f\n      and\n      dup3\n      add\n      swap2\n    tag_188:\n      pop\n      pop\n      pop\n      pop\n      pop\n      swap1\n      pop\n        /* \"@openzeppelin/contracts/token/ERC20/ERC20.sol\":1760:1849  function name() public view virtual returns (string memory) {... */\n      swap1\n      jump\t// out\n        /* \"@openzeppelin/contracts/token/ERC20/ERC20.sol\":3979:4165  function approve(address spender, uint256 value) public virtual returns (bool) {... */\n    tag_61:\n        /* \"@openzeppelin/contracts/token/ERC20/ERC20.sol\":4052:4056  bool */\n      0x00\n        /* \"@openzeppelin/contracts/token/ERC20/ERC20.sol\":4068:4081  address owner */\n      dup1\n        /* \"@openzeppelin/contracts/token/ERC20/ERC20.sol\":4084:4096  _msgSender() */\n      tag_192\n        /* \"@openzeppelin/contracts/token/ERC20/ERC20.sol\":4084:4094  _msgSender */\n      tag_193\n        /* \"@openzeppelin/contracts/token/ERC20/ERC20.sol\":4084:4096  _msgSender() */\n      jump\t// in\n    tag_192:\n        /* \"@openzeppelin/contracts/token/ERC20/ERC20.sol\":4068:4096  address owner = _msgSender() */\n      swap1\n      pop\n        /* \"@openzeppelin/contracts/token/ERC20/ERC20.sol\":4106:4137  _approve(owner, spender, value) */\n      tag_194\n        /* \"@openzeppelin/contracts/token/ERC20/ERC20.sol\":4115:4120  owner */\n      dup2\n        /* \"@openzeppelin/contracts/token/ERC20/ERC20.sol\":4122:4129  spender */\n      dup6\n        /* \"@openzeppelin/contracts/token/ERC20/ERC20.sol\":4131:4136  value */\n      dup6\n        /* \"@openzeppelin/contracts/token/ERC20/ERC20.sol\":4106:4114  _approve */\n      tag_195\n        /* \"@openzeppelin/contracts/token/ERC20/ERC20.sol\":4106:4137  _approve(owner, spender, value) */\n      jump\t// in\n    tag_194:\n        /* \"@openzeppelin/contracts/token/ERC20/ERC20.sol\":4154:4158  true */\n      0x01\n        /* \"@openzeppelin/contracts/token/ERC20/ERC20.sol\":4147:4158  return true */\n      swap2\n      pop\n      pop\n        /* \"@openzeppelin/contracts/token/ERC20/ERC20.sol\":3979:4165  function approve(address spender, uint256 value) public virtual returns (bool) {... */\n      swap3\n      swap2\n      pop\n      pop\n      jump\t// out\n        /* \"AutomatorCoin.sol\":5920:6260  function updateWallets(address _dev, address _artist, address _marketing) external onlyOwner {... */\n    tag_68:\n        /* \"@openzeppelin/contracts/access/Ownable.sol\":1531:1544  _checkOwner() */\n      tag_197\n        /* \"@openzeppelin/contracts/access/Ownable.sol\":1531:1542  _checkOwner */\n      tag_198\n        /* \"@openzeppelin/contracts/access/Ownable.sol\":1531:1544  _checkOwner() */\n      jump\t// in\n    tag_197:\n        /* \"AutomatorCoin.sol\":6035:6039  _dev */\n      dup3\n        /* \"AutomatorCoin.sol\":6023:6032  devWallet */\n      0x0d\n      0x00\n        /* \"AutomatorCoin.sol\":6023:6039  devWallet = _dev */\n      0x0100\n      exp\n      dup2\n      sload\n      dup2\n      0xffffffffffffffffffffffffffffffffffffffff\n      mul\n      not\n      and\n      swap1\n      dup4\n      0xffffffffffffffffffffffffffffffffffffffff\n      and\n      mul\n      or\n      swap1\n      sstore\n      pop\n        /* \"AutomatorCoin.sol\":6064:6071  _artist */\n      dup2\n        /* \"AutomatorCoin.sol\":6049:6061  artistWallet */\n      0x0e\n      0x00\n        /* \"AutomatorCoin.sol\":6049:6071  artistWallet = _artist */\n      0x0100\n      exp\n      dup2\n      sload\n      dup2\n      0xffffffffffffffffffffffffffffffffffffffff\n      mul\n      not\n      and\n      swap1\n      dup4\n      0xffffffffffffffffffffffffffffffffffffffff\n      and\n      mul\n      or\n      swap1\n      sstore\n      pop\n        /* \"AutomatorCoin.sol\":6099:6109  _marketing */\n      dup1\n        /* \"AutomatorCoin.sol\":6081:6096  marketingWallet */\n      0x0f\n      0x00\n        /* \"AutomatorCoin.sol\":6081:6109  marketingWallet = _marketing */\n      0x0100\n      exp\n      dup2\n      sload\n      dup2\n      0xffffffffffffffffffffffffffffffffffffffff\n      mul\n      not\n      and\n      swap1\n      dup4\n      0xffffffffffffffffffffffffffffffffffffffff\n      and\n      mul\n      or\n      swap1\n      sstore\n      pop\n        /* \"AutomatorCoin.sol\":6150:6154  true */\n      0x01\n        /* \"AutomatorCoin.sol\":6119:6136  isExcludedFromFee */\n      0x12\n        /* \"AutomatorCoin.sol\":6119:6147  isExcludedFromFee[devWallet] */\n      0x00\n        /* \"AutomatorCoin.sol\":6137:6146  devWallet */\n      0x0d\n      0x00\n      swap1\n      sload\n      swap1\n      0x0100\n      exp\n      swap1\n      div\n      0xffffffffffffffffffffffffffffffffffffffff\n      and\n        /* \"AutomatorCoin.sol\":6119:6147  isExcludedFromFee[devWallet] */\n      0xffffffffffffffffffffffffffffffffffffffff\n      and\n      0xffffffffffffffffffffffffffffffffffffffff\n      and\n      dup2\n      mstore\n      0x20\n      add\n      swap1\n      dup2\n      mstore\n      0x20\n      add\n      0x00\n      keccak256\n      0x00\n        /* \"AutomatorCoin.sol\":6119:6154  isExcludedFromFee[devWallet] = true */\n      0x0100\n      exp\n      dup2\n      sload\n      dup2\n      0xff\n      mul\n      not\n      and\n      swap1\n      dup4\n      iszero\n      iszero\n      mul\n      or\n      swap1\n      sstore\n      pop\n        /* \"AutomatorCoin.sol\":6198:6202  true */\n      0x01\n        /* \"AutomatorCoin.sol\":6164:6181  isExcludedFromFee */\n      0x12\n        /* \"AutomatorCoin.sol\":6164:6195  isExcludedFromFee[artistWallet] */\n      0x00\n        /* \"AutomatorCoin.sol\":6182:6194  artistWallet */\n      0x0e\n      0x00\n      swap1\n      sload\n      swap1\n      0x0100\n      exp\n      swap1\n      div\n      0xffffffffffffffffffffffffffffffffffffffff\n      and\n        /* \"AutomatorCoin.sol\":6164:6195  isExcludedFromFee[artistWallet] */\n      0xffffffffffffffffffffffffffffffffffffffff\n      and\n      0xffffffffffffffffffffffffffffffffffffffff\n      and\n      dup2\n      mstore\n      0x20\n      add\n      swap1\n      dup2\n      mstore\n      0x20\n      add\n      0x00\n      keccak256\n      0x00\n        /* \"AutomatorCoin.sol\":6164:6202  isExcludedFromFee[artistWallet] = true */\n      0x0100\n      exp\n      dup2\n      sload\n      dup2\n      0xff\n      mul\n      not\n      and\n      swap1\n      dup4\n      iszero\n      iszero\n      mul\n      or\n      swap1\n      sstore\n      pop\n        /* \"AutomatorCoin.sol\":6249:6253  true */\n      0x01\n        /* \"AutomatorCoin.sol\":6212:6229  isExcludedFromFee */\n      0x12\n        /* \"AutomatorCoin.sol\":6212:6246  isExcludedFromFee[marketingWallet] */\n      0x00\n        /* \"AutomatorCoin.sol\":6230:6245  marketingWallet */\n      0x0f\n      0x00\n      swap1\n      sload\n      swap1\n      0x0100\n      exp\n      swap1\n      div\n      0xffffffffffffffffffffffffffffffffffffffff\n      and\n        /* \"AutomatorCoin.sol\":6212:6246  isExcludedFromFee[marketingWallet] */\n      0xffffffffffffffffffffffffffffffffffffffff\n      and\n      0xffffffffffffffffffffffffffffffffffffffff\n      and\n      dup2\n      mstore\n      0x20\n      add\n      swap1\n      dup2\n      mstore\n      0x20\n      add\n      0x00\n      keccak256\n      0x00\n        /* \"AutomatorCoin.sol\":6212:6253  isExcludedFromFee[marketingWallet] = true */\n      0x0100\n      exp\n      dup2\n      sload\n      dup2\n      0xff\n      mul\n      not\n      and\n      swap1\n      dup4\n      iszero\n      iszero\n      mul\n      or\n      swap1\n      sstore\n      pop\n        /* \"AutomatorCoin.sol\":5920:6260  function updateWallets(address _dev, address _artist, address _marketing) external onlyOwner {... */\n      pop\n      pop\n      pop\n      jump\t// out\n        /* \"@openzeppelin/contracts/token/ERC20/ERC20.sol\":2830:2927  function totalSupply() public view virtual returns (uint256) {... */\n    tag_71:\n        /* \"@openzeppelin/contracts/token/ERC20/ERC20.sol\":2882:2889  uint256 */\n      0x00\n        /* \"@openzeppelin/contracts/token/ERC20/ERC20.sol\":2908:2920  _totalSupply */\n      sload(0x02)\n        /* \"@openzeppelin/contracts/token/ERC20/ERC20.sol\":2901:2920  return _totalSupply */\n      swap1\n      pop\n        /* \"@openzeppelin/contracts/token/ERC20/ERC20.sol\":2830:2927  function totalSupply() public view virtual returns (uint256) {... */\n      swap1\n      jump\t// out\n        /* \"AutomatorCoin.sol\":1408:1441  uint256 public marketingTax = 500 */\n    tag_75:\n      sload(0x0c)\n      dup2\n      jump\t// out\n        /* \"AutomatorCoin.sol\":1260:1286  uint256 public lpTax = 500 */\n    tag_79:\n      sload(0x09)\n      dup2\n      jump\t// out\n        /* \"AutomatorCoin.sol\":2925:3199  function transferFrom(address sender, address recipient, uint256 amount) public override returns (bool) {... */\n    tag_85:\n        /* \"AutomatorCoin.sol\":3023:3027  bool */\n      0x00\n        /* \"AutomatorCoin.sol\":3039:3054  address spender */\n      dup1\n        /* \"AutomatorCoin.sol\":3057:3069  _msgSender() */\n      tag_202\n        /* \"AutomatorCoin.sol\":3057:3067  _msgSender */\n      tag_193\n        /* \"AutomatorCoin.sol\":3057:3069  _msgSender() */\n      jump\t// in\n    tag_202:\n        /* \"AutomatorCoin.sol\":3039:3069  address spender = _msgSender() */\n      swap1\n      pop\n        /* \"AutomatorCoin.sol\":3079:3119  _spendAllowance(sender, spender, amount) */\n      tag_203\n        /* \"AutomatorCoin.sol\":3095:3101  sender */\n      dup6\n        /* \"AutomatorCoin.sol\":3103:3110  spender */\n      dup3\n        /* \"AutomatorCoin.sol\":3112:3118  amount */\n      dup6\n        /* \"AutomatorCoin.sol\":3079:3094  _spendAllowance */\n      tag_204\n        /* \"AutomatorCoin.sol\":3079:3119  _spendAllowance(sender, spender, amount) */\n      jump\t// in\n    tag_203:\n        /* \"AutomatorCoin.sol\":3129:3171  _customTransfer(sender, recipient, amount) */\n      tag_205\n        /* \"AutomatorCoin.sol\":3145:3151  sender */\n      dup6\n        /* \"AutomatorCoin.sol\":3153:3162  recipient */\n      dup6\n        /* \"AutomatorCoin.sol\":3164:3170  amount */\n      dup6\n        /* \"AutomatorCoin.sol\":3129:3144  _customTransfer */\n      tag_206\n        /* \"AutomatorCoin.sol\":3129:3171  _customTransfer(sender, recipient, amount) */\n      jump\t// in\n    tag_205:\n        /* \"AutomatorCoin.sol\":3188:3192  true */\n      0x01\n        /* \"AutomatorCoin.sol\":3181:3192  return true */\n      swap2\n      pop\n      pop\n        /* \"AutomatorCoin.sol\":2925:3199  function transferFrom(address sender, address recipient, uint256 amount) public override returns (bool) {... */\n      swap4\n      swap3\n      pop\n      pop\n      pop\n      jump\t// out\n        /* \"@openzeppelin/contracts/token/ERC20/ERC20.sol\":2688:2770  function decimals() public view virtual returns (uint8) {... */\n    tag_89:\n        /* \"@openzeppelin/contracts/token/ERC20/ERC20.sol\":2737:2742  uint8 */\n      0x00\n        /* \"@openzeppelin/contracts/token/ERC20/ERC20.sol\":2761:2763  18 */\n      0x12\n        /* \"@openzeppelin/contracts/token/ERC20/ERC20.sol\":2754:2763  return 18 */\n      swap1\n      pop\n        /* \"@openzeppelin/contracts/token/ERC20/ERC20.sol\":2688:2770  function decimals() public view virtual returns (uint8) {... */\n      swap1\n      jump\t// out\n        /* \"AutomatorCoin.sol\":1700:1726  bool public tradingEnabled */\n    tag_94:\n      0x11\n      0x01\n      swap1\n      sload\n      swap1\n      0x0100\n      exp\n      swap1\n      div\n      0xff\n      and\n      dup2\n      jump\t// out\n        /* \"AutomatorCoin.sol\":1732:1781  mapping(address => bool) public isExcludedFromFee */\n    tag_100:\n      mstore(0x20, 0x12)\n      dup1\n      0x00\n      mstore\n      keccak256(0x00, 0x40)\n      0x00\n      swap2\n      pop\n      sload\n      swap1\n      0x0100\n      exp\n      swap1\n      div\n      0xff\n      and\n      dup2\n      jump\t// out\n        /* \"AutomatorCoin.sol\":1129:1168  uint256 public constant SELL_TAX = 2500 */\n    tag_104:\n        /* \"AutomatorCoin.sol\":1164:1168  2500 */\n      0x09c4\n        /* \"AutomatorCoin.sol\":1129:1168  uint256 public constant SELL_TAX = 2500 */\n      dup2\n      jump\t// out\n        /* \"AutomatorCoin.sol\":6266:6399  function setExcludedFromFee(address account, bool excluded) external onlyOwner {... */\n    tag_110:\n        /* \"@openzeppelin/contracts/access/Ownable.sol\":1531:1544  _checkOwner() */\n      tag_209\n        /* \"@openzeppelin/contracts/access/Ownable.sol\":1531:1542  _checkOwner */\n      tag_198\n        /* \"@openzeppelin/contracts/access/Ownable.sol\":1531:1544  _checkOwner() */\n      jump\t// in\n    tag_209:\n        /* \"AutomatorCoin.sol\":6384:6392  excluded */\n      dup1\n        /* \"AutomatorCoin.sol\":6355:6372  isExcludedFromFee */\n      0x12\n        /* \"AutomatorCoin.sol\":6355:6381  isExcludedFromFee[account] */\n      0x00\n        /* \"AutomatorCoin.sol\":6373:6380  account */\n      dup5\n        /* \"AutomatorCoin.sol\":6355:6381  isExcludedFromFee[account] */\n      0xffffffffffffffffffffffffffffffffffffffff\n      and\n      0xffffffffffffffffffffffffffffffffffffffff\n      and\n      dup2\n      mstore\n      0x20\n      add\n      swap1\n      dup2\n      mstore\n      0x20\n      add\n      0x00\n      keccak256\n      0x00\n        /* \"AutomatorCoin.sol\":6355:6392  isExcludedFromFee[account] = excluded */\n      0x0100\n      exp\n      dup2\n      sload\n      dup2\n      0xff\n      mul\n      not\n      and\n      swap1\n      dup4\n      iszero\n      iszero\n      mul\n      or\n      swap1\n      sstore\n      pop\n        /* \"AutomatorCoin.sol\":6266:6399  function setExcludedFromFee(address account, bool excluded) external onlyOwner {... */\n      pop\n      pop\n      jump\t// out\n        /* \"AutomatorCoin.sol\":1309:1337  uint256 public devTax = 1000 */\n    tag_113:\n      sload(0x0a)\n      dup2\n      jump\t// out\n        /* \"@openzeppelin/contracts/token/ERC20/ERC20.sol\":2985:3101  function balanceOf(address account) public view virtual returns (uint256) {... */\n    tag_118:\n        /* \"@openzeppelin/contracts/token/ERC20/ERC20.sol\":3050:3057  uint256 */\n      0x00\n        /* \"@openzeppelin/contracts/token/ERC20/ERC20.sol\":3076:3085  _balances */\n      dup1\n        /* \"@openzeppelin/contracts/token/ERC20/ERC20.sol\":3076:3094  _balances[account] */\n      0x00\n        /* \"@openzeppelin/contracts/token/ERC20/ERC20.sol\":3086:3093  account */\n      dup4\n        /* \"@openzeppelin/contracts/token/ERC20/ERC20.sol\":3076:3094  _balances[account] */\n      0xffffffffffffffffffffffffffffffffffffffff\n      and\n      0xffffffffffffffffffffffffffffffffffffffff\n      and\n      dup2\n      mstore\n      0x20\n      add\n      swap1\n      dup2\n      mstore\n      0x20\n      add\n      0x00\n      keccak256\n      sload\n        /* \"@openzeppelin/contracts/token/ERC20/ERC20.sol\":3069:3094  return _balances[account] */\n      swap1\n      pop\n        /* \"@openzeppelin/contracts/token/ERC20/ERC20.sol\":2985:3101  function balanceOf(address account) public view virtual returns (uint256) {... */\n      swap2\n      swap1\n      pop\n      jump\t// out\n        /* \"@openzeppelin/contracts/access/Ownable.sol\":2293:2394  function renounceOwnership() public virtual onlyOwner {... */\n    tag_122:\n        /* \"@openzeppelin/contracts/access/Ownable.sol\":1531:1544  _checkOwner() */\n      tag_213\n        /* \"@openzeppelin/contracts/access/Ownable.sol\":1531:1542  _checkOwner */\n      tag_198\n        /* \"@openzeppelin/contracts/access/Ownable.sol\":1531:1544  _checkOwner() */\n      jump\t// in\n    tag_213:\n        /* \"@openzeppelin/contracts/access/Ownable.sol\":2357:2387  _transferOwnership(address(0)) */\n      tag_215\n        /* \"@openzeppelin/contracts/access/Ownable.sol\":2384:2385  0 */\n      0x00\n        /* \"@openzeppelin/contracts/access/Ownable.sol\":2357:2375  _transferOwnership */\n      tag_216\n        /* \"@openzeppelin/contracts/access/Ownable.sol\":2357:2387  _transferOwnership(address(0)) */\n      jump\t// in\n    tag_215:\n        /* \"@openzeppelin/contracts/access/Ownable.sol\":2293:2394  function renounceOwnership() public virtual onlyOwner {... */\n      jump\t// out\n        /* \"AutomatorCoin.sol\":1539:1569  address public marketingWallet */\n    tag_125:\n      0x0f\n      0x00\n      swap1\n      sload\n      swap1\n      0x0100\n      exp\n      swap1\n      div\n      0xffffffffffffffffffffffffffffffffffffffff\n      and\n      dup2\n      jump\t// out\n        /* \"AutomatorCoin.sol\":5832:5914  function enableTrading() external onlyOwner {... */\n    tag_130:\n        /* \"@openzeppelin/contracts/access/Ownable.sol\":1531:1544  _checkOwner() */\n      tag_218\n        /* \"@openzeppelin/contracts/access/Ownable.sol\":1531:1542  _checkOwner */\n      tag_198\n        /* \"@openzeppelin/contracts/access/Ownable.sol\":1531:1544  _checkOwner() */\n      jump\t// in\n    tag_218:\n        /* \"AutomatorCoin.sol\":5903:5907  true */\n      0x01\n        /* \"AutomatorCoin.sol\":5886:5900  tradingEnabled */\n      0x11\n      0x01\n        /* \"AutomatorCoin.sol\":5886:5907  tradingEnabled = true */\n      0x0100\n      exp\n      dup2\n      sload\n      dup2\n      0xff\n      mul\n      not\n      and\n      swap1\n      dup4\n      iszero\n      iszero\n      mul\n      or\n      swap1\n      sstore\n      pop\n        /* \"AutomatorCoin.sol\":5832:5914  function enableTrading() external onlyOwner {... */\n      jump\t// out\n        /* \"@openzeppelin/contracts/access/Ownable.sol\":1638:1723  function owner() public view virtual returns (address) {... */\n    tag_133:\n        /* \"@openzeppelin/contracts/access/Ownable.sol\":1684:1691  address */\n      0x00\n        /* \"@openzeppelin/contracts/access/Ownable.sol\":1710:1716  _owner */\n      0x05\n      0x00\n      swap1\n      sload\n      swap1\n      0x0100\n      exp\n      swap1\n      div\n      0xffffffffffffffffffffffffffffffffffffffff\n      and\n        /* \"@openzeppelin/contracts/access/Ownable.sol\":1703:1716  return _owner */\n      swap1\n      pop\n        /* \"@openzeppelin/contracts/access/Ownable.sol\":1638:1723  function owner() public view virtual returns (address) {... */\n      swap1\n      jump\t// out\n        /* \"AutomatorCoin.sol\":1476:1500  address public devWallet */\n    tag_137:\n      0x0d\n      0x00\n      swap1\n      sload\n      swap1\n      0x0100\n      exp\n      swap1\n      div\n      0xffffffffffffffffffffffffffffffffffffffff\n      and\n      dup2\n      jump\t// out\n        /* \"@openzeppelin/contracts/token/ERC20/ERC20.sol\":1962:2055  function symbol() public view virtual returns (string memory) {... */\n    tag_141:\n        /* \"@openzeppelin/contracts/token/ERC20/ERC20.sol\":2009:2022  string memory */\n      0x60\n        /* \"@openzeppelin/contracts/token/ERC20/ERC20.sol\":2041:2048  _symbol */\n      0x04\n        /* \"@openzeppelin/contracts/token/ERC20/ERC20.sol\":2034:2048  return _symbol */\n      dup1\n      sload\n      tag_222\n      swap1\n      tag_186\n      jump\t// in\n    tag_222:\n      dup1\n      0x1f\n      add\n      0x20\n      dup1\n      swap2\n      div\n      mul\n      0x20\n      add\n      mload(0x40)\n      swap1\n      dup2\n      add\n      0x40\n      mstore\n      dup1\n      swap3\n      swap2\n      swap1\n      dup2\n      dup2\n      mstore\n      0x20\n      add\n      dup3\n      dup1\n      sload\n      tag_223\n      swap1\n      tag_186\n      jump\t// in\n    tag_223:\n      dup1\n      iszero\n      tag_224\n      jumpi\n      dup1\n      0x1f\n      lt\n      tag_225\n      jumpi\n      0x0100\n      dup1\n      dup4\n      sload\n      div\n      mul\n      dup4\n      mstore\n      swap2\n      0x20\n      add\n      swap2\n      jump(tag_224)\n    tag_225:\n      dup3\n      add\n      swap2\n      swap1\n      0x00\n      mstore\n      keccak256(0x00, 0x20)\n      swap1\n    tag_226:\n      dup2\n      sload\n      dup2\n      mstore\n      swap1\n      0x01\n      add\n      swap1\n      0x20\n      add\n      dup1\n      dup4\n      gt\n      tag_226\n      jumpi\n      dup3\n      swap1\n      sub\n      0x1f\n      and\n      dup3\n      add\n      swap2\n    tag_224:\n      pop\n      pop\n      pop\n      pop\n      pop\n      swap1\n      pop\n        /* \"@openzeppelin/contracts/token/ERC20/ERC20.sol\":1962:2055  function symbol() public view virtual returns (string memory) {... */\n      swap1\n      jump\t// out\n        /* \"AutomatorCoin.sol\":6405:6505  function setSwapThreshold(uint256 amount) external onlyOwner {... */\n    tag_147:\n        /* \"@openzeppelin/contracts/access/Ownable.sol\":1531:1544  _checkOwner() */\n      tag_228\n        /* \"@openzeppelin/contracts/access/Ownable.sol\":1531:1542  _checkOwner */\n      tag_198\n        /* \"@openzeppelin/contracts/access/Ownable.sol\":1531:1544  _checkOwner() */\n      jump\t// in\n    tag_228:\n        /* \"AutomatorCoin.sol\":6492:6498  amount */\n      dup1\n        /* \"AutomatorCoin.sol\":6476:6489  swapThreshold */\n      0x10\n        /* \"AutomatorCoin.sol\":6476:6498  swapThreshold = amount */\n      dup2\n      swap1\n      sstore\n      pop\n        /* \"AutomatorCoin.sol\":6405:6505  function setSwapThreshold(uint256 amount) external onlyOwner {... */\n      pop\n      jump\t// out\n        /* \"AutomatorCoin.sol\":1506:1533  address public artistWallet */\n    tag_150:\n      0x0e\n      0x00\n      swap1\n      sload\n      swap1\n      0x0100\n      exp\n      swap1\n      div\n      0xffffffffffffffffffffffffffffffffffffffff\n      and\n      dup2\n      jump\t// out\n        /* \"AutomatorCoin.sol\":1019:1038  address public pair */\n    tag_154:\n      0x08\n      0x00\n      swap1\n      sload\n      swap1\n      0x0100\n      exp\n      swap1\n      div\n      0xffffffffffffffffffffffffffffffffffffffff\n      and\n      dup2\n      jump\t// out\n        /* \"AutomatorCoin.sol\":2749:2919  function transfer(address recipient, uint256 amount) public override returns (bool) {... */\n    tag_159:\n        /* \"AutomatorCoin.sol\":2827:2831  bool */\n      0x00\n        /* \"AutomatorCoin.sol\":2843:2891  _customTransfer(_msgSender(), recipient, amount) */\n      tag_231\n        /* \"AutomatorCoin.sol\":2859:2871  _msgSender() */\n      tag_232\n        /* \"AutomatorCoin.sol\":2859:2869  _msgSender */\n      tag_193\n        /* \"AutomatorCoin.sol\":2859:2871  _msgSender() */\n      jump\t// in\n    tag_232:\n        /* \"AutomatorCoin.sol\":2873:2882  recipient */\n      dup5\n        /* \"AutomatorCoin.sol\":2884:2890  amount */\n      dup5\n        /* \"AutomatorCoin.sol\":2843:2858  _customTransfer */\n      tag_206\n        /* \"AutomatorCoin.sol\":2843:2891  _customTransfer(_msgSender(), recipient, amount) */\n      jump\t// in\n    tag_231:\n        /* \"AutomatorCoin.sol\":2908:2912  true */\n      0x01\n        /* \"AutomatorCoin.sol\":2901:2912  return true */\n      swap1\n      pop\n        /* \"AutomatorCoin.sol\":2749:2919  function transfer(address recipient, uint256 amount) public override returns (bool) {... */\n      swap3\n      swap2\n      pop\n      pop\n      jump\t// out\n        /* \"AutomatorCoin.sol\":6511:6729  function withdrawStuckTokens(address token) external onlyOwner {... */\n    tag_164:\n        /* \"@openzeppelin/contracts/access/Ownable.sol\":1531:1544  _checkOwner() */\n      tag_234\n        /* \"@openzeppelin/contracts/access/Ownable.sol\":1531:1542  _checkOwner */\n      tag_198\n        /* \"@openzeppelin/contracts/access/Ownable.sol\":1531:1544  _checkOwner() */\n      jump\t// in\n    tag_234:\n        /* \"AutomatorCoin.sol\":6609:6613  this */\n      address\n        /* \"AutomatorCoin.sol\":6592:6614  token != address(this) */\n      0xffffffffffffffffffffffffffffffffffffffff\n      and\n        /* \"AutomatorCoin.sol\":6592:6597  token */\n      dup2\n        /* \"AutomatorCoin.sol\":6592:6614  token != address(this) */\n      0xffffffffffffffffffffffffffffffffffffffff\n      and\n      sub\n        /* \"AutomatorCoin.sol\":6584:6638  require(token != address(this), \"Cannot withdraw ATC\") */\n      tag_236\n      jumpi\n      mload(0x40)\n      0x08c379a000000000000000000000000000000000000000000000000000000000\n      dup2\n      mstore\n      0x04\n      add\n      tag_237\n      swap1\n      tag_238\n      jump\t// in\n    tag_237:\n      mload(0x40)\n      dup1\n      swap2\n      sub\n      swap1\n      revert\n    tag_236:\n        /* \"AutomatorCoin.sol\":6655:6660  token */\n      dup1\n        /* \"AutomatorCoin.sol\":6648:6670  IERC20(token).transfer */\n      0xffffffffffffffffffffffffffffffffffffffff\n      and\n      0xa9059cbb\n        /* \"AutomatorCoin.sol\":6671:6681  msg.sender */\n      caller\n        /* \"AutomatorCoin.sol\":6690:6695  token */\n      dup4\n        /* \"AutomatorCoin.sol\":6683:6706  IERC20(token).balanceOf */\n      0xffffffffffffffffffffffffffffffffffffffff\n      and\n      0x70a08231\n        /* \"AutomatorCoin.sol\":6715:6719  this */\n      address\n        /* \"AutomatorCoin.sol\":6683:6721  IERC20(token).balanceOf(address(this)) */\n      mload(0x40)\n      dup3\n      0xffffffff\n      and\n      0xe0\n      shl\n      dup2\n      mstore\n      0x04\n      add\n      tag_239\n      swap2\n      swap1\n      tag_127\n      jump\t// in\n    tag_239:\n      0x20\n      mload(0x40)\n      dup1\n      dup4\n      sub\n      dup2\n      dup7\n      gas\n      staticcall\n      iszero\n      dup1\n      iszero\n      tag_241\n      jumpi\n      returndatasize\n      0x00\n      dup1\n      returndatacopy\n      revert(0x00, returndatasize)\n    tag_241:\n      pop\n      pop\n      pop\n      pop\n      mload(0x40)\n      returndatasize\n      not(0x1f)\n      0x1f\n      dup3\n      add\n      and\n      dup3\n      add\n      dup1\n      0x40\n      mstore\n      pop\n      dup2\n      add\n      swap1\n      tag_242\n      swap2\n      swap1\n      tag_243\n      jump\t// in\n    tag_242:\n        /* \"AutomatorCoin.sol\":6648:6722  IERC20(token).transfer(msg.sender, IERC20(token).balanceOf(address(this))) */\n      mload(0x40)\n      dup4\n      0xffffffff\n      and\n      0xe0\n      shl\n      dup2\n      mstore\n      0x04\n      add\n      tag_244\n      swap3\n      swap2\n      swap1\n      tag_245\n      jump\t// in\n    tag_244:\n      0x20\n      mload(0x40)\n      dup1\n      dup4\n      sub\n      dup2\n      0x00\n      dup8\n      gas\n      call\n      iszero\n      dup1\n      iszero\n      tag_247\n      jumpi\n      returndatasize\n      0x00\n      dup1\n      returndatacopy\n      revert(0x00, returndatasize)\n    tag_247:\n      pop\n      pop\n      pop\n      pop\n      mload(0x40)\n      returndatasize\n      not(0x1f)\n      0x1f\n      dup3\n      add\n      and\n      dup3\n      add\n      dup1\n      0x40\n      mstore\n      pop\n      dup2\n      add\n      swap1\n      tag_248\n      swap2\n      swap1\n      tag_249\n      jump\t// in\n    tag_248:\n      pop\n        /* \"AutomatorCoin.sol\":6511:6729  function withdrawStuckTokens(address token) external onlyOwner {... */\n      pop\n      jump\t// out\n        /* \"AutomatorCoin.sol\":1359:1389  uint256 public artistTax = 500 */\n    tag_167:\n      sload(0x0b)\n      dup2\n      jump\t// out\n        /* \"@openzeppelin/contracts/token/ERC20/ERC20.sol\":3532:3672  function allowance(address owner, address spender) public view virtual returns (uint256) {... */\n    tag_173:\n        /* \"@openzeppelin/contracts/token/ERC20/ERC20.sol\":3612:3619  uint256 */\n      0x00\n        /* \"@openzeppelin/contracts/token/ERC20/ERC20.sol\":3638:3649  _allowances */\n      0x01\n        /* \"@openzeppelin/contracts/token/ERC20/ERC20.sol\":3638:3656  _allowances[owner] */\n      0x00\n        /* \"@openzeppelin/contracts/token/ERC20/ERC20.sol\":3650:3655  owner */\n      dup5\n        /* \"@openzeppelin/contracts/token/ERC20/ERC20.sol\":3638:3656  _allowances[owner] */\n      0xffffffffffffffffffffffffffffffffffffffff\n      and\n      0xffffffffffffffffffffffffffffffffffffffff\n      and\n      dup2\n      mstore\n      0x20\n      add\n      swap1\n      dup2\n      mstore\n      0x20\n      add\n      0x00\n      keccak256\n        /* \"@openzeppelin/contracts/token/ERC20/ERC20.sol\":3638:3665  _allowances[owner][spender] */\n      0x00\n        /* \"@openzeppelin/contracts/token/ERC20/ERC20.sol\":3657:3664  spender */\n      dup4\n        /* \"@openzeppelin/contracts/token/ERC20/ERC20.sol\":3638:3665  _allowances[owner][spender] */\n      0xffffffffffffffffffffffffffffffffffffffff\n      and\n      0xffffffffffffffffffffffffffffffffffffffff\n      and\n      dup2\n      mstore\n      0x20\n      add\n      swap1\n      dup2\n      mstore\n      0x20\n      add\n      0x00\n      keccak256\n      sload\n        /* \"@openzeppelin/contracts/token/ERC20/ERC20.sol\":3631:3665  return _allowances[owner][spender] */\n      swap1\n      pop\n        /* \"@openzeppelin/contracts/token/ERC20/ERC20.sol\":3532:3672  function allowance(address owner, address spender) public view virtual returns (uint256) {... */\n      swap3\n      swap2\n      pop\n      pop\n      jump\t// out\n        /* \"@openzeppelin/contracts/access/Ownable.sol\":2543:2758  function transferOwnership(address newOwner) public virtual onlyOwner {... */\n    tag_178:\n        /* \"@openzeppelin/contracts/access/Ownable.sol\":1531:1544  _checkOwner() */\n      tag_252\n        /* \"@openzeppelin/contracts/access/Ownable.sol\":1531:1542  _checkOwner */\n      tag_198\n        /* \"@openzeppelin/contracts/access/Ownable.sol\":1531:1544  _checkOwner() */\n      jump\t// in\n    tag_252:\n        /* \"@openzeppelin/contracts/access/Ownable.sol\":2647:2648  0 */\n      0x00\n        /* \"@openzeppelin/contracts/access/Ownable.sol\":2627:2649  newOwner == address(0) */\n      0xffffffffffffffffffffffffffffffffffffffff\n      and\n        /* \"@openzeppelin/contracts/access/Ownable.sol\":2627:2635  newOwner */\n      dup2\n        /* \"@openzeppelin/contracts/access/Ownable.sol\":2627:2649  newOwner == address(0) */\n      0xffffffffffffffffffffffffffffffffffffffff\n      and\n      sub\n        /* \"@openzeppelin/contracts/access/Ownable.sol\":2623:2714  if (newOwner == address(0)) {... */\n      tag_254\n      jumpi\n        /* \"@openzeppelin/contracts/access/Ownable.sol\":2700:2701  0 */\n      0x00\n        /* \"@openzeppelin/contracts/access/Ownable.sol\":2672:2703  OwnableInvalidOwner(address(0)) */\n      mload(0x40)\n      0x1e4fbdf700000000000000000000000000000000000000000000000000000000\n      dup2\n      mstore\n      0x04\n      add\n      tag_255\n      swap2\n      swap1\n      tag_127\n      jump\t// in\n    tag_255:\n      mload(0x40)\n      dup1\n      swap2\n      sub\n      swap1\n      revert\n        /* \"@openzeppelin/contracts/access/Ownable.sol\":2623:2714  if (newOwner == address(0)) {... */\n    tag_254:\n        /* \"@openzeppelin/contracts/access/Ownable.sol\":2723:2751  _transferOwnership(newOwner) */\n      tag_256\n        /* \"@openzeppelin/contracts/access/Ownable.sol\":2742:2750  newOwner */\n      dup2\n        /* \"@openzeppelin/contracts/access/Ownable.sol\":2723:2741  _transferOwnership */\n      tag_216\n        /* \"@openzeppelin/contracts/access/Ownable.sol\":2723:2751  _transferOwnership(newOwner) */\n      jump\t// in\n    tag_256:\n        /* \"@openzeppelin/contracts/access/Ownable.sol\":2543:2758  function transferOwnership(address newOwner) public virtual onlyOwner {... */\n      pop\n      jump\t// out\n        /* \"AutomatorCoin.sol\":985:1013  IPancakeRouter public router */\n    tag_181:\n      0x07\n      0x00\n      swap1\n      sload\n      swap1\n      0x0100\n      exp\n      swap1\n      div\n      0xffffffffffffffffffffffffffffffffffffffff\n      and\n      dup2\n      jump\t// out\n        /* \"@openzeppelin/contracts/utils/Context.sol\":656:752  function _msgSender() internal view virtual returns (address) {... */\n    tag_193:\n        /* \"@openzeppelin/contracts/utils/Context.sol\":709:716  address */\n      0x00\n        /* \"@openzeppelin/contracts/utils/Context.sol\":735:745  msg.sender */\n      caller\n        /* \"@openzeppelin/contracts/utils/Context.sol\":728:745  return msg.sender */\n      swap1\n      pop\n        /* \"@openzeppelin/contracts/utils/Context.sol\":656:752  function _msgSender() internal view virtual returns (address) {... */\n      swap1\n      jump\t// out\n        /* \"@openzeppelin/contracts/token/ERC20/ERC20.sol\":8707:8835  function _approve(address owner, address spender, uint256 value) internal {... */\n    tag_195:\n        /* \"@openzeppelin/contracts/token/ERC20/ERC20.sol\":8791:8828  _approve(owner, spender, value, true) */\n      tag_259\n        /* \"@openzeppelin/contracts/token/ERC20/ERC20.sol\":8800:8805  owner */\n      dup4\n        /* \"@openzeppelin/contracts/token/ERC20/ERC20.sol\":8807:8814  spender */\n      dup4\n        /* \"@openzeppelin/contracts/token/ERC20/ERC20.sol\":8816:8821  value */\n      dup4\n        /* \"@openzeppelin/contracts/token/ERC20/ERC20.sol\":8823:8827  true */\n      0x01\n        /* \"@openzeppelin/contracts/token/ERC20/ERC20.sol\":8791:8799  _approve */\n      tag_260\n        /* \"@openzeppelin/contracts/token/ERC20/ERC20.sol\":8791:8828  _approve(owner, spender, value, true) */\n      jump\t// in\n    tag_259:\n        /* \"@openzeppelin/contracts/token/ERC20/ERC20.sol\":8707:8835  function _approve(address owner, address spender, uint256 value) internal {... */\n      pop\n      pop\n      pop\n      jump\t// out\n        /* \"@openzeppelin/contracts/access/Ownable.sol\":1796:1958  function _checkOwner() internal view virtual {... */\n    tag_198:\n        /* \"@openzeppelin/contracts/access/Ownable.sol\":1866:1878  _msgSender() */\n      tag_262\n        /* \"@openzeppelin/contracts/access/Ownable.sol\":1866:1876  _msgSender */\n      tag_193\n        /* \"@openzeppelin/contracts/access/Ownable.sol\":1866:1878  _msgSender() */\n      jump\t// in\n    tag_262:\n        /* \"@openzeppelin/contracts/access/Ownable.sol\":1855:1878  owner() != _msgSender() */\n      0xffffffffffffffffffffffffffffffffffffffff\n      and\n        /* \"@openzeppelin/contracts/access/Ownable.sol\":1855:1862  owner() */\n      tag_263\n        /* \"@openzeppelin/contracts/access/Ownable.sol\":1855:1860  owner */\n      tag_133\n        /* \"@openzeppelin/contracts/access/Ownable.sol\":1855:1862  owner() */\n      jump\t// in\n    tag_263:\n        /* \"@openzeppelin/contracts/access/Ownable.sol\":1855:1878  owner() != _msgSender() */\n      0xffffffffffffffffffffffffffffffffffffffff\n      and\n      eq\n        /* \"@openzeppelin/contracts/access/Ownable.sol\":1851:1952  if (owner() != _msgSender()) {... */\n      tag_264\n      jumpi\n        /* \"@openzeppelin/contracts/access/Ownable.sol\":1928:1940  _msgSender() */\n      tag_265\n        /* \"@openzeppelin/contracts/access/Ownable.sol\":1928:1938  _msgSender */\n      tag_193\n        /* \"@openzeppelin/contracts/access/Ownable.sol\":1928:1940  _msgSender() */\n      jump\t// in\n    tag_265:\n        /* \"@openzeppelin/contracts/access/Ownable.sol\":1901:1941  OwnableUnauthorizedAccount(_msgSender()) */\n      mload(0x40)\n      0x118cdaa700000000000000000000000000000000000000000000000000000000\n      dup2\n      mstore\n      0x04\n      add\n      tag_266\n      swap2\n      swap1\n      tag_127\n      jump\t// in\n    tag_266:\n      mload(0x40)\n      dup1\n      swap2\n      sub\n      swap1\n      revert\n        /* \"@openzeppelin/contracts/access/Ownable.sol\":1851:1952  if (owner() != _msgSender()) {... */\n    tag_264:\n        /* \"@openzeppelin/contracts/access/Ownable.sol\":1796:1958  function _checkOwner() internal view virtual {... */\n      jump\t// out\n        /* \"@openzeppelin/contracts/token/ERC20/ERC20.sol\":10396:10872  function _spendAllowance(address owner, address spender, uint256 value) internal virtual {... */\n    tag_204:\n        /* \"@openzeppelin/contracts/token/ERC20/ERC20.sol\":10495:10519  uint256 currentAllowance */\n      0x00\n        /* \"@openzeppelin/contracts/token/ERC20/ERC20.sol\":10522:10547  allowance(owner, spender) */\n      tag_268\n        /* \"@openzeppelin/contracts/token/ERC20/ERC20.sol\":10532:10537  owner */\n      dup5\n        /* \"@openzeppelin/contracts/token/ERC20/ERC20.sol\":10539:10546  spender */\n      dup5\n        /* \"@openzeppelin/contracts/token/ERC20/ERC20.sol\":10522:10531  allowance */\n      tag_173\n        /* \"@openzeppelin/contracts/token/ERC20/ERC20.sol\":10522:10547  allowance(owner, spender) */\n      jump\t// in\n    tag_268:\n        /* \"@openzeppelin/contracts/token/ERC20/ERC20.sol\":10495:10547  uint256 currentAllowance = allowance(owner, spender) */\n      swap1\n      pop\n        /* \"@openzeppelin/contracts/token/ERC20/ERC20.sol\":10580:10597  type(uint256).max */\n      0xffffffffffffffffffffffffffffffffffffffffffffffffffffffffffffffff\n        /* \"@openzeppelin/contracts/token/ERC20/ERC20.sol\":10561:10577  currentAllowance */\n      dup2\n        /* \"@openzeppelin/contracts/token/ERC20/ERC20.sol\":10561:10597  currentAllowance < type(uint256).max */\n      lt\n        /* \"@openzeppelin/contracts/token/ERC20/ERC20.sol\":10557:10866  if (currentAllowance < type(uint256).max) {... */\n      iszero\n      tag_269\n      jumpi\n        /* \"@openzeppelin/contracts/token/ERC20/ERC20.sol\":10636:10641  value */\n      dup2\n        /* \"@openzeppelin/contracts/token/ERC20/ERC20.sol\":10617:10633  currentAllowance */\n      dup2\n        /* \"@openzeppelin/contracts/token/ERC20/ERC20.sol\":10617:10641  currentAllowance < value */\n      lt\n        /* \"@openzeppelin/contracts/token/ERC20/ERC20.sol\":10613:10743  if (currentAllowance < value) {... */\n      iszero\n      tag_270\n      jumpi\n        /* \"@openzeppelin/contracts/token/ERC20/ERC20.sol\":10695:10702  spender */\n      dup3\n        /* \"@openzeppelin/contracts/token/ERC20/ERC20.sol\":10704:10720  currentAllowance */\n      dup2\n        /* \"@openzeppelin/contracts/token/ERC20/ERC20.sol\":10722:10727  value */\n      dup4\n        /* \"@openzeppelin/contracts/token/ERC20/ERC20.sol\":10668:10728  ERC20InsufficientAllowance(spender, currentAllowance, value) */\n      mload(0x40)\n      0xfb8f41b200000000000000000000000000000000000000000000000000000000\n      dup2\n      mstore\n      0x04\n      add\n      tag_271\n      swap4\n      swap3\n      swap2\n      swap1\n      tag_272\n      jump\t// in\n    tag_271:\n      mload(0x40)\n      dup1\n      swap2\n      sub\n      swap1\n      revert\n        /* \"@openzeppelin/contracts/token/ERC20/ERC20.sol\":10613:10743  if (currentAllowance < value) {... */\n    tag_270:\n        /* \"@openzeppelin/contracts/token/ERC20/ERC20.sol\":10784:10841  _approve(owner, spender, currentAllowance - value, false) */\n      tag_273\n        /* \"@openzeppelin/contracts/token/ERC20/ERC20.sol\":10793:10798  owner */\n      dup5\n        /* \"@openzeppelin/contracts/token/ERC20/ERC20.sol\":10800:10807  spender */\n      dup5\n        /* \"@openzeppelin/contracts/token/ERC20/ERC20.sol\":10828:10833  value */\n      dup5\n        /* \"@openzeppelin/contracts/token/ERC20/ERC20.sol\":10809:10825  currentAllowance */\n      dup5\n        /* \"@openzeppelin/contracts/token/ERC20/ERC20.sol\":10809:10833  currentAllowance - value */\n      sub\n        /* \"@openzeppelin/contracts/token/ERC20/ERC20.sol\":10835:10840  false */\n      0x00\n        /* \"@openzeppelin/contracts/token/ERC20/ERC20.sol\":10784:10792  _approve */\n      tag_260\n        /* \"@openzeppelin/contracts/token/ERC20/ERC20.sol\":10784:10841  _approve(owner, spender, currentAllowance - value, false) */\n      jump\t// in\n    tag_273:\n        /* \"@openzeppelin/contracts/token/ERC20/ERC20.sol\":10557:10866  if (currentAllowance < type(uint256).max) {... */\n    tag_269:\n        /* \"@openzeppelin/contracts/token/ERC20/ERC20.sol\":10485:10872  {... */\n      pop\n        /* \"@openzeppelin/contracts/token/ERC20/ERC20.sol\":10396:10872  function _spendAllowance(address owner, address spender, uint256 value) internal virtual {... */\n      pop\n      pop\n      pop\n      jump\t// out\n        /* \"AutomatorCoin.sol\":3205:4737  function _customTransfer(address sender, address recipient, uint256 amount) internal nonReentrant {... */\n    tag_206:\n        /* \"@openzeppelin/contracts/security/ReentrancyGuard.sol\":2261:2282  _nonReentrantBefore() */\n      tag_275\n        /* \"@openzeppelin/contracts/security/ReentrancyGuard.sol\":2261:2280  _nonReentrantBefore */\n      tag_276\n        /* \"@openzeppelin/contracts/security/ReentrancyGuard.sol\":2261:2282  _nonReentrantBefore() */\n      jump\t// in\n    tag_275:\n        /* \"AutomatorCoin.sol\":3330:3331  0 */\n      0x00\n        /* \"AutomatorCoin.sol\":3321:3327  amount */\n      dup2\n        /* \"AutomatorCoin.sol\":3321:3331  amount > 0 */\n      gt\n        /* \"AutomatorCoin.sol\":3313:3377  require(amount > 0, \"Transfer amount must be greater than zero\") */\n      tag_278\n      jumpi\n      mload(0x40)\n      0x08c379a000000000000000000000000000000000000000000000000000000000\n      dup2\n      mstore\n      0x04\n      add\n      tag_279\n      swap1\n      tag_280\n      jump\t// in\n    tag_279:\n      mload(0x40)\n      dup1\n      swap2\n      sub\n      swap1\n      revert\n    tag_278:\n        /* \"AutomatorCoin.sol\":3395:3409  tradingEnabled */\n      0x11\n      0x01\n      swap1\n      sload\n      swap1\n      0x0100\n      exp\n      swap1\n      div\n      0xff\n      and\n        /* \"AutomatorCoin.sol\":3395:3438  tradingEnabled || isExcludedFromFee[sender] */\n      dup1\n      tag_281\n      jumpi\n      pop\n        /* \"AutomatorCoin.sol\":3413:3430  isExcludedFromFee */\n      0x12\n        /* \"AutomatorCoin.sol\":3413:3438  isExcludedFromFee[sender] */\n      0x00\n        /* \"AutomatorCoin.sol\":3431:3437  sender */\n      dup5\n        /* \"AutomatorCoin.sol\":3413:3438  isExcludedFromFee[sender] */\n      0xffffffffffffffffffffffffffffffffffffffff\n      and\n      0xffffffffffffffffffffffffffffffffffffffff\n      and\n      dup2\n      mstore\n      0x20\n      add\n      swap1\n      dup2\n      mstore\n      0x20\n      add\n      0x00\n      keccak256\n      0x00\n      swap1\n      sload\n      swap1\n      0x0100\n      exp\n      swap1\n      div\n      0xff\n      and\n        /* \"AutomatorCoin.sol\":3395:3438  tradingEnabled || isExcludedFromFee[sender] */\n    tag_281:\n        /* \"AutomatorCoin.sol\":3395:3470  tradingEnabled || isExcludedFromFee[sender] || isExcludedFromFee[recipient] */\n      dup1\n      tag_282\n      jumpi\n      pop\n        /* \"AutomatorCoin.sol\":3442:3459  isExcludedFromFee */\n      0x12\n        /* \"AutomatorCoin.sol\":3442:3470  isExcludedFromFee[recipient] */\n      0x00\n        /* \"AutomatorCoin.sol\":3460:3469  recipient */\n      dup4\n        /* \"AutomatorCoin.sol\":3442:3470  isExcludedFromFee[recipient] */\n      0xffffffffffffffffffffffffffffffffffffffff\n      and\n      0xffffffffffffffffffffffffffffffffffffffff\n      and\n      dup2\n      mstore\n      0x20\n      add\n      swap1\n      dup2\n      mstore\n      0x20\n      add\n      0x00\n      keccak256\n      0x00\n      swap1\n      sload\n      swap1\n      0x0100\n      exp\n      swap1\n      div\n      0xff\n      and\n        /* \"AutomatorCoin.sol\":3395:3470  tradingEnabled || isExcludedFromFee[sender] || isExcludedFromFee[recipient] */\n    tag_282:\n        /* \"AutomatorCoin.sol\":3387:3494  require(tradingEnabled || isExcludedFromFee[sender] || isExcludedFromFee[recipient], \"Trading not enabled\") */\n      tag_283\n      jumpi\n      mload(0x40)\n      0x08c379a000000000000000000000000000000000000000000000000000000000\n      dup2\n      mstore\n      0x04\n      add\n      tag_284\n      swap1\n      tag_285\n      jump\t// in\n    tag_284:\n      mload(0x40)\n      dup1\n      swap2\n      sub\n      swap1\n      revert\n    tag_283:\n        /* \"AutomatorCoin.sol\":3505:3522  uint256 taxAmount */\n      0x00\n        /* \"AutomatorCoin.sol\":3541:3558  isExcludedFromFee */\n      0x12\n        /* \"AutomatorCoin.sol\":3541:3566  isExcludedFromFee[sender] */\n      0x00\n        /* \"AutomatorCoin.sol\":3559:3565  sender */\n      dup6\n        /* \"AutomatorCoin.sol\":3541:3566  isExcludedFromFee[sender] */\n      0xffffffffffffffffffffffffffffffffffffffff\n      and\n      0xffffffffffffffffffffffffffffffffffffffff\n      and\n      dup2\n      mstore\n      0x20\n      add\n      swap1\n      dup2\n      mstore\n      0x20\n      add\n      0x00\n      keccak256\n      0x00\n      swap1\n      sload\n      swap1\n      0x0100\n      exp\n      swap1\n      div\n      0xff\n      and\n        /* \"AutomatorCoin.sol\":3540:3566  !isExcludedFromFee[sender] */\n      iszero\n        /* \"AutomatorCoin.sol\":3540:3599  !isExcludedFromFee[sender] && !isExcludedFromFee[recipient] */\n      dup1\n      iszero\n      tag_286\n      jumpi\n      pop\n        /* \"AutomatorCoin.sol\":3571:3588  isExcludedFromFee */\n      0x12\n        /* \"AutomatorCoin.sol\":3571:3599  isExcludedFromFee[recipient] */\n      0x00\n        /* \"AutomatorCoin.sol\":3589:3598  recipient */\n      dup5\n        /* \"AutomatorCoin.sol\":3571:3599  isExcludedFromFee[recipient] */\n      0xffffffffffffffffffffffffffffffffffffffff\n      and\n      0xffffffffffffffffffffffffffffffffffffffff\n      and\n      dup2\n      mstore\n      0x20\n      add\n      swap1\n      dup2\n      mstore\n      0x20\n      add\n      0x00\n      keccak256\n      0x00\n      swap1\n      sload\n      swap1\n      0x0100\n      exp\n      swap1\n      div\n      0xff\n      and\n        /* \"AutomatorCoin.sol\":3570:3599  !isExcludedFromFee[recipient] */\n      iszero\n        /* \"AutomatorCoin.sol\":3540:3599  !isExcludedFromFee[sender] && !isExcludedFromFee[recipient] */\n    tag_286:\n        /* \"AutomatorCoin.sol\":3537:4678  if(!isExcludedFromFee[sender] && !isExcludedFromFee[recipient]) {... */\n      iszero\n      tag_287\n      jumpi\n        /* \"AutomatorCoin.sol\":3631:3635  pair */\n      0x08\n      0x00\n      swap1\n      sload\n      swap1\n      0x0100\n      exp\n      swap1\n      div\n      0xffffffffffffffffffffffffffffffffffffffff\n      and\n        /* \"AutomatorCoin.sol\":3618:3635  recipient == pair */\n      0xffffffffffffffffffffffffffffffffffffffff\n      and\n        /* \"AutomatorCoin.sol\":3618:3627  recipient */\n      dup4\n        /* \"AutomatorCoin.sol\":3618:3635  recipient == pair */\n      0xffffffffffffffffffffffffffffffffffffffff\n      and\n      sub\n        /* \"AutomatorCoin.sol\":3615:3840  if(recipient == pair) { // Sell... */\n      tag_288\n      jumpi\n        /* \"AutomatorCoin.sol\":1224:1229  10000 */\n      0x2710\n        /* \"AutomatorCoin.sol\":1164:1168  2500 */\n      0x09c4\n        /* \"AutomatorCoin.sol\":3676:3682  amount */\n      dup4\n        /* \"AutomatorCoin.sol\":3676:3693  amount * SELL_TAX */\n      tag_289\n      swap2\n      swap1\n      tag_290\n      jump\t// in\n    tag_289:\n        /* \"AutomatorCoin.sol\":3675:3712  (amount * SELL_TAX) / TAX_DENOMINATOR */\n      tag_291\n      swap2\n      swap1\n      tag_292\n      jump\t// in\n    tag_291:\n        /* \"AutomatorCoin.sol\":3663:3712  taxAmount = (amount * SELL_TAX) / TAX_DENOMINATOR */\n      swap1\n      pop\n        /* \"AutomatorCoin.sol\":3615:3840  if(recipient == pair) { // Sell... */\n      jump(tag_293)\n    tag_288:\n        /* \"AutomatorCoin.sol\":3746:3750  pair */\n      0x08\n      0x00\n      swap1\n      sload\n      swap1\n      0x0100\n      exp\n      swap1\n      div\n      0xffffffffffffffffffffffffffffffffffffffff\n      and\n        /* \"AutomatorCoin.sol\":3736:3750  sender == pair */\n      0xffffffffffffffffffffffffffffffffffffffff\n      and\n        /* \"AutomatorCoin.sol\":3736:3742  sender */\n      dup5\n        /* \"AutomatorCoin.sol\":3736:3750  sender == pair */\n      0xffffffffffffffffffffffffffffffffffffffff\n      and\n      sub\n        /* \"AutomatorCoin.sol\":3733:3840  if(sender == pair) { // Buy... */\n      tag_294\n      jumpi\n        /* \"AutomatorCoin.sol\":1224:1229  10000 */\n      0x2710\n        /* \"AutomatorCoin.sol\":1112:1116  2500 */\n      0x09c4\n        /* \"AutomatorCoin.sol\":3790:3796  amount */\n      dup4\n        /* \"AutomatorCoin.sol\":3790:3806  amount * BUY_TAX */\n      tag_295\n      swap2\n      swap1\n      tag_290\n      jump\t// in\n    tag_295:\n        /* \"AutomatorCoin.sol\":3789:3825  (amount * BUY_TAX) / TAX_DENOMINATOR */\n      tag_296\n      swap2\n      swap1\n      tag_292\n      jump\t// in\n    tag_296:\n        /* \"AutomatorCoin.sol\":3777:3825  taxAmount = (amount * BUY_TAX) / TAX_DENOMINATOR */\n      swap1\n      pop\n        /* \"AutomatorCoin.sol\":3733:3840  if(sender == pair) { // Buy... */\n    tag_294:\n        /* \"AutomatorCoin.sol\":3615:3840  if(recipient == pair) { // Sell... */\n    tag_293:\n        /* \"AutomatorCoin.sol\":3881:3882  0 */\n      0x00\n        /* \"AutomatorCoin.sol\":3869:3878  taxAmount */\n      dup2\n        /* \"AutomatorCoin.sol\":3869:3882  taxAmount > 0 */\n      gt\n        /* \"AutomatorCoin.sol\":3866:4668  if(taxAmount > 0) {... */\n      iszero\n      tag_297\n      jumpi\n        /* \"AutomatorCoin.sol\":3902:3918  uint256 lpTokens */\n      0x00\n        /* \"AutomatorCoin.sol\":1164:1168  2500 */\n      0x09c4\n        /* \"AutomatorCoin.sol\":3934:3939  lpTax */\n      sload(0x09)\n        /* \"AutomatorCoin.sol\":3922:3931  taxAmount */\n      dup4\n        /* \"AutomatorCoin.sol\":3922:3939  taxAmount * lpTax */\n      tag_298\n      swap2\n      swap1\n      tag_290\n      jump\t// in\n    tag_298:\n        /* \"AutomatorCoin.sol\":3921:3951  (taxAmount * lpTax) / SELL_TAX */\n      tag_299\n      swap2\n      swap1\n      tag_292\n      jump\t// in\n    tag_299:\n        /* \"AutomatorCoin.sol\":3902:3951  uint256 lpTokens = (taxAmount * lpTax) / SELL_TAX */\n      swap1\n      pop\n        /* \"AutomatorCoin.sol\":3969:3986  uint256 devTokens */\n      0x00\n        /* \"AutomatorCoin.sol\":1164:1168  2500 */\n      0x09c4\n        /* \"AutomatorCoin.sol\":4002:4008  devTax */\n      sload(0x0a)\n        /* \"AutomatorCoin.sol\":3990:3999  taxAmount */\n      dup5\n        /* \"AutomatorCoin.sol\":3990:4008  taxAmount * devTax */\n      tag_300\n      swap2\n      swap1\n      tag_290\n      jump\t// in\n    tag_300:\n        /* \"AutomatorCoin.sol\":3989:4020  (taxAmount * devTax) / SELL_TAX */\n      tag_301\n      swap2\n      swap1\n      tag_292\n      jump\t// in\n    tag_301:\n        /* \"AutomatorCoin.sol\":3969:4020  uint256 devTokens = (taxAmount * devTax) / SELL_TAX */\n      swap1\n      pop\n        /* \"AutomatorCoin.sol\":4038:4058  uint256 artistTokens */\n      0x00\n        /* \"AutomatorCoin.sol\":1164:1168  2500 */\n      0x09c4\n        /* \"AutomatorCoin.sol\":4074:4083  artistTax */\n      sload(0x0b)\n        /* \"AutomatorCoin.sol\":4062:4071  taxAmount */\n      dup6\n        /* \"AutomatorCoin.sol\":4062:4083  taxAmount * artistTax */\n      tag_302\n      swap2\n      swap1\n      tag_290\n      jump\t// in\n    tag_302:\n        /* \"AutomatorCoin.sol\":4061:4095  (taxAmount * artistTax) / SELL_TAX */\n      tag_303\n      swap2\n      swap1\n      tag_292\n      jump\t// in\n    tag_303:\n        /* \"AutomatorCoin.sol\":4038:4095  uint256 artistTokens = (taxAmount * artistTax) / SELL_TAX */\n      swap1\n      pop\n        /* \"AutomatorCoin.sol\":4113:4136  uint256 marketingTokens */\n      0x00\n        /* \"AutomatorCoin.sol\":4174:4186  artistTokens */\n      dup2\n        /* \"AutomatorCoin.sol\":4162:4171  devTokens */\n      dup4\n        /* \"AutomatorCoin.sol\":4151:4159  lpTokens */\n      dup6\n        /* \"AutomatorCoin.sol\":4139:4148  taxAmount */\n      dup8\n        /* \"AutomatorCoin.sol\":4139:4159  taxAmount - lpTokens */\n      tag_304\n      swap2\n      swap1\n      tag_305\n      jump\t// in\n    tag_304:\n        /* \"AutomatorCoin.sol\":4139:4171  taxAmount - lpTokens - devTokens */\n      tag_306\n      swap2\n      swap1\n      tag_305\n      jump\t// in\n    tag_306:\n        /* \"AutomatorCoin.sol\":4139:4186  taxAmount - lpTokens - devTokens - artistTokens */\n      tag_307\n      swap2\n      swap1\n      tag_305\n      jump\t// in\n    tag_307:\n        /* \"AutomatorCoin.sol\":4113:4186  uint256 marketingTokens = taxAmount - lpTokens - devTokens - artistTokens */\n      swap1\n      pop\n        /* \"AutomatorCoin.sol\":4205:4253  super._transfer(sender, address(this), lpTokens) */\n      tag_308\n        /* \"AutomatorCoin.sol\":4221:4227  sender */\n      dup9\n        /* \"AutomatorCoin.sol\":4237:4241  this */\n      address\n        /* \"AutomatorCoin.sol\":4244:4252  lpTokens */\n      dup7\n        /* \"AutomatorCoin.sol\":4205:4220  super._transfer */\n      tag_309\n        /* \"AutomatorCoin.sol\":4205:4253  super._transfer(sender, address(this), lpTokens) */\n      jump\t// in\n    tag_308:\n        /* \"AutomatorCoin.sol\":4271:4316  super._transfer(sender, devWallet, devTokens) */\n      tag_310\n        /* \"AutomatorCoin.sol\":4287:4293  sender */\n      dup9\n        /* \"AutomatorCoin.sol\":4295:4304  devWallet */\n      0x0d\n      0x00\n      swap1\n      sload\n      swap1\n      0x0100\n      exp\n      swap1\n      div\n      0xffffffffffffffffffffffffffffffffffffffff\n      and\n        /* \"AutomatorCoin.sol\":4306:4315  devTokens */\n      dup6\n        /* \"AutomatorCoin.sol\":4271:4286  super._transfer */\n      tag_309\n        /* \"AutomatorCoin.sol\":4271:4316  super._transfer(sender, devWallet, devTokens) */\n      jump\t// in\n    tag_310:\n        /* \"AutomatorCoin.sol\":4334:4385  super._transfer(sender, artistWallet, artistTokens) */\n      tag_311\n        /* \"AutomatorCoin.sol\":4350:4356  sender */\n      dup9\n        /* \"AutomatorCoin.sol\":4358:4370  artistWallet */\n      0x0e\n      0x00\n      swap1\n      sload\n      swap1\n      0x0100\n      exp\n      swap1\n      div\n      0xffffffffffffffffffffffffffffffffffffffff\n      and\n        /* \"AutomatorCoin.sol\":4372:4384  artistTokens */\n      dup5\n        /* \"AutomatorCoin.sol\":4334:4349  super._transfer */\n      tag_309\n        /* \"AutomatorCoin.sol\":4334:4385  super._transfer(sender, artistWallet, artistTokens) */\n      jump\t// in\n    tag_311:\n        /* \"AutomatorCoin.sol\":4403:4460  super._transfer(sender, marketingWallet, marketingTokens) */\n      tag_312\n        /* \"AutomatorCoin.sol\":4419:4425  sender */\n      dup9\n        /* \"AutomatorCoin.sol\":4427:4442  marketingWallet */\n      0x0f\n      0x00\n      swap1\n      sload\n      swap1\n      0x0100\n      exp\n      swap1\n      div\n      0xffffffffffffffffffffffffffffffffffffffff\n      and\n        /* \"AutomatorCoin.sol\":4444:4459  marketingTokens */\n      dup4\n        /* \"AutomatorCoin.sol\":4403:4418  super._transfer */\n      tag_309\n        /* \"AutomatorCoin.sol\":4403:4460  super._transfer(sender, marketingWallet, marketingTokens) */\n      jump\t// in\n    tag_312:\n        /* \"AutomatorCoin.sol\":4489:4498  taxAmount */\n      dup5\n        /* \"AutomatorCoin.sol\":4479:4498  amount -= taxAmount */\n      dup7\n      tag_313\n      swap2\n      swap1\n      tag_305\n      jump\t// in\n    tag_313:\n      swap6\n      pop\n        /* \"AutomatorCoin.sol\":4533:4537  pair */\n      0x08\n      0x00\n      swap1\n      sload\n      swap1\n      0x0100\n      exp\n      swap1\n      div\n      0xffffffffffffffffffffffffffffffffffffffff\n      and\n        /* \"AutomatorCoin.sol\":4520:4537  recipient == pair */\n      0xffffffffffffffffffffffffffffffffffffffff\n      and\n        /* \"AutomatorCoin.sol\":4520:4529  recipient */\n      dup8\n        /* \"AutomatorCoin.sol\":4520:4537  recipient == pair */\n      0xffffffffffffffffffffffffffffffffffffffff\n      and\n      eq\n        /* \"AutomatorCoin.sol\":4520:4582  recipient == pair && balanceOf(address(this)) >= swapThreshold */\n      dup1\n      iszero\n      tag_314\n      jumpi\n      pop\n        /* \"AutomatorCoin.sol\":4569:4582  swapThreshold */\n      sload(0x10)\n        /* \"AutomatorCoin.sol\":4541:4565  balanceOf(address(this)) */\n      tag_315\n        /* \"AutomatorCoin.sol\":4559:4563  this */\n      address\n        /* \"AutomatorCoin.sol\":4541:4550  balanceOf */\n      tag_118\n        /* \"AutomatorCoin.sol\":4541:4565  balanceOf(address(this)) */\n      jump\t// in\n    tag_315:\n        /* \"AutomatorCoin.sol\":4541:4582  balanceOf(address(this)) >= swapThreshold */\n      lt\n      iszero\n        /* \"AutomatorCoin.sol\":4520:4582  recipient == pair && balanceOf(address(this)) >= swapThreshold */\n    tag_314:\n        /* \"AutomatorCoin.sol\":4520:4595  recipient == pair && balanceOf(address(this)) >= swapThreshold && !swapping */\n      dup1\n      iszero\n      tag_316\n      jumpi\n      pop\n        /* \"AutomatorCoin.sol\":4587:4595  swapping */\n      0x11\n      0x00\n      swap1\n      sload\n      swap1\n      0x0100\n      exp\n      swap1\n      div\n      0xff\n      and\n        /* \"AutomatorCoin.sol\":4586:4595  !swapping */\n      iszero\n        /* \"AutomatorCoin.sol\":4520:4595  recipient == pair && balanceOf(address(this)) >= swapThreshold && !swapping */\n    tag_316:\n        /* \"AutomatorCoin.sol\":4517:4654  if(recipient == pair && balanceOf(address(this)) >= swapThreshold && !swapping) {... */\n      iszero\n      tag_317\n      jumpi\n        /* \"AutomatorCoin.sol\":4619:4635  swapAndLiquify() */\n      tag_318\n        /* \"AutomatorCoin.sol\":4619:4633  swapAndLiquify */\n      tag_319\n        /* \"AutomatorCoin.sol\":4619:4635  swapAndLiquify() */\n      jump\t// in\n    tag_318:\n        /* \"AutomatorCoin.sol\":4517:4654  if(recipient == pair && balanceOf(address(this)) >= swapThreshold && !swapping) {... */\n    tag_317:\n        /* \"AutomatorCoin.sol\":3884:4668  {... */\n      pop\n      pop\n      pop\n      pop\n        /* \"AutomatorCoin.sol\":3866:4668  if(taxAmount > 0) {... */\n    tag_297:\n        /* \"AutomatorCoin.sol\":3537:4678  if(!isExcludedFromFee[sender] && !isExcludedFromFee[recipient]) {... */\n    tag_287:\n        /* \"AutomatorCoin.sol\":4688:4730  super._transfer(sender, recipient, amount) */\n      tag_320\n        /* \"AutomatorCoin.sol\":4704:4710  sender */\n      dup5\n        /* \"AutomatorCoin.sol\":4712:4721  recipient */\n      dup5\n        /* \"AutomatorCoin.sol\":4723:4729  amount */\n      dup5\n        /* \"AutomatorCoin.sol\":4688:4703  super._transfer */\n      tag_309\n        /* \"AutomatorCoin.sol\":4688:4730  super._transfer(sender, recipient, amount) */\n      jump\t// in\n    tag_320:\n        /* \"AutomatorCoin.sol\":3303:4737  {... */\n      pop\n        /* \"@openzeppelin/contracts/security/ReentrancyGuard.sol\":2303:2323  _nonReentrantAfter() */\n      tag_321\n        /* \"@openzeppelin/contracts/security/ReentrancyGuard.sol\":2303:2321  _nonReentrantAfter */\n      tag_322\n        /* \"@openzeppelin/contracts/security/ReentrancyGuard.sol\":2303:2323  _nonReentrantAfter() */\n      jump\t// in\n    tag_321:\n        /* \"AutomatorCoin.sol\":3205:4737  function _customTransfer(address sender, address recipient, uint256 amount) internal nonReentrant {... */\n      pop\n      pop\n      pop\n      jump\t// out\n        /* \"@openzeppelin/contracts/access/Ownable.sol\":2912:3099  function _transferOwnership(address newOwner) internal virtual {... */\n    tag_216:\n        /* \"@openzeppelin/contracts/access/Ownable.sol\":2985:3001  address oldOwner */\n      0x00\n        /* \"@openzeppelin/contracts/access/Ownable.sol\":3004:3010  _owner */\n      0x05\n      0x00\n      swap1\n      sload\n      swap1\n      0x0100\n      exp\n      swap1\n      div\n      0xffffffffffffffffffffffffffffffffffffffff\n      and\n        /* \"@openzeppelin/contracts/access/Ownable.sol\":2985:3010  address oldOwner = _owner */\n      swap1\n      pop\n        /* \"@openzeppelin/contracts/access/Ownable.sol\":3029:3037  newOwner */\n      dup2\n        /* \"@openzeppelin/contracts/access/Ownable.sol\":3020:3026  _owner */\n      0x05\n      0x00\n        /* \"@openzeppelin/contracts/access/Ownable.sol\":3020:3037  _owner = newOwner */\n      0x0100\n      exp\n      dup2\n      sload\n      dup2\n      0xffffffffffffffffffffffffffffffffffffffff\n      mul\n      not\n      and\n      swap1\n      dup4\n      0xffffffffffffffffffffffffffffffffffffffff\n      and\n      mul\n      or\n      swap1\n      sstore\n      pop\n        /* \"@openzeppelin/contracts/access/Ownable.sol\":3083:3091  newOwner */\n      dup2\n        /* \"@openzeppelin/contracts/access/Ownable.sol\":3052:3092  OwnershipTransferred(oldOwner, newOwner) */\n      0xffffffffffffffffffffffffffffffffffffffff\n      and\n        /* \"@openzeppelin/contracts/access/Ownable.sol\":3073:3081  oldOwner */\n      dup2\n        /* \"@openzeppelin/contracts/access/Ownable.sol\":3052:3092  OwnershipTransferred(oldOwner, newOwner) */\n      0xffffffffffffffffffffffffffffffffffffffff\n      and\n      0x8be0079c531659141344cd1fd0a4f28419497f9722a3daafe3b4186f6b6457e0\n      mload(0x40)\n      mload(0x40)\n      dup1\n      swap2\n      sub\n      swap1\n      log3\n        /* \"@openzeppelin/contracts/access/Ownable.sol\":2975:3099  {... */\n      pop\n        /* \"@openzeppelin/contracts/access/Ownable.sol\":2912:3099  function _transferOwnership(address newOwner) internal virtual {... */\n      pop\n      jump\t// out\n        /* \"@openzeppelin/contracts/token/ERC20/ERC20.sol\":9682:10114  function _approve(address owner, address spender, uint256 value, bool emitEvent) internal virtual {... */\n    tag_260:\n        /* \"@openzeppelin/contracts/token/ERC20/ERC20.sol\":9811:9812  0 */\n      0x00\n        /* \"@openzeppelin/contracts/token/ERC20/ERC20.sol\":9794:9813  owner == address(0) */\n      0xffffffffffffffffffffffffffffffffffffffff\n      and\n        /* \"@openzeppelin/contracts/token/ERC20/ERC20.sol\":9794:9799  owner */\n      dup5\n        /* \"@openzeppelin/contracts/token/ERC20/ERC20.sol\":9794:9813  owner == address(0) */\n      0xffffffffffffffffffffffffffffffffffffffff\n      and\n      sub\n        /* \"@openzeppelin/contracts/token/ERC20/ERC20.sol\":9790:9879  if (owner == address(0)) {... */\n      tag_325\n      jumpi\n        /* \"@openzeppelin/contracts/token/ERC20/ERC20.sol\":9865:9866  0 */\n      0x00\n        /* \"@openzeppelin/contracts/token/ERC20/ERC20.sol\":9836:9868  ERC20InvalidApprover(address(0)) */\n      mload(0x40)\n      0xe602df0500000000000000000000000000000000000000000000000000000000\n      dup2\n      mstore\n      0x04\n      add\n      tag_326\n      swap2\n      swap1\n      tag_127\n      jump\t// in\n    tag_326:\n      mload(0x40)\n      dup1\n      swap2\n      sub\n      swap1\n      revert\n        /* \"@openzeppelin/contracts/token/ERC20/ERC20.sol\":9790:9879  if (owner == address(0)) {... */\n    tag_325:\n        /* \"@openzeppelin/contracts/token/ERC20/ERC20.sol\":9911:9912  0 */\n      0x00\n        /* \"@openzeppelin/contracts/token/ERC20/ERC20.sol\":9892:9913  spender == address(0) */\n      0xffffffffffffffffffffffffffffffffffffffff\n      and\n        /* \"@openzeppelin/contracts/token/ERC20/ERC20.sol\":9892:9899  spender */\n      dup4\n        /* \"@openzeppelin/contracts/token/ERC20/ERC20.sol\":9892:9913  spender == address(0) */\n      0xffffffffffffffffffffffffffffffffffffffff\n      and\n      sub\n        /* \"@openzeppelin/contracts/token/ERC20/ERC20.sol\":9888:9978  if (spender == address(0)) {... */\n      tag_327\n      jumpi\n        /* \"@openzeppelin/contracts/token/ERC20/ERC20.sol\":9964:9965  0 */\n      0x00\n        /* \"@openzeppelin/contracts/token/ERC20/ERC20.sol\":9936:9967  ERC20InvalidSpender(address(0)) */\n      mload(0x40)\n      0x94280d6200000000000000000000000000000000000000000000000000000000\n      dup2\n      mstore\n      0x04\n      add\n      tag_328\n      swap2\n      swap1\n      tag_127\n      jump\t// in\n    tag_328:\n      mload(0x40)\n      dup1\n      swap2\n      sub\n      swap1\n      revert\n        /* \"@openzeppelin/contracts/token/ERC20/ERC20.sol\":9888:9978  if (spender == address(0)) {... */\n    tag_327:\n        /* \"@openzeppelin/contracts/token/ERC20/ERC20.sol\":10017:10022  value */\n      dup2\n        /* \"@openzeppelin/contracts/token/ERC20/ERC20.sol\":9987:9998  _allowances */\n      0x01\n        /* \"@openzeppelin/contracts/token/ERC20/ERC20.sol\":9987:10005  _allowances[owner] */\n      0x00\n        /* \"@openzeppelin/contracts/token/ERC20/ERC20.sol\":9999:10004  owner */\n      dup7\n        /* \"@openzeppelin/contracts/token/ERC20/ERC20.sol\":9987:10005  _allowances[owner] */\n      0xffffffffffffffffffffffffffffffffffffffff\n      and\n      0xffffffffffffffffffffffffffffffffffffffff\n      and\n      dup2\n      mstore\n      0x20\n      add\n      swap1\n      dup2\n      mstore\n      0x20\n      add\n      0x00\n      keccak256\n        /* \"@openzeppelin/contracts/token/ERC20/ERC20.sol\":9987:10014  _allowances[owner][spender] */\n      0x00\n        /* \"@openzeppelin/contracts/token/ERC20/ERC20.sol\":10006:10013  spender */\n      dup6\n        /* \"@openzeppelin/contracts/token/ERC20/ERC20.sol\":9987:10014  _allowances[owner][spender] */\n      0xffffffffffffffffffffffffffffffffffffffff\n      and\n      0xffffffffffffffffffffffffffffffffffffffff\n      and\n      dup2\n      mstore\n      0x20\n      add\n      swap1\n      dup2\n      mstore\n      0x20\n      add\n      0x00\n      keccak256\n        /* \"@openzeppelin/contracts/token/ERC20/ERC20.sol\":9987:10022  _allowances[owner][spender] = value */\n      dup2\n      swap1\n      sstore\n      pop\n        /* \"@openzeppelin/contracts/token/ERC20/ERC20.sol\":10036:10045  emitEvent */\n      dup1\n        /* \"@openzeppelin/contracts/token/ERC20/ERC20.sol\":10032:10108  if (emitEvent) {... */\n      iszero\n      tag_329\n      jumpi\n        /* \"@openzeppelin/contracts/token/ERC20/ERC20.sol\":10082:10089  spender */\n      dup3\n        /* \"@openzeppelin/contracts/token/ERC20/ERC20.sol\":10066:10097  Approval(owner, spender, value) */\n      0xffffffffffffffffffffffffffffffffffffffff\n      and\n        /* \"@openzeppelin/contracts/token/ERC20/ERC20.sol\":10075:10080  owner */\n      dup5\n        /* \"@openzeppelin/contracts/token/ERC20/ERC20.sol\":10066:10097  Approval(owner, spender, value) */\n      0xffffffffffffffffffffffffffffffffffffffff\n      and\n      0x8c5be1e5ebec7d5bd14f71427d1e84f3dd0314c0f7b2291e5b200ac8c7c3b925\n        /* \"@openzeppelin/contracts/token/ERC20/ERC20.sol\":10091:10096  value */\n      dup5\n        /* \"@openzeppelin/contracts/token/ERC20/ERC20.sol\":10066:10097  Approval(owner, spender, value) */\n      mload(0x40)\n      tag_330\n      swap2\n      swap1\n      tag_47\n      jump\t// in\n    tag_330:\n      mload(0x40)\n      dup1\n      swap2\n      sub\n      swap1\n      log3\n        /* \"@openzeppelin/contracts/token/ERC20/ERC20.sol\":10032:10108  if (emitEvent) {... */\n    tag_329:\n        /* \"@openzeppelin/contracts/token/ERC20/ERC20.sol\":9682:10114  function _approve(address owner, address spender, uint256 value, bool emitEvent) internal virtual {... */\n      pop\n      pop\n      pop\n      pop\n      jump\t// out\n        /* \"@openzeppelin/contracts/security/ReentrancyGuard.sol\":2336:2623  function _nonReentrantBefore() private {... */\n    tag_276:\n        /* \"@openzeppelin/contracts/security/ReentrancyGuard.sol\":1759:1760  2 */\n      0x02\n        /* \"@openzeppelin/contracts/security/ReentrancyGuard.sol\":2468:2475  _status */\n      sload(0x06)\n        /* \"@openzeppelin/contracts/security/ReentrancyGuard.sol\":2468:2487  _status != _ENTERED */\n      sub\n        /* \"@openzeppelin/contracts/security/ReentrancyGuard.sol\":2460:2523  require(_status != _ENTERED, \"ReentrancyGuard: reentrant call\") */\n      tag_332\n      jumpi\n      mload(0x40)\n      0x08c379a000000000000000000000000000000000000000000000000000000000\n      dup2\n      mstore\n      0x04\n      add\n      tag_333\n      swap1\n      tag_334\n      jump\t// in\n    tag_333:\n      mload(0x40)\n      dup1\n      swap2\n      sub\n      swap1\n      revert\n    tag_332:\n        /* \"@openzeppelin/contracts/security/ReentrancyGuard.sol\":1759:1760  2 */\n      0x02\n        /* \"@openzeppelin/contracts/security/ReentrancyGuard.sol\":2598:2605  _status */\n      0x06\n        /* \"@openzeppelin/contracts/security/ReentrancyGuard.sol\":2598:2616  _status = _ENTERED */\n      dup2\n      swap1\n      sstore\n      pop\n        /* \"@openzeppelin/contracts/security/ReentrancyGuard.sol\":2336:2623  function _nonReentrantBefore() private {... */\n      jump\t// out\n        /* \"@openzeppelin/contracts/token/ERC20/ERC20.sol\":5374:5674  function _transfer(address from, address to, uint256 value) internal {... */\n    tag_309:\n        /* \"@openzeppelin/contracts/token/ERC20/ERC20.sol\":5473:5474  0 */\n      0x00\n        /* \"@openzeppelin/contracts/token/ERC20/ERC20.sol\":5457:5475  from == address(0) */\n      0xffffffffffffffffffffffffffffffffffffffff\n      and\n        /* \"@openzeppelin/contracts/token/ERC20/ERC20.sol\":5457:5461  from */\n      dup4\n        /* \"@openzeppelin/contracts/token/ERC20/ERC20.sol\":5457:5475  from == address(0) */\n      0xffffffffffffffffffffffffffffffffffffffff\n      and\n      sub\n        /* \"@openzeppelin/contracts/token/ERC20/ERC20.sol\":5453:5539  if (from == address(0)) {... */\n      tag_336\n      jumpi\n        /* \"@openzeppelin/contracts/token/ERC20/ERC20.sol\":5525:5526  0 */\n      0x00\n        /* \"@openzeppelin/contracts/token/ERC20/ERC20.sol\":5498:5528  ERC20InvalidSender(address(0)) */\n      mload(0x40)\n      0x96c6fd1e00000000000000000000000000000000000000000000000000000000\n      dup2\n      mstore\n      0x04\n      add\n      tag_337\n      swap2\n      swap1\n      tag_127\n      jump\t// in\n    tag_337:\n      mload(0x40)\n      dup1\n      swap2\n      sub\n      swap1\n      revert\n        /* \"@openzeppelin/contracts/token/ERC20/ERC20.sol\":5453:5539  if (from == address(0)) {... */\n    tag_336:\n        /* \"@openzeppelin/contracts/token/ERC20/ERC20.sol\":5566:5567  0 */\n      0x00\n        /* \"@openzeppelin/contracts/token/ERC20/ERC20.sol\":5552:5568  to == address(0) */\n      0xffffffffffffffffffffffffffffffffffffffff\n      and\n        /* \"@openzeppelin/contracts/token/ERC20/ERC20.sol\":5552:5554  to */\n      dup3\n        /* \"@openzeppelin/contracts/token/ERC20/ERC20.sol\":5552:5568  to == address(0) */\n      0xffffffffffffffffffffffffffffffffffffffff\n      and\n      sub\n        /* \"@openzeppelin/contracts/token/ERC20/ERC20.sol\":5548:5634  if (to == address(0)) {... */\n      tag_338\n      jumpi\n        /* \"@openzeppelin/contracts/token/ERC20/ERC20.sol\":5620:5621  0 */\n      0x00\n        /* \"@openzeppelin/contracts/token/ERC20/ERC20.sol\":5591:5623  ERC20InvalidReceiver(address(0)) */\n      mload(0x40)\n      0xec442f0500000000000000000000000000000000000000000000000000000000\n      dup2\n      mstore\n      0x04\n      add\n      tag_339\n      swap2\n      swap1\n      tag_127\n      jump\t// in\n    tag_339:\n      mload(0x40)\n      dup1\n      swap2\n      sub\n      swap1\n      revert\n        /* \"@openzeppelin/contracts/token/ERC20/ERC20.sol\":5548:5634  if (to == address(0)) {... */\n    tag_338:\n        /* \"@openzeppelin/contracts/token/ERC20/ERC20.sol\":5643:5667  _update(from, to, value) */\n      tag_340\n        /* \"@openzeppelin/contracts/token/ERC20/ERC20.sol\":5651:5655  from */\n      dup4\n        /* \"@openzeppelin/contracts/token/ERC20/ERC20.sol\":5657:5659  to */\n      dup4\n        /* \"@openzeppelin/contracts/token/ERC20/ERC20.sol\":5661:5666  value */\n      dup4\n        /* \"@openzeppelin/contracts/token/ERC20/ERC20.sol\":5643:5650  _update */\n      tag_341\n        /* \"@openzeppelin/contracts/token/ERC20/ERC20.sol\":5643:5667  _update(from, to, value) */\n      jump\t// in\n    tag_340:\n        /* \"@openzeppelin/contracts/token/ERC20/ERC20.sol\":5374:5674  function _transfer(address from, address to, uint256 value) internal {... */\n      pop\n      pop\n      pop\n      jump\t// out\n        /* \"AutomatorCoin.sol\":4743:5826  function swapAndLiquify() private {... */\n    tag_319:\n        /* \"AutomatorCoin.sol\":4798:4802  true */\n      0x01\n        /* \"AutomatorCoin.sol\":4787:4795  swapping */\n      0x11\n      0x00\n        /* \"AutomatorCoin.sol\":4787:4802  swapping = true */\n      0x0100\n      exp\n      dup2\n      sload\n      dup2\n      0xff\n      mul\n      not\n      and\n      swap1\n      dup4\n      iszero\n      iszero\n      mul\n      or\n      swap1\n      sstore\n      pop\n        /* \"AutomatorCoin.sol\":4812:4835  uint256 contractBalance */\n      0x00\n        /* \"AutomatorCoin.sol\":4838:4862  balanceOf(address(this)) */\n      tag_343\n        /* \"AutomatorCoin.sol\":4856:4860  this */\n      address\n        /* \"AutomatorCoin.sol\":4838:4847  balanceOf */\n      tag_118\n        /* \"AutomatorCoin.sol\":4838:4862  balanceOf(address(this)) */\n      jump\t// in\n    tag_343:\n        /* \"AutomatorCoin.sol\":4812:4862  uint256 contractBalance = balanceOf(address(this)) */\n      swap1\n      pop\n        /* \"AutomatorCoin.sol\":4872:4884  uint256 half */\n      0x00\n        /* \"AutomatorCoin.sol\":4905:4906  2 */\n      0x02\n        /* \"AutomatorCoin.sol\":4887:4902  contractBalance */\n      dup3\n        /* \"AutomatorCoin.sol\":4887:4906  contractBalance / 2 */\n      tag_344\n      swap2\n      swap1\n      tag_292\n      jump\t// in\n    tag_344:\n        /* \"AutomatorCoin.sol\":4872:4906  uint256 half = contractBalance / 2 */\n      swap1\n      pop\n        /* \"AutomatorCoin.sol\":4916:4933  uint256 otherHalf */\n      0x00\n        /* \"AutomatorCoin.sol\":4954:4958  half */\n      dup2\n        /* \"AutomatorCoin.sol\":4936:4951  contractBalance */\n      dup4\n        /* \"AutomatorCoin.sol\":4936:4958  contractBalance - half */\n      tag_345\n      swap2\n      swap1\n      tag_305\n      jump\t// in\n    tag_345:\n        /* \"AutomatorCoin.sol\":4916:4958  uint256 otherHalf = contractBalance - half */\n      swap1\n      pop\n        /* \"AutomatorCoin.sol\":5013:5034  address[] memory path */\n      0x00\n        /* \"AutomatorCoin.sol\":5051:5052  2 */\n      0x02\n        /* \"AutomatorCoin.sol\":5037:5053  new address[](2) */\n      0xffffffffffffffff\n      dup2\n      gt\n      iszero\n      tag_346\n      jumpi\n      tag_347\n      tag_348\n      jump\t// in\n    tag_347:\n    tag_346:\n      mload(0x40)\n      swap1\n      dup1\n      dup3\n      mstore\n      dup1\n      0x20\n      mul\n      0x20\n      add\n      dup3\n      add\n      0x40\n      mstore\n      dup1\n      iszero\n      tag_349\n      jumpi\n      dup2\n      0x20\n      add\n      0x20\n      dup3\n      mul\n      dup1\n      calldatasize\n      dup4\n      calldatacopy\n      dup1\n      dup3\n      add\n      swap2\n      pop\n      pop\n      swap1\n      pop\n    tag_349:\n      pop\n        /* \"AutomatorCoin.sol\":5013:5053  address[] memory path = new address[](2) */\n      swap1\n      pop\n        /* \"AutomatorCoin.sol\":5081:5085  this */\n      address\n        /* \"AutomatorCoin.sol\":5063:5067  path */\n      dup2\n        /* \"AutomatorCoin.sol\":5068:5069  0 */\n      0x00\n        /* \"AutomatorCoin.sol\":5063:5070  path[0] */\n      dup2\n      mload\n      dup2\n      lt\n      tag_350\n      jumpi\n      tag_351\n      tag_352\n      jump\t// in\n    tag_351:\n    tag_350:\n      0x20\n      mul\n      0x20\n      add\n      add\n        /* \"AutomatorCoin.sol\":5063:5086  path[0] = address(this) */\n      swap1\n      0xffffffffffffffffffffffffffffffffffffffff\n      and\n      swap1\n      dup2\n      0xffffffffffffffffffffffffffffffffffffffff\n      and\n      dup2\n      mstore\n      pop\n      pop\n        /* \"AutomatorCoin.sol\":5106:5112  router */\n      0x07\n      0x00\n      swap1\n      sload\n      swap1\n      0x0100\n      exp\n      swap1\n      div\n      0xffffffffffffffffffffffffffffffffffffffff\n      and\n        /* \"AutomatorCoin.sol\":5106:5117  router.WETH */\n      0xffffffffffffffffffffffffffffffffffffffff\n      and\n      0xad5c4648\n        /* \"AutomatorCoin.sol\":5106:5119  router.WETH() */\n      mload(0x40)\n      dup2\n      0xffffffff\n      and\n      0xe0\n      shl\n      dup2\n      mstore\n      0x04\n      add\n      0x20\n      mload(0x40)\n      dup1\n      dup4\n      sub\n      dup2\n      dup7\n      gas\n      staticcall\n      iszero\n      dup1\n      iszero\n      tag_354\n      jumpi\n      returndatasize\n      0x00\n      dup1\n      returndatacopy\n      revert(0x00, returndatasize)\n    tag_354:\n      pop\n      pop\n      pop\n      pop\n      mload(0x40)\n      returndatasize\n      not(0x1f)\n      0x1f\n      dup3\n      add\n      and\n      dup3\n      add\n      dup1\n      0x40\n      mstore\n      pop\n      dup2\n      add\n      swap1\n      tag_355\n      swap2\n      swap1\n      tag_356\n      jump\t// in\n    tag_355:\n        /* \"AutomatorCoin.sol\":5096:5100  path */\n      dup2\n        /* \"AutomatorCoin.sol\":5101:5102  1 */\n      0x01\n        /* \"AutomatorCoin.sol\":5096:5103  path[1] */\n      dup2\n      mload\n      dup2\n      lt\n      tag_357\n      jumpi\n      tag_358\n      tag_352\n      jump\t// in\n    tag_358:\n    tag_357:\n      0x20\n      mul\n      0x20\n      add\n      add\n        /* \"AutomatorCoin.sol\":5096:5119  path[1] = router.WETH() */\n      swap1\n      0xffffffffffffffffffffffffffffffffffffffff\n      and\n      swap1\n      dup2\n      0xffffffffffffffffffffffffffffffffffffffff\n      and\n      dup2\n      mstore\n      pop\n      pop\n        /* \"AutomatorCoin.sol\":5157:5175  uint256 initialBNB */\n      0x00\n        /* \"AutomatorCoin.sol\":5178:5199  address(this).balance */\n      selfbalance\n        /* \"AutomatorCoin.sol\":5157:5199  uint256 initialBNB = address(this).balance */\n      swap1\n      pop\n        /* \"AutomatorCoin.sol\":5210:5256  _approve(address(this), address(router), half) */\n      tag_359\n        /* \"AutomatorCoin.sol\":5227:5231  this */\n      address\n        /* \"AutomatorCoin.sol\":5242:5248  router */\n      0x07\n      0x00\n      swap1\n      sload\n      swap1\n      0x0100\n      exp\n      swap1\n      div\n      0xffffffffffffffffffffffffffffffffffffffff\n      and\n        /* \"AutomatorCoin.sol\":5251:5255  half */\n      dup7\n        /* \"AutomatorCoin.sol\":5210:5218  _approve */\n      tag_195\n        /* \"AutomatorCoin.sol\":5210:5256  _approve(address(this), address(router), half) */\n      jump\t// in\n    tag_359:\n        /* \"AutomatorCoin.sol\":5266:5272  router */\n      0x07\n      0x00\n      swap1\n      sload\n      swap1\n      0x0100\n      exp\n      swap1\n      div\n      0xffffffffffffffffffffffffffffffffffffffff\n      and\n        /* \"AutomatorCoin.sol\":5266:5323  router.swapExactTokensForETHSupportingFeeOnTransferTokens */\n      0xffffffffffffffffffffffffffffffffffffffff\n      and\n      0x791ac947\n        /* \"AutomatorCoin.sol\":5337:5341  half */\n      dup6\n        /* \"AutomatorCoin.sol\":5343:5344  0 */\n      0x00\n        /* \"AutomatorCoin.sol\":5346:5350  path */\n      dup6\n        /* \"AutomatorCoin.sol\":5360:5364  this */\n      address\n        /* \"AutomatorCoin.sol\":5367:5382  block.timestamp */\n      timestamp\n        /* \"AutomatorCoin.sol\":5266:5392  router.swapExactTokensForETHSupportingFeeOnTransferTokens(... */\n      mload(0x40)\n      dup7\n      0xffffffff\n      and\n      0xe0\n      shl\n      dup2\n      mstore\n      0x04\n      add\n      tag_360\n      swap6\n      swap5\n      swap4\n      swap3\n      swap2\n      swap1\n      tag_361\n      jump\t// in\n    tag_360:\n      0x00\n      mload(0x40)\n      dup1\n      dup4\n      sub\n      dup2\n      0x00\n      dup8\n      dup1\n      extcodesize\n      iszero\n      dup1\n      iszero\n      tag_362\n      jumpi\n      0x00\n      dup1\n      revert\n    tag_362:\n      pop\n      gas\n      call\n      iszero\n      dup1\n      iszero\n      tag_364\n      jumpi\n      returndatasize\n      0x00\n      dup1\n      returndatacopy\n      revert(0x00, returndatasize)\n    tag_364:\n      pop\n      pop\n      pop\n      pop\n        /* \"AutomatorCoin.sol\":5403:5417  uint256 newBNB */\n      0x00\n        /* \"AutomatorCoin.sol\":5444:5454  initialBNB */\n      dup2\n        /* \"AutomatorCoin.sol\":5420:5441  address(this).balance */\n      selfbalance\n        /* \"AutomatorCoin.sol\":5420:5454  address(this).balance - initialBNB */\n      tag_365\n      swap2\n      swap1\n      tag_305\n      jump\t// in\n    tag_365:\n        /* \"AutomatorCoin.sol\":5403:5454  uint256 newBNB = address(this).balance - initialBNB */\n      swap1\n      pop\n        /* \"AutomatorCoin.sol\":5465:5516  _approve(address(this), address(router), otherHalf) */\n      tag_366\n        /* \"AutomatorCoin.sol\":5482:5486  this */\n      address\n        /* \"AutomatorCoin.sol\":5497:5503  router */\n      0x07\n      0x00\n      swap1\n      sload\n      swap1\n      0x0100\n      exp\n      swap1\n      div\n      0xffffffffffffffffffffffffffffffffffffffff\n      and\n        /* \"AutomatorCoin.sol\":5506:5515  otherHalf */\n      dup7\n        /* \"AutomatorCoin.sol\":5465:5473  _approve */\n      tag_195\n        /* \"AutomatorCoin.sol\":5465:5516  _approve(address(this), address(router), otherHalf) */\n      jump\t// in\n    tag_366:\n        /* \"AutomatorCoin.sol\":5526:5532  router */\n      0x07\n      0x00\n      swap1\n      sload\n      swap1\n      0x0100\n      exp\n      swap1\n      div\n      0xffffffffffffffffffffffffffffffffffffffff\n      and\n        /* \"AutomatorCoin.sol\":5526:5548  router.addLiquidityETH */\n      0xffffffffffffffffffffffffffffffffffffffff\n      and\n      0xf305d719\n        /* \"AutomatorCoin.sol\":5556:5562  newBNB */\n      dup3\n        /* \"AutomatorCoin.sol\":5585:5589  this */\n      address\n        /* \"AutomatorCoin.sol\":5604:5613  otherHalf */\n      dup8\n        /* \"AutomatorCoin.sol\":5627:5628  0 */\n      0x00\n        /* \"AutomatorCoin.sol\":5642:5643  0 */\n      dup1\n        /* \"AutomatorCoin.sol\":5657:5699  0x000000000000000000000000000000000000dEaD */\n      0xdead\n        /* \"AutomatorCoin.sol\":5713:5728  block.timestamp */\n      timestamp\n        /* \"AutomatorCoin.sol\":5526:5738  router.addLiquidityETH{value: newBNB}(... */\n      mload(0x40)\n      dup9\n      0xffffffff\n      and\n      0xe0\n      shl\n      dup2\n      mstore\n      0x04\n      add\n      tag_367\n      swap7\n      swap6\n      swap5\n      swap4\n      swap3\n      swap2\n      swap1\n      tag_368\n      jump\t// in\n    tag_367:\n      0x60\n      mload(0x40)\n      dup1\n      dup4\n      sub\n      dup2\n      dup6\n      dup9\n      gas\n      call\n      iszero\n      dup1\n      iszero\n      tag_370\n      jumpi\n      returndatasize\n      0x00\n      dup1\n      returndatacopy\n      revert(0x00, returndatasize)\n    tag_370:\n      pop\n      pop\n      pop\n      pop\n      pop\n      mload(0x40)\n      returndatasize\n      not(0x1f)\n      0x1f\n      dup3\n      add\n      and\n      dup3\n      add\n      dup1\n      0x40\n      mstore\n      pop\n      dup2\n      add\n      swap1\n      tag_371\n      swap2\n      swap1\n      tag_372\n      jump\t// in\n    tag_371:\n      pop\n      pop\n      pop\n        /* \"AutomatorCoin.sol\":5754:5793  SwapAndLiquify(half, newBNB, otherHalf) */\n      0x17bbfb9a6069321b6ded73bd96327c9e6b7212a5cd51ff219cd61370acafb561\n        /* \"AutomatorCoin.sol\":5769:5773  half */\n      dup6\n        /* \"AutomatorCoin.sol\":5775:5781  newBNB */\n      dup3\n        /* \"AutomatorCoin.sol\":5783:5792  otherHalf */\n      dup7\n        /* \"AutomatorCoin.sol\":5754:5793  SwapAndLiquify(half, newBNB, otherHalf) */\n      mload(0x40)\n      tag_373\n      swap4\n      swap3\n      swap2\n      swap1\n      tag_374\n      jump\t// in\n    tag_373:\n      mload(0x40)\n      dup1\n      swap2\n      sub\n      swap1\n      log1\n        /* \"AutomatorCoin.sol\":5814:5819  false */\n      0x00\n        /* \"AutomatorCoin.sol\":5803:5811  swapping */\n      0x11\n      0x00\n        /* \"AutomatorCoin.sol\":5803:5819  swapping = false */\n      0x0100\n      exp\n      dup2\n      sload\n      dup2\n      0xff\n      mul\n      not\n      and\n      swap1\n      dup4\n      iszero\n      iszero\n      mul\n      or\n      swap1\n      sstore\n      pop\n        /* \"AutomatorCoin.sol\":4777:5826  {... */\n      pop\n      pop\n      pop\n      pop\n      pop\n      pop\n        /* \"AutomatorCoin.sol\":4743:5826  function swapAndLiquify() private {... */\n      jump\t// out\n        /* \"@openzeppelin/contracts/security/ReentrancyGuard.sol\":2629:2838  function _nonReentrantAfter() private {... */\n    tag_322:\n        /* \"@openzeppelin/contracts/security/ReentrancyGuard.sol\":1716:1717  1 */\n      0x01\n        /* \"@openzeppelin/contracts/security/ReentrancyGuard.sol\":2809:2816  _status */\n      0x06\n        /* \"@openzeppelin/contracts/security/ReentrancyGuard.sol\":2809:2831  _status = _NOT_ENTERED */\n      dup2\n      swap1\n      sstore\n      pop\n        /* \"@openzeppelin/contracts/security/ReentrancyGuard.sol\":2629:2838  function _nonReentrantAfter() private {... */\n      jump\t// out\n        /* \"@openzeppelin/contracts/token/ERC20/ERC20.sol\":5989:7096  function _update(address from, address to, uint256 value) internal virtual {... */\n    tag_341:\n        /* \"@openzeppelin/contracts/token/ERC20/ERC20.sol\":6094:6095  0 */\n      0x00\n        /* \"@openzeppelin/contracts/token/ERC20/ERC20.sol\":6078:6096  from == address(0) */\n      0xffffffffffffffffffffffffffffffffffffffff\n      and\n        /* \"@openzeppelin/contracts/token/ERC20/ERC20.sol\":6078:6082  from */\n      dup4\n        /* \"@openzeppelin/contracts/token/ERC20/ERC20.sol\":6078:6096  from == address(0) */\n      0xffffffffffffffffffffffffffffffffffffffff\n      and\n      sub\n        /* \"@openzeppelin/contracts/token/ERC20/ERC20.sol\":6074:6614  if (from == address(0)) {... */\n      tag_377\n      jumpi\n        /* \"@openzeppelin/contracts/token/ERC20/ERC20.sol\":6230:6235  value */\n      dup1\n        /* \"@openzeppelin/contracts/token/ERC20/ERC20.sol\":6214:6226  _totalSupply */\n      0x02\n      0x00\n        /* \"@openzeppelin/contracts/token/ERC20/ERC20.sol\":6214:6235  _totalSupply += value */\n      dup3\n      dup3\n      sload\n      tag_378\n      swap2\n      swap1\n      tag_379\n      jump\t// in\n    tag_378:\n      swap3\n      pop\n      pop\n      dup2\n      swap1\n      sstore\n      pop\n        /* \"@openzeppelin/contracts/token/ERC20/ERC20.sol\":6074:6614  if (from == address(0)) {... */\n      jump(tag_380)\n    tag_377:\n        /* \"@openzeppelin/contracts/token/ERC20/ERC20.sol\":6266:6285  uint256 fromBalance */\n      0x00\n        /* \"@openzeppelin/contracts/token/ERC20/ERC20.sol\":6288:6297  _balances */\n      dup1\n        /* \"@openzeppelin/contracts/token/ERC20/ERC20.sol\":6288:6303  _balances[from] */\n      0x00\n        /* \"@openzeppelin/contracts/token/ERC20/ERC20.sol\":6298:6302  from */\n      dup6\n        /* \"@openzeppelin/contracts/token/ERC20/ERC20.sol\":6288:6303  _balances[from] */\n      0xffffffffffffffffffffffffffffffffffffffff\n      and\n      0xffffffffffffffffffffffffffffffffffffffff\n      and\n      dup2\n      mstore\n      0x20\n      add\n      swap1\n      dup2\n      mstore\n      0x20\n      add\n      0x00\n      keccak256\n      sload\n        /* \"@openzeppelin/contracts/token/ERC20/ERC20.sol\":6266:6303  uint256 fromBalance = _balances[from] */\n      swap1\n      pop\n        /* \"@openzeppelin/contracts/token/ERC20/ERC20.sol\":6335:6340  value */\n      dup2\n        /* \"@openzeppelin/contracts/token/ERC20/ERC20.sol\":6321:6332  fromBalance */\n      dup2\n        /* \"@openzeppelin/contracts/token/ERC20/ERC20.sol\":6321:6340  fromBalance < value */\n      lt\n        /* \"@openzeppelin/contracts/token/ERC20/ERC20.sol\":6317:6432  if (fromBalance < value) {... */\n      iszero\n      tag_381\n      jumpi\n        /* \"@openzeppelin/contracts/token/ERC20/ERC20.sol\":6392:6396  from */\n      dup4\n        /* \"@openzeppelin/contracts/token/ERC20/ERC20.sol\":6398:6409  fromBalance */\n      dup2\n        /* \"@openzeppelin/contracts/token/ERC20/ERC20.sol\":6411:6416  value */\n      dup4\n        /* \"@openzeppelin/contracts/token/ERC20/ERC20.sol\":6367:6417  ERC20InsufficientBalance(from, fromBalance, value) */\n      mload(0x40)\n      0xe450d38c00000000000000000000000000000000000000000000000000000000\n      dup2\n      mstore\n      0x04\n      add\n      tag_382\n      swap4\n      swap3\n      swap2\n      swap1\n      tag_272\n      jump\t// in\n    tag_382:\n      mload(0x40)\n      dup1\n      swap2\n      sub\n      swap1\n      revert\n        /* \"@openzeppelin/contracts/token/ERC20/ERC20.sol\":6317:6432  if (fromBalance < value) {... */\n    tag_381:\n        /* \"@openzeppelin/contracts/token/ERC20/ERC20.sol\":6584:6589  value */\n      dup2\n        /* \"@openzeppelin/contracts/token/ERC20/ERC20.sol\":6570:6581  fromBalance */\n      dup2\n        /* \"@openzeppelin/contracts/token/ERC20/ERC20.sol\":6570:6589  fromBalance - value */\n      sub\n        /* \"@openzeppelin/contracts/token/ERC20/ERC20.sol\":6552:6561  _balances */\n      0x00\n        /* \"@openzeppelin/contracts/token/ERC20/ERC20.sol\":6552:6567  _balances[from] */\n      dup1\n        /* \"@openzeppelin/contracts/token/ERC20/ERC20.sol\":6562:6566  from */\n      dup7\n        /* \"@openzeppelin/contracts/token/ERC20/ERC20.sol\":6552:6567  _balances[from] */\n      0xffffffffffffffffffffffffffffffffffffffff\n      and\n      0xffffffffffffffffffffffffffffffffffffffff\n      and\n      dup2\n      mstore\n      0x20\n      add\n      swap1\n      dup2\n      mstore\n      0x20\n      add\n      0x00\n      keccak256\n        /* \"@openzeppelin/contracts/token/ERC20/ERC20.sol\":6552:6589  _balances[from] = fromBalance - value */\n      dup2\n      swap1\n      sstore\n      pop\n        /* \"@openzeppelin/contracts/token/ERC20/ERC20.sol\":6252:6614  {... */\n      pop\n        /* \"@openzeppelin/contracts/token/ERC20/ERC20.sol\":6074:6614  if (from == address(0)) {... */\n    tag_380:\n        /* \"@openzeppelin/contracts/token/ERC20/ERC20.sol\":6642:6643  0 */\n      0x00\n        /* \"@openzeppelin/contracts/token/ERC20/ERC20.sol\":6628:6644  to == address(0) */\n      0xffffffffffffffffffffffffffffffffffffffff\n      and\n        /* \"@openzeppelin/contracts/token/ERC20/ERC20.sol\":6628:6630  to */\n      dup3\n        /* \"@openzeppelin/contracts/token/ERC20/ERC20.sol\":6628:6644  to == address(0) */\n      0xffffffffffffffffffffffffffffffffffffffff\n      and\n      sub\n        /* \"@openzeppelin/contracts/token/ERC20/ERC20.sol\":6624:7049  if (to == address(0)) {... */\n      tag_383\n      jumpi\n        /* \"@openzeppelin/contracts/token/ERC20/ERC20.sol\":6807:6812  value */\n      dup1\n        /* \"@openzeppelin/contracts/token/ERC20/ERC20.sol\":6791:6803  _totalSupply */\n      0x02\n      0x00\n        /* \"@openzeppelin/contracts/token/ERC20/ERC20.sol\":6791:6812  _totalSupply -= value */\n      dup3\n      dup3\n      sload\n      sub\n      swap3\n      pop\n      pop\n      dup2\n      swap1\n      sstore\n      pop\n        /* \"@openzeppelin/contracts/token/ERC20/ERC20.sol\":6624:7049  if (to == address(0)) {... */\n      jump(tag_384)\n    tag_383:\n        /* \"@openzeppelin/contracts/token/ERC20/ERC20.sol\":7019:7024  value */\n      dup1\n        /* \"@openzeppelin/contracts/token/ERC20/ERC20.sol\":7002:7011  _balances */\n      0x00\n        /* \"@openzeppelin/contracts/token/ERC20/ERC20.sol\":7002:7015  _balances[to] */\n      dup1\n        /* \"@openzeppelin/contracts/token/ERC20/ERC20.sol\":7012:7014  to */\n      dup5\n        /* \"@openzeppelin/contracts/token/ERC20/ERC20.sol\":7002:7015  _balances[to] */\n      0xffffffffffffffffffffffffffffffffffffffff\n      and\n      0xffffffffffffffffffffffffffffffffffffffff\n      and\n      dup2\n      mstore\n      0x20\n      add\n      swap1\n      dup2\n      mstore\n      0x20\n      add\n      0x00\n      keccak256\n      0x00\n        /* \"@openzeppelin/contracts/token/ERC20/ERC20.sol\":7002:7024  _balances[to] += value */\n      dup3\n      dup3\n      sload\n      add\n      swap3\n      pop\n      pop\n      dup2\n      swap1\n      sstore\n      pop\n        /* \"@openzeppelin/contracts/token/ERC20/ERC20.sol\":6624:7049  if (to == address(0)) {... */\n    tag_384:\n        /* \"@openzeppelin/contracts/token/ERC20/ERC20.sol\":7079:7081  to */\n      dup2\n        /* \"@openzeppelin/contracts/token/ERC20/ERC20.sol\":7064:7089  Transfer(from, to, value) */\n      0xffffffffffffffffffffffffffffffffffffffff\n      and\n        /* \"@openzeppelin/contracts/token/ERC20/ERC20.sol\":7073:7077  from */\n      dup4\n        /* \"@openzeppelin/contracts/token/ERC20/ERC20.sol\":7064:7089  Transfer(from, to, value) */\n      0xffffffffffffffffffffffffffffffffffffffff\n      and\n      0xddf252ad1be2c89b69c2b068fc378daa952ba7f163c4a11628f55a4df523b3ef\n        /* \"@openzeppelin/contracts/token/ERC20/ERC20.sol\":7083:7088  value */\n      dup4\n        /* \"@openzeppelin/contracts/token/ERC20/ERC20.sol\":7064:7089  Transfer(from, to, value) */\n      mload(0x40)\n      tag_385\n      swap2\n      swap1\n      tag_47\n      jump\t// in\n    tag_385:\n      mload(0x40)\n      dup1\n      swap2\n      sub\n      swap1\n      log3\n        /* \"@openzeppelin/contracts/token/ERC20/ERC20.sol\":5989:7096  function _update(address from, address to, uint256 value) internal virtual {... */\n      pop\n      pop\n      pop\n      jump\t// out\n        /* \"#utility.yul\":7:84   */\n    tag_386:\n        /* \"#utility.yul\":44:51   */\n      0x00\n        /* \"#utility.yul\":73:78   */\n      dup2\n        /* \"#utility.yul\":62:78   */\n      swap1\n      pop\n        /* \"#utility.yul\":7:84   */\n      swap2\n      swap1\n      pop\n      jump\t// out\n        /* \"#utility.yul\":90:208   */\n    tag_387:\n        /* \"#utility.yul\":177:201   */\n      tag_441\n        /* \"#utility.yul\":195:200   */\n      dup2\n        /* \"#utility.yul\":177:201   */\n      tag_386\n      jump\t// in\n    tag_441:\n        /* \"#utility.yul\":172:175   */\n      dup3\n        /* \"#utility.yul\":165:202   */\n      mstore\n        /* \"#utility.yul\":90:208   */\n      pop\n      pop\n      jump\t// out\n        /* \"#utility.yul\":214:436   */\n    tag_47:\n        /* \"#utility.yul\":307:311   */\n      0x00\n        /* \"#utility.yul\":345:347   */\n      0x20\n        /* \"#utility.yul\":334:343   */\n      dup3\n        /* \"#utility.yul\":330:348   */\n      add\n        /* \"#utility.yul\":322:348   */\n      swap1\n      pop\n        /* \"#utility.yul\":358:429   */\n      tag_443\n        /* \"#utility.yul\":426:427   */\n      0x00\n        /* \"#utility.yul\":415:424   */\n      dup4\n        /* \"#utility.yul\":411:428   */\n      add\n        /* \"#utility.yul\":402:408   */\n      dup5\n        /* \"#utility.yul\":358:429   */\n      tag_387\n      jump\t// in\n    tag_443:\n        /* \"#utility.yul\":214:436   */\n      swap3\n      swap2\n      pop\n      pop\n      jump\t// out\n        /* \"#utility.yul\":442:541   */\n    tag_388:\n        /* \"#utility.yul\":494:500   */\n      0x00\n        /* \"#utility.yul\":528:533   */\n      dup2\n        /* \"#utility.yul\":522:534   */\n      mload\n        /* \"#utility.yul\":512:534   */\n      swap1\n      pop\n        /* \"#utility.yul\":442:541   */\n      swap2\n      swap1\n      pop\n      jump\t// out\n        /* \"#utility.yul\":547:716   */\n    tag_389:\n        /* \"#utility.yul\":631:642   */\n      0x00\n        /* \"#utility.yul\":665:671   */\n      dup3\n        /* \"#utility.yul\":660:663   */\n      dup3\n        /* \"#utility.yul\":653:672   */\n      mstore\n        /* \"#utility.yul\":705:709   */\n      0x20\n        /* \"#utility.yul\":700:703   */\n      dup3\n        /* \"#utility.yul\":696:710   */\n      add\n        /* \"#utility.yul\":681:710   */\n      swap1\n      pop\n        /* \"#utility.yul\":547:716   */\n      swap3\n      swap2\n      pop\n      pop\n      jump\t// out\n        /* \"#utility.yul\":722:968   */\n    tag_390:\n        /* \"#utility.yul\":803:804   */\n      0x00\n        /* \"#utility.yul\":813:926   */\n    tag_447:\n        /* \"#utility.yul\":827:833   */\n      dup4\n        /* \"#utility.yul\":824:825   */\n      dup2\n        /* \"#utility.yul\":821:834   */\n      lt\n        /* \"#utility.yul\":813:926   */\n      iszero\n      tag_449\n      jumpi\n        /* \"#utility.yul\":912:913   */\n      dup1\n        /* \"#utility.yul\":907:910   */\n      dup3\n        /* \"#utility.yul\":903:914   */\n      add\n        /* \"#utility.yul\":897:915   */\n      mload\n        /* \"#utility.yul\":893:894   */\n      dup2\n        /* \"#utility.yul\":888:891   */\n      dup5\n        /* \"#utility.yul\":884:895   */\n      add\n        /* \"#utility.yul\":877:916   */\n      mstore\n        /* \"#utility.yul\":849:851   */\n      0x20\n        /* \"#utility.yul\":846:847   */\n      dup2\n        /* \"#utility.yul\":842:852   */\n      add\n        /* \"#utility.yul\":837:852   */\n      swap1\n      pop\n        /* \"#utility.yul\":813:926   */\n      jump(tag_447)\n    tag_449:\n        /* \"#utility.yul\":960:961   */\n      0x00\n        /* \"#utility.yul\":951:957   */\n      dup5\n        /* \"#utility.yul\":946:949   */\n      dup5\n        /* \"#utility.yul\":942:958   */\n      add\n        /* \"#utility.yul\":935:962   */\n      mstore\n        /* \"#utility.yul\":784:968   */\n      pop\n        /* \"#utility.yul\":722:968   */\n      pop\n      pop\n      pop\n      jump\t// out\n        /* \"#utility.yul\":974:1076   */\n    tag_391:\n        /* \"#utility.yul\":1015:1021   */\n      0x00\n        /* \"#utility.yul\":1066:1068   */\n      0x1f\n        /* \"#utility.yul\":1062:1069   */\n      not\n        /* \"#utility.yul\":1057:1059   */\n      0x1f\n        /* \"#utility.yul\":1050:1055   */\n      dup4\n        /* \"#utility.yul\":1046:1060   */\n      add\n        /* \"#utility.yul\":1042:1070   */\n      and\n        /* \"#utility.yul\":1032:1070   */\n      swap1\n      pop\n        /* \"#utility.yul\":974:1076   */\n      swap2\n      swap1\n      pop\n      jump\t// out\n        /* \"#utility.yul\":1082:1459   */\n    tag_392:\n        /* \"#utility.yul\":1170:1173   */\n      0x00\n        /* \"#utility.yul\":1198:1237   */\n      tag_452\n        /* \"#utility.yul\":1231:1236   */\n      dup3\n        /* \"#utility.yul\":1198:1237   */\n      tag_388\n      jump\t// in\n    tag_452:\n        /* \"#utility.yul\":1253:1324   */\n      tag_453\n        /* \"#utility.yul\":1317:1323   */\n      dup2\n        /* \"#utility.yul\":1312:1315   */\n      dup6\n        /* \"#utility.yul\":1253:1324   */\n      tag_389\n      jump\t// in\n    tag_453:\n        /* \"#utility.yul\":1246:1324   */\n      swap4\n      pop\n        /* \"#utility.yul\":1333:1398   */\n      tag_454\n        /* \"#utility.yul\":1391:1397   */\n      dup2\n        /* \"#utility.yul\":1386:1389   */\n      dup6\n        /* \"#utility.yul\":1379:1383   */\n      0x20\n        /* \"#utility.yul\":1372:1377   */\n      dup7\n        /* \"#utility.yul\":1368:1384   */\n      add\n        /* \"#utility.yul\":1333:1398   */\n      tag_390\n      jump\t// in\n    tag_454:\n        /* \"#utility.yul\":1423:1452   */\n      tag_455\n        /* \"#utility.yul\":1445:1451   */\n      dup2\n        /* \"#utility.yul\":1423:1452   */\n      tag_391\n      jump\t// in\n    tag_455:\n        /* \"#utility.yul\":1418:1421   */\n      dup5\n        /* \"#utility.yul\":1414:1453   */\n      add\n        /* \"#utility.yul\":1407:1453   */\n      swap2\n      pop\n        /* \"#utility.yul\":1174:1459   */\n      pop\n        /* \"#utility.yul\":1082:1459   */\n      swap3\n      swap2\n      pop\n      pop\n      jump\t// out\n        /* \"#utility.yul\":1465:1778   */\n    tag_56:\n        /* \"#utility.yul\":1578:1582   */\n      0x00\n        /* \"#utility.yul\":1616:1618   */\n      0x20\n        /* \"#utility.yul\":1605:1614   */\n      dup3\n        /* \"#utility.yul\":1601:1619   */\n      add\n        /* \"#utility.yul\":1593:1619   */\n      swap1\n      pop\n        /* \"#utility.yul\":1665:1674   */\n      dup2\n        /* \"#utility.yul\":1659:1663   */\n      dup2\n        /* \"#utility.yul\":1655:1675   */\n      sub\n        /* \"#utility.yul\":1651:1652   */\n      0x00\n        /* \"#utility.yul\":1640:1649   */\n      dup4\n        /* \"#utility.yul\":1636:1653   */\n      add\n        /* \"#utility.yul\":1629:1676   */\n      mstore\n        /* \"#utility.yul\":1693:1771   */\n      tag_457\n        /* \"#utility.yul\":1766:1770   */\n      dup2\n        /* \"#utility.yul\":1757:1763   */\n      dup5\n        /* \"#utility.yul\":1693:1771   */\n      tag_392\n      jump\t// in\n    tag_457:\n        /* \"#utility.yul\":1685:1771   */\n      swap1\n      pop\n        /* \"#utility.yul\":1465:1778   */\n      swap3\n      swap2\n      pop\n      pop\n      jump\t// out\n        /* \"#utility.yul\":1865:1982   */\n    tag_394:\n        /* \"#utility.yul\":1974:1975   */\n      0x00\n        /* \"#utility.yul\":1971:1972   */\n      dup1\n        /* \"#utility.yul\":1964:1976   */\n      revert\n        /* \"#utility.yul\":2111:2237   */\n    tag_396:\n        /* \"#utility.yul\":2148:2155   */\n      0x00\n        /* \"#utility.yul\":2188:2230   */\n      0xffffffffffffffffffffffffffffffffffffffff\n        /* \"#utility.yul\":2181:2186   */\n      dup3\n        /* \"#utility.yul\":2177:2231   */\n      and\n        /* \"#utility.yul\":2166:2231   */\n      swap1\n      pop\n        /* \"#utility.yul\":2111:2237   */\n      swap2\n      swap1\n      pop\n      jump\t// out\n        /* \"#utility.yul\":2243:2339   */\n    tag_397:\n        /* \"#utility.yul\":2280:2287   */\n      0x00\n        /* \"#utility.yul\":2309:2333   */\n      tag_463\n        /* \"#utility.yul\":2327:2332   */\n      dup3\n        /* \"#utility.yul\":2309:2333   */\n      tag_396\n      jump\t// in\n    tag_463:\n        /* \"#utility.yul\":2298:2333   */\n      swap1\n      pop\n        /* \"#utility.yul\":2243:2339   */\n      swap2\n      swap1\n      pop\n      jump\t// out\n        /* \"#utility.yul\":2345:2467   */\n    tag_398:\n        /* \"#utility.yul\":2418:2442   */\n      tag_465\n        /* \"#utility.yul\":2436:2441   */\n      dup2\n        /* \"#utility.yul\":2418:2442   */\n      tag_397\n      jump\t// in\n    tag_465:\n        /* \"#utility.yul\":2411:2416   */\n      dup2\n        /* \"#utility.yul\":2408:2443   */\n      eq\n        /* \"#utility.yul\":2398:2461   */\n      tag_466\n      jumpi\n        /* \"#utility.yul\":2457:2458   */\n      0x00\n        /* \"#utility.yul\":2454:2455   */\n      dup1\n        /* \"#utility.yul\":2447:2459   */\n      revert\n        /* \"#utility.yul\":2398:2461   */\n    tag_466:\n        /* \"#utility.yul\":2345:2467   */\n      pop\n      jump\t// out\n        /* \"#utility.yul\":2473:2612   */\n    tag_399:\n        /* \"#utility.yul\":2519:2524   */\n      0x00\n        /* \"#utility.yul\":2557:2563   */\n      dup2\n        /* \"#utility.yul\":2544:2564   */\n      calldataload\n        /* \"#utility.yul\":2535:2564   */\n      swap1\n      pop\n        /* \"#utility.yul\":2573:2606   */\n      tag_468\n        /* \"#utility.yul\":2600:2605   */\n      dup2\n        /* \"#utility.yul\":2573:2606   */\n      tag_398\n      jump\t// in\n    tag_468:\n        /* \"#utility.yul\":2473:2612   */\n      swap3\n      swap2\n      pop\n      pop\n      jump\t// out\n        /* \"#utility.yul\":2618:2740   */\n    tag_400:\n        /* \"#utility.yul\":2691:2715   */\n      tag_470\n        /* \"#utility.yul\":2709:2714   */\n      dup2\n        /* \"#utility.yul\":2691:2715   */\n      tag_386\n      jump\t// in\n    tag_470:\n        /* \"#utility.yul\":2684:2689   */\n      dup2\n        /* \"#utility.yul\":2681:2716   */\n      eq\n        /* \"#utility.yul\":2671:2734   */\n      tag_471\n      jumpi\n        /* \"#utility.yul\":2730:2731   */\n      0x00\n        /* \"#utility.yul\":2727:2728   */\n      dup1\n        /* \"#utility.yul\":2720:2732   */\n      revert\n        /* \"#utility.yul\":2671:2734   */\n    tag_471:\n        /* \"#utility.yul\":2618:2740   */\n      pop\n      jump\t// out\n        /* \"#utility.yul\":2746:2885   */\n    tag_401:\n        /* \"#utility.yul\":2792:2797   */\n      0x00\n        /* \"#utility.yul\":2830:2836   */\n      dup2\n        /* \"#utility.yul\":2817:2837   */\n      calldataload\n        /* \"#utility.yul\":2808:2837   */\n      swap1\n      pop\n        /* \"#utility.yul\":2846:2879   */\n      tag_473\n        /* \"#utility.yul\":2873:2878   */\n      dup2\n        /* \"#utility.yul\":2846:2879   */\n      tag_400\n      jump\t// in\n    tag_473:\n        /* \"#utility.yul\":2746:2885   */\n      swap3\n      swap2\n      pop\n      pop\n      jump\t// out\n        /* \"#utility.yul\":2891:3365   */\n    tag_60:\n        /* \"#utility.yul\":2959:2965   */\n      0x00\n        /* \"#utility.yul\":2967:2973   */\n      dup1\n        /* \"#utility.yul\":3016:3018   */\n      0x40\n        /* \"#utility.yul\":3004:3013   */\n      dup4\n        /* \"#utility.yul\":2995:3002   */\n      dup6\n        /* \"#utility.yul\":2991:3014   */\n      sub\n        /* \"#utility.yul\":2987:3019   */\n      slt\n        /* \"#utility.yul\":2984:3103   */\n      iszero\n      tag_475\n      jumpi\n        /* \"#utility.yul\":3022:3101   */\n      tag_476\n      tag_394\n      jump\t// in\n    tag_476:\n        /* \"#utility.yul\":2984:3103   */\n    tag_475:\n        /* \"#utility.yul\":3142:3143   */\n      0x00\n        /* \"#utility.yul\":3167:3220   */\n      tag_477\n        /* \"#utility.yul\":3212:3219   */\n      dup6\n        /* \"#utility.yul\":3203:3209   */\n      dup3\n        /* \"#utility.yul\":3192:3201   */\n      dup7\n        /* \"#utility.yul\":3188:3210   */\n      add\n        /* \"#utility.yul\":3167:3220   */\n      tag_399\n      jump\t// in\n    tag_477:\n        /* \"#utility.yul\":3157:3220   */\n      swap3\n      pop\n        /* \"#utility.yul\":3113:3230   */\n      pop\n        /* \"#utility.yul\":3269:3271   */\n      0x20\n        /* \"#utility.yul\":3295:3348   */\n      tag_478\n        /* \"#utility.yul\":3340:3347   */\n      dup6\n        /* \"#utility.yul\":3331:3337   */\n      dup3\n        /* \"#utility.yul\":3320:3329   */\n      dup7\n        /* \"#utility.yul\":3316:3338   */\n      add\n        /* \"#utility.yul\":3295:3348   */\n      tag_401\n      jump\t// in\n    tag_478:\n        /* \"#utility.yul\":3285:3348   */\n      swap2\n      pop\n        /* \"#utility.yul\":3240:3358   */\n      pop\n        /* \"#utility.yul\":2891:3365   */\n      swap3\n      pop\n      swap3\n      swap1\n      pop\n      jump\t// out\n        /* \"#utility.yul\":3371:3461   */\n    tag_402:\n        /* \"#utility.yul\":3405:3412   */\n      0x00\n        /* \"#utility.yul\":3448:3453   */\n      dup2\n        /* \"#utility.yul\":3441:3454   */\n      iszero\n        /* \"#utility.yul\":3434:3455   */\n      iszero\n        /* \"#utility.yul\":3423:3455   */\n      swap1\n      pop\n        /* \"#utility.yul\":3371:3461   */\n      swap2\n      swap1\n      pop\n      jump\t// out\n        /* \"#utility.yul\":3467:3576   */\n    tag_403:\n        /* \"#utility.yul\":3548:3569   */\n      tag_481\n        /* \"#utility.yul\":3563:3568   */\n      dup2\n        /* \"#utility.yul\":3548:3569   */\n      tag_402\n      jump\t// in\n    tag_481:\n        /* \"#utility.yul\":3543:3546   */\n      dup3\n        /* \"#utility.yul\":3536:3570   */\n      mstore\n        /* \"#utility.yul\":3467:3576   */\n      pop\n      pop\n      jump\t// out\n        /* \"#utility.yul\":3582:3792   */\n    tag_63:\n        /* \"#utility.yul\":3669:3673   */\n      0x00\n        /* \"#utility.yul\":3707:3709   */\n      0x20\n        /* \"#utility.yul\":3696:3705   */\n      dup3\n        /* \"#utility.yul\":3692:3710   */\n      add\n        /* \"#utility.yul\":3684:3710   */\n      swap1\n      pop\n        /* \"#utility.yul\":3720:3785   */\n      tag_483\n        /* \"#utility.yul\":3782:3783   */\n      0x00\n        /* \"#utility.yul\":3771:3780   */\n      dup4\n        /* \"#utility.yul\":3767:3784   */\n      add\n        /* \"#utility.yul\":3758:3764   */\n      dup5\n        /* \"#utility.yul\":3720:3785   */\n      tag_403\n      jump\t// in\n    tag_483:\n        /* \"#utility.yul\":3582:3792   */\n      swap3\n      swap2\n      pop\n      pop\n      jump\t// out\n        /* \"#utility.yul\":3798:4417   */\n    tag_67:\n        /* \"#utility.yul\":3875:3881   */\n      0x00\n        /* \"#utility.yul\":3883:3889   */\n      dup1\n        /* \"#utility.yul\":3891:3897   */\n      0x00\n        /* \"#utility.yul\":3940:3942   */\n      0x60\n        /* \"#utility.yul\":3928:3937   */\n      dup5\n        /* \"#utility.yul\":3919:3926   */\n      dup7\n        /* \"#utility.yul\":3915:3938   */\n      sub\n        /* \"#utility.yul\":3911:3943   */\n      slt\n        /* \"#utility.yul\":3908:4027   */\n      iszero\n      tag_485\n      jumpi\n        /* \"#utility.yul\":3946:4025   */\n      tag_486\n      tag_394\n      jump\t// in\n    tag_486:\n        /* \"#utility.yul\":3908:4027   */\n    tag_485:\n        /* \"#utility.yul\":4066:4067   */\n      0x00\n        /* \"#utility.yul\":4091:4144   */\n      tag_487\n        /* \"#utility.yul\":4136:4143   */\n      dup7\n        /* \"#utility.yul\":4127:4133   */\n      dup3\n        /* \"#utility.yul\":4116:4125   */\n      dup8\n        /* \"#utility.yul\":4112:4134   */\n      add\n        /* \"#utility.yul\":4091:4144   */\n      tag_399\n      jump\t// in\n    tag_487:\n        /* \"#utility.yul\":4081:4144   */\n      swap4\n      pop\n        /* \"#utility.yul\":4037:4154   */\n      pop\n        /* \"#utility.yul\":4193:4195   */\n      0x20\n        /* \"#utility.yul\":4219:4272   */\n      tag_488\n        /* \"#utility.yul\":4264:4271   */\n      dup7\n        /* \"#utility.yul\":4255:4261   */\n      dup3\n        /* \"#utility.yul\":4244:4253   */\n      dup8\n        /* \"#utility.yul\":4240:4262   */\n      add\n        /* \"#utility.yul\":4219:4272   */\n      tag_399\n      jump\t// in\n    tag_488:\n        /* \"#utility.yul\":4209:4272   */\n      swap3\n      pop\n        /* \"#utility.yul\":4164:4282   */\n      pop\n        /* \"#utility.yul\":4321:4323   */\n      0x40\n        /* \"#utility.yul\":4347:4400   */\n      tag_489\n        /* \"#utility.yul\":4392:4399   */\n      dup7\n        /* \"#utility.yul\":4383:4389   */\n      dup3\n        /* \"#utility.yul\":4372:4381   */\n      dup8\n        /* \"#utility.yul\":4368:4390   */\n      add\n        /* \"#utility.yul\":4347:4400   */\n      tag_399\n      jump\t// in\n    tag_489:\n        /* \"#utility.yul\":4337:4400   */\n      swap2\n      pop\n        /* \"#utility.yul\":4292:4410   */\n      pop\n        /* \"#utility.yul\":3798:4417   */\n      swap3\n      pop\n      swap3\n      pop\n      swap3\n      jump\t// out\n        /* \"#utility.yul\":4423:5042   */\n    tag_84:\n        /* \"#utility.yul\":4500:4506   */\n      0x00\n        /* \"#utility.yul\":4508:4514   */\n      dup1\n        /* \"#utility.yul\":4516:4522   */\n      0x00\n        /* \"#utility.yul\":4565:4567   */\n      0x60\n        /* \"#utility.yul\":4553:4562   */\n      dup5\n        /* \"#utility.yul\":4544:4551   */\n      dup7\n        /* \"#utility.yul\":4540:4563   */\n      sub\n        /* \"#utility.yul\":4536:4568   */\n      slt\n        /* \"#utility.yul\":4533:4652   */\n      iszero\n      tag_491\n      jumpi\n        /* \"#utility.yul\":4571:4650   */\n      tag_492\n      tag_394\n      jump\t// in\n    tag_492:\n        /* \"#utility.yul\":4533:4652   */\n    tag_491:\n        /* \"#utility.yul\":4691:4692   */\n      0x00\n        /* \"#utility.yul\":4716:4769   */\n      tag_493\n        /* \"#utility.yul\":4761:4768   */\n      dup7\n        /* \"#utility.yul\":4752:4758   */\n      dup3\n        /* \"#utility.yul\":4741:4750   */\n      dup8\n        /* \"#utility.yul\":4737:4759   */\n      add\n        /* \"#utility.yul\":4716:4769   */\n      tag_399\n      jump\t// in\n    tag_493:\n        /* \"#utility.yul\":4706:4769   */\n      swap4\n      pop\n        /* \"#utility.yul\":4662:4779   */\n      pop\n        /* \"#utility.yul\":4818:4820   */\n      0x20\n        /* \"#utility.yul\":4844:4897   */\n      tag_494\n        /* \"#utility.yul\":4889:4896   */\n      dup7\n        /* \"#utility.yul\":4880:4886   */\n      dup3\n        /* \"#utility.yul\":4869:4878   */\n      dup8\n        /* \"#utility.yul\":4865:4887   */\n      add\n        /* \"#utility.yul\":4844:4897   */\n      tag_399\n      jump\t// in\n    tag_494:\n        /* \"#utility.yul\":4834:4897   */\n      swap3\n      pop\n        /* \"#utility.yul\":4789:4907   */\n      pop\n        /* \"#utility.yul\":4946:4948   */\n      0x40\n        /* \"#utility.yul\":4972:5025   */\n      tag_495\n        /* \"#utility.yul\":5017:5024   */\n      dup7\n        /* \"#utility.yul\":5008:5014   */\n      dup3\n        /* \"#utility.yul\":4997:5006   */\n      dup8\n        /* \"#utility.yul\":4993:5015   */\n      add\n        /* \"#utility.yul\":4972:5025   */\n      tag_401\n      jump\t// in\n    tag_495:\n        /* \"#utility.yul\":4962:5025   */\n      swap2\n      pop\n        /* \"#utility.yul\":4917:5035   */\n      pop\n        /* \"#utility.yul\":4423:5042   */\n      swap3\n      pop\n      swap3\n      pop\n      swap3\n      jump\t// out\n        /* \"#utility.yul\":5048:5134   */\n    tag_404:\n        /* \"#utility.yul\":5083:5090   */\n      0x00\n        /* \"#utility.yul\":5123:5127   */\n      0xff\n        /* \"#utility.yul\":5116:5121   */\n      dup3\n        /* \"#utility.yul\":5112:5128   */\n      and\n        /* \"#utility.yul\":5101:5128   */\n      swap1\n      pop\n        /* \"#utility.yul\":5048:5134   */\n      swap2\n      swap1\n      pop\n      jump\t// out\n        /* \"#utility.yul\":5140:5252   */\n    tag_405:\n        /* \"#utility.yul\":5223:5245   */\n      tag_498\n        /* \"#utility.yul\":5239:5244   */\n      dup2\n        /* \"#utility.yul\":5223:5245   */\n      tag_404\n      jump\t// in\n    tag_498:\n        /* \"#utility.yul\":5218:5221   */\n      dup3\n        /* \"#utility.yul\":5211:5246   */\n      mstore\n        /* \"#utility.yul\":5140:5252   */\n      pop\n      pop\n      jump\t// out\n        /* \"#utility.yul\":5258:5472   */\n    tag_91:\n        /* \"#utility.yul\":5347:5351   */\n      0x00\n        /* \"#utility.yul\":5385:5387   */\n      0x20\n        /* \"#utility.yul\":5374:5383   */\n      dup3\n        /* \"#utility.yul\":5370:5388   */\n      add\n        /* \"#utility.yul\":5362:5388   */\n      swap1\n      pop\n        /* \"#utility.yul\":5398:5465   */\n      tag_500\n        /* \"#utility.yul\":5462:5463   */\n      0x00\n        /* \"#utility.yul\":5451:5460   */\n      dup4\n        /* \"#utility.yul\":5447:5464   */\n      add\n        /* \"#utility.yul\":5438:5444   */\n      dup5\n        /* \"#utility.yul\":5398:5465   */\n      tag_405\n      jump\t// in\n    tag_500:\n        /* \"#utility.yul\":5258:5472   */\n      swap3\n      swap2\n      pop\n      pop\n      jump\t// out\n        /* \"#utility.yul\":5478:5807   */\n    tag_99:\n        /* \"#utility.yul\":5537:5543   */\n      0x00\n        /* \"#utility.yul\":5586:5588   */\n      0x20\n        /* \"#utility.yul\":5574:5583   */\n      dup3\n        /* \"#utility.yul\":5565:5572   */\n      dup5\n        /* \"#utility.yul\":5561:5584   */\n      sub\n        /* \"#utility.yul\":5557:5589   */\n      slt\n        /* \"#utility.yul\":5554:5673   */\n      iszero\n      tag_502\n      jumpi\n        /* \"#utility.yul\":5592:5671   */\n      tag_503\n      tag_394\n      jump\t// in\n    tag_503:\n        /* \"#utility.yul\":5554:5673   */\n    tag_502:\n        /* \"#utility.yul\":5712:5713   */\n      0x00\n        /* \"#utility.yul\":5737:5790   */\n      tag_504\n        /* \"#utility.yul\":5782:5789   */\n      dup5\n        /* \"#utility.yul\":5773:5779   */\n      dup3\n        /* \"#utility.yul\":5762:5771   */\n      dup6\n        /* \"#utility.yul\":5758:5780   */\n      add\n        /* \"#utility.yul\":5737:5790   */\n      tag_399\n      jump\t// in\n    tag_504:\n        /* \"#utility.yul\":5727:5790   */\n      swap2\n      pop\n        /* \"#utility.yul\":5683:5800   */\n      pop\n        /* \"#utility.yul\":5478:5807   */\n      swap3\n      swap2\n      pop\n      pop\n      jump\t// out\n        /* \"#utility.yul\":5813:5929   */\n    tag_406:\n        /* \"#utility.yul\":5883:5904   */\n      tag_506\n        /* \"#utility.yul\":5898:5903   */\n      dup2\n        /* \"#utility.yul\":5883:5904   */\n      tag_402\n      jump\t// in\n    tag_506:\n        /* \"#utility.yul\":5876:5881   */\n      dup2\n        /* \"#utility.yul\":5873:5905   */\n      eq\n        /* \"#utility.yul\":5863:5923   */\n      tag_507\n      jumpi\n        /* \"#utility.yul\":5919:5920   */\n      0x00\n        /* \"#utility.yul\":5916:5917   */\n      dup1\n        /* \"#utility.yul\":5909:5921   */\n      revert\n        /* \"#utility.yul\":5863:5923   */\n    tag_507:\n        /* \"#utility.yul\":5813:5929   */\n      pop\n      jump\t// out\n        /* \"#utility.yul\":5935:6068   */\n    tag_407:\n        /* \"#utility.yul\":5978:5983   */\n      0x00\n        /* \"#utility.yul\":6016:6022   */\n      dup2\n        /* \"#utility.yul\":6003:6023   */\n      calldataload\n        /* \"#utility.yul\":5994:6023   */\n      swap1\n      pop\n        /* \"#utility.yul\":6032:6062   */\n      tag_509\n        /* \"#utility.yul\":6056:6061   */\n      dup2\n        /* \"#utility.yul\":6032:6062   */\n      tag_406\n      jump\t// in\n    tag_509:\n        /* \"#utility.yul\":5935:6068   */\n      swap3\n      swap2\n      pop\n      pop\n      jump\t// out\n        /* \"#utility.yul\":6074:6542   */\n    tag_109:\n        /* \"#utility.yul\":6139:6145   */\n      0x00\n        /* \"#utility.yul\":6147:6153   */\n      dup1\n        /* \"#utility.yul\":6196:6198   */\n      0x40\n        /* \"#utility.yul\":6184:6193   */\n      dup4\n        /* \"#utility.yul\":6175:6182   */\n      dup6\n        /* \"#utility.yul\":6171:6194   */\n      sub\n        /* \"#utility.yul\":6167:6199   */\n      slt\n        /* \"#utility.yul\":6164:6283   */\n      iszero\n      tag_511\n      jumpi\n        /* \"#utility.yul\":6202:6281   */\n      tag_512\n      tag_394\n      jump\t// in\n    tag_512:\n        /* \"#utility.yul\":6164:6283   */\n    tag_511:\n        /* \"#utility.yul\":6322:6323   */\n      0x00\n        /* \"#utility.yul\":6347:6400   */\n      tag_513\n        /* \"#utility.yul\":6392:6399   */\n      dup6\n        /* \"#utility.yul\":6383:6389   */\n      dup3\n        /* \"#utility.yul\":6372:6381   */\n      dup7\n        /* \"#utility.yul\":6368:6390   */\n      add\n        /* \"#utility.yul\":6347:6400   */\n      tag_399\n      jump\t// in\n    tag_513:\n        /* \"#utility.yul\":6337:6400   */\n      swap3\n      pop\n        /* \"#utility.yul\":6293:6410   */\n      pop\n        /* \"#utility.yul\":6449:6451   */\n      0x20\n        /* \"#utility.yul\":6475:6525   */\n      tag_514\n        /* \"#utility.yul\":6517:6524   */\n      dup6\n        /* \"#utility.yul\":6508:6514   */\n      dup3\n        /* \"#utility.yul\":6497:6506   */\n      dup7\n        /* \"#utility.yul\":6493:6515   */\n      add\n        /* \"#utility.yul\":6475:6525   */\n      tag_407\n      jump\t// in\n    tag_514:\n        /* \"#utility.yul\":6465:6525   */\n      swap2\n      pop\n        /* \"#utility.yul\":6420:6535   */\n      pop\n        /* \"#utility.yul\":6074:6542   */\n      swap3\n      pop\n      swap3\n      swap1\n      pop\n      jump\t// out\n        /* \"#utility.yul\":6548:6666   */\n    tag_408:\n        /* \"#utility.yul\":6635:6659   */\n      tag_516\n        /* \"#utility.yul\":6653:6658   */\n      dup2\n        /* \"#utility.yul\":6635:6659   */\n      tag_397\n      jump\t// in\n    tag_516:\n        /* \"#utility.yul\":6630:6633   */\n      dup3\n        /* \"#utility.yul\":6623:6660   */\n      mstore\n        /* \"#utility.yul\":6548:6666   */\n      pop\n      pop\n      jump\t// out\n        /* \"#utility.yul\":6672:6894   */\n    tag_127:\n        /* \"#utility.yul\":6765:6769   */\n      0x00\n        /* \"#utility.yul\":6803:6805   */\n      0x20\n        /* \"#utility.yul\":6792:6801   */\n      dup3\n        /* \"#utility.yul\":6788:6806   */\n      add\n        /* \"#utility.yul\":6780:6806   */\n      swap1\n      pop\n        /* \"#utility.yul\":6816:6887   */\n      tag_518\n        /* \"#utility.yul\":6884:6885   */\n      0x00\n        /* \"#utility.yul\":6873:6882   */\n      dup4\n        /* \"#utility.yul\":6869:6886   */\n      add\n        /* \"#utility.yul\":6860:6866   */\n      dup5\n        /* \"#utility.yul\":6816:6887   */\n      tag_408\n      jump\t// in\n    tag_518:\n        /* \"#utility.yul\":6672:6894   */\n      swap3\n      swap2\n      pop\n      pop\n      jump\t// out\n        /* \"#utility.yul\":6900:7229   */\n    tag_146:\n        /* \"#utility.yul\":6959:6965   */\n      0x00\n        /* \"#utility.yul\":7008:7010   */\n      0x20\n        /* \"#utility.yul\":6996:7005   */\n      dup3\n        /* \"#utility.yul\":6987:6994   */\n      dup5\n        /* \"#utility.yul\":6983:7006   */\n      sub\n        /* \"#utility.yul\":6979:7011   */\n      slt\n        /* \"#utility.yul\":6976:7095   */\n      iszero\n      tag_520\n      jumpi\n        /* \"#utility.yul\":7014:7093   */\n      tag_521\n      tag_394\n      jump\t// in\n    tag_521:\n        /* \"#utility.yul\":6976:7095   */\n    tag_520:\n        /* \"#utility.yul\":7134:7135   */\n      0x00\n        /* \"#utility.yul\":7159:7212   */\n      tag_522\n        /* \"#utility.yul\":7204:7211   */\n      dup5\n        /* \"#utility.yul\":7195:7201   */\n      dup3\n        /* \"#utility.yul\":7184:7193   */\n      dup6\n        /* \"#utility.yul\":7180:7202   */\n      add\n        /* \"#utility.yul\":7159:7212   */\n      tag_401\n      jump\t// in\n    tag_522:\n        /* \"#utility.yul\":7149:7212   */\n      swap2\n      pop\n        /* \"#utility.yul\":7105:7222   */\n      pop\n        /* \"#utility.yul\":6900:7229   */\n      swap3\n      swap2\n      pop\n      pop\n      jump\t// out\n        /* \"#utility.yul\":7235:7709   */\n    tag_172:\n        /* \"#utility.yul\":7303:7309   */\n      0x00\n        /* \"#utility.yul\":7311:7317   */\n      dup1\n        /* \"#utility.yul\":7360:7362   */\n      0x40\n        /* \"#utility.yul\":7348:7357   */\n      dup4\n        /* \"#utility.yul\":7339:7346   */\n      dup6\n        /* \"#utility.yul\":7335:7358   */\n      sub\n        /* \"#utility.yul\":7331:7363   */\n      slt\n        /* \"#utility.yul\":7328:7447   */\n      iszero\n      tag_524\n      jumpi\n        /* \"#utility.yul\":7366:7445   */\n      tag_525\n      tag_394\n      jump\t// in\n    tag_525:\n        /* \"#utility.yul\":7328:7447   */\n    tag_524:\n        /* \"#utility.yul\":7486:7487   */\n      0x00\n        /* \"#utility.yul\":7511:7564   */\n      tag_526\n        /* \"#utility.yul\":7556:7563   */\n      dup6\n        /* \"#utility.yul\":7547:7553   */\n      dup3\n        /* \"#utility.yul\":7536:7545   */\n      dup7\n        /* \"#utility.yul\":7532:7554   */\n      add\n        /* \"#utility.yul\":7511:7564   */\n      tag_399\n      jump\t// in\n    tag_526:\n        /* \"#utility.yul\":7501:7564   */\n      swap3\n      pop\n        /* \"#utility.yul\":7457:7574   */\n      pop\n        /* \"#utility.yul\":7613:7615   */\n      0x20\n        /* \"#utility.yul\":7639:7692   */\n      tag_527\n        /* \"#utility.yul\":7684:7691   */\n      dup6\n        /* \"#utility.yul\":7675:7681   */\n      dup3\n        /* \"#utility.yul\":7664:7673   */\n      dup7\n        /* \"#utility.yul\":7660:7682   */\n      add\n        /* \"#utility.yul\":7639:7692   */\n      tag_399\n      jump\t// in\n    tag_527:\n        /* \"#utility.yul\":7629:7692   */\n      swap2\n      pop\n        /* \"#utility.yul\":7584:7702   */\n      pop\n        /* \"#utility.yul\":7235:7709   */\n      swap3\n      pop\n      swap3\n      swap1\n      pop\n      jump\t// out\n        /* \"#utility.yul\":7715:7775   */\n    tag_409:\n        /* \"#utility.yul\":7743:7746   */\n      0x00\n        /* \"#utility.yul\":7764:7769   */\n      dup2\n        /* \"#utility.yul\":7757:7769   */\n      swap1\n      pop\n        /* \"#utility.yul\":7715:7775   */\n      swap2\n      swap1\n      pop\n      jump\t// out\n        /* \"#utility.yul\":7781:7923   */\n    tag_410:\n        /* \"#utility.yul\":7831:7840   */\n      0x00\n        /* \"#utility.yul\":7864:7917   */\n      tag_530\n        /* \"#utility.yul\":7882:7916   */\n      tag_531\n        /* \"#utility.yul\":7891:7915   */\n      tag_532\n        /* \"#utility.yul\":7909:7914   */\n      dup5\n        /* \"#utility.yul\":7891:7915   */\n      tag_396\n      jump\t// in\n    tag_532:\n        /* \"#utility.yul\":7882:7916   */\n      tag_409\n      jump\t// in\n    tag_531:\n        /* \"#utility.yul\":7864:7917   */\n      tag_396\n      jump\t// in\n    tag_530:\n        /* \"#utility.yul\":7851:7917   */\n      swap1\n      pop\n        /* \"#utility.yul\":7781:7923   */\n      swap2\n      swap1\n      pop\n      jump\t// out\n        /* \"#utility.yul\":7929:8055   */\n    tag_411:\n        /* \"#utility.yul\":7979:7988   */\n      0x00\n        /* \"#utility.yul\":8012:8049   */\n      tag_534\n        /* \"#utility.yul\":8043:8048   */\n      dup3\n        /* \"#utility.yul\":8012:8049   */\n      tag_410\n      jump\t// in\n    tag_534:\n        /* \"#utility.yul\":7999:8049   */\n      swap1\n      pop\n        /* \"#utility.yul\":7929:8055   */\n      swap2\n      swap1\n      pop\n      jump\t// out\n        /* \"#utility.yul\":8061:8210   */\n    tag_412:\n        /* \"#utility.yul\":8134:8143   */\n      0x00\n        /* \"#utility.yul\":8167:8204   */\n      tag_536\n        /* \"#utility.yul\":8198:8203   */\n      dup3\n        /* \"#utility.yul\":8167:8204   */\n      tag_411\n      jump\t// in\n    tag_536:\n        /* \"#utility.yul\":8154:8204   */\n      swap1\n      pop\n        /* \"#utility.yul\":8061:8210   */\n      swap2\n      swap1\n      pop\n      jump\t// out\n        /* \"#utility.yul\":8216:8393   */\n    tag_413:\n        /* \"#utility.yul\":8326:8386   */\n      tag_538\n        /* \"#utility.yul\":8380:8385   */\n      dup2\n        /* \"#utility.yul\":8326:8386   */\n      tag_412\n      jump\t// in\n    tag_538:\n        /* \"#utility.yul\":8321:8324   */\n      dup3\n        /* \"#utility.yul\":8314:8387   */\n      mstore\n        /* \"#utility.yul\":8216:8393   */\n      pop\n      pop\n      jump\t// out\n        /* \"#utility.yul\":8399:8667   */\n    tag_183:\n        /* \"#utility.yul\":8515:8519   */\n      0x00\n        /* \"#utility.yul\":8553:8555   */\n      0x20\n        /* \"#utility.yul\":8542:8551   */\n      dup3\n        /* \"#utility.yul\":8538:8556   */\n      add\n        /* \"#utility.yul\":8530:8556   */\n      swap1\n      pop\n        /* \"#utility.yul\":8566:8660   */\n      tag_540\n        /* \"#utility.yul\":8657:8658   */\n      0x00\n        /* \"#utility.yul\":8646:8655   */\n      dup4\n        /* \"#utility.yul\":8642:8659   */\n      add\n        /* \"#utility.yul\":8633:8639   */\n      dup5\n        /* \"#utility.yul\":8566:8660   */\n      tag_413\n      jump\t// in\n    tag_540:\n        /* \"#utility.yul\":8399:8667   */\n      swap3\n      swap2\n      pop\n      pop\n      jump\t// out\n        /* \"#utility.yul\":8673:8853   */\n    tag_414:\n        /* \"#utility.yul\":8721:8798   */\n      0x4e487b7100000000000000000000000000000000000000000000000000000000\n        /* \"#utility.yul\":8718:8719   */\n      0x00\n        /* \"#utility.yul\":8711:8799   */\n      mstore\n        /* \"#utility.yul\":8818:8822   */\n      0x22\n        /* \"#utility.yul\":8815:8816   */\n      0x04\n        /* \"#utility.yul\":8808:8823   */\n      mstore\n        /* \"#utility.yul\":8842:8846   */\n      0x24\n        /* \"#utility.yul\":8839:8840   */\n      0x00\n        /* \"#utility.yul\":8832:8847   */\n      revert\n        /* \"#utility.yul\":8859:9179   */\n    tag_186:\n        /* \"#utility.yul\":8903:8909   */\n      0x00\n        /* \"#utility.yul\":8940:8941   */\n      0x02\n        /* \"#utility.yul\":8934:8938   */\n      dup3\n        /* \"#utility.yul\":8930:8942   */\n      div\n        /* \"#utility.yul\":8920:8942   */\n      swap1\n      pop\n        /* \"#utility.yul\":8987:8988   */\n      0x01\n        /* \"#utility.yul\":8981:8985   */\n      dup3\n        /* \"#utility.yul\":8977:8989   */\n      and\n        /* \"#utility.yul\":9008:9026   */\n      dup1\n        /* \"#utility.yul\":8998:9079   */\n      tag_543\n      jumpi\n        /* \"#utility.yul\":9064:9068   */\n      0x7f\n        /* \"#utility.yul\":9056:9062   */\n      dup3\n        /* \"#utility.yul\":9052:9069   */\n      and\n        /* \"#utility.yul\":9042:9069   */\n      swap2\n      pop\n        /* \"#utility.yul\":8998:9079   */\n    tag_543:\n        /* \"#utility.yul\":9126:9128   */\n      0x20\n        /* \"#utility.yul\":9118:9124   */\n      dup3\n        /* \"#utility.yul\":9115:9129   */\n      lt\n        /* \"#utility.yul\":9095:9113   */\n      dup2\n        /* \"#utility.yul\":9092:9130   */\n      sub\n        /* \"#utility.yul\":9089:9173   */\n      tag_544\n      jumpi\n        /* \"#utility.yul\":9145:9163   */\n      tag_545\n      tag_414\n      jump\t// in\n    tag_545:\n        /* \"#utility.yul\":9089:9173   */\n    tag_544:\n        /* \"#utility.yul\":8910:9179   */\n      pop\n        /* \"#utility.yul\":8859:9179   */\n      swap2\n      swap1\n      pop\n      jump\t// out\n        /* \"#utility.yul\":9185:9354   */\n    tag_415:\n        /* \"#utility.yul\":9325:9346   */\n      0x43616e6e6f742077697468647261772041544300000000000000000000000000\n        /* \"#utility.yul\":9321:9322   */\n      0x00\n        /* \"#utility.yul\":9313:9319   */\n      dup3\n        /* \"#utility.yul\":9309:9323   */\n      add\n        /* \"#utility.yul\":9302:9347   */\n      mstore\n        /* \"#utility.yul\":9185:9354   */\n      pop\n      jump\t// out\n        /* \"#utility.yul\":9360:9726   */\n    tag_416:\n        /* \"#utility.yul\":9502:9505   */\n      0x00\n        /* \"#utility.yul\":9523:9590   */\n      tag_548\n        /* \"#utility.yul\":9587:9589   */\n      0x13\n        /* \"#utility.yul\":9582:9585   */\n      dup4\n        /* \"#utility.yul\":9523:9590   */\n      tag_389\n      jump\t// in\n    tag_548:\n        /* \"#utility.yul\":9516:9590   */\n      swap2\n      pop\n        /* \"#utility.yul\":9599:9692   */\n      tag_549\n        /* \"#utility.yul\":9688:9691   */\n      dup3\n        /* \"#utility.yul\":9599:9692   */\n      tag_415\n      jump\t// in\n    tag_549:\n        /* \"#utility.yul\":9717:9719   */\n      0x20\n        /* \"#utility.yul\":9712:9715   */\n      dup3\n        /* \"#utility.yul\":9708:9720   */\n      add\n        /* \"#utility.yul\":9701:9720   */\n      swap1\n      pop\n        /* \"#utility.yul\":9360:9726   */\n      swap2\n      swap1\n      pop\n      jump\t// out\n        /* \"#utility.yul\":9732:10151   */\n    tag_238:\n        /* \"#utility.yul\":9898:9902   */\n      0x00\n        /* \"#utility.yul\":9936:9938   */\n      0x20\n        /* \"#utility.yul\":9925:9934   */\n      dup3\n        /* \"#utility.yul\":9921:9939   */\n      add\n        /* \"#utility.yul\":9913:9939   */\n      swap1\n      pop\n        /* \"#utility.yul\":9985:9994   */\n      dup2\n        /* \"#utility.yul\":9979:9983   */\n      dup2\n        /* \"#utility.yul\":9975:9995   */\n      sub\n        /* \"#utility.yul\":9971:9972   */\n      0x00\n        /* \"#utility.yul\":9960:9969   */\n      dup4\n        /* \"#utility.yul\":9956:9973   */\n      add\n        /* \"#utility.yul\":9949:9996   */\n      mstore\n        /* \"#utility.yul\":10013:10144   */\n      tag_551\n        /* \"#utility.yul\":10139:10143   */\n      dup2\n        /* \"#utility.yul\":10013:10144   */\n      tag_416\n      jump\t// in\n    tag_551:\n        /* \"#utility.yul\":10005:10144   */\n      swap1\n      pop\n        /* \"#utility.yul\":9732:10151   */\n      swap2\n      swap1\n      pop\n      jump\t// out\n        /* \"#utility.yul\":10157:10300   */\n    tag_417:\n        /* \"#utility.yul\":10214:10219   */\n      0x00\n        /* \"#utility.yul\":10245:10251   */\n      dup2\n        /* \"#utility.yul\":10239:10252   */\n      mload\n        /* \"#utility.yul\":10230:10252   */\n      swap1\n      pop\n        /* \"#utility.yul\":10261:10294   */\n      tag_553\n        /* \"#utility.yul\":10288:10293   */\n      dup2\n        /* \"#utility.yul\":10261:10294   */\n      tag_400\n      jump\t// in\n    tag_553:\n        /* \"#utility.yul\":10157:10300   */\n      swap3\n      swap2\n      pop\n      pop\n      jump\t// out\n        /* \"#utility.yul\":10306:10657   */\n    tag_243:\n        /* \"#utility.yul\":10376:10382   */\n      0x00\n        /* \"#utility.yul\":10425:10427   */\n      0x20\n        /* \"#utility.yul\":10413:10422   */\n      dup3\n        /* \"#utility.yul\":10404:10411   */\n      dup5\n        /* \"#utility.yul\":10400:10423   */\n      sub\n        /* \"#utility.yul\":10396:10428   */\n      slt\n        /* \"#utility.yul\":10393:10512   */\n      iszero\n      tag_555\n      jumpi\n        /* \"#utility.yul\":10431:10510   */\n      tag_556\n      tag_394\n      jump\t// in\n    tag_556:\n        /* \"#utility.yul\":10393:10512   */\n    tag_555:\n        /* \"#utility.yul\":10551:10552   */\n      0x00\n        /* \"#utility.yul\":10576:10640   */\n      tag_557\n        /* \"#utility.yul\":10632:10639   */\n      dup5\n        /* \"#utility.yul\":10623:10629   */\n      dup3\n        /* \"#utility.yul\":10612:10621   */\n      dup6\n        /* \"#utility.yul\":10608:10630   */\n      add\n        /* \"#utility.yul\":10576:10640   */\n      tag_417\n      jump\t// in\n    tag_557:\n        /* \"#utility.yul\":10566:10640   */\n      swap2\n      pop\n        /* \"#utility.yul\":10522:10650   */\n      pop\n        /* \"#utility.yul\":10306:10657   */\n      swap3\n      swap2\n      pop\n      pop\n      jump\t// out\n        /* \"#utility.yul\":10663:10995   */\n    tag_245:\n        /* \"#utility.yul\":10784:10788   */\n      0x00\n        /* \"#utility.yul\":10822:10824   */\n      0x40\n        /* \"#utility.yul\":10811:10820   */\n      dup3\n        /* \"#utility.yul\":10807:10825   */\n      add\n        /* \"#utility.yul\":10799:10825   */\n      swap1\n      pop\n        /* \"#utility.yul\":10835:10906   */\n      tag_559\n        /* \"#utility.yul\":10903:10904   */\n      0x00\n        /* \"#utility.yul\":10892:10901   */\n      dup4\n        /* \"#utility.yul\":10888:10905   */\n      add\n        /* \"#utility.yul\":10879:10885   */\n      dup6\n        /* \"#utility.yul\":10835:10906   */\n      tag_408\n      jump\t// in\n    tag_559:\n        /* \"#utility.yul\":10916:10988   */\n      tag_560\n        /* \"#utility.yul\":10984:10986   */\n      0x20\n        /* \"#utility.yul\":10973:10982   */\n      dup4\n        /* \"#utility.yul\":10969:10987   */\n      add\n        /* \"#utility.yul\":10960:10966   */\n      dup5\n        /* \"#utility.yul\":10916:10988   */\n      tag_387\n      jump\t// in\n    tag_560:\n        /* \"#utility.yul\":10663:10995   */\n      swap4\n      swap3\n      pop\n      pop\n      pop\n      jump\t// out\n        /* \"#utility.yul\":11001:11138   */\n    tag_418:\n        /* \"#utility.yul\":11055:11060   */\n      0x00\n        /* \"#utility.yul\":11086:11092   */\n      dup2\n        /* \"#utility.yul\":11080:11093   */\n      mload\n        /* \"#utility.yul\":11071:11093   */\n      swap1\n      pop\n        /* \"#utility.yul\":11102:11132   */\n      tag_562\n        /* \"#utility.yul\":11126:11131   */\n      dup2\n        /* \"#utility.yul\":11102:11132   */\n      tag_406\n      jump\t// in\n    tag_562:\n        /* \"#utility.yul\":11001:11138   */\n      swap3\n      swap2\n      pop\n      pop\n      jump\t// out\n        /* \"#utility.yul\":11144:11489   */\n    tag_249:\n        /* \"#utility.yul\":11211:11217   */\n      0x00\n        /* \"#utility.yul\":11260:11262   */\n      0x20\n        /* \"#utility.yul\":11248:11257   */\n      dup3\n        /* \"#utility.yul\":11239:11246   */\n      dup5\n        /* \"#utility.yul\":11235:11258   */\n      sub\n        /* \"#utility.yul\":11231:11263   */\n      slt\n        /* \"#utility.yul\":11228:11347   */\n      iszero\n      tag_564\n      jumpi\n        /* \"#utility.yul\":11266:11345   */\n      tag_565\n      tag_394\n      jump\t// in\n    tag_565:\n        /* \"#utility.yul\":11228:11347   */\n    tag_564:\n        /* \"#utility.yul\":11386:11387   */\n      0x00\n        /* \"#utility.yul\":11411:11472   */\n      tag_566\n        /* \"#utility.yul\":11464:11471   */\n      dup5\n        /* \"#utility.yul\":11455:11461   */\n      dup3\n        /* \"#utility.yul\":11444:11453   */\n      dup6\n        /* \"#utility.yul\":11440:11462   */\n      add\n        /* \"#utility.yul\":11411:11472   */\n      tag_418\n      jump\t// in\n    tag_566:\n        /* \"#utility.yul\":11401:11472   */\n      swap2\n      pop\n        /* \"#utility.yul\":11357:11482   */\n      pop\n        /* \"#utility.yul\":11144:11489   */\n      swap3\n      swap2\n      pop\n      pop\n      jump\t// out\n        /* \"#utility.yul\":11495:11937   */\n    tag_272:\n        /* \"#utility.yul\":11644:11648   */\n      0x00\n        /* \"#utility.yul\":11682:11684   */\n      0x60\n        /* \"#utility.yul\":11671:11680   */\n      dup3\n        /* \"#utility.yul\":11667:11685   */\n      add\n        /* \"#utility.yul\":11659:11685   */\n      swap1\n      pop\n        /* \"#utility.yul\":11695:11766   */\n      tag_568\n        /* \"#utility.yul\":11763:11764   */\n      0x00\n        /* \"#utility.yul\":11752:11761   */\n      dup4\n        /* \"#utility.yul\":11748:11765   */\n      add\n        /* \"#utility.yul\":11739:11745   */\n      dup7\n        /* \"#utility.yul\":11695:11766   */\n      tag_408\n      jump\t// in\n    tag_568:\n        /* \"#utility.yul\":11776:11848   */\n      tag_569\n        /* \"#utility.yul\":11844:11846   */\n      0x20\n        /* \"#utility.yul\":11833:11842   */\n      dup4\n        /* \"#utility.yul\":11829:11847   */\n      add\n        /* \"#utility.yul\":11820:11826   */\n      dup6\n        /* \"#utility.yul\":11776:11848   */\n      tag_387\n      jump\t// in\n    tag_569:\n        /* \"#utility.yul\":11858:11930   */\n      tag_570\n        /* \"#utility.yul\":11926:11928   */\n      0x40\n        /* \"#utility.yul\":11915:11924   */\n      dup4\n        /* \"#utility.yul\":11911:11929   */\n      add\n        /* \"#utility.yul\":11902:11908   */\n      dup5\n        /* \"#utility.yul\":11858:11930   */\n      tag_387\n      jump\t// in\n    tag_570:\n        /* \"#utility.yul\":11495:11937   */\n      swap5\n      swap4\n      pop\n      pop\n      pop\n      pop\n      jump\t// out\n        /* \"#utility.yul\":11943:12171   */\n    tag_419:\n        /* \"#utility.yul\":12083:12117   */\n      0x5472616e7366657220616d6f756e74206d757374206265206772656174657220\n        /* \"#utility.yul\":12079:12080   */\n      0x00\n        /* \"#utility.yul\":12071:12077   */\n      dup3\n        /* \"#utility.yul\":12067:12081   */\n      add\n        /* \"#utility.yul\":12060:12118   */\n      mstore\n        /* \"#utility.yul\":12152:12163   */\n      0x7468616e207a65726f0000000000000000000000000000000000000000000000\n        /* \"#utility.yul\":12147:12149   */\n      0x20\n        /* \"#utility.yul\":12139:12145   */\n      dup3\n        /* \"#utility.yul\":12135:12150   */\n      add\n        /* \"#utility.yul\":12128:12164   */\n      mstore\n        /* \"#utility.yul\":11943:12171   */\n      pop\n      jump\t// out\n        /* \"#utility.yul\":12177:12543   */\n    tag_420:\n        /* \"#utility.yul\":12319:12322   */\n      0x00\n        /* \"#utility.yul\":12340:12407   */\n      tag_573\n        /* \"#utility.yul\":12404:12406   */\n      0x29\n        /* \"#utility.yul\":12399:12402   */\n      dup4\n        /* \"#utility.yul\":12340:12407   */\n      tag_389\n      jump\t// in\n    tag_573:\n        /* \"#utility.yul\":12333:12407   */\n      swap2\n      pop\n        /* \"#utility.yul\":12416:12509   */\n      tag_574\n        /* \"#utility.yul\":12505:12508   */\n      dup3\n        /* \"#utility.yul\":12416:12509   */\n      tag_419\n      jump\t// in\n    tag_574:\n        /* \"#utility.yul\":12534:12536   */\n      0x40\n        /* \"#utility.yul\":12529:12532   */\n      dup3\n        /* \"#utility.yul\":12525:12537   */\n      add\n        /* \"#utility.yul\":12518:12537   */\n      swap1\n      pop\n        /* \"#utility.yul\":12177:12543   */\n      swap2\n      swap1\n      pop\n      jump\t// out\n        /* \"#utility.yul\":12549:12968   */\n    tag_280:\n        /* \"#utility.yul\":12715:12719   */\n      0x00\n        /* \"#utility.yul\":12753:12755   */\n      0x20\n        /* \"#utility.yul\":12742:12751   */\n      dup3\n        /* \"#utility.yul\":12738:12756   */\n      add\n        /* \"#utility.yul\":12730:12756   */\n      swap1\n      pop\n        /* \"#utility.yul\":12802:12811   */\n      dup2\n        /* \"#utility.yul\":12796:12800   */\n      dup2\n        /* \"#utility.yul\":12792:12812   */\n      sub\n        /* \"#utility.yul\":12788:12789   */\n      0x00\n        /* \"#utility.yul\":12777:12786   */\n      dup4\n        /* \"#utility.yul\":12773:12790   */\n      add\n        /* \"#utility.yul\":12766:12813   */\n      mstore\n        /* \"#utility.yul\":12830:12961   */\n      tag_576\n        /* \"#utility.yul\":12956:12960   */\n      dup2\n        /* \"#utility.yul\":12830:12961   */\n      tag_420\n      jump\t// in\n    tag_576:\n        /* \"#utility.yul\":12822:12961   */\n      swap1\n      pop\n        /* \"#utility.yul\":12549:12968   */\n      swap2\n      swap1\n      pop\n      jump\t// out\n        /* \"#utility.yul\":12974:13143   */\n    tag_421:\n        /* \"#utility.yul\":13114:13135   */\n      0x54726164696e67206e6f7420656e61626c656400000000000000000000000000\n        /* \"#utility.yul\":13110:13111   */\n      0x00\n        /* \"#utility.yul\":13102:13108   */\n      dup3\n        /* \"#utility.yul\":13098:13112   */\n      add\n        /* \"#utility.yul\":13091:13136   */\n      mstore\n        /* \"#utility.yul\":12974:13143   */\n      pop\n      jump\t// out\n        /* \"#utility.yul\":13149:13515   */\n    tag_422:\n        /* \"#utility.yul\":13291:13294   */\n      0x00\n        /* \"#utility.yul\":13312:13379   */\n      tag_579\n        /* \"#utility.yul\":13376:13378   */\n      0x13\n        /* \"#utility.yul\":13371:13374   */\n      dup4\n        /* \"#utility.yul\":13312:13379   */\n      tag_389\n      jump\t// in\n    tag_579:\n        /* \"#utility.yul\":13305:13379   */\n      swap2\n      pop\n        /* \"#utility.yul\":13388:13481   */\n      tag_580\n        /* \"#utility.yul\":13477:13480   */\n      dup3\n        /* \"#utility.yul\":13388:13481   */\n      tag_421\n      jump\t// in\n    tag_580:\n        /* \"#utility.yul\":13506:13508   */\n      0x20\n        /* \"#utility.yul\":13501:13504   */\n      dup3\n        /* \"#utility.yul\":13497:13509   */\n      add\n        /* \"#utility.yul\":13490:13509   */\n      swap1\n      pop\n        /* \"#utility.yul\":13149:13515   */\n      swap2\n      swap1\n      pop\n      jump\t// out\n        /* \"#utility.yul\":13521:13940   */\n    tag_285:\n        /* \"#utility.yul\":13687:13691   */\n      0x00\n        /* \"#utility.yul\":13725:13727   */\n      0x20\n        /* \"#utility.yul\":13714:13723   */\n      dup3\n        /* \"#utility.yul\":13710:13728   */\n      add\n        /* \"#utility.yul\":13702:13728   */\n      swap1\n      pop\n        /* \"#utility.yul\":13774:13783   */\n      dup2\n        /* \"#utility.yul\":13768:13772   */\n      dup2\n        /* \"#utility.yul\":13764:13784   */\n      sub\n        /* \"#utility.yul\":13760:13761   */\n      0x00\n        /* \"#utility.yul\":13749:13758   */\n      dup4\n        /* \"#utility.yul\":13745:13762   */\n      add\n        /* \"#utility.yul\":13738:13785   */\n      mstore\n        /* \"#utility.yul\":13802:13933   */\n      tag_582\n        /* \"#utility.yul\":13928:13932   */\n      dup2\n        /* \"#utility.yul\":13802:13933   */\n      tag_422\n      jump\t// in\n    tag_582:\n        /* \"#utility.yul\":13794:13933   */\n      swap1\n      pop\n        /* \"#utility.yul\":13521:13940   */\n      swap2\n      swap1\n      pop\n      jump\t// out\n        /* \"#utility.yul\":13946:14126   */\n    tag_423:\n        /* \"#utility.yul\":13994:14071   */\n      0x4e487b7100000000000000000000000000000000000000000000000000000000\n        /* \"#utility.yul\":13991:13992   */\n      0x00\n        /* \"#utility.yul\":13984:14072   */\n      mstore\n        /* \"#utility.yul\":14091:14095   */\n      0x11\n        /* \"#utility.yul\":14088:14089   */\n      0x04\n        /* \"#utility.yul\":14081:14096   */\n      mstore\n        /* \"#utility.yul\":14115:14119   */\n      0x24\n        /* \"#utility.yul\":14112:14113   */\n      0x00\n        /* \"#utility.yul\":14105:14120   */\n      revert\n        /* \"#utility.yul\":14132:14542   */\n    tag_290:\n        /* \"#utility.yul\":14172:14179   */\n      0x00\n        /* \"#utility.yul\":14195:14215   */\n      tag_585\n        /* \"#utility.yul\":14213:14214   */\n      dup3\n        /* \"#utility.yul\":14195:14215   */\n      tag_386\n      jump\t// in\n    tag_585:\n        /* \"#utility.yul\":14190:14215   */\n      swap2\n      pop\n        /* \"#utility.yul\":14229:14249   */\n      tag_586\n        /* \"#utility.yul\":14247:14248   */\n      dup4\n        /* \"#utility.yul\":14229:14249   */\n      tag_386\n      jump\t// in\n    tag_586:\n        /* \"#utility.yul\":14224:14249   */\n      swap3\n      pop\n        /* \"#utility.yul\":14284:14285   */\n      dup3\n        /* \"#utility.yul\":14281:14282   */\n      dup3\n        /* \"#utility.yul\":14277:14286   */\n      mul\n        /* \"#utility.yul\":14306:14336   */\n      tag_587\n        /* \"#utility.yul\":14324:14335   */\n      dup2\n        /* \"#utility.yul\":14306:14336   */\n      tag_386\n      jump\t// in\n    tag_587:\n        /* \"#utility.yul\":14295:14336   */\n      swap2\n      pop\n        /* \"#utility.yul\":14485:14486   */\n      dup3\n        /* \"#utility.yul\":14476:14483   */\n      dup3\n        /* \"#utility.yul\":14472:14487   */\n      div\n        /* \"#utility.yul\":14469:14470   */\n      dup5\n        /* \"#utility.yul\":14466:14488   */\n      eq\n        /* \"#utility.yul\":14446:14447   */\n      dup4\n        /* \"#utility.yul\":14439:14448   */\n      iszero\n        /* \"#utility.yul\":14419:14502   */\n      or\n        /* \"#utility.yul\":14396:14535   */\n      tag_588\n      jumpi\n        /* \"#utility.yul\":14515:14533   */\n      tag_589\n      tag_423\n      jump\t// in\n    tag_589:\n        /* \"#utility.yul\":14396:14535   */\n    tag_588:\n        /* \"#utility.yul\":14180:14542   */\n      pop\n        /* \"#utility.yul\":14132:14542   */\n      swap3\n      swap2\n      pop\n      pop\n      jump\t// out\n        /* \"#utility.yul\":14548:14728   */\n    tag_424:\n        /* \"#utility.yul\":14596:14673   */\n      0x4e487b7100000000000000000000000000000000000000000000000000000000\n        /* \"#utility.yul\":14593:14594   */\n      0x00\n        /* \"#utility.yul\":14586:14674   */\n      mstore\n        /* \"#utility.yul\":14693:14697   */\n      0x12\n        /* \"#utility.yul\":14690:14691   */\n      0x04\n        /* \"#utility.yul\":14683:14698   */\n      mstore\n        /* \"#utility.yul\":14717:14721   */\n      0x24\n        /* \"#utility.yul\":14714:14715   */\n      0x00\n        /* \"#utility.yul\":14707:14722   */\n      revert\n        /* \"#utility.yul\":14734:14919   */\n    tag_292:\n        /* \"#utility.yul\":14774:14775   */\n      0x00\n        /* \"#utility.yul\":14791:14811   */\n      tag_592\n        /* \"#utility.yul\":14809:14810   */\n      dup3\n        /* \"#utility.yul\":14791:14811   */\n      tag_386\n      jump\t// in\n    tag_592:\n        /* \"#utility.yul\":14786:14811   */\n      swap2\n      pop\n        /* \"#utility.yul\":14825:14845   */\n      tag_593\n        /* \"#utility.yul\":14843:14844   */\n      dup4\n        /* \"#utility.yul\":14825:14845   */\n      tag_386\n      jump\t// in\n    tag_593:\n        /* \"#utility.yul\":14820:14845   */\n      swap3\n      pop\n        /* \"#utility.yul\":14864:14865   */\n      dup3\n        /* \"#utility.yul\":14854:14889   */\n      tag_594\n      jumpi\n        /* \"#utility.yul\":14869:14887   */\n      tag_595\n      tag_424\n      jump\t// in\n    tag_595:\n        /* \"#utility.yul\":14854:14889   */\n    tag_594:\n        /* \"#utility.yul\":14911:14912   */\n      dup3\n        /* \"#utility.yul\":14908:14909   */\n      dup3\n        /* \"#utility.yul\":14904:14913   */\n      div\n        /* \"#utility.yul\":14899:14913   */\n      swap1\n      pop\n        /* \"#utility.yul\":14734:14919   */\n      swap3\n      swap2\n      pop\n      pop\n      jump\t// out\n        /* \"#utility.yul\":14925:15119   */\n    tag_305:\n        /* \"#utility.yul\":14965:14969   */\n      0x00\n        /* \"#utility.yul\":14985:15005   */\n      tag_597\n        /* \"#utility.yul\":15003:15004   */\n      dup3\n        /* \"#utility.yul\":14985:15005   */\n      tag_386\n      jump\t// in\n    tag_597:\n        /* \"#utility.yul\":14980:15005   */\n      swap2\n      pop\n        /* \"#utility.yul\":15019:15039   */\n      tag_598\n        /* \"#utility.yul\":15037:15038   */\n      dup4\n        /* \"#utility.yul\":15019:15039   */\n      tag_386\n      jump\t// in\n    tag_598:\n        /* \"#utility.yul\":15014:15039   */\n      swap3\n      pop\n        /* \"#utility.yul\":15063:15064   */\n      dup3\n        /* \"#utility.yul\":15060:15061   */\n      dup3\n        /* \"#utility.yul\":15056:15065   */\n      sub\n        /* \"#utility.yul\":15048:15065   */\n      swap1\n      pop\n        /* \"#utility.yul\":15087:15088   */\n      dup2\n        /* \"#utility.yul\":15081:15085   */\n      dup2\n        /* \"#utility.yul\":15078:15089   */\n      gt\n        /* \"#utility.yul\":15075:15112   */\n      iszero\n      tag_599\n      jumpi\n        /* \"#utility.yul\":15092:15110   */\n      tag_600\n      tag_423\n      jump\t// in\n    tag_600:\n        /* \"#utility.yul\":15075:15112   */\n    tag_599:\n        /* \"#utility.yul\":14925:15119   */\n      swap3\n      swap2\n      pop\n      pop\n      jump\t// out\n        /* \"#utility.yul\":15125:15306   */\n    tag_425:\n        /* \"#utility.yul\":15265:15298   */\n      0x5265656e7472616e637947756172643a207265656e7472616e742063616c6c00\n        /* \"#utility.yul\":15261:15262   */\n      0x00\n        /* \"#utility.yul\":15253:15259   */\n      dup3\n        /* \"#utility.yul\":15249:15263   */\n      add\n        /* \"#utility.yul\":15242:15299   */\n      mstore\n        /* \"#utility.yul\":15125:15306   */\n      pop\n      jump\t// out\n        /* \"#utility.yul\":15312:15678   */\n    tag_426:\n        /* \"#utility.yul\":15454:15457   */\n      0x00\n        /* \"#utility.yul\":15475:15542   */\n      tag_603\n        /* \"#utility.yul\":15539:15541   */\n      0x1f\n        /* \"#utility.yul\":15534:15537   */\n      dup4\n        /* \"#utility.yul\":15475:15542   */\n      tag_389\n      jump\t// in\n    tag_603:\n        /* \"#utility.yul\":15468:15542   */\n      swap2\n      pop\n        /* \"#utility.yul\":15551:15644   */\n      tag_604\n        /* \"#utility.yul\":15640:15643   */\n      dup3\n        /* \"#utility.yul\":15551:15644   */\n      tag_425\n      jump\t// in\n    tag_604:\n        /* \"#utility.yul\":15669:15671   */\n      0x20\n        /* \"#utility.yul\":15664:15667   */\n      dup3\n        /* \"#utility.yul\":15660:15672   */\n      add\n        /* \"#utility.yul\":15653:15672   */\n      swap1\n      pop\n        /* \"#utility.yul\":15312:15678   */\n      swap2\n      swap1\n      pop\n      jump\t// out\n        /* \"#utility.yul\":15684:16103   */\n    tag_334:\n        /* \"#utility.yul\":15850:15854   */\n      0x00\n        /* \"#utility.yul\":15888:15890   */\n      0x20\n        /* \"#utility.yul\":15877:15886   */\n      dup3\n        /* \"#utility.yul\":15873:15891   */\n      add\n        /* \"#utility.yul\":15865:15891   */\n      swap1\n      pop\n        /* \"#utility.yul\":15937:15946   */\n      dup2\n        /* \"#utility.yul\":15931:15935   */\n      dup2\n        /* \"#utility.yul\":15927:15947   */\n      sub\n        /* \"#utility.yul\":15923:15924   */\n      0x00\n        /* \"#utility.yul\":15912:15921   */\n      dup4\n        /* \"#utility.yul\":15908:15925   */\n      add\n        /* \"#utility.yul\":15901:15948   */\n      mstore\n        /* \"#utility.yul\":15965:16096   */\n      tag_606\n        /* \"#utility.yul\":16091:16095   */\n      dup2\n        /* \"#utility.yul\":15965:16096   */\n      tag_426\n      jump\t// in\n    tag_606:\n        /* \"#utility.yul\":15957:16096   */\n      swap1\n      pop\n        /* \"#utility.yul\":15684:16103   */\n      swap2\n      swap1\n      pop\n      jump\t// out\n        /* \"#utility.yul\":16109:16289   */\n    tag_348:\n        /* \"#utility.yul\":16157:16234   */\n      0x4e487b7100000000000000000000000000000000000000000000000000000000\n        /* \"#utility.yul\":16154:16155   */\n      0x00\n        /* \"#utility.yul\":16147:16235   */\n      mstore\n        /* \"#utility.yul\":16254:16258   */\n      0x41\n        /* \"#utility.yul\":16251:16252   */\n      0x04\n        /* \"#utility.yul\":16244:16259   */\n      mstore\n        /* \"#utility.yul\":16278:16282   */\n      0x24\n        /* \"#utility.yul\":16275:16276   */\n      0x00\n        /* \"#utility.yul\":16268:16283   */\n      revert\n        /* \"#utility.yul\":16295:16475   */\n    tag_352:\n        /* \"#utility.yul\":16343:16420   */\n      0x4e487b7100000000000000000000000000000000000000000000000000000000\n        /* \"#utility.yul\":16340:16341   */\n      0x00\n        /* \"#utility.yul\":16333:16421   */\n      mstore\n        /* \"#utility.yul\":16440:16444   */\n      0x32\n        /* \"#utility.yul\":16437:16438   */\n      0x04\n        /* \"#utility.yul\":16430:16445   */\n      mstore\n        /* \"#utility.yul\":16464:16468   */\n      0x24\n        /* \"#utility.yul\":16461:16462   */\n      0x00\n        /* \"#utility.yul\":16454:16469   */\n      revert\n        /* \"#utility.yul\":16481:16624   */\n    tag_427:\n        /* \"#utility.yul\":16538:16543   */\n      0x00\n        /* \"#utility.yul\":16569:16575   */\n      dup2\n        /* \"#utility.yul\":16563:16576   */\n      mload\n        /* \"#utility.yul\":16554:16576   */\n      swap1\n      pop\n        /* \"#utility.yul\":16585:16618   */\n      tag_610\n        /* \"#utility.yul\":16612:16617   */\n      dup2\n        /* \"#utility.yul\":16585:16618   */\n      tag_398\n      jump\t// in\n    tag_610:\n        /* \"#utility.yul\":16481:16624   */\n      swap3\n      swap2\n      pop\n      pop\n      jump\t// out\n        /* \"#utility.yul\":16630:16981   */\n    tag_356:\n        /* \"#utility.yul\":16700:16706   */\n      0x00\n        /* \"#utility.yul\":16749:16751   */\n      0x20\n        /* \"#utility.yul\":16737:16746   */\n      dup3\n        /* \"#utility.yul\":16728:16735   */\n      dup5\n        /* \"#utility.yul\":16724:16747   */\n      sub\n        /* \"#utility.yul\":16720:16752   */\n      slt\n        /* \"#utility.yul\":16717:16836   */\n      iszero\n      tag_612\n      jumpi\n        /* \"#utility.yul\":16755:16834   */\n      tag_613\n      tag_394\n      jump\t// in\n    tag_613:\n        /* \"#utility.yul\":16717:16836   */\n    tag_612:\n        /* \"#utility.yul\":16875:16876   */\n      0x00\n        /* \"#utility.yul\":16900:16964   */\n      tag_614\n        /* \"#utility.yul\":16956:16963   */\n      dup5\n        /* \"#utility.yul\":16947:16953   */\n      dup3\n        /* \"#utility.yul\":16936:16945   */\n      dup6\n        /* \"#utility.yul\":16932:16954   */\n      add\n        /* \"#utility.yul\":16900:16964   */\n      tag_427\n      jump\t// in\n    tag_614:\n        /* \"#utility.yul\":16890:16964   */\n      swap2\n      pop\n        /* \"#utility.yul\":16846:16974   */\n      pop\n        /* \"#utility.yul\":16630:16981   */\n      swap3\n      swap2\n      pop\n      pop\n      jump\t// out\n        /* \"#utility.yul\":16987:17072   */\n    tag_428:\n        /* \"#utility.yul\":17032:17039   */\n      0x00\n        /* \"#utility.yul\":17061:17066   */\n      dup2\n        /* \"#utility.yul\":17050:17066   */\n      swap1\n      pop\n        /* \"#utility.yul\":16987:17072   */\n      swap2\n      swap1\n      pop\n      jump\t// out\n        /* \"#utility.yul\":17078:17236   */\n    tag_429:\n        /* \"#utility.yul\":17136:17145   */\n      0x00\n        /* \"#utility.yul\":17169:17230   */\n      tag_617\n        /* \"#utility.yul\":17187:17229   */\n      tag_618\n        /* \"#utility.yul\":17196:17228   */\n      tag_619\n        /* \"#utility.yul\":17222:17227   */\n      dup5\n        /* \"#utility.yul\":17196:17228   */\n      tag_428\n      jump\t// in\n    tag_619:\n        /* \"#utility.yul\":17187:17229   */\n      tag_409\n      jump\t// in\n    tag_618:\n        /* \"#utility.yul\":17169:17230   */\n      tag_386\n      jump\t// in\n    tag_617:\n        /* \"#utility.yul\":17156:17230   */\n      swap1\n      pop\n        /* \"#utility.yul\":17078:17236   */\n      swap2\n      swap1\n      pop\n      jump\t// out\n        /* \"#utility.yul\":17242:17389   */\n    tag_430:\n        /* \"#utility.yul\":17337:17382   */\n      tag_621\n        /* \"#utility.yul\":17376:17381   */\n      dup2\n        /* \"#utility.yul\":17337:17382   */\n      tag_429\n      jump\t// in\n    tag_621:\n        /* \"#utility.yul\":17332:17335   */\n      dup3\n        /* \"#utility.yul\":17325:17383   */\n      mstore\n        /* \"#utility.yul\":17242:17389   */\n      pop\n      pop\n      jump\t// out\n        /* \"#utility.yul\":17395:17509   */\n    tag_431:\n        /* \"#utility.yul\":17462:17468   */\n      0x00\n        /* \"#utility.yul\":17496:17501   */\n      dup2\n        /* \"#utility.yul\":17490:17502   */\n      mload\n        /* \"#utility.yul\":17480:17502   */\n      swap1\n      pop\n        /* \"#utility.yul\":17395:17509   */\n      swap2\n      swap1\n      pop\n      jump\t// out\n        /* \"#utility.yul\":17515:17699   */\n    tag_432:\n        /* \"#utility.yul\":17614:17625   */\n      0x00\n        /* \"#utility.yul\":17648:17654   */\n      dup3\n        /* \"#utility.yul\":17643:17646   */\n      dup3\n        /* \"#utility.yul\":17636:17655   */\n      mstore\n        /* \"#utility.yul\":17688:17692   */\n      0x20\n        /* \"#utility.yul\":17683:17686   */\n      dup3\n        /* \"#utility.yul\":17679:17693   */\n      add\n        /* \"#utility.yul\":17664:17693   */\n      swap1\n      pop\n        /* \"#utility.yul\":17515:17699   */\n      swap3\n      swap2\n      pop\n      pop\n      jump\t// out\n        /* \"#utility.yul\":17705:17837   */\n    tag_433:\n        /* \"#utility.yul\":17772:17776   */\n      0x00\n        /* \"#utility.yul\":17795:17798   */\n      dup2\n        /* \"#utility.yul\":17787:17798   */\n      swap1\n      pop\n        /* \"#utility.yul\":17825:17829   */\n      0x20\n        /* \"#utility.yul\":17820:17823   */\n      dup3\n        /* \"#utility.yul\":17816:17830   */\n      add\n        /* \"#utility.yul\":17808:17830   */\n      swap1\n      pop\n        /* \"#utility.yul\":17705:17837   */\n      swap2\n      swap1\n      pop\n      jump\t// out\n        /* \"#utility.yul\":17843:17951   */\n    tag_434:\n        /* \"#utility.yul\":17920:17944   */\n      tag_626\n        /* \"#utility.yul\":17938:17943   */\n      dup2\n        /* \"#utility.yul\":17920:17944   */\n      tag_397\n      jump\t// in\n    tag_626:\n        /* \"#utility.yul\":17915:17918   */\n      dup3\n        /* \"#utility.yul\":17908:17945   */\n      mstore\n        /* \"#utility.yul\":17843:17951   */\n      pop\n      pop\n      jump\t// out\n        /* \"#utility.yul\":17957:18136   */\n    tag_435:\n        /* \"#utility.yul\":18026:18036   */\n      0x00\n        /* \"#utility.yul\":18047:18093   */\n      tag_628\n        /* \"#utility.yul\":18089:18092   */\n      dup4\n        /* \"#utility.yul\":18081:18087   */\n      dup4\n        /* \"#utility.yul\":18047:18093   */\n      tag_434\n      jump\t// in\n    tag_628:\n        /* \"#utility.yul\":18125:18129   */\n      0x20\n        /* \"#utility.yul\":18120:18123   */\n      dup4\n        /* \"#utility.yul\":18116:18130   */\n      add\n        /* \"#utility.yul\":18102:18130   */\n      swap1\n      pop\n        /* \"#utility.yul\":17957:18136   */\n      swap3\n      swap2\n      pop\n      pop\n      jump\t// out\n        /* \"#utility.yul\":18142:18255   */\n    tag_436:\n        /* \"#utility.yul\":18212:18216   */\n      0x00\n        /* \"#utility.yul\":18244:18248   */\n      0x20\n        /* \"#utility.yul\":18239:18242   */\n      dup3\n        /* \"#utility.yul\":18235:18249   */\n      add\n        /* \"#utility.yul\":18227:18249   */\n      swap1\n      pop\n        /* \"#utility.yul\":18142:18255   */\n      swap2\n      swap1\n      pop\n      jump\t// out\n        /* \"#utility.yul\":18291:19023   */\n    tag_437:\n        /* \"#utility.yul\":18410:18413   */\n      0x00\n        /* \"#utility.yul\":18439:18493   */\n      tag_631\n        /* \"#utility.yul\":18487:18492   */\n      dup3\n        /* \"#utility.yul\":18439:18493   */\n      tag_431\n      jump\t// in\n    tag_631:\n        /* \"#utility.yul\":18509:18595   */\n      tag_632\n        /* \"#utility.yul\":18588:18594   */\n      dup2\n        /* \"#utility.yul\":18583:18586   */\n      dup6\n        /* \"#utility.yul\":18509:18595   */\n      tag_432\n      jump\t// in\n    tag_632:\n        /* \"#utility.yul\":18502:18595   */\n      swap4\n      pop\n        /* \"#utility.yul\":18619:18675   */\n      tag_633\n        /* \"#utility.yul\":18669:18674   */\n      dup4\n        /* \"#utility.yul\":18619:18675   */\n      tag_433\n      jump\t// in\n    tag_633:\n        /* \"#utility.yul\":18698:18705   */\n      dup1\n        /* \"#utility.yul\":18729:18730   */\n      0x00\n        /* \"#utility.yul\":18714:18998   */\n    tag_634:\n        /* \"#utility.yul\":18739:18745   */\n      dup4\n        /* \"#utility.yul\":18736:18737   */\n      dup2\n        /* \"#utility.yul\":18733:18746   */\n      lt\n        /* \"#utility.yul\":18714:18998   */\n      iszero\n      tag_636\n      jumpi\n        /* \"#utility.yul\":18815:18821   */\n      dup2\n        /* \"#utility.yul\":18809:18822   */\n      mload\n        /* \"#utility.yul\":18842:18905   */\n      tag_637\n        /* \"#utility.yul\":18901:18904   */\n      dup9\n        /* \"#utility.yul\":18886:18899   */\n      dup3\n        /* \"#utility.yul\":18842:18905   */\n      tag_435\n      jump\t// in\n    tag_637:\n        /* \"#utility.yul\":18835:18905   */\n      swap8\n      pop\n        /* \"#utility.yul\":18928:18988   */\n      tag_638\n        /* \"#utility.yul\":18981:18987   */\n      dup4\n        /* \"#utility.yul\":18928:18988   */\n      tag_436\n      jump\t// in\n    tag_638:\n        /* \"#utility.yul\":18918:18988   */\n      swap3\n      pop\n        /* \"#utility.yul\":18774:18998   */\n      pop\n        /* \"#utility.yul\":18761:18762   */\n      0x01\n        /* \"#utility.yul\":18758:18759   */\n      dup2\n        /* \"#utility.yul\":18754:18763   */\n      add\n        /* \"#utility.yul\":18749:18763   */\n      swap1\n      pop\n        /* \"#utility.yul\":18714:18998   */\n      jump(tag_634)\n    tag_636:\n        /* \"#utility.yul\":18718:18732   */\n      pop\n        /* \"#utility.yul\":19014:19017   */\n      dup6\n        /* \"#utility.yul\":19007:19017   */\n      swap4\n      pop\n        /* \"#utility.yul\":18415:19023   */\n      pop\n      pop\n      pop\n        /* \"#utility.yul\":18291:19023   */\n      swap3\n      swap2\n      pop\n      pop\n      jump\t// out\n        /* \"#utility.yul\":19029:19860   */\n    tag_361:\n        /* \"#utility.yul\":19292:19296   */\n      0x00\n        /* \"#utility.yul\":19330:19333   */\n      0xa0\n        /* \"#utility.yul\":19319:19328   */\n      dup3\n        /* \"#utility.yul\":19315:19334   */\n      add\n        /* \"#utility.yul\":19307:19334   */\n      swap1\n      pop\n        /* \"#utility.yul\":19344:19415   */\n      tag_640\n        /* \"#utility.yul\":19412:19413   */\n      0x00\n        /* \"#utility.yul\":19401:19410   */\n      dup4\n        /* \"#utility.yul\":19397:19414   */\n      add\n        /* \"#utility.yul\":19388:19394   */\n      dup9\n        /* \"#utility.yul\":19344:19415   */\n      tag_387\n      jump\t// in\n    tag_640:\n        /* \"#utility.yul\":19425:19505   */\n      tag_641\n        /* \"#utility.yul\":19501:19503   */\n      0x20\n        /* \"#utility.yul\":19490:19499   */\n      dup4\n        /* \"#utility.yul\":19486:19504   */\n      add\n        /* \"#utility.yul\":19477:19483   */\n      dup8\n        /* \"#utility.yul\":19425:19505   */\n      tag_430\n      jump\t// in\n    tag_641:\n        /* \"#utility.yul\":19552:19561   */\n      dup2\n        /* \"#utility.yul\":19546:19550   */\n      dup2\n        /* \"#utility.yul\":19542:19562   */\n      sub\n        /* \"#utility.yul\":19537:19539   */\n      0x40\n        /* \"#utility.yul\":19526:19535   */\n      dup4\n        /* \"#utility.yul\":19522:19540   */\n      add\n        /* \"#utility.yul\":19515:19563   */\n      mstore\n        /* \"#utility.yul\":19580:19688   */\n      tag_642\n        /* \"#utility.yul\":19683:19687   */\n      dup2\n        /* \"#utility.yul\":19674:19680   */\n      dup7\n        /* \"#utility.yul\":19580:19688   */\n      tag_437\n      jump\t// in\n    tag_642:\n        /* \"#utility.yul\":19572:19688   */\n      swap1\n      pop\n        /* \"#utility.yul\":19698:19770   */\n      tag_643\n        /* \"#utility.yul\":19766:19768   */\n      0x60\n        /* \"#utility.yul\":19755:19764   */\n      dup4\n        /* \"#utility.yul\":19751:19769   */\n      add\n        /* \"#utility.yul\":19742:19748   */\n      dup6\n        /* \"#utility.yul\":19698:19770   */\n      tag_408\n      jump\t// in\n    tag_643:\n        /* \"#utility.yul\":19780:19853   */\n      tag_644\n        /* \"#utility.yul\":19848:19851   */\n      0x80\n        /* \"#utility.yul\":19837:19846   */\n      dup4\n        /* \"#utility.yul\":19833:19852   */\n      add\n        /* \"#utility.yul\":19824:19830   */\n      dup5\n        /* \"#utility.yul\":19780:19853   */\n      tag_387\n      jump\t// in\n    tag_644:\n        /* \"#utility.yul\":19029:19860   */\n      swap7\n      swap6\n      pop\n      pop\n      pop\n      pop\n      pop\n      pop\n      jump\t// out\n        /* \"#utility.yul\":19866:20673   */\n    tag_368:\n        /* \"#utility.yul\":20115:20119   */\n      0x00\n        /* \"#utility.yul\":20153:20156   */\n      0xc0\n        /* \"#utility.yul\":20142:20151   */\n      dup3\n        /* \"#utility.yul\":20138:20157   */\n      add\n        /* \"#utility.yul\":20130:20157   */\n      swap1\n      pop\n        /* \"#utility.yul\":20167:20238   */\n      tag_646\n        /* \"#utility.yul\":20235:20236   */\n      0x00\n        /* \"#utility.yul\":20224:20233   */\n      dup4\n        /* \"#utility.yul\":20220:20237   */\n      add\n        /* \"#utility.yul\":20211:20217   */\n      dup10\n        /* \"#utility.yul\":20167:20238   */\n      tag_408\n      jump\t// in\n    tag_646:\n        /* \"#utility.yul\":20248:20320   */\n      tag_647\n        /* \"#utility.yul\":20316:20318   */\n      0x20\n        /* \"#utility.yul\":20305:20314   */\n      dup4\n        /* \"#utility.yul\":20301:20319   */\n      add\n        /* \"#utility.yul\":20292:20298   */\n      dup9\n        /* \"#utility.yul\":20248:20320   */\n      tag_387\n      jump\t// in\n    tag_647:\n        /* \"#utility.yul\":20330:20410   */\n      tag_648\n        /* \"#utility.yul\":20406:20408   */\n      0x40\n        /* \"#utility.yul\":20395:20404   */\n      dup4\n        /* \"#utility.yul\":20391:20409   */\n      add\n        /* \"#utility.yul\":20382:20388   */\n      dup8\n        /* \"#utility.yul\":20330:20410   */\n      tag_430\n      jump\t// in\n    tag_648:\n        /* \"#utility.yul\":20420:20500   */\n      tag_649\n        /* \"#utility.yul\":20496:20498   */\n      0x60\n        /* \"#utility.yul\":20485:20494   */\n      dup4\n        /* \"#utility.yul\":20481:20499   */\n      add\n        /* \"#utility.yul\":20472:20478   */\n      dup7\n        /* \"#utility.yul\":20420:20500   */\n      tag_430\n      jump\t// in\n    tag_649:\n        /* \"#utility.yul\":20510:20583   */\n      tag_650\n        /* \"#utility.yul\":20578:20581   */\n      0x80\n        /* \"#utility.yul\":20567:20576   */\n      dup4\n        /* \"#utility.yul\":20563:20582   */\n      add\n        /* \"#utility.yul\":20554:20560   */\n      dup6\n        /* \"#utility.yul\":20510:20583   */\n      tag_408\n      jump\t// in\n    tag_650:\n        /* \"#utility.yul\":20593:20666   */\n      tag_651\n        /* \"#utility.yul\":20661:20664   */\n      0xa0\n        /* \"#utility.yul\":20650:20659   */\n      dup4\n        /* \"#utility.yul\":20646:20665   */\n      add\n        /* \"#utility.yul\":20637:20643   */\n      dup5\n        /* \"#utility.yul\":20593:20666   */\n      tag_387\n      jump\t// in\n    tag_651:\n        /* \"#utility.yul\":19866:20673   */\n      swap8\n      swap7\n      pop\n      pop\n      pop\n      pop\n      pop\n      pop\n      pop\n      jump\t// out\n        /* \"#utility.yul\":20679:21342   */\n    tag_372:\n        /* \"#utility.yul\":20767:20773   */\n      0x00\n        /* \"#utility.yul\":20775:20781   */\n      dup1\n        /* \"#utility.yul\":20783:20789   */\n      0x00\n        /* \"#utility.yul\":20832:20834   */\n      0x60\n        /* \"#utility.yul\":20820:20829   */\n      dup5\n        /* \"#utility.yul\":20811:20818   */\n      dup7\n        /* \"#utility.yul\":20807:20830   */\n      sub\n        /* \"#utility.yul\":20803:20835   */\n      slt\n        /* \"#utility.yul\":20800:20919   */\n      iszero\n      tag_653\n      jumpi\n        /* \"#utility.yul\":20838:20917   */\n      tag_654\n      tag_394\n      jump\t// in\n    tag_654:\n        /* \"#utility.yul\":20800:20919   */\n    tag_653:\n        /* \"#utility.yul\":20958:20959   */\n      0x00\n        /* \"#utility.yul\":20983:21047   */\n      tag_655\n        /* \"#utility.yul\":21039:21046   */\n      dup7\n        /* \"#utility.yul\":21030:21036   */\n      dup3\n        /* \"#utility.yul\":21019:21028   */\n      dup8\n        /* \"#utility.yul\":21015:21037   */\n      add\n        /* \"#utility.yul\":20983:21047   */\n      tag_417\n      jump\t// in\n    tag_655:\n        /* \"#utility.yul\":20973:21047   */\n      swap4\n      pop\n        /* \"#utility.yul\":20929:21057   */\n      pop\n        /* \"#utility.yul\":21096:21098   */\n      0x20\n        /* \"#utility.yul\":21122:21186   */\n      tag_656\n        /* \"#utility.yul\":21178:21185   */\n      dup7\n        /* \"#utility.yul\":21169:21175   */\n      dup3\n        /* \"#utility.yul\":21158:21167   */\n      dup8\n        /* \"#utility.yul\":21154:21176   */\n      add\n        /* \"#utility.yul\":21122:21186   */\n      tag_417\n      jump\t// in\n    tag_656:\n        /* \"#utility.yul\":21112:21186   */\n      swap3\n      pop\n        /* \"#utility.yul\":21067:21196   */\n      pop\n        /* \"#utility.yul\":21235:21237   */\n      0x40\n        /* \"#utility.yul\":21261:21325   */\n      tag_657\n        /* \"#utility.yul\":21317:21324   */\n      dup7\n        /* \"#utility.yul\":21308:21314   */\n      dup3\n        /* \"#utility.yul\":21297:21306   */\n      dup8\n        /* \"#utility.yul\":21293:21315   */\n      add\n        /* \"#utility.yul\":21261:21325   */\n      tag_417\n      jump\t// in\n    tag_657:\n        /* \"#utility.yul\":21251:21325   */\n      swap2\n      pop\n        /* \"#utility.yul\":21206:21335   */\n      pop\n        /* \"#utility.yul\":20679:21342   */\n      swap3\n      pop\n      swap3\n      pop\n      swap3\n      jump\t// out\n        /* \"#utility.yul\":21348:21790   */\n    tag_374:\n        /* \"#utility.yul\":21497:21501   */\n      0x00\n        /* \"#utility.yul\":21535:21537   */\n      0x60\n        /* \"#utility.yul\":21524:21533   */\n      dup3\n        /* \"#utility.yul\":21520:21538   */\n      add\n        /* \"#utility.yul\":21512:21538   */\n      swap1\n      pop\n        /* \"#utility.yul\":21548:21619   */\n      tag_659\n        /* \"#utility.yul\":21616:21617   */\n      0x00\n        /* \"#utility.yul\":21605:21614   */\n      dup4\n        /* \"#utility.yul\":21601:21618   */\n      add\n        /* \"#utility.yul\":21592:21598   */\n      dup7\n        /* \"#utility.yul\":21548:21619   */\n      tag_387\n      jump\t// in\n    tag_659:\n        /* \"#utility.yul\":21629:21701   */\n      tag_660\n        /* \"#utility.yul\":21697:21699   */\n      0x20\n        /* \"#utility.yul\":21686:21695   */\n      dup4\n        /* \"#utility.yul\":21682:21700   */\n      add\n        /* \"#utility.yul\":21673:21679   */\n      dup6\n        /* \"#utility.yul\":21629:21701   */\n      tag_387\n      jump\t// in\n    tag_660:\n        /* \"#utility.yul\":21711:21783   */\n      tag_661\n        /* \"#utility.yul\":21779:21781   */\n      0x40\n        /* \"#utility.yul\":21768:21777   */\n      dup4\n        /* \"#utility.yul\":21764:21782   */\n      add\n        /* \"#utility.yul\":21755:21761   */\n      dup5\n        /* \"#utility.yul\":21711:21783   */\n      tag_387\n      jump\t// in\n    tag_661:\n        /* \"#utility.yul\":21348:21790   */\n      swap5\n      swap4\n      pop\n      pop\n      pop\n      pop\n      jump\t// out\n        /* \"#utility.yul\":21796:21987   */\n    tag_379:\n        /* \"#utility.yul\":21836:21839   */\n      0x00\n        /* \"#utility.yul\":21855:21875   */\n      tag_663\n        /* \"#utility.yul\":21873:21874   */\n      dup3\n        /* \"#utility.yul\":21855:21875   */\n      tag_386\n      jump\t// in\n    tag_663:\n        /* \"#utility.yul\":21850:21875   */\n      swap2\n      pop\n        /* \"#utility.yul\":21889:21909   */\n      tag_664\n        /* \"#utility.yul\":21907:21908   */\n      dup4\n        /* \"#utility.yul\":21889:21909   */\n      tag_386\n      jump\t// in\n    tag_664:\n        /* \"#utility.yul\":21884:21909   */\n      swap3\n      pop\n        /* \"#utility.yul\":21932:21933   */\n      dup3\n        /* \"#utility.yul\":21929:21930   */\n      dup3\n        /* \"#utility.yul\":21925:21934   */\n      add\n        /* \"#utility.yul\":21918:21934   */\n      swap1\n      pop\n        /* \"#utility.yul\":21953:21956   */\n      dup1\n        /* \"#utility.yul\":21950:21951   */\n      dup3\n        /* \"#utility.yul\":21947:21957   */\n      gt\n        /* \"#utility.yul\":21944:21980   */\n      iszero\n      tag_665\n      jumpi\n        /* \"#utility.yul\":21960:21978   */\n      tag_666\n      tag_423\n      jump\t// in\n    tag_666:\n        /* \"#utility.yul\":21944:21980   */\n    tag_665:\n        /* \"#utility.yul\":21796:21987   */\n      swap3\n      swap2\n      pop\n      pop\n      jump\t// out\n\n    auxdata: 0xa26469706673582212200a4d0349d9a94e3d9bb2f933fd2387c37298fc04e09197c88ec59a1efa477c7064736f6c63430008180033\n}\n",
				"bytecode": {
					"linkReferences": {},
					"object": "60806040526101f46009556103e8600a556101f4600b556101f4600c55690a968163f0a57b40000060105534801562000036575f80fd5b50336040518060400160405280600e81526020017f4175746f6d61746f7220436f696e0000000000000000000000000000000000008152506040518060400160405280600381526020017f41544300000000000000000000000000000000000000000000000000000000008152508160039081620000b5919062000c8b565b508060049081620000c7919062000c8b565b5050505f73ffffffffffffffffffffffffffffffffffffffff168173ffffffffffffffffffffffffffffffffffffffff16036200013d575f6040517f1e4fbdf700000000000000000000000000000000000000000000000000000000815260040162000134919062000db2565b60405180910390fd5b6200014e81620006b660201b60201c565b50600160068190555062000175336b033b2e3c9fd0803ce80000006200077960201b60201c565b7310ed43c718714eb63d5aa57b78b54704e256024e60075f6101000a81548173ffffffffffffffffffffffffffffffffffffffff021916908373ffffffffffffffffffffffffffffffffffffffff16021790555060075f9054906101000a900473ffffffffffffffffffffffffffffffffffffffff1673ffffffffffffffffffffffffffffffffffffffff1663c45a01556040518163ffffffff1660e01b8152600401602060405180830381865afa15801562000234573d5f803e3d5ffd5b505050506040513d601f19601f820116820180604052508101906200025a919062000e00565b73ffffffffffffffffffffffffffffffffffffffff1663c9c653963060075f9054906101000a900473ffffffffffffffffffffffffffffffffffffffff1673ffffffffffffffffffffffffffffffffffffffff1663ad5c46486040518163ffffffff1660e01b8152600401602060405180830381865afa158015620002e1573d5f803e3d5ffd5b505050506040513d601f19601f8201168201806040525081019062000307919062000e00565b6040518363ffffffff1660e01b81526004016200032692919062000e30565b6020604051808303815f875af115801562000343573d5f803e3d5ffd5b505050506040513d601f19601f8201168201806040525081019062000369919062000e00565b60085f6101000a81548173ffffffffffffffffffffffffffffffffffffffff021916908373ffffffffffffffffffffffffffffffffffffffff1602179055507373add9b0fae851f9f203ba5346d240c32d5af259600d5f6101000a81548173ffffffffffffffffffffffffffffffffffffffff021916908373ffffffffffffffffffffffffffffffffffffffff16021790555073fbd336b10d3aa003bb0491277bd1b100a7600b7a600e5f6101000a81548173ffffffffffffffffffffffffffffffffffffffff021916908373ffffffffffffffffffffffffffffffffffffffff16021790555073c5e979514ebe80172edba7c7cfe38b599e4e4823600f5f6101000a81548173ffffffffffffffffffffffffffffffffffffffff021916908373ffffffffffffffffffffffffffffffffffffffff160217905550600160125f3373ffffffffffffffffffffffffffffffffffffffff1673ffffffffffffffffffffffffffffffffffffffff1681526020019081526020015f205f6101000a81548160ff021916908315150217905550600160125f3073ffffffffffffffffffffffffffffffffffffffff1673ffffffffffffffffffffffffffffffffffffffff1681526020019081526020015f205f6101000a81548160ff021916908315150217905550600160125f600d5f9054906101000a900473ffffffffffffffffffffffffffffffffffffffff1673ffffffffffffffffffffffffffffffffffffffff1673ffffffffffffffffffffffffffffffffffffffff1681526020019081526020015f205f6101000a81548160ff021916908315150217905550600160125f600e5f9054906101000a900473ffffffffffffffffffffffffffffffffffffffff1673ffffffffffffffffffffffffffffffffffffffff1673ffffffffffffffffffffffffffffffffffffffff1681526020019081526020015f205f6101000a81548160ff021916908315150217905550600160125f600f5f9054906101000a900473ffffffffffffffffffffffffffffffffffffffff1673ffffffffffffffffffffffffffffffffffffffff1673ffffffffffffffffffffffffffffffffffffffff1681526020019081526020015f205f6101000a81548160ff02191690831515021790555062000f29565b5f60055f9054906101000a900473ffffffffffffffffffffffffffffffffffffffff1690508160055f6101000a81548173ffffffffffffffffffffffffffffffffffffffff021916908373ffffffffffffffffffffffffffffffffffffffff1602179055508173ffffffffffffffffffffffffffffffffffffffff168173ffffffffffffffffffffffffffffffffffffffff167f8be0079c531659141344cd1fd0a4f28419497f9722a3daafe3b4186f6b6457e060405160405180910390a35050565b5f73ffffffffffffffffffffffffffffffffffffffff168273ffffffffffffffffffffffffffffffffffffffff1603620007ec575f6040517fec442f05000000000000000000000000000000000000000000000000000000008152600401620007e3919062000db2565b60405180910390fd5b620007ff5f83836200080360201b60201c565b5050565b5f73ffffffffffffffffffffffffffffffffffffffff168373ffffffffffffffffffffffffffffffffffffffff160362000857578060025f8282546200084a919062000e88565b9250508190555062000928565b5f805f8573ffffffffffffffffffffffffffffffffffffffff1673ffffffffffffffffffffffffffffffffffffffff1681526020019081526020015f2054905081811015620008e3578381836040517fe450d38c000000000000000000000000000000000000000000000000000000008152600401620008da9392919062000ed3565b60405180910390fd5b8181035f808673ffffffffffffffffffffffffffffffffffffffff1673ffffffffffffffffffffffffffffffffffffffff1681526020019081526020015f2081905550505b5f73ffffffffffffffffffffffffffffffffffffffff168273ffffffffffffffffffffffffffffffffffffffff160362000971578060025f8282540392505081905550620009bb565b805f808473ffffffffffffffffffffffffffffffffffffffff1673ffffffffffffffffffffffffffffffffffffffff1681526020019081526020015f205f82825401925050819055505b8173ffffffffffffffffffffffffffffffffffffffff168373ffffffffffffffffffffffffffffffffffffffff167fddf252ad1be2c89b69c2b068fc378daa952ba7f163c4a11628f55a4df523b3ef8360405162000a1a919062000f0e565b60405180910390a3505050565b5f81519050919050565b7f4e487b71000000000000000000000000000000000000000000000000000000005f52604160045260245ffd5b7f4e487b71000000000000000000000000000000000000000000000000000000005f52602260045260245ffd5b5f600282049050600182168062000aa357607f821691505b60208210810362000ab95762000ab862000a5e565b5b50919050565b5f819050815f5260205f209050919050565b5f6020601f8301049050919050565b5f82821b905092915050565b5f6008830262000b1d7fffffffffffffffffffffffffffffffffffffffffffffffffffffffffffffffff8262000ae0565b62000b29868362000ae0565b95508019841693508086168417925050509392505050565b5f819050919050565b5f819050919050565b5f62000b7362000b6d62000b678462000b41565b62000b4a565b62000b41565b9050919050565b5f819050919050565b62000b8e8362000b53565b62000ba662000b9d8262000b7a565b84845462000aec565b825550505050565b5f90565b62000bbc62000bae565b62000bc981848462000b83565b505050565b5b8181101562000bf05762000be45f8262000bb2565b60018101905062000bcf565b5050565b601f82111562000c3f5762000c098162000abf565b62000c148462000ad1565b8101602085101562000c24578190505b62000c3c62000c338562000ad1565b83018262000bce565b50505b505050565b5f82821c905092915050565b5f62000c615f198460080262000c44565b1980831691505092915050565b5f62000c7b838362000c50565b9150826002028217905092915050565b62000c968262000a27565b67ffffffffffffffff81111562000cb25762000cb162000a31565b5b62000cbe825462000a8b565b62000ccb82828562000bf4565b5f60209050601f83116001811462000d01575f841562000cec578287015190505b62000cf8858262000c6e565b86555062000d67565b601f19841662000d118662000abf565b5f5b8281101562000d3a5784890151825560018201915060208501945060208101905062000d13565b8683101562000d5a578489015162000d56601f89168262000c50565b8355505b6001600288020188555050505b505050505050565b5f73ffffffffffffffffffffffffffffffffffffffff82169050919050565b5f62000d9a8262000d6f565b9050919050565b62000dac8162000d8e565b82525050565b5f60208201905062000dc75f83018462000da1565b92915050565b5f80fd5b62000ddc8162000d8e565b811462000de7575f80fd5b50565b5f8151905062000dfa8162000dd1565b92915050565b5f6020828403121562000e185762000e1762000dcd565b5b5f62000e278482850162000dea565b91505092915050565b5f60408201905062000e455f83018562000da1565b62000e54602083018462000da1565b9392505050565b7f4e487b71000000000000000000000000000000000000000000000000000000005f52601160045260245ffd5b5f62000e948262000b41565b915062000ea18362000b41565b925082820190508082111562000ebc5762000ebb62000e5b565b5b92915050565b62000ecd8162000b41565b82525050565b5f60608201905062000ee85f83018662000da1565b62000ef7602083018562000ec2565b62000f06604083018462000ec2565b949350505050565b5f60208201905062000f235f83018462000ec2565b92915050565b612a838062000f375f395ff3fe6080604052600436106101db575f3560e01c806370a0823111610101578063a3342fba11610094578063d862686b11610063578063d862686b1461067e578063dd62ed3e146106a8578063f2fde38b146106e4578063f887ea401461070c576101e2565b8063a3342fba146105c6578063a8aa1b31146105f0578063a9059cbb1461061a578063cb96372814610656576101e2565b80638da5cb5b116100d05780638da5cb5b146105205780638ea5220f1461054a57806395d89b41146105745780639d0014b11461059e576101e2565b806370a082311461048e578063715018a6146104ca57806375f0a874146104e05780638a8c523c1461050a576101e2565b80631de3b450116101795780635342acb4116101485780635342acb4146103d657806354ad8aee146104125780636612e66f1461043c578063665c6de914610464576101e2565b80631de3b4501461031c57806323b872dd14610346578063313ce567146103825780634ada218b146103ac576101e2565b8063095ea7b3116101b5578063095ea7b314610264578063147c9f6d146102a057806318160ddd146102c85780631d2cb02d146102f2576101e2565b806302af37bb146101e65780630445b6671461021057806306fdde031461023a576101e2565b366101e257005b5f80fd5b3480156101f1575f80fd5b506101fa610736565b6040516102079190611f32565b60405180910390f35b34801561021b575f80fd5b5061022461073c565b6040516102319190611f32565b60405180910390f35b348015610245575f80fd5b5061024e610742565b60405161025b9190611fd5565b60405180910390f35b34801561026f575f80fd5b5061028a6004803603810190610285919061207d565b6107d2565b60405161029791906120d5565b60405180910390f35b3480156102ab575f80fd5b506102c660048036038101906102c191906120ee565b6107f4565b005b3480156102d3575f80fd5b506102dc610a23565b6040516102e99190611f32565b60405180910390f35b3480156102fd575f80fd5b50610306610a2c565b6040516103139190611f32565b60405180910390f35b348015610327575f80fd5b50610330610a32565b60405161033d9190611f32565b60405180910390f35b348015610351575f80fd5b5061036c6004803603810190610367919061213e565b610a38565b60405161037991906120d5565b60405180910390f35b34801561038d575f80fd5b50610396610a66565b6040516103a391906121a9565b60405180910390f35b3480156103b7575f80fd5b506103c0610a6e565b6040516103cd91906120d5565b60405180910390f35b3480156103e1575f80fd5b506103fc60048036038101906103f791906121c2565b610a81565b60405161040991906120d5565b60405180910390f35b34801561041d575f80fd5b50610426610a9e565b6040516104339190611f32565b60405180910390f35b348015610447575f80fd5b50610462600480360381019061045d9190612217565b610aa4565b005b34801561046f575f80fd5b50610478610b04565b6040516104859190611f32565b60405180910390f35b348015610499575f80fd5b506104b460048036038101906104af91906121c2565b610b0a565b6040516104c19190611f32565b60405180910390f35b3480156104d5575f80fd5b506104de610b4f565b005b3480156104eb575f80fd5b506104f4610b62565b6040516105019190612264565b60405180910390f35b348015610515575f80fd5b5061051e610b87565b005b34801561052b575f80fd5b50610534610bac565b6040516105419190612264565b60405180910390f35b348015610555575f80fd5b5061055e610bd4565b60405161056b9190612264565b60405180910390f35b34801561057f575f80fd5b50610588610bf9565b6040516105959190611fd5565b60405180910390f35b3480156105a9575f80fd5b506105c460048036038101906105bf919061227d565b610c89565b005b3480156105d1575f80fd5b506105da610c9b565b6040516105e79190612264565b60405180910390f35b3480156105fb575f80fd5b50610604610cc0565b6040516106119190612264565b60405180910390f35b348015610625575f80fd5b50610640600480360381019061063b919061207d565b610ce5565b60405161064d91906120d5565b60405180910390f35b348015610661575f80fd5b5061067c600480360381019061067791906121c2565b610d02565b005b348015610689575f80fd5b50610692610e6e565b60405161069f9190611f32565b60405180910390f35b3480156106b3575f80fd5b506106ce60048036038101906106c991906122a8565b610e74565b6040516106db9190611f32565b60405180910390f35b3480156106ef575f80fd5b5061070a600480360381019061070591906121c2565b610ef6565b005b348015610717575f80fd5b50610720610f7a565b60405161072d9190612341565b60405180910390f35b6109c481565b60105481565b60606003805461075190612387565b80601f016020809104026020016040519081016040528092919081815260200182805461077d90612387565b80156107c85780601f1061079f576101008083540402835291602001916107c8565b820191905f5260205f20905b8154815290600101906020018083116107ab57829003601f168201915b5050505050905090565b5f806107dc610f9f565b90506107e9818585610fa6565b600191505092915050565b6107fc610fb8565b82600d5f6101000a81548173ffffffffffffffffffffffffffffffffffffffff021916908373ffffffffffffffffffffffffffffffffffffffff16021790555081600e5f6101000a81548173ffffffffffffffffffffffffffffffffffffffff021916908373ffffffffffffffffffffffffffffffffffffffff16021790555080600f5f6101000a81548173ffffffffffffffffffffffffffffffffffffffff021916908373ffffffffffffffffffffffffffffffffffffffff160217905550600160125f600d5f9054906101000a900473ffffffffffffffffffffffffffffffffffffffff1673ffffffffffffffffffffffffffffffffffffffff1673ffffffffffffffffffffffffffffffffffffffff1681526020019081526020015f205f6101000a81548160ff021916908315150217905550600160125f600e5f9054906101000a900473ffffffffffffffffffffffffffffffffffffffff1673ffffffffffffffffffffffffffffffffffffffff1673ffffffffffffffffffffffffffffffffffffffff1681526020019081526020015f205f6101000a81548160ff021916908315150217905550600160125f600f5f9054906101000a900473ffffffffffffffffffffffffffffffffffffffff1673ffffffffffffffffffffffffffffffffffffffff1673ffffffffffffffffffffffffffffffffffffffff1681526020019081526020015f205f6101000a81548160ff021916908315150217905550505050565b5f600254905090565b600c5481565b60095481565b5f80610a42610f9f565b9050610a4f85828561103f565b610a5a8585856110d2565b60019150509392505050565b5f6012905090565b601160019054906101000a900460ff1681565b6012602052805f5260405f205f915054906101000a900460ff1681565b6109c481565b610aac610fb8565b8060125f8473ffffffffffffffffffffffffffffffffffffffff1673ffffffffffffffffffffffffffffffffffffffff1681526020019081526020015f205f6101000a81548160ff0219169083151502179055505050565b600a5481565b5f805f8373ffffffffffffffffffffffffffffffffffffffff1673ffffffffffffffffffffffffffffffffffffffff1681526020019081526020015f20549050919050565b610b57610fb8565b610b605f611569565b565b600f5f9054906101000a900473ffffffffffffffffffffffffffffffffffffffff1681565b610b8f610fb8565b6001601160016101000a81548160ff021916908315150217905550565b5f60055f9054906101000a900473ffffffffffffffffffffffffffffffffffffffff16905090565b600d5f9054906101000a900473ffffffffffffffffffffffffffffffffffffffff1681565b606060048054610c0890612387565b80601f0160208091040260200160405190810160405280929190818152602001828054610c3490612387565b8015610c7f5780601f10610c5657610100808354040283529160200191610c7f565b820191905f5260205f20905b815481529060010190602001808311610c6257829003601f168201915b5050505050905090565b610c91610fb8565b8060108190555050565b600e5f9054906101000a900473ffffffffffffffffffffffffffffffffffffffff1681565b60085f9054906101000a900473ffffffffffffffffffffffffffffffffffffffff1681565b5f610cf8610cf1610f9f565b84846110d2565b6001905092915050565b610d0a610fb8565b3073ffffffffffffffffffffffffffffffffffffffff168173ffffffffffffffffffffffffffffffffffffffff1603610d78576040517f08c379a0000000000000000000000000000000000000000000000000000000008152600401610d6f90612401565b60405180910390fd5b8073ffffffffffffffffffffffffffffffffffffffff1663a9059cbb338373ffffffffffffffffffffffffffffffffffffffff166370a08231306040518263ffffffff1660e01b8152600401610dce9190612264565b602060405180830381865afa158015610de9573d5f803e3d5ffd5b505050506040513d601f19601f82011682018060405250810190610e0d9190612433565b6040518363ffffffff1660e01b8152600401610e2a92919061245e565b6020604051808303815f875af1158015610e46573d5f803e3d5ffd5b505050506040513d601f19601f82011682018060405250810190610e6a9190612499565b5050565b600b5481565b5f60015f8473ffffffffffffffffffffffffffffffffffffffff1673ffffffffffffffffffffffffffffffffffffffff1681526020019081526020015f205f8373ffffffffffffffffffffffffffffffffffffffff1673ffffffffffffffffffffffffffffffffffffffff1681526020019081526020015f2054905092915050565b610efe610fb8565b5f73ffffffffffffffffffffffffffffffffffffffff168173ffffffffffffffffffffffffffffffffffffffff1603610f6e575f6040517f1e4fbdf7000000000000000000000000000000000000000000000000000000008152600401610f659190612264565b60405180910390fd5b610f7781611569565b50565b60075f9054906101000a900473ffffffffffffffffffffffffffffffffffffffff1681565b5f33905090565b610fb3838383600161162c565b505050565b610fc0610f9f565b73ffffffffffffffffffffffffffffffffffffffff16610fde610bac565b73ffffffffffffffffffffffffffffffffffffffff161461103d57611001610f9f565b6040517f118cdaa70000000000000000000000000000000000000000000000000000000081526004016110349190612264565b60405180910390fd5b565b5f61104a8484610e74565b90507fffffffffffffffffffffffffffffffffffffffffffffffffffffffffffffffff8110156110cc57818110156110bd578281836040517ffb8f41b20000000000000000000000000000000000000000000000000000000081526004016110b4939291906124c4565b60405180910390fd5b6110cb84848484035f61162c565b5b50505050565b6110da6117fb565b5f811161111c576040517f08c379a000000000000000000000000000000000000000000000000000000000815260040161111390612569565b60405180910390fd5b601160019054906101000a900460ff168061117d575060125f8473ffffffffffffffffffffffffffffffffffffffff1673ffffffffffffffffffffffffffffffffffffffff1681526020019081526020015f205f9054906101000a900460ff165b806111ce575060125f8373ffffffffffffffffffffffffffffffffffffffff1673ffffffffffffffffffffffffffffffffffffffff1681526020019081526020015f205f9054906101000a900460ff165b61120d576040517f08c379a0000000000000000000000000000000000000000000000000000000008152600401611204906125d1565b60405180910390fd5b5f60125f8573ffffffffffffffffffffffffffffffffffffffff1673ffffffffffffffffffffffffffffffffffffffff1681526020019081526020015f205f9054906101000a900460ff161580156112ac575060125f8473ffffffffffffffffffffffffffffffffffffffff1673ffffffffffffffffffffffffffffffffffffffff1681526020019081526020015f205f9054906101000a900460ff16155b156115505760085f9054906101000a900473ffffffffffffffffffffffffffffffffffffffff1673ffffffffffffffffffffffffffffffffffffffff168373ffffffffffffffffffffffffffffffffffffffff1603611327576127106109c483611316919061261c565b611320919061268a565b905061139a565b60085f9054906101000a900473ffffffffffffffffffffffffffffffffffffffff1673ffffffffffffffffffffffffffffffffffffffff168473ffffffffffffffffffffffffffffffffffffffff1603611399576127106109c48361138c919061261c565b611396919061268a565b90505b5b5f81111561154f575f6109c4600954836113b4919061261c565b6113be919061268a565b90505f6109c4600a54846113d2919061261c565b6113dc919061268a565b90505f6109c4600b54856113f0919061261c565b6113fa919061268a565b90505f8183858761140b91906126ba565b61141591906126ba565b61141f91906126ba565b905061142c88308661184a565b61145888600d5f9054906101000a900473ffffffffffffffffffffffffffffffffffffffff168561184a565b61148488600e5f9054906101000a900473ffffffffffffffffffffffffffffffffffffffff168461184a565b6114b088600f5f9054906101000a900473ffffffffffffffffffffffffffffffffffffffff168361184a565b84866114bc91906126ba565b955060085f9054906101000a900473ffffffffffffffffffffffffffffffffffffffff1673ffffffffffffffffffffffffffffffffffffffff168773ffffffffffffffffffffffffffffffffffffffff16148015611524575060105461152130610b0a565b10155b801561153c575060115f9054906101000a900460ff16155b1561154a5761154961193a565b5b505050505b5b61155b84848461184a565b50611564611cf7565b505050565b5f60055f9054906101000a900473ffffffffffffffffffffffffffffffffffffffff1690508160055f6101000a81548173ffffffffffffffffffffffffffffffffffffffff021916908373ffffffffffffffffffffffffffffffffffffffff1602179055508173ffffffffffffffffffffffffffffffffffffffff168173ffffffffffffffffffffffffffffffffffffffff167f8be0079c531659141344cd1fd0a4f28419497f9722a3daafe3b4186f6b6457e060405160405180910390a35050565b5f73ffffffffffffffffffffffffffffffffffffffff168473ffffffffffffffffffffffffffffffffffffffff160361169c575f6040517fe602df050000000000000000000000000000000000000000000000000000000081526004016116939190612264565b60405180910390fd5b5f73ffffffffffffffffffffffffffffffffffffffff168373ffffffffffffffffffffffffffffffffffffffff160361170c575f6040517f94280d620000000000000000000000000000000000000000000000000000000081526004016117039190612264565b60405180910390fd5b8160015f8673ffffffffffffffffffffffffffffffffffffffff1673ffffffffffffffffffffffffffffffffffffffff1681526020019081526020015f205f8573ffffffffffffffffffffffffffffffffffffffff1673ffffffffffffffffffffffffffffffffffffffff1681526020019081526020015f208190555080156117f5578273ffffffffffffffffffffffffffffffffffffffff168473ffffffffffffffffffffffffffffffffffffffff167f8c5be1e5ebec7d5bd14f71427d1e84f3dd0314c0f7b2291e5b200ac8c7c3b925846040516117ec9190611f32565b60405180910390a35b50505050565b600260065403611840576040517f08c379a000000000000000000000000000000000000000000000000000000000815260040161183790612737565b60405180910390fd5b6002600681905550565b5f73ffffffffffffffffffffffffffffffffffffffff168373ffffffffffffffffffffffffffffffffffffffff16036118ba575f6040517f96c6fd1e0000000000000000000000000000000000000000000000000000000081526004016118b19190612264565b60405180910390fd5b5f73ffffffffffffffffffffffffffffffffffffffff168273ffffffffffffffffffffffffffffffffffffffff160361192a575f6040517fec442f050000000000000000000000000000000000000000000000000000000081526004016119219190612264565b60405180910390fd5b611935838383611d01565b505050565b600160115f6101000a81548160ff0219169083151502179055505f61195e30610b0a565b90505f60028261196e919061268a565b90505f818361197d91906126ba565b90505f600267ffffffffffffffff81111561199b5761199a612755565b5b6040519080825280602002602001820160405280156119c95781602001602082028036833780820191505090505b50905030815f815181106119e0576119df612782565b5b602002602001019073ffffffffffffffffffffffffffffffffffffffff16908173ffffffffffffffffffffffffffffffffffffffff168152505060075f9054906101000a900473ffffffffffffffffffffffffffffffffffffffff1673ffffffffffffffffffffffffffffffffffffffff1663ad5c46486040518163ffffffff1660e01b8152600401602060405180830381865afa158015611a84573d5f803e3d5ffd5b505050506040513d601f19601f82011682018060405250810190611aa891906127c3565b81600181518110611abc57611abb612782565b5b602002602001019073ffffffffffffffffffffffffffffffffffffffff16908173ffffffffffffffffffffffffffffffffffffffff16815250505f479050611b263060075f9054906101000a900473ffffffffffffffffffffffffffffffffffffffff1686610fa6565b60075f9054906101000a900473ffffffffffffffffffffffffffffffffffffffff1673ffffffffffffffffffffffffffffffffffffffff1663791ac947855f8530426040518663ffffffff1660e01b8152600401611b889594939291906128de565b5f604051808303815f87803b158015611b9f575f80fd5b505af1158015611bb1573d5f803e3d5ffd5b505050505f8147611bc291906126ba565b9050611bf03060075f9054906101000a900473ffffffffffffffffffffffffffffffffffffffff1686610fa6565b60075f9054906101000a900473ffffffffffffffffffffffffffffffffffffffff1673ffffffffffffffffffffffffffffffffffffffff1663f305d7198230875f8061dead426040518863ffffffff1660e01b8152600401611c5796959493929190612936565b60606040518083038185885af1158015611c73573d5f803e3d5ffd5b50505050506040513d601f19601f82011682018060405250810190611c989190612995565b5050507f17bbfb9a6069321b6ded73bd96327c9e6b7212a5cd51ff219cd61370acafb561858286604051611cce939291906129e5565b60405180910390a15f60115f6101000a81548160ff021916908315150217905550505050505050565b6001600681905550565b5f73ffffffffffffffffffffffffffffffffffffffff168373ffffffffffffffffffffffffffffffffffffffff1603611d51578060025f828254611d459190612a1a565b92505081905550611e1f565b5f805f8573ffffffffffffffffffffffffffffffffffffffff1673ffffffffffffffffffffffffffffffffffffffff1681526020019081526020015f2054905081811015611dda578381836040517fe450d38c000000000000000000000000000000000000000000000000000000008152600401611dd1939291906124c4565b60405180910390fd5b8181035f808673ffffffffffffffffffffffffffffffffffffffff1673ffffffffffffffffffffffffffffffffffffffff1681526020019081526020015f2081905550505b5f73ffffffffffffffffffffffffffffffffffffffff168273ffffffffffffffffffffffffffffffffffffffff1603611e66578060025f8282540392505081905550611eb0565b805f808473ffffffffffffffffffffffffffffffffffffffff1673ffffffffffffffffffffffffffffffffffffffff1681526020019081526020015f205f82825401925050819055505b8173ffffffffffffffffffffffffffffffffffffffff168373ffffffffffffffffffffffffffffffffffffffff167fddf252ad1be2c89b69c2b068fc378daa952ba7f163c4a11628f55a4df523b3ef83604051611f0d9190611f32565b60405180910390a3505050565b5f819050919050565b611f2c81611f1a565b82525050565b5f602082019050611f455f830184611f23565b92915050565b5f81519050919050565b5f82825260208201905092915050565b5f5b83811015611f82578082015181840152602081019050611f67565b5f8484015250505050565b5f601f19601f8301169050919050565b5f611fa782611f4b565b611fb18185611f55565b9350611fc1818560208601611f65565b611fca81611f8d565b840191505092915050565b5f6020820190508181035f830152611fed8184611f9d565b905092915050565b5f80fd5b5f73ffffffffffffffffffffffffffffffffffffffff82169050919050565b5f61202282611ff9565b9050919050565b61203281612018565b811461203c575f80fd5b50565b5f8135905061204d81612029565b92915050565b61205c81611f1a565b8114612066575f80fd5b50565b5f8135905061207781612053565b92915050565b5f806040838503121561209357612092611ff5565b5b5f6120a08582860161203f565b92505060206120b185828601612069565b9150509250929050565b5f8115159050919050565b6120cf816120bb565b82525050565b5f6020820190506120e85f8301846120c6565b92915050565b5f805f6060848603121561210557612104611ff5565b5b5f6121128682870161203f565b93505060206121238682870161203f565b92505060406121348682870161203f565b9150509250925092565b5f805f6060848603121561215557612154611ff5565b5b5f6121628682870161203f565b93505060206121738682870161203f565b925050604061218486828701612069565b9150509250925092565b5f60ff82169050919050565b6121a38161218e565b82525050565b5f6020820190506121bc5f83018461219a565b92915050565b5f602082840312156121d7576121d6611ff5565b5b5f6121e48482850161203f565b91505092915050565b6121f6816120bb565b8114612200575f80fd5b50565b5f81359050612211816121ed565b92915050565b5f806040838503121561222d5761222c611ff5565b5b5f61223a8582860161203f565b925050602061224b85828601612203565b9150509250929050565b61225e81612018565b82525050565b5f6020820190506122775f830184612255565b92915050565b5f6020828403121561229257612291611ff5565b5b5f61229f84828501612069565b91505092915050565b5f80604083850312156122be576122bd611ff5565b5b5f6122cb8582860161203f565b92505060206122dc8582860161203f565b9150509250929050565b5f819050919050565b5f6123096123046122ff84611ff9565b6122e6565b611ff9565b9050919050565b5f61231a826122ef565b9050919050565b5f61232b82612310565b9050919050565b61233b81612321565b82525050565b5f6020820190506123545f830184612332565b92915050565b7f4e487b71000000000000000000000000000000000000000000000000000000005f52602260045260245ffd5b5f600282049050600182168061239e57607f821691505b6020821081036123b1576123b061235a565b5b50919050565b7f43616e6e6f7420776974686472617720415443000000000000000000000000005f82015250565b5f6123eb601383611f55565b91506123f6826123b7565b602082019050919050565b5f6020820190508181035f830152612418816123df565b9050919050565b5f8151905061242d81612053565b92915050565b5f6020828403121561244857612447611ff5565b5b5f6124558482850161241f565b91505092915050565b5f6040820190506124715f830185612255565b61247e6020830184611f23565b9392505050565b5f81519050612493816121ed565b92915050565b5f602082840312156124ae576124ad611ff5565b5b5f6124bb84828501612485565b91505092915050565b5f6060820190506124d75f830186612255565b6124e46020830185611f23565b6124f16040830184611f23565b949350505050565b7f5472616e7366657220616d6f756e74206d7573742062652067726561746572205f8201527f7468616e207a65726f0000000000000000000000000000000000000000000000602082015250565b5f612553602983611f55565b915061255e826124f9565b604082019050919050565b5f6020820190508181035f83015261258081612547565b9050919050565b7f54726164696e67206e6f7420656e61626c6564000000000000000000000000005f82015250565b5f6125bb601383611f55565b91506125c682612587565b602082019050919050565b5f6020820190508181035f8301526125e8816125af565b9050919050565b7f4e487b71000000000000000000000000000000000000000000000000000000005f52601160045260245ffd5b5f61262682611f1a565b915061263183611f1a565b925082820261263f81611f1a565b91508282048414831517612656576126556125ef565b5b5092915050565b7f4e487b71000000000000000000000000000000000000000000000000000000005f52601260045260245ffd5b5f61269482611f1a565b915061269f83611f1a565b9250826126af576126ae61265d565b5b828204905092915050565b5f6126c482611f1a565b91506126cf83611f1a565b92508282039050818111156126e7576126e66125ef565b5b92915050565b7f5265656e7472616e637947756172643a207265656e7472616e742063616c6c005f82015250565b5f612721601f83611f55565b915061272c826126ed565b602082019050919050565b5f6020820190508181035f83015261274e81612715565b9050919050565b7f4e487b71000000000000000000000000000000000000000000000000000000005f52604160045260245ffd5b7f4e487b71000000000000000000000000000000000000000000000000000000005f52603260045260245ffd5b5f815190506127bd81612029565b92915050565b5f602082840312156127d8576127d7611ff5565b5b5f6127e5848285016127af565b91505092915050565b5f819050919050565b5f61281161280c612807846127ee565b6122e6565b611f1a565b9050919050565b612821816127f7565b82525050565b5f81519050919050565b5f82825260208201905092915050565b5f819050602082019050919050565b61285981612018565b82525050565b5f61286a8383612850565b60208301905092915050565b5f602082019050919050565b5f61288c82612827565b6128968185612831565b93506128a183612841565b805f5b838110156128d15781516128b8888261285f565b97506128c383612876565b9250506001810190506128a4565b5085935050505092915050565b5f60a0820190506128f15f830188611f23565b6128fe6020830187612818565b81810360408301526129108186612882565b905061291f6060830185612255565b61292c6080830184611f23565b9695505050505050565b5f60c0820190506129495f830189612255565b6129566020830188611f23565b6129636040830187612818565b6129706060830186612818565b61297d6080830185612255565b61298a60a0830184611f23565b979650505050505050565b5f805f606084860312156129ac576129ab611ff5565b5b5f6129b98682870161241f565b93505060206129ca8682870161241f565b92505060406129db8682870161241f565b9150509250925092565b5f6060820190506129f85f830186611f23565b612a056020830185611f23565b612a126040830184611f23565b949350505050565b5f612a2482611f1a565b9150612a2f83611f1a565b9250828201905080821115612a4757612a466125ef565b5b9291505056fea26469706673582212200a4d0349d9a94e3d9bb2f933fd2387c37298fc04e09197c88ec59a1efa477c7064736f6c63430008180033",
					"opcodes": "PUSH1 0x80 PUSH1 0x40 MSTORE PUSH2 0x1F4 PUSH1 0x9 SSTORE PUSH2 0x3E8 PUSH1 0xA SSTORE PUSH2 0x1F4 PUSH1 0xB SSTORE PUSH2 0x1F4 PUSH1 0xC SSTORE PUSH10 0xA968163F0A57B400000 PUSH1 0x10 SSTORE CALLVALUE DUP1 ISZERO PUSH3 0x36 JUMPI PUSH0 DUP1 REVERT JUMPDEST POP CALLER PUSH1 0x40 MLOAD DUP1 PUSH1 0x40 ADD PUSH1 0x40 MSTORE DUP1 PUSH1 0xE DUP2 MSTORE PUSH1 0x20 ADD PUSH32 0x4175746F6D61746F7220436F696E000000000000000000000000000000000000 DUP2 MSTORE POP PUSH1 0x40 MLOAD DUP1 PUSH1 0x40 ADD PUSH1 0x40 MSTORE DUP1 PUSH1 0x3 DUP2 MSTORE PUSH1 0x20 ADD PUSH32 0x4154430000000000000000000000000000000000000000000000000000000000 DUP2 MSTORE POP DUP2 PUSH1 0x3 SWAP1 DUP2 PUSH3 0xB5 SWAP2 SWAP1 PUSH3 0xC8B JUMP JUMPDEST POP DUP1 PUSH1 0x4 SWAP1 DUP2 PUSH3 0xC7 SWAP2 SWAP1 PUSH3 0xC8B JUMP JUMPDEST POP POP POP PUSH0 PUSH20 0xFFFFFFFFFFFFFFFFFFFFFFFFFFFFFFFFFFFFFFFF AND DUP2 PUSH20 0xFFFFFFFFFFFFFFFFFFFFFFFFFFFFFFFFFFFFFFFF AND SUB PUSH3 0x13D JUMPI PUSH0 PUSH1 0x40 MLOAD PUSH32 0x1E4FBDF700000000000000000000000000000000000000000000000000000000 DUP2 MSTORE PUSH1 0x4 ADD PUSH3 0x134 SWAP2 SWAP1 PUSH3 0xDB2 JUMP JUMPDEST PUSH1 0x40 MLOAD DUP1 SWAP2 SUB SWAP1 REVERT JUMPDEST PUSH3 0x14E DUP2 PUSH3 0x6B6 PUSH1 0x20 SHL PUSH1 0x20 SHR JUMP JUMPDEST POP PUSH1 0x1 PUSH1 0x6 DUP2 SWAP1 SSTORE POP PUSH3 0x175 CALLER PUSH12 0x33B2E3C9FD0803CE8000000 PUSH3 0x779 PUSH1 0x20 SHL PUSH1 0x20 SHR JUMP JUMPDEST PUSH20 0x10ED43C718714EB63D5AA57B78B54704E256024E PUSH1 0x7 PUSH0 PUSH2 0x100 EXP DUP2 SLOAD DUP2 PUSH20 0xFFFFFFFFFFFFFFFFFFFFFFFFFFFFFFFFFFFFFFFF MUL NOT AND SWAP1 DUP4 PUSH20 0xFFFFFFFFFFFFFFFFFFFFFFFFFFFFFFFFFFFFFFFF AND MUL OR SWAP1 SSTORE POP PUSH1 0x7 PUSH0 SWAP1 SLOAD SWAP1 PUSH2 0x100 EXP SWAP1 DIV PUSH20 0xFFFFFFFFFFFFFFFFFFFFFFFFFFFFFFFFFFFFFFFF AND PUSH20 0xFFFFFFFFFFFFFFFFFFFFFFFFFFFFFFFFFFFFFFFF AND PUSH4 0xC45A0155 PUSH1 0x40 MLOAD DUP2 PUSH4 0xFFFFFFFF AND PUSH1 0xE0 SHL DUP2 MSTORE PUSH1 0x4 ADD PUSH1 0x20 PUSH1 0x40 MLOAD DUP1 DUP4 SUB DUP2 DUP7 GAS STATICCALL ISZERO DUP1 ISZERO PUSH3 0x234 JUMPI RETURNDATASIZE PUSH0 DUP1 RETURNDATACOPY RETURNDATASIZE PUSH0 REVERT JUMPDEST POP POP POP POP PUSH1 0x40 MLOAD RETURNDATASIZE PUSH1 0x1F NOT PUSH1 0x1F DUP3 ADD AND DUP3 ADD DUP1 PUSH1 0x40 MSTORE POP DUP2 ADD SWAP1 PUSH3 0x25A SWAP2 SWAP1 PUSH3 0xE00 JUMP JUMPDEST PUSH20 0xFFFFFFFFFFFFFFFFFFFFFFFFFFFFFFFFFFFFFFFF AND PUSH4 0xC9C65396 ADDRESS PUSH1 0x7 PUSH0 SWAP1 SLOAD SWAP1 PUSH2 0x100 EXP SWAP1 DIV PUSH20 0xFFFFFFFFFFFFFFFFFFFFFFFFFFFFFFFFFFFFFFFF AND PUSH20 0xFFFFFFFFFFFFFFFFFFFFFFFFFFFFFFFFFFFFFFFF AND PUSH4 0xAD5C4648 PUSH1 0x40 MLOAD DUP2 PUSH4 0xFFFFFFFF AND PUSH1 0xE0 SHL DUP2 MSTORE PUSH1 0x4 ADD PUSH1 0x20 PUSH1 0x40 MLOAD DUP1 DUP4 SUB DUP2 DUP7 GAS STATICCALL ISZERO DUP1 ISZERO PUSH3 0x2E1 JUMPI RETURNDATASIZE PUSH0 DUP1 RETURNDATACOPY RETURNDATASIZE PUSH0 REVERT JUMPDEST POP POP POP POP PUSH1 0x40 MLOAD RETURNDATASIZE PUSH1 0x1F NOT PUSH1 0x1F DUP3 ADD AND DUP3 ADD DUP1 PUSH1 0x40 MSTORE POP DUP2 ADD SWAP1 PUSH3 0x307 SWAP2 SWAP1 PUSH3 0xE00 JUMP JUMPDEST PUSH1 0x40 MLOAD DUP4 PUSH4 0xFFFFFFFF AND PUSH1 0xE0 SHL DUP2 MSTORE PUSH1 0x4 ADD PUSH3 0x326 SWAP3 SWAP2 SWAP1 PUSH3 0xE30 JUMP JUMPDEST PUSH1 0x20 PUSH1 0x40 MLOAD DUP1 DUP4 SUB DUP2 PUSH0 DUP8 GAS CALL ISZERO DUP1 ISZERO PUSH3 0x343 JUMPI RETURNDATASIZE PUSH0 DUP1 RETURNDATACOPY RETURNDATASIZE PUSH0 REVERT JUMPDEST POP POP POP POP PUSH1 0x40 MLOAD RETURNDATASIZE PUSH1 0x1F NOT PUSH1 0x1F DUP3 ADD AND DUP3 ADD DUP1 PUSH1 0x40 MSTORE POP DUP2 ADD SWAP1 PUSH3 0x369 SWAP2 SWAP1 PUSH3 0xE00 JUMP JUMPDEST PUSH1 0x8 PUSH0 PUSH2 0x100 EXP DUP2 SLOAD DUP2 PUSH20 0xFFFFFFFFFFFFFFFFFFFFFFFFFFFFFFFFFFFFFFFF MUL NOT AND SWAP1 DUP4 PUSH20 0xFFFFFFFFFFFFFFFFFFFFFFFFFFFFFFFFFFFFFFFF AND MUL OR SWAP1 SSTORE POP PUSH20 0x73ADD9B0FAE851F9F203BA5346D240C32D5AF259 PUSH1 0xD PUSH0 PUSH2 0x100 EXP DUP2 SLOAD DUP2 PUSH20 0xFFFFFFFFFFFFFFFFFFFFFFFFFFFFFFFFFFFFFFFF MUL NOT AND SWAP1 DUP4 PUSH20 0xFFFFFFFFFFFFFFFFFFFFFFFFFFFFFFFFFFFFFFFF AND MUL OR SWAP1 SSTORE POP PUSH20 0xFBD336B10D3AA003BB0491277BD1B100A7600B7A PUSH1 0xE PUSH0 PUSH2 0x100 EXP DUP2 SLOAD DUP2 PUSH20 0xFFFFFFFFFFFFFFFFFFFFFFFFFFFFFFFFFFFFFFFF MUL NOT AND SWAP1 DUP4 PUSH20 0xFFFFFFFFFFFFFFFFFFFFFFFFFFFFFFFFFFFFFFFF AND MUL OR SWAP1 SSTORE POP PUSH20 0xC5E979514EBE80172EDBA7C7CFE38B599E4E4823 PUSH1 0xF PUSH0 PUSH2 0x100 EXP DUP2 SLOAD DUP2 PUSH20 0xFFFFFFFFFFFFFFFFFFFFFFFFFFFFFFFFFFFFFFFF MUL NOT AND SWAP1 DUP4 PUSH20 0xFFFFFFFFFFFFFFFFFFFFFFFFFFFFFFFFFFFFFFFF AND MUL OR SWAP1 SSTORE POP PUSH1 0x1 PUSH1 0x12 PUSH0 CALLER PUSH20 0xFFFFFFFFFFFFFFFFFFFFFFFFFFFFFFFFFFFFFFFF AND PUSH20 0xFFFFFFFFFFFFFFFFFFFFFFFFFFFFFFFFFFFFFFFF AND DUP2 MSTORE PUSH1 0x20 ADD SWAP1 DUP2 MSTORE PUSH1 0x20 ADD PUSH0 KECCAK256 PUSH0 PUSH2 0x100 EXP DUP2 SLOAD DUP2 PUSH1 0xFF MUL NOT AND SWAP1 DUP4 ISZERO ISZERO MUL OR SWAP1 SSTORE POP PUSH1 0x1 PUSH1 0x12 PUSH0 ADDRESS PUSH20 0xFFFFFFFFFFFFFFFFFFFFFFFFFFFFFFFFFFFFFFFF AND PUSH20 0xFFFFFFFFFFFFFFFFFFFFFFFFFFFFFFFFFFFFFFFF AND DUP2 MSTORE PUSH1 0x20 ADD SWAP1 DUP2 MSTORE PUSH1 0x20 ADD PUSH0 KECCAK256 PUSH0 PUSH2 0x100 EXP DUP2 SLOAD DUP2 PUSH1 0xFF MUL NOT AND SWAP1 DUP4 ISZERO ISZERO MUL OR SWAP1 SSTORE POP PUSH1 0x1 PUSH1 0x12 PUSH0 PUSH1 0xD PUSH0 SWAP1 SLOAD SWAP1 PUSH2 0x100 EXP SWAP1 DIV PUSH20 0xFFFFFFFFFFFFFFFFFFFFFFFFFFFFFFFFFFFFFFFF AND PUSH20 0xFFFFFFFFFFFFFFFFFFFFFFFFFFFFFFFFFFFFFFFF AND PUSH20 0xFFFFFFFFFFFFFFFFFFFFFFFFFFFFFFFFFFFFFFFF AND DUP2 MSTORE PUSH1 0x20 ADD SWAP1 DUP2 MSTORE PUSH1 0x20 ADD PUSH0 KECCAK256 PUSH0 PUSH2 0x100 EXP DUP2 SLOAD DUP2 PUSH1 0xFF MUL NOT AND SWAP1 DUP4 ISZERO ISZERO MUL OR SWAP1 SSTORE POP PUSH1 0x1 PUSH1 0x12 PUSH0 PUSH1 0xE PUSH0 SWAP1 SLOAD SWAP1 PUSH2 0x100 EXP SWAP1 DIV PUSH20 0xFFFFFFFFFFFFFFFFFFFFFFFFFFFFFFFFFFFFFFFF AND PUSH20 0xFFFFFFFFFFFFFFFFFFFFFFFFFFFFFFFFFFFFFFFF AND PUSH20 0xFFFFFFFFFFFFFFFFFFFFFFFFFFFFFFFFFFFFFFFF AND DUP2 MSTORE PUSH1 0x20 ADD SWAP1 DUP2 MSTORE PUSH1 0x20 ADD PUSH0 KECCAK256 PUSH0 PUSH2 0x100 EXP DUP2 SLOAD DUP2 PUSH1 0xFF MUL NOT AND SWAP1 DUP4 ISZERO ISZERO MUL OR SWAP1 SSTORE POP PUSH1 0x1 PUSH1 0x12 PUSH0 PUSH1 0xF PUSH0 SWAP1 SLOAD SWAP1 PUSH2 0x100 EXP SWAP1 DIV PUSH20 0xFFFFFFFFFFFFFFFFFFFFFFFFFFFFFFFFFFFFFFFF AND PUSH20 0xFFFFFFFFFFFFFFFFFFFFFFFFFFFFFFFFFFFFFFFF AND PUSH20 0xFFFFFFFFFFFFFFFFFFFFFFFFFFFFFFFFFFFFFFFF AND DUP2 MSTORE PUSH1 0x20 ADD SWAP1 DUP2 MSTORE PUSH1 0x20 ADD PUSH0 KECCAK256 PUSH0 PUSH2 0x100 EXP DUP2 SLOAD DUP2 PUSH1 0xFF MUL NOT AND SWAP1 DUP4 ISZERO ISZERO MUL OR SWAP1 SSTORE POP PUSH3 0xF29 JUMP JUMPDEST PUSH0 PUSH1 0x5 PUSH0 SWAP1 SLOAD SWAP1 PUSH2 0x100 EXP SWAP1 DIV PUSH20 0xFFFFFFFFFFFFFFFFFFFFFFFFFFFFFFFFFFFFFFFF AND SWAP1 POP DUP2 PUSH1 0x5 PUSH0 PUSH2 0x100 EXP DUP2 SLOAD DUP2 PUSH20 0xFFFFFFFFFFFFFFFFFFFFFFFFFFFFFFFFFFFFFFFF MUL NOT AND SWAP1 DUP4 PUSH20 0xFFFFFFFFFFFFFFFFFFFFFFFFFFFFFFFFFFFFFFFF AND MUL OR SWAP1 SSTORE POP DUP2 PUSH20 0xFFFFFFFFFFFFFFFFFFFFFFFFFFFFFFFFFFFFFFFF AND DUP2 PUSH20 0xFFFFFFFFFFFFFFFFFFFFFFFFFFFFFFFFFFFFFFFF AND PUSH32 0x8BE0079C531659141344CD1FD0A4F28419497F9722A3DAAFE3B4186F6B6457E0 PUSH1 0x40 MLOAD PUSH1 0x40 MLOAD DUP1 SWAP2 SUB SWAP1 LOG3 POP POP JUMP JUMPDEST PUSH0 PUSH20 0xFFFFFFFFFFFFFFFFFFFFFFFFFFFFFFFFFFFFFFFF AND DUP3 PUSH20 0xFFFFFFFFFFFFFFFFFFFFFFFFFFFFFFFFFFFFFFFF AND SUB PUSH3 0x7EC JUMPI PUSH0 PUSH1 0x40 MLOAD PUSH32 0xEC442F0500000000000000000000000000000000000000000000000000000000 DUP2 MSTORE PUSH1 0x4 ADD PUSH3 0x7E3 SWAP2 SWAP1 PUSH3 0xDB2 JUMP JUMPDEST PUSH1 0x40 MLOAD DUP1 SWAP2 SUB SWAP1 REVERT JUMPDEST PUSH3 0x7FF PUSH0 DUP4 DUP4 PUSH3 0x803 PUSH1 0x20 SHL PUSH1 0x20 SHR JUMP JUMPDEST POP POP JUMP JUMPDEST PUSH0 PUSH20 0xFFFFFFFFFFFFFFFFFFFFFFFFFFFFFFFFFFFFFFFF AND DUP4 PUSH20 0xFFFFFFFFFFFFFFFFFFFFFFFFFFFFFFFFFFFFFFFF AND SUB PUSH3 0x857 JUMPI DUP1 PUSH1 0x2 PUSH0 DUP3 DUP3 SLOAD PUSH3 0x84A SWAP2 SWAP1 PUSH3 0xE88 JUMP JUMPDEST SWAP3 POP POP DUP2 SWAP1 SSTORE POP PUSH3 0x928 JUMP JUMPDEST PUSH0 DUP1 PUSH0 DUP6 PUSH20 0xFFFFFFFFFFFFFFFFFFFFFFFFFFFFFFFFFFFFFFFF AND PUSH20 0xFFFFFFFFFFFFFFFFFFFFFFFFFFFFFFFFFFFFFFFF AND DUP2 MSTORE PUSH1 0x20 ADD SWAP1 DUP2 MSTORE PUSH1 0x20 ADD PUSH0 KECCAK256 SLOAD SWAP1 POP DUP2 DUP2 LT ISZERO PUSH3 0x8E3 JUMPI DUP4 DUP2 DUP4 PUSH1 0x40 MLOAD PUSH32 0xE450D38C00000000000000000000000000000000000000000000000000000000 DUP2 MSTORE PUSH1 0x4 ADD PUSH3 0x8DA SWAP4 SWAP3 SWAP2 SWAP1 PUSH3 0xED3 JUMP JUMPDEST PUSH1 0x40 MLOAD DUP1 SWAP2 SUB SWAP1 REVERT JUMPDEST DUP2 DUP2 SUB PUSH0 DUP1 DUP7 PUSH20 0xFFFFFFFFFFFFFFFFFFFFFFFFFFFFFFFFFFFFFFFF AND PUSH20 0xFFFFFFFFFFFFFFFFFFFFFFFFFFFFFFFFFFFFFFFF AND DUP2 MSTORE PUSH1 0x20 ADD SWAP1 DUP2 MSTORE PUSH1 0x20 ADD PUSH0 KECCAK256 DUP2 SWAP1 SSTORE POP POP JUMPDEST PUSH0 PUSH20 0xFFFFFFFFFFFFFFFFFFFFFFFFFFFFFFFFFFFFFFFF AND DUP3 PUSH20 0xFFFFFFFFFFFFFFFFFFFFFFFFFFFFFFFFFFFFFFFF AND SUB PUSH3 0x971 JUMPI DUP1 PUSH1 0x2 PUSH0 DUP3 DUP3 SLOAD SUB SWAP3 POP POP DUP2 SWAP1 SSTORE POP PUSH3 0x9BB JUMP JUMPDEST DUP1 PUSH0 DUP1 DUP5 PUSH20 0xFFFFFFFFFFFFFFFFFFFFFFFFFFFFFFFFFFFFFFFF AND PUSH20 0xFFFFFFFFFFFFFFFFFFFFFFFFFFFFFFFFFFFFFFFF AND DUP2 MSTORE PUSH1 0x20 ADD SWAP1 DUP2 MSTORE PUSH1 0x20 ADD PUSH0 KECCAK256 PUSH0 DUP3 DUP3 SLOAD ADD SWAP3 POP POP DUP2 SWAP1 SSTORE POP JUMPDEST DUP2 PUSH20 0xFFFFFFFFFFFFFFFFFFFFFFFFFFFFFFFFFFFFFFFF AND DUP4 PUSH20 0xFFFFFFFFFFFFFFFFFFFFFFFFFFFFFFFFFFFFFFFF AND PUSH32 0xDDF252AD1BE2C89B69C2B068FC378DAA952BA7F163C4A11628F55A4DF523B3EF DUP4 PUSH1 0x40 MLOAD PUSH3 0xA1A SWAP2 SWAP1 PUSH3 0xF0E JUMP JUMPDEST PUSH1 0x40 MLOAD DUP1 SWAP2 SUB SWAP1 LOG3 POP POP POP JUMP JUMPDEST PUSH0 DUP2 MLOAD SWAP1 POP SWAP2 SWAP1 POP JUMP JUMPDEST PUSH32 0x4E487B7100000000000000000000000000000000000000000000000000000000 PUSH0 MSTORE PUSH1 0x41 PUSH1 0x4 MSTORE PUSH1 0x24 PUSH0 REVERT JUMPDEST PUSH32 0x4E487B7100000000000000000000000000000000000000000000000000000000 PUSH0 MSTORE PUSH1 0x22 PUSH1 0x4 MSTORE PUSH1 0x24 PUSH0 REVERT JUMPDEST PUSH0 PUSH1 0x2 DUP3 DIV SWAP1 POP PUSH1 0x1 DUP3 AND DUP1 PUSH3 0xAA3 JUMPI PUSH1 0x7F DUP3 AND SWAP2 POP JUMPDEST PUSH1 0x20 DUP3 LT DUP2 SUB PUSH3 0xAB9 JUMPI PUSH3 0xAB8 PUSH3 0xA5E JUMP JUMPDEST JUMPDEST POP SWAP2 SWAP1 POP JUMP JUMPDEST PUSH0 DUP2 SWAP1 POP DUP2 PUSH0 MSTORE PUSH1 0x20 PUSH0 KECCAK256 SWAP1 POP SWAP2 SWAP1 POP JUMP JUMPDEST PUSH0 PUSH1 0x20 PUSH1 0x1F DUP4 ADD DIV SWAP1 POP SWAP2 SWAP1 POP JUMP JUMPDEST PUSH0 DUP3 DUP3 SHL SWAP1 POP SWAP3 SWAP2 POP POP JUMP JUMPDEST PUSH0 PUSH1 0x8 DUP4 MUL PUSH3 0xB1D PUSH32 0xFFFFFFFFFFFFFFFFFFFFFFFFFFFFFFFFFFFFFFFFFFFFFFFFFFFFFFFFFFFFFFFF DUP3 PUSH3 0xAE0 JUMP JUMPDEST PUSH3 0xB29 DUP7 DUP4 PUSH3 0xAE0 JUMP JUMPDEST SWAP6 POP DUP1 NOT DUP5 AND SWAP4 POP DUP1 DUP7 AND DUP5 OR SWAP3 POP POP POP SWAP4 SWAP3 POP POP POP JUMP JUMPDEST PUSH0 DUP2 SWAP1 POP SWAP2 SWAP1 POP JUMP JUMPDEST PUSH0 DUP2 SWAP1 POP SWAP2 SWAP1 POP JUMP JUMPDEST PUSH0 PUSH3 0xB73 PUSH3 0xB6D PUSH3 0xB67 DUP5 PUSH3 0xB41 JUMP JUMPDEST PUSH3 0xB4A JUMP JUMPDEST PUSH3 0xB41 JUMP JUMPDEST SWAP1 POP SWAP2 SWAP1 POP JUMP JUMPDEST PUSH0 DUP2 SWAP1 POP SWAP2 SWAP1 POP JUMP JUMPDEST PUSH3 0xB8E DUP4 PUSH3 0xB53 JUMP JUMPDEST PUSH3 0xBA6 PUSH3 0xB9D DUP3 PUSH3 0xB7A JUMP JUMPDEST DUP5 DUP5 SLOAD PUSH3 0xAEC JUMP JUMPDEST DUP3 SSTORE POP POP POP POP JUMP JUMPDEST PUSH0 SWAP1 JUMP JUMPDEST PUSH3 0xBBC PUSH3 0xBAE JUMP JUMPDEST PUSH3 0xBC9 DUP2 DUP5 DUP5 PUSH3 0xB83 JUMP JUMPDEST POP POP POP JUMP JUMPDEST JUMPDEST DUP2 DUP2 LT ISZERO PUSH3 0xBF0 JUMPI PUSH3 0xBE4 PUSH0 DUP3 PUSH3 0xBB2 JUMP JUMPDEST PUSH1 0x1 DUP2 ADD SWAP1 POP PUSH3 0xBCF JUMP JUMPDEST POP POP JUMP JUMPDEST PUSH1 0x1F DUP3 GT ISZERO PUSH3 0xC3F JUMPI PUSH3 0xC09 DUP2 PUSH3 0xABF JUMP JUMPDEST PUSH3 0xC14 DUP5 PUSH3 0xAD1 JUMP JUMPDEST DUP2 ADD PUSH1 0x20 DUP6 LT ISZERO PUSH3 0xC24 JUMPI DUP2 SWAP1 POP JUMPDEST PUSH3 0xC3C PUSH3 0xC33 DUP6 PUSH3 0xAD1 JUMP JUMPDEST DUP4 ADD DUP3 PUSH3 0xBCE JUMP JUMPDEST POP POP JUMPDEST POP POP POP JUMP JUMPDEST PUSH0 DUP3 DUP3 SHR SWAP1 POP SWAP3 SWAP2 POP POP JUMP JUMPDEST PUSH0 PUSH3 0xC61 PUSH0 NOT DUP5 PUSH1 0x8 MUL PUSH3 0xC44 JUMP JUMPDEST NOT DUP1 DUP4 AND SWAP2 POP POP SWAP3 SWAP2 POP POP JUMP JUMPDEST PUSH0 PUSH3 0xC7B DUP4 DUP4 PUSH3 0xC50 JUMP JUMPDEST SWAP2 POP DUP3 PUSH1 0x2 MUL DUP3 OR SWAP1 POP SWAP3 SWAP2 POP POP JUMP JUMPDEST PUSH3 0xC96 DUP3 PUSH3 0xA27 JUMP JUMPDEST PUSH8 0xFFFFFFFFFFFFFFFF DUP2 GT ISZERO PUSH3 0xCB2 JUMPI PUSH3 0xCB1 PUSH3 0xA31 JUMP JUMPDEST JUMPDEST PUSH3 0xCBE DUP3 SLOAD PUSH3 0xA8B JUMP JUMPDEST PUSH3 0xCCB DUP3 DUP3 DUP6 PUSH3 0xBF4 JUMP JUMPDEST PUSH0 PUSH1 0x20 SWAP1 POP PUSH1 0x1F DUP4 GT PUSH1 0x1 DUP2 EQ PUSH3 0xD01 JUMPI PUSH0 DUP5 ISZERO PUSH3 0xCEC JUMPI DUP3 DUP8 ADD MLOAD SWAP1 POP JUMPDEST PUSH3 0xCF8 DUP6 DUP3 PUSH3 0xC6E JUMP JUMPDEST DUP7 SSTORE POP PUSH3 0xD67 JUMP JUMPDEST PUSH1 0x1F NOT DUP5 AND PUSH3 0xD11 DUP7 PUSH3 0xABF JUMP JUMPDEST PUSH0 JUMPDEST DUP3 DUP2 LT ISZERO PUSH3 0xD3A JUMPI DUP5 DUP10 ADD MLOAD DUP3 SSTORE PUSH1 0x1 DUP3 ADD SWAP2 POP PUSH1 0x20 DUP6 ADD SWAP5 POP PUSH1 0x20 DUP2 ADD SWAP1 POP PUSH3 0xD13 JUMP JUMPDEST DUP7 DUP4 LT ISZERO PUSH3 0xD5A JUMPI DUP5 DUP10 ADD MLOAD PUSH3 0xD56 PUSH1 0x1F DUP10 AND DUP3 PUSH3 0xC50 JUMP JUMPDEST DUP4 SSTORE POP JUMPDEST PUSH1 0x1 PUSH1 0x2 DUP9 MUL ADD DUP9 SSTORE POP POP POP JUMPDEST POP POP POP POP POP POP JUMP JUMPDEST PUSH0 PUSH20 0xFFFFFFFFFFFFFFFFFFFFFFFFFFFFFFFFFFFFFFFF DUP3 AND SWAP1 POP SWAP2 SWAP1 POP JUMP JUMPDEST PUSH0 PUSH3 0xD9A DUP3 PUSH3 0xD6F JUMP JUMPDEST SWAP1 POP SWAP2 SWAP1 POP JUMP JUMPDEST PUSH3 0xDAC DUP2 PUSH3 0xD8E JUMP JUMPDEST DUP3 MSTORE POP POP JUMP JUMPDEST PUSH0 PUSH1 0x20 DUP3 ADD SWAP1 POP PUSH3 0xDC7 PUSH0 DUP4 ADD DUP5 PUSH3 0xDA1 JUMP JUMPDEST SWAP3 SWAP2 POP POP JUMP JUMPDEST PUSH0 DUP1 REVERT JUMPDEST PUSH3 0xDDC DUP2 PUSH3 0xD8E JUMP JUMPDEST DUP2 EQ PUSH3 0xDE7 JUMPI PUSH0 DUP1 REVERT JUMPDEST POP JUMP JUMPDEST PUSH0 DUP2 MLOAD SWAP1 POP PUSH3 0xDFA DUP2 PUSH3 0xDD1 JUMP JUMPDEST SWAP3 SWAP2 POP POP JUMP JUMPDEST PUSH0 PUSH1 0x20 DUP3 DUP5 SUB SLT ISZERO PUSH3 0xE18 JUMPI PUSH3 0xE17 PUSH3 0xDCD JUMP JUMPDEST JUMPDEST PUSH0 PUSH3 0xE27 DUP5 DUP3 DUP6 ADD PUSH3 0xDEA JUMP JUMPDEST SWAP2 POP POP SWAP3 SWAP2 POP POP JUMP JUMPDEST PUSH0 PUSH1 0x40 DUP3 ADD SWAP1 POP PUSH3 0xE45 PUSH0 DUP4 ADD DUP6 PUSH3 0xDA1 JUMP JUMPDEST PUSH3 0xE54 PUSH1 0x20 DUP4 ADD DUP5 PUSH3 0xDA1 JUMP JUMPDEST SWAP4 SWAP3 POP POP POP JUMP JUMPDEST PUSH32 0x4E487B7100000000000000000000000000000000000000000000000000000000 PUSH0 MSTORE PUSH1 0x11 PUSH1 0x4 MSTORE PUSH1 0x24 PUSH0 REVERT JUMPDEST PUSH0 PUSH3 0xE94 DUP3 PUSH3 0xB41 JUMP JUMPDEST SWAP2 POP PUSH3 0xEA1 DUP4 PUSH3 0xB41 JUMP JUMPDEST SWAP3 POP DUP3 DUP3 ADD SWAP1 POP DUP1 DUP3 GT ISZERO PUSH3 0xEBC JUMPI PUSH3 0xEBB PUSH3 0xE5B JUMP JUMPDEST JUMPDEST SWAP3 SWAP2 POP POP JUMP JUMPDEST PUSH3 0xECD DUP2 PUSH3 0xB41 JUMP JUMPDEST DUP3 MSTORE POP POP JUMP JUMPDEST PUSH0 PUSH1 0x60 DUP3 ADD SWAP1 POP PUSH3 0xEE8 PUSH0 DUP4 ADD DUP7 PUSH3 0xDA1 JUMP JUMPDEST PUSH3 0xEF7 PUSH1 0x20 DUP4 ADD DUP6 PUSH3 0xEC2 JUMP JUMPDEST PUSH3 0xF06 PUSH1 0x40 DUP4 ADD DUP5 PUSH3 0xEC2 JUMP JUMPDEST SWAP5 SWAP4 POP POP POP POP JUMP JUMPDEST PUSH0 PUSH1 0x20 DUP3 ADD SWAP1 POP PUSH3 0xF23 PUSH0 DUP4 ADD DUP5 PUSH3 0xEC2 JUMP JUMPDEST SWAP3 SWAP2 POP POP JUMP JUMPDEST PUSH2 0x2A83 DUP1 PUSH3 0xF37 PUSH0 CODECOPY PUSH0 RETURN INVALID PUSH1 0x80 PUSH1 0x40 MSTORE PUSH1 0x4 CALLDATASIZE LT PUSH2 0x1DB JUMPI PUSH0 CALLDATALOAD PUSH1 0xE0 SHR DUP1 PUSH4 0x70A08231 GT PUSH2 0x101 JUMPI DUP1 PUSH4 0xA3342FBA GT PUSH2 0x94 JUMPI DUP1 PUSH4 0xD862686B GT PUSH2 0x63 JUMPI DUP1 PUSH4 0xD862686B EQ PUSH2 0x67E JUMPI DUP1 PUSH4 0xDD62ED3E EQ PUSH2 0x6A8 JUMPI DUP1 PUSH4 0xF2FDE38B EQ PUSH2 0x6E4 JUMPI DUP1 PUSH4 0xF887EA40 EQ PUSH2 0x70C JUMPI PUSH2 0x1E2 JUMP JUMPDEST DUP1 PUSH4 0xA3342FBA EQ PUSH2 0x5C6 JUMPI DUP1 PUSH4 0xA8AA1B31 EQ PUSH2 0x5F0 JUMPI DUP1 PUSH4 0xA9059CBB EQ PUSH2 0x61A JUMPI DUP1 PUSH4 0xCB963728 EQ PUSH2 0x656 JUMPI PUSH2 0x1E2 JUMP JUMPDEST DUP1 PUSH4 0x8DA5CB5B GT PUSH2 0xD0 JUMPI DUP1 PUSH4 0x8DA5CB5B EQ PUSH2 0x520 JUMPI DUP1 PUSH4 0x8EA5220F EQ PUSH2 0x54A JUMPI DUP1 PUSH4 0x95D89B41 EQ PUSH2 0x574 JUMPI DUP1 PUSH4 0x9D0014B1 EQ PUSH2 0x59E JUMPI PUSH2 0x1E2 JUMP JUMPDEST DUP1 PUSH4 0x70A08231 EQ PUSH2 0x48E JUMPI DUP1 PUSH4 0x715018A6 EQ PUSH2 0x4CA JUMPI DUP1 PUSH4 0x75F0A874 EQ PUSH2 0x4E0 JUMPI DUP1 PUSH4 0x8A8C523C EQ PUSH2 0x50A JUMPI PUSH2 0x1E2 JUMP JUMPDEST DUP1 PUSH4 0x1DE3B450 GT PUSH2 0x179 JUMPI DUP1 PUSH4 0x5342ACB4 GT PUSH2 0x148 JUMPI DUP1 PUSH4 0x5342ACB4 EQ PUSH2 0x3D6 JUMPI DUP1 PUSH4 0x54AD8AEE EQ PUSH2 0x412 JUMPI DUP1 PUSH4 0x6612E66F EQ PUSH2 0x43C JUMPI DUP1 PUSH4 0x665C6DE9 EQ PUSH2 0x464 JUMPI PUSH2 0x1E2 JUMP JUMPDEST DUP1 PUSH4 0x1DE3B450 EQ PUSH2 0x31C JUMPI DUP1 PUSH4 0x23B872DD EQ PUSH2 0x346 JUMPI DUP1 PUSH4 0x313CE567 EQ PUSH2 0x382 JUMPI DUP1 PUSH4 0x4ADA218B EQ PUSH2 0x3AC JUMPI PUSH2 0x1E2 JUMP JUMPDEST DUP1 PUSH4 0x95EA7B3 GT PUSH2 0x1B5 JUMPI DUP1 PUSH4 0x95EA7B3 EQ PUSH2 0x264 JUMPI DUP1 PUSH4 0x147C9F6D EQ PUSH2 0x2A0 JUMPI DUP1 PUSH4 0x18160DDD EQ PUSH2 0x2C8 JUMPI DUP1 PUSH4 0x1D2CB02D EQ PUSH2 0x2F2 JUMPI PUSH2 0x1E2 JUMP JUMPDEST DUP1 PUSH4 0x2AF37BB EQ PUSH2 0x1E6 JUMPI DUP1 PUSH4 0x445B667 EQ PUSH2 0x210 JUMPI DUP1 PUSH4 0x6FDDE03 EQ PUSH2 0x23A JUMPI PUSH2 0x1E2 JUMP JUMPDEST CALLDATASIZE PUSH2 0x1E2 JUMPI STOP JUMPDEST PUSH0 DUP1 REVERT JUMPDEST CALLVALUE DUP1 ISZERO PUSH2 0x1F1 JUMPI PUSH0 DUP1 REVERT JUMPDEST POP PUSH2 0x1FA PUSH2 0x736 JUMP JUMPDEST PUSH1 0x40 MLOAD PUSH2 0x207 SWAP2 SWAP1 PUSH2 0x1F32 JUMP JUMPDEST PUSH1 0x40 MLOAD DUP1 SWAP2 SUB SWAP1 RETURN JUMPDEST CALLVALUE DUP1 ISZERO PUSH2 0x21B JUMPI PUSH0 DUP1 REVERT JUMPDEST POP PUSH2 0x224 PUSH2 0x73C JUMP JUMPDEST PUSH1 0x40 MLOAD PUSH2 0x231 SWAP2 SWAP1 PUSH2 0x1F32 JUMP JUMPDEST PUSH1 0x40 MLOAD DUP1 SWAP2 SUB SWAP1 RETURN JUMPDEST CALLVALUE DUP1 ISZERO PUSH2 0x245 JUMPI PUSH0 DUP1 REVERT JUMPDEST POP PUSH2 0x24E PUSH2 0x742 JUMP JUMPDEST PUSH1 0x40 MLOAD PUSH2 0x25B SWAP2 SWAP1 PUSH2 0x1FD5 JUMP JUMPDEST PUSH1 0x40 MLOAD DUP1 SWAP2 SUB SWAP1 RETURN JUMPDEST CALLVALUE DUP1 ISZERO PUSH2 0x26F JUMPI PUSH0 DUP1 REVERT JUMPDEST POP PUSH2 0x28A PUSH1 0x4 DUP1 CALLDATASIZE SUB DUP2 ADD SWAP1 PUSH2 0x285 SWAP2 SWAP1 PUSH2 0x207D JUMP JUMPDEST PUSH2 0x7D2 JUMP JUMPDEST PUSH1 0x40 MLOAD PUSH2 0x297 SWAP2 SWAP1 PUSH2 0x20D5 JUMP JUMPDEST PUSH1 0x40 MLOAD DUP1 SWAP2 SUB SWAP1 RETURN JUMPDEST CALLVALUE DUP1 ISZERO PUSH2 0x2AB JUMPI PUSH0 DUP1 REVERT JUMPDEST POP PUSH2 0x2C6 PUSH1 0x4 DUP1 CALLDATASIZE SUB DUP2 ADD SWAP1 PUSH2 0x2C1 SWAP2 SWAP1 PUSH2 0x20EE JUMP JUMPDEST PUSH2 0x7F4 JUMP JUMPDEST STOP JUMPDEST CALLVALUE DUP1 ISZERO PUSH2 0x2D3 JUMPI PUSH0 DUP1 REVERT JUMPDEST POP PUSH2 0x2DC PUSH2 0xA23 JUMP JUMPDEST PUSH1 0x40 MLOAD PUSH2 0x2E9 SWAP2 SWAP1 PUSH2 0x1F32 JUMP JUMPDEST PUSH1 0x40 MLOAD DUP1 SWAP2 SUB SWAP1 RETURN JUMPDEST CALLVALUE DUP1 ISZERO PUSH2 0x2FD JUMPI PUSH0 DUP1 REVERT JUMPDEST POP PUSH2 0x306 PUSH2 0xA2C JUMP JUMPDEST PUSH1 0x40 MLOAD PUSH2 0x313 SWAP2 SWAP1 PUSH2 0x1F32 JUMP JUMPDEST PUSH1 0x40 MLOAD DUP1 SWAP2 SUB SWAP1 RETURN JUMPDEST CALLVALUE DUP1 ISZERO PUSH2 0x327 JUMPI PUSH0 DUP1 REVERT JUMPDEST POP PUSH2 0x330 PUSH2 0xA32 JUMP JUMPDEST PUSH1 0x40 MLOAD PUSH2 0x33D SWAP2 SWAP1 PUSH2 0x1F32 JUMP JUMPDEST PUSH1 0x40 MLOAD DUP1 SWAP2 SUB SWAP1 RETURN JUMPDEST CALLVALUE DUP1 ISZERO PUSH2 0x351 JUMPI PUSH0 DUP1 REVERT JUMPDEST POP PUSH2 0x36C PUSH1 0x4 DUP1 CALLDATASIZE SUB DUP2 ADD SWAP1 PUSH2 0x367 SWAP2 SWAP1 PUSH2 0x213E JUMP JUMPDEST PUSH2 0xA38 JUMP JUMPDEST PUSH1 0x40 MLOAD PUSH2 0x379 SWAP2 SWAP1 PUSH2 0x20D5 JUMP JUMPDEST PUSH1 0x40 MLOAD DUP1 SWAP2 SUB SWAP1 RETURN JUMPDEST CALLVALUE DUP1 ISZERO PUSH2 0x38D JUMPI PUSH0 DUP1 REVERT JUMPDEST POP PUSH2 0x396 PUSH2 0xA66 JUMP JUMPDEST PUSH1 0x40 MLOAD PUSH2 0x3A3 SWAP2 SWAP1 PUSH2 0x21A9 JUMP JUMPDEST PUSH1 0x40 MLOAD DUP1 SWAP2 SUB SWAP1 RETURN JUMPDEST CALLVALUE DUP1 ISZERO PUSH2 0x3B7 JUMPI PUSH0 DUP1 REVERT JUMPDEST POP PUSH2 0x3C0 PUSH2 0xA6E JUMP JUMPDEST PUSH1 0x40 MLOAD PUSH2 0x3CD SWAP2 SWAP1 PUSH2 0x20D5 JUMP JUMPDEST PUSH1 0x40 MLOAD DUP1 SWAP2 SUB SWAP1 RETURN JUMPDEST CALLVALUE DUP1 ISZERO PUSH2 0x3E1 JUMPI PUSH0 DUP1 REVERT JUMPDEST POP PUSH2 0x3FC PUSH1 0x4 DUP1 CALLDATASIZE SUB DUP2 ADD SWAP1 PUSH2 0x3F7 SWAP2 SWAP1 PUSH2 0x21C2 JUMP JUMPDEST PUSH2 0xA81 JUMP JUMPDEST PUSH1 0x40 MLOAD PUSH2 0x409 SWAP2 SWAP1 PUSH2 0x20D5 JUMP JUMPDEST PUSH1 0x40 MLOAD DUP1 SWAP2 SUB SWAP1 RETURN JUMPDEST CALLVALUE DUP1 ISZERO PUSH2 0x41D JUMPI PUSH0 DUP1 REVERT JUMPDEST POP PUSH2 0x426 PUSH2 0xA9E JUMP JUMPDEST PUSH1 0x40 MLOAD PUSH2 0x433 SWAP2 SWAP1 PUSH2 0x1F32 JUMP JUMPDEST PUSH1 0x40 MLOAD DUP1 SWAP2 SUB SWAP1 RETURN JUMPDEST CALLVALUE DUP1 ISZERO PUSH2 0x447 JUMPI PUSH0 DUP1 REVERT JUMPDEST POP PUSH2 0x462 PUSH1 0x4 DUP1 CALLDATASIZE SUB DUP2 ADD SWAP1 PUSH2 0x45D SWAP2 SWAP1 PUSH2 0x2217 JUMP JUMPDEST PUSH2 0xAA4 JUMP JUMPDEST STOP JUMPDEST CALLVALUE DUP1 ISZERO PUSH2 0x46F JUMPI PUSH0 DUP1 REVERT JUMPDEST POP PUSH2 0x478 PUSH2 0xB04 JUMP JUMPDEST PUSH1 0x40 MLOAD PUSH2 0x485 SWAP2 SWAP1 PUSH2 0x1F32 JUMP JUMPDEST PUSH1 0x40 MLOAD DUP1 SWAP2 SUB SWAP1 RETURN JUMPDEST CALLVALUE DUP1 ISZERO PUSH2 0x499 JUMPI PUSH0 DUP1 REVERT JUMPDEST POP PUSH2 0x4B4 PUSH1 0x4 DUP1 CALLDATASIZE SUB DUP2 ADD SWAP1 PUSH2 0x4AF SWAP2 SWAP1 PUSH2 0x21C2 JUMP JUMPDEST PUSH2 0xB0A JUMP JUMPDEST PUSH1 0x40 MLOAD PUSH2 0x4C1 SWAP2 SWAP1 PUSH2 0x1F32 JUMP JUMPDEST PUSH1 0x40 MLOAD DUP1 SWAP2 SUB SWAP1 RETURN JUMPDEST CALLVALUE DUP1 ISZERO PUSH2 0x4D5 JUMPI PUSH0 DUP1 REVERT JUMPDEST POP PUSH2 0x4DE PUSH2 0xB4F JUMP JUMPDEST STOP JUMPDEST CALLVALUE DUP1 ISZERO PUSH2 0x4EB JUMPI PUSH0 DUP1 REVERT JUMPDEST POP PUSH2 0x4F4 PUSH2 0xB62 JUMP JUMPDEST PUSH1 0x40 MLOAD PUSH2 0x501 SWAP2 SWAP1 PUSH2 0x2264 JUMP JUMPDEST PUSH1 0x40 MLOAD DUP1 SWAP2 SUB SWAP1 RETURN JUMPDEST CALLVALUE DUP1 ISZERO PUSH2 0x515 JUMPI PUSH0 DUP1 REVERT JUMPDEST POP PUSH2 0x51E PUSH2 0xB87 JUMP JUMPDEST STOP JUMPDEST CALLVALUE DUP1 ISZERO PUSH2 0x52B JUMPI PUSH0 DUP1 REVERT JUMPDEST POP PUSH2 0x534 PUSH2 0xBAC JUMP JUMPDEST PUSH1 0x40 MLOAD PUSH2 0x541 SWAP2 SWAP1 PUSH2 0x2264 JUMP JUMPDEST PUSH1 0x40 MLOAD DUP1 SWAP2 SUB SWAP1 RETURN JUMPDEST CALLVALUE DUP1 ISZERO PUSH2 0x555 JUMPI PUSH0 DUP1 REVERT JUMPDEST POP PUSH2 0x55E PUSH2 0xBD4 JUMP JUMPDEST PUSH1 0x40 MLOAD PUSH2 0x56B SWAP2 SWAP1 PUSH2 0x2264 JUMP JUMPDEST PUSH1 0x40 MLOAD DUP1 SWAP2 SUB SWAP1 RETURN JUMPDEST CALLVALUE DUP1 ISZERO PUSH2 0x57F JUMPI PUSH0 DUP1 REVERT JUMPDEST POP PUSH2 0x588 PUSH2 0xBF9 JUMP JUMPDEST PUSH1 0x40 MLOAD PUSH2 0x595 SWAP2 SWAP1 PUSH2 0x1FD5 JUMP JUMPDEST PUSH1 0x40 MLOAD DUP1 SWAP2 SUB SWAP1 RETURN JUMPDEST CALLVALUE DUP1 ISZERO PUSH2 0x5A9 JUMPI PUSH0 DUP1 REVERT JUMPDEST POP PUSH2 0x5C4 PUSH1 0x4 DUP1 CALLDATASIZE SUB DUP2 ADD SWAP1 PUSH2 0x5BF SWAP2 SWAP1 PUSH2 0x227D JUMP JUMPDEST PUSH2 0xC89 JUMP JUMPDEST STOP JUMPDEST CALLVALUE DUP1 ISZERO PUSH2 0x5D1 JUMPI PUSH0 DUP1 REVERT JUMPDEST POP PUSH2 0x5DA PUSH2 0xC9B JUMP JUMPDEST PUSH1 0x40 MLOAD PUSH2 0x5E7 SWAP2 SWAP1 PUSH2 0x2264 JUMP JUMPDEST PUSH1 0x40 MLOAD DUP1 SWAP2 SUB SWAP1 RETURN JUMPDEST CALLVALUE DUP1 ISZERO PUSH2 0x5FB JUMPI PUSH0 DUP1 REVERT JUMPDEST POP PUSH2 0x604 PUSH2 0xCC0 JUMP JUMPDEST PUSH1 0x40 MLOAD PUSH2 0x611 SWAP2 SWAP1 PUSH2 0x2264 JUMP JUMPDEST PUSH1 0x40 MLOAD DUP1 SWAP2 SUB SWAP1 RETURN JUMPDEST CALLVALUE DUP1 ISZERO PUSH2 0x625 JUMPI PUSH0 DUP1 REVERT JUMPDEST POP PUSH2 0x640 PUSH1 0x4 DUP1 CALLDATASIZE SUB DUP2 ADD SWAP1 PUSH2 0x63B SWAP2 SWAP1 PUSH2 0x207D JUMP JUMPDEST PUSH2 0xCE5 JUMP JUMPDEST PUSH1 0x40 MLOAD PUSH2 0x64D SWAP2 SWAP1 PUSH2 0x20D5 JUMP JUMPDEST PUSH1 0x40 MLOAD DUP1 SWAP2 SUB SWAP1 RETURN JUMPDEST CALLVALUE DUP1 ISZERO PUSH2 0x661 JUMPI PUSH0 DUP1 REVERT JUMPDEST POP PUSH2 0x67C PUSH1 0x4 DUP1 CALLDATASIZE SUB DUP2 ADD SWAP1 PUSH2 0x677 SWAP2 SWAP1 PUSH2 0x21C2 JUMP JUMPDEST PUSH2 0xD02 JUMP JUMPDEST STOP JUMPDEST CALLVALUE DUP1 ISZERO PUSH2 0x689 JUMPI PUSH0 DUP1 REVERT JUMPDEST POP PUSH2 0x692 PUSH2 0xE6E JUMP JUMPDEST PUSH1 0x40 MLOAD PUSH2 0x69F SWAP2 SWAP1 PUSH2 0x1F32 JUMP JUMPDEST PUSH1 0x40 MLOAD DUP1 SWAP2 SUB SWAP1 RETURN JUMPDEST CALLVALUE DUP1 ISZERO PUSH2 0x6B3 JUMPI PUSH0 DUP1 REVERT JUMPDEST POP PUSH2 0x6CE PUSH1 0x4 DUP1 CALLDATASIZE SUB DUP2 ADD SWAP1 PUSH2 0x6C9 SWAP2 SWAP1 PUSH2 0x22A8 JUMP JUMPDEST PUSH2 0xE74 JUMP JUMPDEST PUSH1 0x40 MLOAD PUSH2 0x6DB SWAP2 SWAP1 PUSH2 0x1F32 JUMP JUMPDEST PUSH1 0x40 MLOAD DUP1 SWAP2 SUB SWAP1 RETURN JUMPDEST CALLVALUE DUP1 ISZERO PUSH2 0x6EF JUMPI PUSH0 DUP1 REVERT JUMPDEST POP PUSH2 0x70A PUSH1 0x4 DUP1 CALLDATASIZE SUB DUP2 ADD SWAP1 PUSH2 0x705 SWAP2 SWAP1 PUSH2 0x21C2 JUMP JUMPDEST PUSH2 0xEF6 JUMP JUMPDEST STOP JUMPDEST CALLVALUE DUP1 ISZERO PUSH2 0x717 JUMPI PUSH0 DUP1 REVERT JUMPDEST POP PUSH2 0x720 PUSH2 0xF7A JUMP JUMPDEST PUSH1 0x40 MLOAD PUSH2 0x72D SWAP2 SWAP1 PUSH2 0x2341 JUMP JUMPDEST PUSH1 0x40 MLOAD DUP1 SWAP2 SUB SWAP1 RETURN JUMPDEST PUSH2 0x9C4 DUP2 JUMP JUMPDEST PUSH1 0x10 SLOAD DUP2 JUMP JUMPDEST PUSH1 0x60 PUSH1 0x3 DUP1 SLOAD PUSH2 0x751 SWAP1 PUSH2 0x2387 JUMP JUMPDEST DUP1 PUSH1 0x1F ADD PUSH1 0x20 DUP1 SWAP2 DIV MUL PUSH1 0x20 ADD PUSH1 0x40 MLOAD SWAP1 DUP2 ADD PUSH1 0x40 MSTORE DUP1 SWAP3 SWAP2 SWAP1 DUP2 DUP2 MSTORE PUSH1 0x20 ADD DUP3 DUP1 SLOAD PUSH2 0x77D SWAP1 PUSH2 0x2387 JUMP JUMPDEST DUP1 ISZERO PUSH2 0x7C8 JUMPI DUP1 PUSH1 0x1F LT PUSH2 0x79F JUMPI PUSH2 0x100 DUP1 DUP4 SLOAD DIV MUL DUP4 MSTORE SWAP2 PUSH1 0x20 ADD SWAP2 PUSH2 0x7C8 JUMP JUMPDEST DUP3 ADD SWAP2 SWAP1 PUSH0 MSTORE PUSH1 0x20 PUSH0 KECCAK256 SWAP1 JUMPDEST DUP2 SLOAD DUP2 MSTORE SWAP1 PUSH1 0x1 ADD SWAP1 PUSH1 0x20 ADD DUP1 DUP4 GT PUSH2 0x7AB JUMPI DUP3 SWAP1 SUB PUSH1 0x1F AND DUP3 ADD SWAP2 JUMPDEST POP POP POP POP POP SWAP1 POP SWAP1 JUMP JUMPDEST PUSH0 DUP1 PUSH2 0x7DC PUSH2 0xF9F JUMP JUMPDEST SWAP1 POP PUSH2 0x7E9 DUP2 DUP6 DUP6 PUSH2 0xFA6 JUMP JUMPDEST PUSH1 0x1 SWAP2 POP POP SWAP3 SWAP2 POP POP JUMP JUMPDEST PUSH2 0x7FC PUSH2 0xFB8 JUMP JUMPDEST DUP3 PUSH1 0xD PUSH0 PUSH2 0x100 EXP DUP2 SLOAD DUP2 PUSH20 0xFFFFFFFFFFFFFFFFFFFFFFFFFFFFFFFFFFFFFFFF MUL NOT AND SWAP1 DUP4 PUSH20 0xFFFFFFFFFFFFFFFFFFFFFFFFFFFFFFFFFFFFFFFF AND MUL OR SWAP1 SSTORE POP DUP2 PUSH1 0xE PUSH0 PUSH2 0x100 EXP DUP2 SLOAD DUP2 PUSH20 0xFFFFFFFFFFFFFFFFFFFFFFFFFFFFFFFFFFFFFFFF MUL NOT AND SWAP1 DUP4 PUSH20 0xFFFFFFFFFFFFFFFFFFFFFFFFFFFFFFFFFFFFFFFF AND MUL OR SWAP1 SSTORE POP DUP1 PUSH1 0xF PUSH0 PUSH2 0x100 EXP DUP2 SLOAD DUP2 PUSH20 0xFFFFFFFFFFFFFFFFFFFFFFFFFFFFFFFFFFFFFFFF MUL NOT AND SWAP1 DUP4 PUSH20 0xFFFFFFFFFFFFFFFFFFFFFFFFFFFFFFFFFFFFFFFF AND MUL OR SWAP1 SSTORE POP PUSH1 0x1 PUSH1 0x12 PUSH0 PUSH1 0xD PUSH0 SWAP1 SLOAD SWAP1 PUSH2 0x100 EXP SWAP1 DIV PUSH20 0xFFFFFFFFFFFFFFFFFFFFFFFFFFFFFFFFFFFFFFFF AND PUSH20 0xFFFFFFFFFFFFFFFFFFFFFFFFFFFFFFFFFFFFFFFF AND PUSH20 0xFFFFFFFFFFFFFFFFFFFFFFFFFFFFFFFFFFFFFFFF AND DUP2 MSTORE PUSH1 0x20 ADD SWAP1 DUP2 MSTORE PUSH1 0x20 ADD PUSH0 KECCAK256 PUSH0 PUSH2 0x100 EXP DUP2 SLOAD DUP2 PUSH1 0xFF MUL NOT AND SWAP1 DUP4 ISZERO ISZERO MUL OR SWAP1 SSTORE POP PUSH1 0x1 PUSH1 0x12 PUSH0 PUSH1 0xE PUSH0 SWAP1 SLOAD SWAP1 PUSH2 0x100 EXP SWAP1 DIV PUSH20 0xFFFFFFFFFFFFFFFFFFFFFFFFFFFFFFFFFFFFFFFF AND PUSH20 0xFFFFFFFFFFFFFFFFFFFFFFFFFFFFFFFFFFFFFFFF AND PUSH20 0xFFFFFFFFFFFFFFFFFFFFFFFFFFFFFFFFFFFFFFFF AND DUP2 MSTORE PUSH1 0x20 ADD SWAP1 DUP2 MSTORE PUSH1 0x20 ADD PUSH0 KECCAK256 PUSH0 PUSH2 0x100 EXP DUP2 SLOAD DUP2 PUSH1 0xFF MUL NOT AND SWAP1 DUP4 ISZERO ISZERO MUL OR SWAP1 SSTORE POP PUSH1 0x1 PUSH1 0x12 PUSH0 PUSH1 0xF PUSH0 SWAP1 SLOAD SWAP1 PUSH2 0x100 EXP SWAP1 DIV PUSH20 0xFFFFFFFFFFFFFFFFFFFFFFFFFFFFFFFFFFFFFFFF AND PUSH20 0xFFFFFFFFFFFFFFFFFFFFFFFFFFFFFFFFFFFFFFFF AND PUSH20 0xFFFFFFFFFFFFFFFFFFFFFFFFFFFFFFFFFFFFFFFF AND DUP2 MSTORE PUSH1 0x20 ADD SWAP1 DUP2 MSTORE PUSH1 0x20 ADD PUSH0 KECCAK256 PUSH0 PUSH2 0x100 EXP DUP2 SLOAD DUP2 PUSH1 0xFF MUL NOT AND SWAP1 DUP4 ISZERO ISZERO MUL OR SWAP1 SSTORE POP POP POP POP JUMP JUMPDEST PUSH0 PUSH1 0x2 SLOAD SWAP1 POP SWAP1 JUMP JUMPDEST PUSH1 0xC SLOAD DUP2 JUMP JUMPDEST PUSH1 0x9 SLOAD DUP2 JUMP JUMPDEST PUSH0 DUP1 PUSH2 0xA42 PUSH2 0xF9F JUMP JUMPDEST SWAP1 POP PUSH2 0xA4F DUP6 DUP3 DUP6 PUSH2 0x103F JUMP JUMPDEST PUSH2 0xA5A DUP6 DUP6 DUP6 PUSH2 0x10D2 JUMP JUMPDEST PUSH1 0x1 SWAP2 POP POP SWAP4 SWAP3 POP POP POP JUMP JUMPDEST PUSH0 PUSH1 0x12 SWAP1 POP SWAP1 JUMP JUMPDEST PUSH1 0x11 PUSH1 0x1 SWAP1 SLOAD SWAP1 PUSH2 0x100 EXP SWAP1 DIV PUSH1 0xFF AND DUP2 JUMP JUMPDEST PUSH1 0x12 PUSH1 0x20 MSTORE DUP1 PUSH0 MSTORE PUSH1 0x40 PUSH0 KECCAK256 PUSH0 SWAP2 POP SLOAD SWAP1 PUSH2 0x100 EXP SWAP1 DIV PUSH1 0xFF AND DUP2 JUMP JUMPDEST PUSH2 0x9C4 DUP2 JUMP JUMPDEST PUSH2 0xAAC PUSH2 0xFB8 JUMP JUMPDEST DUP1 PUSH1 0x12 PUSH0 DUP5 PUSH20 0xFFFFFFFFFFFFFFFFFFFFFFFFFFFFFFFFFFFFFFFF AND PUSH20 0xFFFFFFFFFFFFFFFFFFFFFFFFFFFFFFFFFFFFFFFF AND DUP2 MSTORE PUSH1 0x20 ADD SWAP1 DUP2 MSTORE PUSH1 0x20 ADD PUSH0 KECCAK256 PUSH0 PUSH2 0x100 EXP DUP2 SLOAD DUP2 PUSH1 0xFF MUL NOT AND SWAP1 DUP4 ISZERO ISZERO MUL OR SWAP1 SSTORE POP POP POP JUMP JUMPDEST PUSH1 0xA SLOAD DUP2 JUMP JUMPDEST PUSH0 DUP1 PUSH0 DUP4 PUSH20 0xFFFFFFFFFFFFFFFFFFFFFFFFFFFFFFFFFFFFFFFF AND PUSH20 0xFFFFFFFFFFFFFFFFFFFFFFFFFFFFFFFFFFFFFFFF AND DUP2 MSTORE PUSH1 0x20 ADD SWAP1 DUP2 MSTORE PUSH1 0x20 ADD PUSH0 KECCAK256 SLOAD SWAP1 POP SWAP2 SWAP1 POP JUMP JUMPDEST PUSH2 0xB57 PUSH2 0xFB8 JUMP JUMPDEST PUSH2 0xB60 PUSH0 PUSH2 0x1569 JUMP JUMPDEST JUMP JUMPDEST PUSH1 0xF PUSH0 SWAP1 SLOAD SWAP1 PUSH2 0x100 EXP SWAP1 DIV PUSH20 0xFFFFFFFFFFFFFFFFFFFFFFFFFFFFFFFFFFFFFFFF AND DUP2 JUMP JUMPDEST PUSH2 0xB8F PUSH2 0xFB8 JUMP JUMPDEST PUSH1 0x1 PUSH1 0x11 PUSH1 0x1 PUSH2 0x100 EXP DUP2 SLOAD DUP2 PUSH1 0xFF MUL NOT AND SWAP1 DUP4 ISZERO ISZERO MUL OR SWAP1 SSTORE POP JUMP JUMPDEST PUSH0 PUSH1 0x5 PUSH0 SWAP1 SLOAD SWAP1 PUSH2 0x100 EXP SWAP1 DIV PUSH20 0xFFFFFFFFFFFFFFFFFFFFFFFFFFFFFFFFFFFFFFFF AND SWAP1 POP SWAP1 JUMP JUMPDEST PUSH1 0xD PUSH0 SWAP1 SLOAD SWAP1 PUSH2 0x100 EXP SWAP1 DIV PUSH20 0xFFFFFFFFFFFFFFFFFFFFFFFFFFFFFFFFFFFFFFFF AND DUP2 JUMP JUMPDEST PUSH1 0x60 PUSH1 0x4 DUP1 SLOAD PUSH2 0xC08 SWAP1 PUSH2 0x2387 JUMP JUMPDEST DUP1 PUSH1 0x1F ADD PUSH1 0x20 DUP1 SWAP2 DIV MUL PUSH1 0x20 ADD PUSH1 0x40 MLOAD SWAP1 DUP2 ADD PUSH1 0x40 MSTORE DUP1 SWAP3 SWAP2 SWAP1 DUP2 DUP2 MSTORE PUSH1 0x20 ADD DUP3 DUP1 SLOAD PUSH2 0xC34 SWAP1 PUSH2 0x2387 JUMP JUMPDEST DUP1 ISZERO PUSH2 0xC7F JUMPI DUP1 PUSH1 0x1F LT PUSH2 0xC56 JUMPI PUSH2 0x100 DUP1 DUP4 SLOAD DIV MUL DUP4 MSTORE SWAP2 PUSH1 0x20 ADD SWAP2 PUSH2 0xC7F JUMP JUMPDEST DUP3 ADD SWAP2 SWAP1 PUSH0 MSTORE PUSH1 0x20 PUSH0 KECCAK256 SWAP1 JUMPDEST DUP2 SLOAD DUP2 MSTORE SWAP1 PUSH1 0x1 ADD SWAP1 PUSH1 0x20 ADD DUP1 DUP4 GT PUSH2 0xC62 JUMPI DUP3 SWAP1 SUB PUSH1 0x1F AND DUP3 ADD SWAP2 JUMPDEST POP POP POP POP POP SWAP1 POP SWAP1 JUMP JUMPDEST PUSH2 0xC91 PUSH2 0xFB8 JUMP JUMPDEST DUP1 PUSH1 0x10 DUP2 SWAP1 SSTORE POP POP JUMP JUMPDEST PUSH1 0xE PUSH0 SWAP1 SLOAD SWAP1 PUSH2 0x100 EXP SWAP1 DIV PUSH20 0xFFFFFFFFFFFFFFFFFFFFFFFFFFFFFFFFFFFFFFFF AND DUP2 JUMP JUMPDEST PUSH1 0x8 PUSH0 SWAP1 SLOAD SWAP1 PUSH2 0x100 EXP SWAP1 DIV PUSH20 0xFFFFFFFFFFFFFFFFFFFFFFFFFFFFFFFFFFFFFFFF AND DUP2 JUMP JUMPDEST PUSH0 PUSH2 0xCF8 PUSH2 0xCF1 PUSH2 0xF9F JUMP JUMPDEST DUP5 DUP5 PUSH2 0x10D2 JUMP JUMPDEST PUSH1 0x1 SWAP1 POP SWAP3 SWAP2 POP POP JUMP JUMPDEST PUSH2 0xD0A PUSH2 0xFB8 JUMP JUMPDEST ADDRESS PUSH20 0xFFFFFFFFFFFFFFFFFFFFFFFFFFFFFFFFFFFFFFFF AND DUP2 PUSH20 0xFFFFFFFFFFFFFFFFFFFFFFFFFFFFFFFFFFFFFFFF AND SUB PUSH2 0xD78 JUMPI PUSH1 0x40 MLOAD PUSH32 0x8C379A000000000000000000000000000000000000000000000000000000000 DUP2 MSTORE PUSH1 0x4 ADD PUSH2 0xD6F SWAP1 PUSH2 0x2401 JUMP JUMPDEST PUSH1 0x40 MLOAD DUP1 SWAP2 SUB SWAP1 REVERT JUMPDEST DUP1 PUSH20 0xFFFFFFFFFFFFFFFFFFFFFFFFFFFFFFFFFFFFFFFF AND PUSH4 0xA9059CBB CALLER DUP4 PUSH20 0xFFFFFFFFFFFFFFFFFFFFFFFFFFFFFFFFFFFFFFFF AND PUSH4 0x70A08231 ADDRESS PUSH1 0x40 MLOAD DUP3 PUSH4 0xFFFFFFFF AND PUSH1 0xE0 SHL DUP2 MSTORE PUSH1 0x4 ADD PUSH2 0xDCE SWAP2 SWAP1 PUSH2 0x2264 JUMP JUMPDEST PUSH1 0x20 PUSH1 0x40 MLOAD DUP1 DUP4 SUB DUP2 DUP7 GAS STATICCALL ISZERO DUP1 ISZERO PUSH2 0xDE9 JUMPI RETURNDATASIZE PUSH0 DUP1 RETURNDATACOPY RETURNDATASIZE PUSH0 REVERT JUMPDEST POP POP POP POP PUSH1 0x40 MLOAD RETURNDATASIZE PUSH1 0x1F NOT PUSH1 0x1F DUP3 ADD AND DUP3 ADD DUP1 PUSH1 0x40 MSTORE POP DUP2 ADD SWAP1 PUSH2 0xE0D SWAP2 SWAP1 PUSH2 0x2433 JUMP JUMPDEST PUSH1 0x40 MLOAD DUP4 PUSH4 0xFFFFFFFF AND PUSH1 0xE0 SHL DUP2 MSTORE PUSH1 0x4 ADD PUSH2 0xE2A SWAP3 SWAP2 SWAP1 PUSH2 0x245E JUMP JUMPDEST PUSH1 0x20 PUSH1 0x40 MLOAD DUP1 DUP4 SUB DUP2 PUSH0 DUP8 GAS CALL ISZERO DUP1 ISZERO PUSH2 0xE46 JUMPI RETURNDATASIZE PUSH0 DUP1 RETURNDATACOPY RETURNDATASIZE PUSH0 REVERT JUMPDEST POP POP POP POP PUSH1 0x40 MLOAD RETURNDATASIZE PUSH1 0x1F NOT PUSH1 0x1F DUP3 ADD AND DUP3 ADD DUP1 PUSH1 0x40 MSTORE POP DUP2 ADD SWAP1 PUSH2 0xE6A SWAP2 SWAP1 PUSH2 0x2499 JUMP JUMPDEST POP POP JUMP JUMPDEST PUSH1 0xB SLOAD DUP2 JUMP JUMPDEST PUSH0 PUSH1 0x1 PUSH0 DUP5 PUSH20 0xFFFFFFFFFFFFFFFFFFFFFFFFFFFFFFFFFFFFFFFF AND PUSH20 0xFFFFFFFFFFFFFFFFFFFFFFFFFFFFFFFFFFFFFFFF AND DUP2 MSTORE PUSH1 0x20 ADD SWAP1 DUP2 MSTORE PUSH1 0x20 ADD PUSH0 KECCAK256 PUSH0 DUP4 PUSH20 0xFFFFFFFFFFFFFFFFFFFFFFFFFFFFFFFFFFFFFFFF AND PUSH20 0xFFFFFFFFFFFFFFFFFFFFFFFFFFFFFFFFFFFFFFFF AND DUP2 MSTORE PUSH1 0x20 ADD SWAP1 DUP2 MSTORE PUSH1 0x20 ADD PUSH0 KECCAK256 SLOAD SWAP1 POP SWAP3 SWAP2 POP POP JUMP JUMPDEST PUSH2 0xEFE PUSH2 0xFB8 JUMP JUMPDEST PUSH0 PUSH20 0xFFFFFFFFFFFFFFFFFFFFFFFFFFFFFFFFFFFFFFFF AND DUP2 PUSH20 0xFFFFFFFFFFFFFFFFFFFFFFFFFFFFFFFFFFFFFFFF AND SUB PUSH2 0xF6E JUMPI PUSH0 PUSH1 0x40 MLOAD PUSH32 0x1E4FBDF700000000000000000000000000000000000000000000000000000000 DUP2 MSTORE PUSH1 0x4 ADD PUSH2 0xF65 SWAP2 SWAP1 PUSH2 0x2264 JUMP JUMPDEST PUSH1 0x40 MLOAD DUP1 SWAP2 SUB SWAP1 REVERT JUMPDEST PUSH2 0xF77 DUP2 PUSH2 0x1569 JUMP JUMPDEST POP JUMP JUMPDEST PUSH1 0x7 PUSH0 SWAP1 SLOAD SWAP1 PUSH2 0x100 EXP SWAP1 DIV PUSH20 0xFFFFFFFFFFFFFFFFFFFFFFFFFFFFFFFFFFFFFFFF AND DUP2 JUMP JUMPDEST PUSH0 CALLER SWAP1 POP SWAP1 JUMP JUMPDEST PUSH2 0xFB3 DUP4 DUP4 DUP4 PUSH1 0x1 PUSH2 0x162C JUMP JUMPDEST POP POP POP JUMP JUMPDEST PUSH2 0xFC0 PUSH2 0xF9F JUMP JUMPDEST PUSH20 0xFFFFFFFFFFFFFFFFFFFFFFFFFFFFFFFFFFFFFFFF AND PUSH2 0xFDE PUSH2 0xBAC JUMP JUMPDEST PUSH20 0xFFFFFFFFFFFFFFFFFFFFFFFFFFFFFFFFFFFFFFFF AND EQ PUSH2 0x103D JUMPI PUSH2 0x1001 PUSH2 0xF9F JUMP JUMPDEST PUSH1 0x40 MLOAD PUSH32 0x118CDAA700000000000000000000000000000000000000000000000000000000 DUP2 MSTORE PUSH1 0x4 ADD PUSH2 0x1034 SWAP2 SWAP1 PUSH2 0x2264 JUMP JUMPDEST PUSH1 0x40 MLOAD DUP1 SWAP2 SUB SWAP1 REVERT JUMPDEST JUMP JUMPDEST PUSH0 PUSH2 0x104A DUP5 DUP5 PUSH2 0xE74 JUMP JUMPDEST SWAP1 POP PUSH32 0xFFFFFFFFFFFFFFFFFFFFFFFFFFFFFFFFFFFFFFFFFFFFFFFFFFFFFFFFFFFFFFFF DUP2 LT ISZERO PUSH2 0x10CC JUMPI DUP2 DUP2 LT ISZERO PUSH2 0x10BD JUMPI DUP3 DUP2 DUP4 PUSH1 0x40 MLOAD PUSH32 0xFB8F41B200000000000000000000000000000000000000000000000000000000 DUP2 MSTORE PUSH1 0x4 ADD PUSH2 0x10B4 SWAP4 SWAP3 SWAP2 SWAP1 PUSH2 0x24C4 JUMP JUMPDEST PUSH1 0x40 MLOAD DUP1 SWAP2 SUB SWAP1 REVERT JUMPDEST PUSH2 0x10CB DUP5 DUP5 DUP5 DUP5 SUB PUSH0 PUSH2 0x162C JUMP JUMPDEST JUMPDEST POP POP POP POP JUMP JUMPDEST PUSH2 0x10DA PUSH2 0x17FB JUMP JUMPDEST PUSH0 DUP2 GT PUSH2 0x111C JUMPI PUSH1 0x40 MLOAD PUSH32 0x8C379A000000000000000000000000000000000000000000000000000000000 DUP2 MSTORE PUSH1 0x4 ADD PUSH2 0x1113 SWAP1 PUSH2 0x2569 JUMP JUMPDEST PUSH1 0x40 MLOAD DUP1 SWAP2 SUB SWAP1 REVERT JUMPDEST PUSH1 0x11 PUSH1 0x1 SWAP1 SLOAD SWAP1 PUSH2 0x100 EXP SWAP1 DIV PUSH1 0xFF AND DUP1 PUSH2 0x117D JUMPI POP PUSH1 0x12 PUSH0 DUP5 PUSH20 0xFFFFFFFFFFFFFFFFFFFFFFFFFFFFFFFFFFFFFFFF AND PUSH20 0xFFFFFFFFFFFFFFFFFFFFFFFFFFFFFFFFFFFFFFFF AND DUP2 MSTORE PUSH1 0x20 ADD SWAP1 DUP2 MSTORE PUSH1 0x20 ADD PUSH0 KECCAK256 PUSH0 SWAP1 SLOAD SWAP1 PUSH2 0x100 EXP SWAP1 DIV PUSH1 0xFF AND JUMPDEST DUP1 PUSH2 0x11CE JUMPI POP PUSH1 0x12 PUSH0 DUP4 PUSH20 0xFFFFFFFFFFFFFFFFFFFFFFFFFFFFFFFFFFFFFFFF AND PUSH20 0xFFFFFFFFFFFFFFFFFFFFFFFFFFFFFFFFFFFFFFFF AND DUP2 MSTORE PUSH1 0x20 ADD SWAP1 DUP2 MSTORE PUSH1 0x20 ADD PUSH0 KECCAK256 PUSH0 SWAP1 SLOAD SWAP1 PUSH2 0x100 EXP SWAP1 DIV PUSH1 0xFF AND JUMPDEST PUSH2 0x120D JUMPI PUSH1 0x40 MLOAD PUSH32 0x8C379A000000000000000000000000000000000000000000000000000000000 DUP2 MSTORE PUSH1 0x4 ADD PUSH2 0x1204 SWAP1 PUSH2 0x25D1 JUMP JUMPDEST PUSH1 0x40 MLOAD DUP1 SWAP2 SUB SWAP1 REVERT JUMPDEST PUSH0 PUSH1 0x12 PUSH0 DUP6 PUSH20 0xFFFFFFFFFFFFFFFFFFFFFFFFFFFFFFFFFFFFFFFF AND PUSH20 0xFFFFFFFFFFFFFFFFFFFFFFFFFFFFFFFFFFFFFFFF AND DUP2 MSTORE PUSH1 0x20 ADD SWAP1 DUP2 MSTORE PUSH1 0x20 ADD PUSH0 KECCAK256 PUSH0 SWAP1 SLOAD SWAP1 PUSH2 0x100 EXP SWAP1 DIV PUSH1 0xFF AND ISZERO DUP1 ISZERO PUSH2 0x12AC JUMPI POP PUSH1 0x12 PUSH0 DUP5 PUSH20 0xFFFFFFFFFFFFFFFFFFFFFFFFFFFFFFFFFFFFFFFF AND PUSH20 0xFFFFFFFFFFFFFFFFFFFFFFFFFFFFFFFFFFFFFFFF AND DUP2 MSTORE PUSH1 0x20 ADD SWAP1 DUP2 MSTORE PUSH1 0x20 ADD PUSH0 KECCAK256 PUSH0 SWAP1 SLOAD SWAP1 PUSH2 0x100 EXP SWAP1 DIV PUSH1 0xFF AND ISZERO JUMPDEST ISZERO PUSH2 0x1550 JUMPI PUSH1 0x8 PUSH0 SWAP1 SLOAD SWAP1 PUSH2 0x100 EXP SWAP1 DIV PUSH20 0xFFFFFFFFFFFFFFFFFFFFFFFFFFFFFFFFFFFFFFFF AND PUSH20 0xFFFFFFFFFFFFFFFFFFFFFFFFFFFFFFFFFFFFFFFF AND DUP4 PUSH20 0xFFFFFFFFFFFFFFFFFFFFFFFFFFFFFFFFFFFFFFFF AND SUB PUSH2 0x1327 JUMPI PUSH2 0x2710 PUSH2 0x9C4 DUP4 PUSH2 0x1316 SWAP2 SWAP1 PUSH2 0x261C JUMP JUMPDEST PUSH2 0x1320 SWAP2 SWAP1 PUSH2 0x268A JUMP JUMPDEST SWAP1 POP PUSH2 0x139A JUMP JUMPDEST PUSH1 0x8 PUSH0 SWAP1 SLOAD SWAP1 PUSH2 0x100 EXP SWAP1 DIV PUSH20 0xFFFFFFFFFFFFFFFFFFFFFFFFFFFFFFFFFFFFFFFF AND PUSH20 0xFFFFFFFFFFFFFFFFFFFFFFFFFFFFFFFFFFFFFFFF AND DUP5 PUSH20 0xFFFFFFFFFFFFFFFFFFFFFFFFFFFFFFFFFFFFFFFF AND SUB PUSH2 0x1399 JUMPI PUSH2 0x2710 PUSH2 0x9C4 DUP4 PUSH2 0x138C SWAP2 SWAP1 PUSH2 0x261C JUMP JUMPDEST PUSH2 0x1396 SWAP2 SWAP1 PUSH2 0x268A JUMP JUMPDEST SWAP1 POP JUMPDEST JUMPDEST PUSH0 DUP2 GT ISZERO PUSH2 0x154F JUMPI PUSH0 PUSH2 0x9C4 PUSH1 0x9 SLOAD DUP4 PUSH2 0x13B4 SWAP2 SWAP1 PUSH2 0x261C JUMP JUMPDEST PUSH2 0x13BE SWAP2 SWAP1 PUSH2 0x268A JUMP JUMPDEST SWAP1 POP PUSH0 PUSH2 0x9C4 PUSH1 0xA SLOAD DUP5 PUSH2 0x13D2 SWAP2 SWAP1 PUSH2 0x261C JUMP JUMPDEST PUSH2 0x13DC SWAP2 SWAP1 PUSH2 0x268A JUMP JUMPDEST SWAP1 POP PUSH0 PUSH2 0x9C4 PUSH1 0xB SLOAD DUP6 PUSH2 0x13F0 SWAP2 SWAP1 PUSH2 0x261C JUMP JUMPDEST PUSH2 0x13FA SWAP2 SWAP1 PUSH2 0x268A JUMP JUMPDEST SWAP1 POP PUSH0 DUP2 DUP4 DUP6 DUP8 PUSH2 0x140B SWAP2 SWAP1 PUSH2 0x26BA JUMP JUMPDEST PUSH2 0x1415 SWAP2 SWAP1 PUSH2 0x26BA JUMP JUMPDEST PUSH2 0x141F SWAP2 SWAP1 PUSH2 0x26BA JUMP JUMPDEST SWAP1 POP PUSH2 0x142C DUP9 ADDRESS DUP7 PUSH2 0x184A JUMP JUMPDEST PUSH2 0x1458 DUP9 PUSH1 0xD PUSH0 SWAP1 SLOAD SWAP1 PUSH2 0x100 EXP SWAP1 DIV PUSH20 0xFFFFFFFFFFFFFFFFFFFFFFFFFFFFFFFFFFFFFFFF AND DUP6 PUSH2 0x184A JUMP JUMPDEST PUSH2 0x1484 DUP9 PUSH1 0xE PUSH0 SWAP1 SLOAD SWAP1 PUSH2 0x100 EXP SWAP1 DIV PUSH20 0xFFFFFFFFFFFFFFFFFFFFFFFFFFFFFFFFFFFFFFFF AND DUP5 PUSH2 0x184A JUMP JUMPDEST PUSH2 0x14B0 DUP9 PUSH1 0xF PUSH0 SWAP1 SLOAD SWAP1 PUSH2 0x100 EXP SWAP1 DIV PUSH20 0xFFFFFFFFFFFFFFFFFFFFFFFFFFFFFFFFFFFFFFFF AND DUP4 PUSH2 0x184A JUMP JUMPDEST DUP5 DUP7 PUSH2 0x14BC SWAP2 SWAP1 PUSH2 0x26BA JUMP JUMPDEST SWAP6 POP PUSH1 0x8 PUSH0 SWAP1 SLOAD SWAP1 PUSH2 0x100 EXP SWAP1 DIV PUSH20 0xFFFFFFFFFFFFFFFFFFFFFFFFFFFFFFFFFFFFFFFF AND PUSH20 0xFFFFFFFFFFFFFFFFFFFFFFFFFFFFFFFFFFFFFFFF AND DUP8 PUSH20 0xFFFFFFFFFFFFFFFFFFFFFFFFFFFFFFFFFFFFFFFF AND EQ DUP1 ISZERO PUSH2 0x1524 JUMPI POP PUSH1 0x10 SLOAD PUSH2 0x1521 ADDRESS PUSH2 0xB0A JUMP JUMPDEST LT ISZERO JUMPDEST DUP1 ISZERO PUSH2 0x153C JUMPI POP PUSH1 0x11 PUSH0 SWAP1 SLOAD SWAP1 PUSH2 0x100 EXP SWAP1 DIV PUSH1 0xFF AND ISZERO JUMPDEST ISZERO PUSH2 0x154A JUMPI PUSH2 0x1549 PUSH2 0x193A JUMP JUMPDEST JUMPDEST POP POP POP POP JUMPDEST JUMPDEST PUSH2 0x155B DUP5 DUP5 DUP5 PUSH2 0x184A JUMP JUMPDEST POP PUSH2 0x1564 PUSH2 0x1CF7 JUMP JUMPDEST POP POP POP JUMP JUMPDEST PUSH0 PUSH1 0x5 PUSH0 SWAP1 SLOAD SWAP1 PUSH2 0x100 EXP SWAP1 DIV PUSH20 0xFFFFFFFFFFFFFFFFFFFFFFFFFFFFFFFFFFFFFFFF AND SWAP1 POP DUP2 PUSH1 0x5 PUSH0 PUSH2 0x100 EXP DUP2 SLOAD DUP2 PUSH20 0xFFFFFFFFFFFFFFFFFFFFFFFFFFFFFFFFFFFFFFFF MUL NOT AND SWAP1 DUP4 PUSH20 0xFFFFFFFFFFFFFFFFFFFFFFFFFFFFFFFFFFFFFFFF AND MUL OR SWAP1 SSTORE POP DUP2 PUSH20 0xFFFFFFFFFFFFFFFFFFFFFFFFFFFFFFFFFFFFFFFF AND DUP2 PUSH20 0xFFFFFFFFFFFFFFFFFFFFFFFFFFFFFFFFFFFFFFFF AND PUSH32 0x8BE0079C531659141344CD1FD0A4F28419497F9722A3DAAFE3B4186F6B6457E0 PUSH1 0x40 MLOAD PUSH1 0x40 MLOAD DUP1 SWAP2 SUB SWAP1 LOG3 POP POP JUMP JUMPDEST PUSH0 PUSH20 0xFFFFFFFFFFFFFFFFFFFFFFFFFFFFFFFFFFFFFFFF AND DUP5 PUSH20 0xFFFFFFFFFFFFFFFFFFFFFFFFFFFFFFFFFFFFFFFF AND SUB PUSH2 0x169C JUMPI PUSH0 PUSH1 0x40 MLOAD PUSH32 0xE602DF0500000000000000000000000000000000000000000000000000000000 DUP2 MSTORE PUSH1 0x4 ADD PUSH2 0x1693 SWAP2 SWAP1 PUSH2 0x2264 JUMP JUMPDEST PUSH1 0x40 MLOAD DUP1 SWAP2 SUB SWAP1 REVERT JUMPDEST PUSH0 PUSH20 0xFFFFFFFFFFFFFFFFFFFFFFFFFFFFFFFFFFFFFFFF AND DUP4 PUSH20 0xFFFFFFFFFFFFFFFFFFFFFFFFFFFFFFFFFFFFFFFF AND SUB PUSH2 0x170C JUMPI PUSH0 PUSH1 0x40 MLOAD PUSH32 0x94280D6200000000000000000000000000000000000000000000000000000000 DUP2 MSTORE PUSH1 0x4 ADD PUSH2 0x1703 SWAP2 SWAP1 PUSH2 0x2264 JUMP JUMPDEST PUSH1 0x40 MLOAD DUP1 SWAP2 SUB SWAP1 REVERT JUMPDEST DUP2 PUSH1 0x1 PUSH0 DUP7 PUSH20 0xFFFFFFFFFFFFFFFFFFFFFFFFFFFFFFFFFFFFFFFF AND PUSH20 0xFFFFFFFFFFFFFFFFFFFFFFFFFFFFFFFFFFFFFFFF AND DUP2 MSTORE PUSH1 0x20 ADD SWAP1 DUP2 MSTORE PUSH1 0x20 ADD PUSH0 KECCAK256 PUSH0 DUP6 PUSH20 0xFFFFFFFFFFFFFFFFFFFFFFFFFFFFFFFFFFFFFFFF AND PUSH20 0xFFFFFFFFFFFFFFFFFFFFFFFFFFFFFFFFFFFFFFFF AND DUP2 MSTORE PUSH1 0x20 ADD SWAP1 DUP2 MSTORE PUSH1 0x20 ADD PUSH0 KECCAK256 DUP2 SWAP1 SSTORE POP DUP1 ISZERO PUSH2 0x17F5 JUMPI DUP3 PUSH20 0xFFFFFFFFFFFFFFFFFFFFFFFFFFFFFFFFFFFFFFFF AND DUP5 PUSH20 0xFFFFFFFFFFFFFFFFFFFFFFFFFFFFFFFFFFFFFFFF AND PUSH32 0x8C5BE1E5EBEC7D5BD14F71427D1E84F3DD0314C0F7B2291E5B200AC8C7C3B925 DUP5 PUSH1 0x40 MLOAD PUSH2 0x17EC SWAP2 SWAP1 PUSH2 0x1F32 JUMP JUMPDEST PUSH1 0x40 MLOAD DUP1 SWAP2 SUB SWAP1 LOG3 JUMPDEST POP POP POP POP JUMP JUMPDEST PUSH1 0x2 PUSH1 0x6 SLOAD SUB PUSH2 0x1840 JUMPI PUSH1 0x40 MLOAD PUSH32 0x8C379A000000000000000000000000000000000000000000000000000000000 DUP2 MSTORE PUSH1 0x4 ADD PUSH2 0x1837 SWAP1 PUSH2 0x2737 JUMP JUMPDEST PUSH1 0x40 MLOAD DUP1 SWAP2 SUB SWAP1 REVERT JUMPDEST PUSH1 0x2 PUSH1 0x6 DUP2 SWAP1 SSTORE POP JUMP JUMPDEST PUSH0 PUSH20 0xFFFFFFFFFFFFFFFFFFFFFFFFFFFFFFFFFFFFFFFF AND DUP4 PUSH20 0xFFFFFFFFFFFFFFFFFFFFFFFFFFFFFFFFFFFFFFFF AND SUB PUSH2 0x18BA JUMPI PUSH0 PUSH1 0x40 MLOAD PUSH32 0x96C6FD1E00000000000000000000000000000000000000000000000000000000 DUP2 MSTORE PUSH1 0x4 ADD PUSH2 0x18B1 SWAP2 SWAP1 PUSH2 0x2264 JUMP JUMPDEST PUSH1 0x40 MLOAD DUP1 SWAP2 SUB SWAP1 REVERT JUMPDEST PUSH0 PUSH20 0xFFFFFFFFFFFFFFFFFFFFFFFFFFFFFFFFFFFFFFFF AND DUP3 PUSH20 0xFFFFFFFFFFFFFFFFFFFFFFFFFFFFFFFFFFFFFFFF AND SUB PUSH2 0x192A JUMPI PUSH0 PUSH1 0x40 MLOAD PUSH32 0xEC442F0500000000000000000000000000000000000000000000000000000000 DUP2 MSTORE PUSH1 0x4 ADD PUSH2 0x1921 SWAP2 SWAP1 PUSH2 0x2264 JUMP JUMPDEST PUSH1 0x40 MLOAD DUP1 SWAP2 SUB SWAP1 REVERT JUMPDEST PUSH2 0x1935 DUP4 DUP4 DUP4 PUSH2 0x1D01 JUMP JUMPDEST POP POP POP JUMP JUMPDEST PUSH1 0x1 PUSH1 0x11 PUSH0 PUSH2 0x100 EXP DUP2 SLOAD DUP2 PUSH1 0xFF MUL NOT AND SWAP1 DUP4 ISZERO ISZERO MUL OR SWAP1 SSTORE POP PUSH0 PUSH2 0x195E ADDRESS PUSH2 0xB0A JUMP JUMPDEST SWAP1 POP PUSH0 PUSH1 0x2 DUP3 PUSH2 0x196E SWAP2 SWAP1 PUSH2 0x268A JUMP JUMPDEST SWAP1 POP PUSH0 DUP2 DUP4 PUSH2 0x197D SWAP2 SWAP1 PUSH2 0x26BA JUMP JUMPDEST SWAP1 POP PUSH0 PUSH1 0x2 PUSH8 0xFFFFFFFFFFFFFFFF DUP2 GT ISZERO PUSH2 0x199B JUMPI PUSH2 0x199A PUSH2 0x2755 JUMP JUMPDEST JUMPDEST PUSH1 0x40 MLOAD SWAP1 DUP1 DUP3 MSTORE DUP1 PUSH1 0x20 MUL PUSH1 0x20 ADD DUP3 ADD PUSH1 0x40 MSTORE DUP1 ISZERO PUSH2 0x19C9 JUMPI DUP2 PUSH1 0x20 ADD PUSH1 0x20 DUP3 MUL DUP1 CALLDATASIZE DUP4 CALLDATACOPY DUP1 DUP3 ADD SWAP2 POP POP SWAP1 POP JUMPDEST POP SWAP1 POP ADDRESS DUP2 PUSH0 DUP2 MLOAD DUP2 LT PUSH2 0x19E0 JUMPI PUSH2 0x19DF PUSH2 0x2782 JUMP JUMPDEST JUMPDEST PUSH1 0x20 MUL PUSH1 0x20 ADD ADD SWAP1 PUSH20 0xFFFFFFFFFFFFFFFFFFFFFFFFFFFFFFFFFFFFFFFF AND SWAP1 DUP2 PUSH20 0xFFFFFFFFFFFFFFFFFFFFFFFFFFFFFFFFFFFFFFFF AND DUP2 MSTORE POP POP PUSH1 0x7 PUSH0 SWAP1 SLOAD SWAP1 PUSH2 0x100 EXP SWAP1 DIV PUSH20 0xFFFFFFFFFFFFFFFFFFFFFFFFFFFFFFFFFFFFFFFF AND PUSH20 0xFFFFFFFFFFFFFFFFFFFFFFFFFFFFFFFFFFFFFFFF AND PUSH4 0xAD5C4648 PUSH1 0x40 MLOAD DUP2 PUSH4 0xFFFFFFFF AND PUSH1 0xE0 SHL DUP2 MSTORE PUSH1 0x4 ADD PUSH1 0x20 PUSH1 0x40 MLOAD DUP1 DUP4 SUB DUP2 DUP7 GAS STATICCALL ISZERO DUP1 ISZERO PUSH2 0x1A84 JUMPI RETURNDATASIZE PUSH0 DUP1 RETURNDATACOPY RETURNDATASIZE PUSH0 REVERT JUMPDEST POP POP POP POP PUSH1 0x40 MLOAD RETURNDATASIZE PUSH1 0x1F NOT PUSH1 0x1F DUP3 ADD AND DUP3 ADD DUP1 PUSH1 0x40 MSTORE POP DUP2 ADD SWAP1 PUSH2 0x1AA8 SWAP2 SWAP1 PUSH2 0x27C3 JUMP JUMPDEST DUP2 PUSH1 0x1 DUP2 MLOAD DUP2 LT PUSH2 0x1ABC JUMPI PUSH2 0x1ABB PUSH2 0x2782 JUMP JUMPDEST JUMPDEST PUSH1 0x20 MUL PUSH1 0x20 ADD ADD SWAP1 PUSH20 0xFFFFFFFFFFFFFFFFFFFFFFFFFFFFFFFFFFFFFFFF AND SWAP1 DUP2 PUSH20 0xFFFFFFFFFFFFFFFFFFFFFFFFFFFFFFFFFFFFFFFF AND DUP2 MSTORE POP POP PUSH0 SELFBALANCE SWAP1 POP PUSH2 0x1B26 ADDRESS PUSH1 0x7 PUSH0 SWAP1 SLOAD SWAP1 PUSH2 0x100 EXP SWAP1 DIV PUSH20 0xFFFFFFFFFFFFFFFFFFFFFFFFFFFFFFFFFFFFFFFF AND DUP7 PUSH2 0xFA6 JUMP JUMPDEST PUSH1 0x7 PUSH0 SWAP1 SLOAD SWAP1 PUSH2 0x100 EXP SWAP1 DIV PUSH20 0xFFFFFFFFFFFFFFFFFFFFFFFFFFFFFFFFFFFFFFFF AND PUSH20 0xFFFFFFFFFFFFFFFFFFFFFFFFFFFFFFFFFFFFFFFF AND PUSH4 0x791AC947 DUP6 PUSH0 DUP6 ADDRESS TIMESTAMP PUSH1 0x40 MLOAD DUP7 PUSH4 0xFFFFFFFF AND PUSH1 0xE0 SHL DUP2 MSTORE PUSH1 0x4 ADD PUSH2 0x1B88 SWAP6 SWAP5 SWAP4 SWAP3 SWAP2 SWAP1 PUSH2 0x28DE JUMP JUMPDEST PUSH0 PUSH1 0x40 MLOAD DUP1 DUP4 SUB DUP2 PUSH0 DUP8 DUP1 EXTCODESIZE ISZERO DUP1 ISZERO PUSH2 0x1B9F JUMPI PUSH0 DUP1 REVERT JUMPDEST POP GAS CALL ISZERO DUP1 ISZERO PUSH2 0x1BB1 JUMPI RETURNDATASIZE PUSH0 DUP1 RETURNDATACOPY RETURNDATASIZE PUSH0 REVERT JUMPDEST POP POP POP POP PUSH0 DUP2 SELFBALANCE PUSH2 0x1BC2 SWAP2 SWAP1 PUSH2 0x26BA JUMP JUMPDEST SWAP1 POP PUSH2 0x1BF0 ADDRESS PUSH1 0x7 PUSH0 SWAP1 SLOAD SWAP1 PUSH2 0x100 EXP SWAP1 DIV PUSH20 0xFFFFFFFFFFFFFFFFFFFFFFFFFFFFFFFFFFFFFFFF AND DUP7 PUSH2 0xFA6 JUMP JUMPDEST PUSH1 0x7 PUSH0 SWAP1 SLOAD SWAP1 PUSH2 0x100 EXP SWAP1 DIV PUSH20 0xFFFFFFFFFFFFFFFFFFFFFFFFFFFFFFFFFFFFFFFF AND PUSH20 0xFFFFFFFFFFFFFFFFFFFFFFFFFFFFFFFFFFFFFFFF AND PUSH4 0xF305D719 DUP3 ADDRESS DUP8 PUSH0 DUP1 PUSH2 0xDEAD TIMESTAMP PUSH1 0x40 MLOAD DUP9 PUSH4 0xFFFFFFFF AND PUSH1 0xE0 SHL DUP2 MSTORE PUSH1 0x4 ADD PUSH2 0x1C57 SWAP7 SWAP6 SWAP5 SWAP4 SWAP3 SWAP2 SWAP1 PUSH2 0x2936 JUMP JUMPDEST PUSH1 0x60 PUSH1 0x40 MLOAD DUP1 DUP4 SUB DUP2 DUP6 DUP9 GAS CALL ISZERO DUP1 ISZERO PUSH2 0x1C73 JUMPI RETURNDATASIZE PUSH0 DUP1 RETURNDATACOPY RETURNDATASIZE PUSH0 REVERT JUMPDEST POP POP POP POP POP PUSH1 0x40 MLOAD RETURNDATASIZE PUSH1 0x1F NOT PUSH1 0x1F DUP3 ADD AND DUP3 ADD DUP1 PUSH1 0x40 MSTORE POP DUP2 ADD SWAP1 PUSH2 0x1C98 SWAP2 SWAP1 PUSH2 0x2995 JUMP JUMPDEST POP POP POP PUSH32 0x17BBFB9A6069321B6DED73BD96327C9E6B7212A5CD51FF219CD61370ACAFB561 DUP6 DUP3 DUP7 PUSH1 0x40 MLOAD PUSH2 0x1CCE SWAP4 SWAP3 SWAP2 SWAP1 PUSH2 0x29E5 JUMP JUMPDEST PUSH1 0x40 MLOAD DUP1 SWAP2 SUB SWAP1 LOG1 PUSH0 PUSH1 0x11 PUSH0 PUSH2 0x100 EXP DUP2 SLOAD DUP2 PUSH1 0xFF MUL NOT AND SWAP1 DUP4 ISZERO ISZERO MUL OR SWAP1 SSTORE POP POP POP POP POP POP POP JUMP JUMPDEST PUSH1 0x1 PUSH1 0x6 DUP2 SWAP1 SSTORE POP JUMP JUMPDEST PUSH0 PUSH20 0xFFFFFFFFFFFFFFFFFFFFFFFFFFFFFFFFFFFFFFFF AND DUP4 PUSH20 0xFFFFFFFFFFFFFFFFFFFFFFFFFFFFFFFFFFFFFFFF AND SUB PUSH2 0x1D51 JUMPI DUP1 PUSH1 0x2 PUSH0 DUP3 DUP3 SLOAD PUSH2 0x1D45 SWAP2 SWAP1 PUSH2 0x2A1A JUMP JUMPDEST SWAP3 POP POP DUP2 SWAP1 SSTORE POP PUSH2 0x1E1F JUMP JUMPDEST PUSH0 DUP1 PUSH0 DUP6 PUSH20 0xFFFFFFFFFFFFFFFFFFFFFFFFFFFFFFFFFFFFFFFF AND PUSH20 0xFFFFFFFFFFFFFFFFFFFFFFFFFFFFFFFFFFFFFFFF AND DUP2 MSTORE PUSH1 0x20 ADD SWAP1 DUP2 MSTORE PUSH1 0x20 ADD PUSH0 KECCAK256 SLOAD SWAP1 POP DUP2 DUP2 LT ISZERO PUSH2 0x1DDA JUMPI DUP4 DUP2 DUP4 PUSH1 0x40 MLOAD PUSH32 0xE450D38C00000000000000000000000000000000000000000000000000000000 DUP2 MSTORE PUSH1 0x4 ADD PUSH2 0x1DD1 SWAP4 SWAP3 SWAP2 SWAP1 PUSH2 0x24C4 JUMP JUMPDEST PUSH1 0x40 MLOAD DUP1 SWAP2 SUB SWAP1 REVERT JUMPDEST DUP2 DUP2 SUB PUSH0 DUP1 DUP7 PUSH20 0xFFFFFFFFFFFFFFFFFFFFFFFFFFFFFFFFFFFFFFFF AND PUSH20 0xFFFFFFFFFFFFFFFFFFFFFFFFFFFFFFFFFFFFFFFF AND DUP2 MSTORE PUSH1 0x20 ADD SWAP1 DUP2 MSTORE PUSH1 0x20 ADD PUSH0 KECCAK256 DUP2 SWAP1 SSTORE POP POP JUMPDEST PUSH0 PUSH20 0xFFFFFFFFFFFFFFFFFFFFFFFFFFFFFFFFFFFFFFFF AND DUP3 PUSH20 0xFFFFFFFFFFFFFFFFFFFFFFFFFFFFFFFFFFFFFFFF AND SUB PUSH2 0x1E66 JUMPI DUP1 PUSH1 0x2 PUSH0 DUP3 DUP3 SLOAD SUB SWAP3 POP POP DUP2 SWAP1 SSTORE POP PUSH2 0x1EB0 JUMP JUMPDEST DUP1 PUSH0 DUP1 DUP5 PUSH20 0xFFFFFFFFFFFFFFFFFFFFFFFFFFFFFFFFFFFFFFFF AND PUSH20 0xFFFFFFFFFFFFFFFFFFFFFFFFFFFFFFFFFFFFFFFF AND DUP2 MSTORE PUSH1 0x20 ADD SWAP1 DUP2 MSTORE PUSH1 0x20 ADD PUSH0 KECCAK256 PUSH0 DUP3 DUP3 SLOAD ADD SWAP3 POP POP DUP2 SWAP1 SSTORE POP JUMPDEST DUP2 PUSH20 0xFFFFFFFFFFFFFFFFFFFFFFFFFFFFFFFFFFFFFFFF AND DUP4 PUSH20 0xFFFFFFFFFFFFFFFFFFFFFFFFFFFFFFFFFFFFFFFF AND PUSH32 0xDDF252AD1BE2C89B69C2B068FC378DAA952BA7F163C4A11628F55A4DF523B3EF DUP4 PUSH1 0x40 MLOAD PUSH2 0x1F0D SWAP2 SWAP1 PUSH2 0x1F32 JUMP JUMPDEST PUSH1 0x40 MLOAD DUP1 SWAP2 SUB SWAP1 LOG3 POP POP POP JUMP JUMPDEST PUSH0 DUP2 SWAP1 POP SWAP2 SWAP1 POP JUMP JUMPDEST PUSH2 0x1F2C DUP2 PUSH2 0x1F1A JUMP JUMPDEST DUP3 MSTORE POP POP JUMP JUMPDEST PUSH0 PUSH1 0x20 DUP3 ADD SWAP1 POP PUSH2 0x1F45 PUSH0 DUP4 ADD DUP5 PUSH2 0x1F23 JUMP JUMPDEST SWAP3 SWAP2 POP POP JUMP JUMPDEST PUSH0 DUP2 MLOAD SWAP1 POP SWAP2 SWAP1 POP JUMP JUMPDEST PUSH0 DUP3 DUP3 MSTORE PUSH1 0x20 DUP3 ADD SWAP1 POP SWAP3 SWAP2 POP POP JUMP JUMPDEST PUSH0 JUMPDEST DUP4 DUP2 LT ISZERO PUSH2 0x1F82 JUMPI DUP1 DUP3 ADD MLOAD DUP2 DUP5 ADD MSTORE PUSH1 0x20 DUP2 ADD SWAP1 POP PUSH2 0x1F67 JUMP JUMPDEST PUSH0 DUP5 DUP5 ADD MSTORE POP POP POP POP JUMP JUMPDEST PUSH0 PUSH1 0x1F NOT PUSH1 0x1F DUP4 ADD AND SWAP1 POP SWAP2 SWAP1 POP JUMP JUMPDEST PUSH0 PUSH2 0x1FA7 DUP3 PUSH2 0x1F4B JUMP JUMPDEST PUSH2 0x1FB1 DUP2 DUP6 PUSH2 0x1F55 JUMP JUMPDEST SWAP4 POP PUSH2 0x1FC1 DUP2 DUP6 PUSH1 0x20 DUP7 ADD PUSH2 0x1F65 JUMP JUMPDEST PUSH2 0x1FCA DUP2 PUSH2 0x1F8D JUMP JUMPDEST DUP5 ADD SWAP2 POP POP SWAP3 SWAP2 POP POP JUMP JUMPDEST PUSH0 PUSH1 0x20 DUP3 ADD SWAP1 POP DUP2 DUP2 SUB PUSH0 DUP4 ADD MSTORE PUSH2 0x1FED DUP2 DUP5 PUSH2 0x1F9D JUMP JUMPDEST SWAP1 POP SWAP3 SWAP2 POP POP JUMP JUMPDEST PUSH0 DUP1 REVERT JUMPDEST PUSH0 PUSH20 0xFFFFFFFFFFFFFFFFFFFFFFFFFFFFFFFFFFFFFFFF DUP3 AND SWAP1 POP SWAP2 SWAP1 POP JUMP JUMPDEST PUSH0 PUSH2 0x2022 DUP3 PUSH2 0x1FF9 JUMP JUMPDEST SWAP1 POP SWAP2 SWAP1 POP JUMP JUMPDEST PUSH2 0x2032 DUP2 PUSH2 0x2018 JUMP JUMPDEST DUP2 EQ PUSH2 0x203C JUMPI PUSH0 DUP1 REVERT JUMPDEST POP JUMP JUMPDEST PUSH0 DUP2 CALLDATALOAD SWAP1 POP PUSH2 0x204D DUP2 PUSH2 0x2029 JUMP JUMPDEST SWAP3 SWAP2 POP POP JUMP JUMPDEST PUSH2 0x205C DUP2 PUSH2 0x1F1A JUMP JUMPDEST DUP2 EQ PUSH2 0x2066 JUMPI PUSH0 DUP1 REVERT JUMPDEST POP JUMP JUMPDEST PUSH0 DUP2 CALLDATALOAD SWAP1 POP PUSH2 0x2077 DUP2 PUSH2 0x2053 JUMP JUMPDEST SWAP3 SWAP2 POP POP JUMP JUMPDEST PUSH0 DUP1 PUSH1 0x40 DUP4 DUP6 SUB SLT ISZERO PUSH2 0x2093 JUMPI PUSH2 0x2092 PUSH2 0x1FF5 JUMP JUMPDEST JUMPDEST PUSH0 PUSH2 0x20A0 DUP6 DUP3 DUP7 ADD PUSH2 0x203F JUMP JUMPDEST SWAP3 POP POP PUSH1 0x20 PUSH2 0x20B1 DUP6 DUP3 DUP7 ADD PUSH2 0x2069 JUMP JUMPDEST SWAP2 POP POP SWAP3 POP SWAP3 SWAP1 POP JUMP JUMPDEST PUSH0 DUP2 ISZERO ISZERO SWAP1 POP SWAP2 SWAP1 POP JUMP JUMPDEST PUSH2 0x20CF DUP2 PUSH2 0x20BB JUMP JUMPDEST DUP3 MSTORE POP POP JUMP JUMPDEST PUSH0 PUSH1 0x20 DUP3 ADD SWAP1 POP PUSH2 0x20E8 PUSH0 DUP4 ADD DUP5 PUSH2 0x20C6 JUMP JUMPDEST SWAP3 SWAP2 POP POP JUMP JUMPDEST PUSH0 DUP1 PUSH0 PUSH1 0x60 DUP5 DUP7 SUB SLT ISZERO PUSH2 0x2105 JUMPI PUSH2 0x2104 PUSH2 0x1FF5 JUMP JUMPDEST JUMPDEST PUSH0 PUSH2 0x2112 DUP7 DUP3 DUP8 ADD PUSH2 0x203F JUMP JUMPDEST SWAP4 POP POP PUSH1 0x20 PUSH2 0x2123 DUP7 DUP3 DUP8 ADD PUSH2 0x203F JUMP JUMPDEST SWAP3 POP POP PUSH1 0x40 PUSH2 0x2134 DUP7 DUP3 DUP8 ADD PUSH2 0x203F JUMP JUMPDEST SWAP2 POP POP SWAP3 POP SWAP3 POP SWAP3 JUMP JUMPDEST PUSH0 DUP1 PUSH0 PUSH1 0x60 DUP5 DUP7 SUB SLT ISZERO PUSH2 0x2155 JUMPI PUSH2 0x2154 PUSH2 0x1FF5 JUMP JUMPDEST JUMPDEST PUSH0 PUSH2 0x2162 DUP7 DUP3 DUP8 ADD PUSH2 0x203F JUMP JUMPDEST SWAP4 POP POP PUSH1 0x20 PUSH2 0x2173 DUP7 DUP3 DUP8 ADD PUSH2 0x203F JUMP JUMPDEST SWAP3 POP POP PUSH1 0x40 PUSH2 0x2184 DUP7 DUP3 DUP8 ADD PUSH2 0x2069 JUMP JUMPDEST SWAP2 POP POP SWAP3 POP SWAP3 POP SWAP3 JUMP JUMPDEST PUSH0 PUSH1 0xFF DUP3 AND SWAP1 POP SWAP2 SWAP1 POP JUMP JUMPDEST PUSH2 0x21A3 DUP2 PUSH2 0x218E JUMP JUMPDEST DUP3 MSTORE POP POP JUMP JUMPDEST PUSH0 PUSH1 0x20 DUP3 ADD SWAP1 POP PUSH2 0x21BC PUSH0 DUP4 ADD DUP5 PUSH2 0x219A JUMP JUMPDEST SWAP3 SWAP2 POP POP JUMP JUMPDEST PUSH0 PUSH1 0x20 DUP3 DUP5 SUB SLT ISZERO PUSH2 0x21D7 JUMPI PUSH2 0x21D6 PUSH2 0x1FF5 JUMP JUMPDEST JUMPDEST PUSH0 PUSH2 0x21E4 DUP5 DUP3 DUP6 ADD PUSH2 0x203F JUMP JUMPDEST SWAP2 POP POP SWAP3 SWAP2 POP POP JUMP JUMPDEST PUSH2 0x21F6 DUP2 PUSH2 0x20BB JUMP JUMPDEST DUP2 EQ PUSH2 0x2200 JUMPI PUSH0 DUP1 REVERT JUMPDEST POP JUMP JUMPDEST PUSH0 DUP2 CALLDATALOAD SWAP1 POP PUSH2 0x2211 DUP2 PUSH2 0x21ED JUMP JUMPDEST SWAP3 SWAP2 POP POP JUMP JUMPDEST PUSH0 DUP1 PUSH1 0x40 DUP4 DUP6 SUB SLT ISZERO PUSH2 0x222D JUMPI PUSH2 0x222C PUSH2 0x1FF5 JUMP JUMPDEST JUMPDEST PUSH0 PUSH2 0x223A DUP6 DUP3 DUP7 ADD PUSH2 0x203F JUMP JUMPDEST SWAP3 POP POP PUSH1 0x20 PUSH2 0x224B DUP6 DUP3 DUP7 ADD PUSH2 0x2203 JUMP JUMPDEST SWAP2 POP POP SWAP3 POP SWAP3 SWAP1 POP JUMP JUMPDEST PUSH2 0x225E DUP2 PUSH2 0x2018 JUMP JUMPDEST DUP3 MSTORE POP POP JUMP JUMPDEST PUSH0 PUSH1 0x20 DUP3 ADD SWAP1 POP PUSH2 0x2277 PUSH0 DUP4 ADD DUP5 PUSH2 0x2255 JUMP JUMPDEST SWAP3 SWAP2 POP POP JUMP JUMPDEST PUSH0 PUSH1 0x20 DUP3 DUP5 SUB SLT ISZERO PUSH2 0x2292 JUMPI PUSH2 0x2291 PUSH2 0x1FF5 JUMP JUMPDEST JUMPDEST PUSH0 PUSH2 0x229F DUP5 DUP3 DUP6 ADD PUSH2 0x2069 JUMP JUMPDEST SWAP2 POP POP SWAP3 SWAP2 POP POP JUMP JUMPDEST PUSH0 DUP1 PUSH1 0x40 DUP4 DUP6 SUB SLT ISZERO PUSH2 0x22BE JUMPI PUSH2 0x22BD PUSH2 0x1FF5 JUMP JUMPDEST JUMPDEST PUSH0 PUSH2 0x22CB DUP6 DUP3 DUP7 ADD PUSH2 0x203F JUMP JUMPDEST SWAP3 POP POP PUSH1 0x20 PUSH2 0x22DC DUP6 DUP3 DUP7 ADD PUSH2 0x203F JUMP JUMPDEST SWAP2 POP POP SWAP3 POP SWAP3 SWAP1 POP JUMP JUMPDEST PUSH0 DUP2 SWAP1 POP SWAP2 SWAP1 POP JUMP JUMPDEST PUSH0 PUSH2 0x2309 PUSH2 0x2304 PUSH2 0x22FF DUP5 PUSH2 0x1FF9 JUMP JUMPDEST PUSH2 0x22E6 JUMP JUMPDEST PUSH2 0x1FF9 JUMP JUMPDEST SWAP1 POP SWAP2 SWAP1 POP JUMP JUMPDEST PUSH0 PUSH2 0x231A DUP3 PUSH2 0x22EF JUMP JUMPDEST SWAP1 POP SWAP2 SWAP1 POP JUMP JUMPDEST PUSH0 PUSH2 0x232B DUP3 PUSH2 0x2310 JUMP JUMPDEST SWAP1 POP SWAP2 SWAP1 POP JUMP JUMPDEST PUSH2 0x233B DUP2 PUSH2 0x2321 JUMP JUMPDEST DUP3 MSTORE POP POP JUMP JUMPDEST PUSH0 PUSH1 0x20 DUP3 ADD SWAP1 POP PUSH2 0x2354 PUSH0 DUP4 ADD DUP5 PUSH2 0x2332 JUMP JUMPDEST SWAP3 SWAP2 POP POP JUMP JUMPDEST PUSH32 0x4E487B7100000000000000000000000000000000000000000000000000000000 PUSH0 MSTORE PUSH1 0x22 PUSH1 0x4 MSTORE PUSH1 0x24 PUSH0 REVERT JUMPDEST PUSH0 PUSH1 0x2 DUP3 DIV SWAP1 POP PUSH1 0x1 DUP3 AND DUP1 PUSH2 0x239E JUMPI PUSH1 0x7F DUP3 AND SWAP2 POP JUMPDEST PUSH1 0x20 DUP3 LT DUP2 SUB PUSH2 0x23B1 JUMPI PUSH2 0x23B0 PUSH2 0x235A JUMP JUMPDEST JUMPDEST POP SWAP2 SWAP1 POP JUMP JUMPDEST PUSH32 0x43616E6E6F742077697468647261772041544300000000000000000000000000 PUSH0 DUP3 ADD MSTORE POP JUMP JUMPDEST PUSH0 PUSH2 0x23EB PUSH1 0x13 DUP4 PUSH2 0x1F55 JUMP JUMPDEST SWAP2 POP PUSH2 0x23F6 DUP3 PUSH2 0x23B7 JUMP JUMPDEST PUSH1 0x20 DUP3 ADD SWAP1 POP SWAP2 SWAP1 POP JUMP JUMPDEST PUSH0 PUSH1 0x20 DUP3 ADD SWAP1 POP DUP2 DUP2 SUB PUSH0 DUP4 ADD MSTORE PUSH2 0x2418 DUP2 PUSH2 0x23DF JUMP JUMPDEST SWAP1 POP SWAP2 SWAP1 POP JUMP JUMPDEST PUSH0 DUP2 MLOAD SWAP1 POP PUSH2 0x242D DUP2 PUSH2 0x2053 JUMP JUMPDEST SWAP3 SWAP2 POP POP JUMP JUMPDEST PUSH0 PUSH1 0x20 DUP3 DUP5 SUB SLT ISZERO PUSH2 0x2448 JUMPI PUSH2 0x2447 PUSH2 0x1FF5 JUMP JUMPDEST JUMPDEST PUSH0 PUSH2 0x2455 DUP5 DUP3 DUP6 ADD PUSH2 0x241F JUMP JUMPDEST SWAP2 POP POP SWAP3 SWAP2 POP POP JUMP JUMPDEST PUSH0 PUSH1 0x40 DUP3 ADD SWAP1 POP PUSH2 0x2471 PUSH0 DUP4 ADD DUP6 PUSH2 0x2255 JUMP JUMPDEST PUSH2 0x247E PUSH1 0x20 DUP4 ADD DUP5 PUSH2 0x1F23 JUMP JUMPDEST SWAP4 SWAP3 POP POP POP JUMP JUMPDEST PUSH0 DUP2 MLOAD SWAP1 POP PUSH2 0x2493 DUP2 PUSH2 0x21ED JUMP JUMPDEST SWAP3 SWAP2 POP POP JUMP JUMPDEST PUSH0 PUSH1 0x20 DUP3 DUP5 SUB SLT ISZERO PUSH2 0x24AE JUMPI PUSH2 0x24AD PUSH2 0x1FF5 JUMP JUMPDEST JUMPDEST PUSH0 PUSH2 0x24BB DUP5 DUP3 DUP6 ADD PUSH2 0x2485 JUMP JUMPDEST SWAP2 POP POP SWAP3 SWAP2 POP POP JUMP JUMPDEST PUSH0 PUSH1 0x60 DUP3 ADD SWAP1 POP PUSH2 0x24D7 PUSH0 DUP4 ADD DUP7 PUSH2 0x2255 JUMP JUMPDEST PUSH2 0x24E4 PUSH1 0x20 DUP4 ADD DUP6 PUSH2 0x1F23 JUMP JUMPDEST PUSH2 0x24F1 PUSH1 0x40 DUP4 ADD DUP5 PUSH2 0x1F23 JUMP JUMPDEST SWAP5 SWAP4 POP POP POP POP JUMP JUMPDEST PUSH32 0x5472616E7366657220616D6F756E74206D757374206265206772656174657220 PUSH0 DUP3 ADD MSTORE PUSH32 0x7468616E207A65726F0000000000000000000000000000000000000000000000 PUSH1 0x20 DUP3 ADD MSTORE POP JUMP JUMPDEST PUSH0 PUSH2 0x2553 PUSH1 0x29 DUP4 PUSH2 0x1F55 JUMP JUMPDEST SWAP2 POP PUSH2 0x255E DUP3 PUSH2 0x24F9 JUMP JUMPDEST PUSH1 0x40 DUP3 ADD SWAP1 POP SWAP2 SWAP1 POP JUMP JUMPDEST PUSH0 PUSH1 0x20 DUP3 ADD SWAP1 POP DUP2 DUP2 SUB PUSH0 DUP4 ADD MSTORE PUSH2 0x2580 DUP2 PUSH2 0x2547 JUMP JUMPDEST SWAP1 POP SWAP2 SWAP1 POP JUMP JUMPDEST PUSH32 0x54726164696E67206E6F7420656E61626C656400000000000000000000000000 PUSH0 DUP3 ADD MSTORE POP JUMP JUMPDEST PUSH0 PUSH2 0x25BB PUSH1 0x13 DUP4 PUSH2 0x1F55 JUMP JUMPDEST SWAP2 POP PUSH2 0x25C6 DUP3 PUSH2 0x2587 JUMP JUMPDEST PUSH1 0x20 DUP3 ADD SWAP1 POP SWAP2 SWAP1 POP JUMP JUMPDEST PUSH0 PUSH1 0x20 DUP3 ADD SWAP1 POP DUP2 DUP2 SUB PUSH0 DUP4 ADD MSTORE PUSH2 0x25E8 DUP2 PUSH2 0x25AF JUMP JUMPDEST SWAP1 POP SWAP2 SWAP1 POP JUMP JUMPDEST PUSH32 0x4E487B7100000000000000000000000000000000000000000000000000000000 PUSH0 MSTORE PUSH1 0x11 PUSH1 0x4 MSTORE PUSH1 0x24 PUSH0 REVERT JUMPDEST PUSH0 PUSH2 0x2626 DUP3 PUSH2 0x1F1A JUMP JUMPDEST SWAP2 POP PUSH2 0x2631 DUP4 PUSH2 0x1F1A JUMP JUMPDEST SWAP3 POP DUP3 DUP3 MUL PUSH2 0x263F DUP2 PUSH2 0x1F1A JUMP JUMPDEST SWAP2 POP DUP3 DUP3 DIV DUP5 EQ DUP4 ISZERO OR PUSH2 0x2656 JUMPI PUSH2 0x2655 PUSH2 0x25EF JUMP JUMPDEST JUMPDEST POP SWAP3 SWAP2 POP POP JUMP JUMPDEST PUSH32 0x4E487B7100000000000000000000000000000000000000000000000000000000 PUSH0 MSTORE PUSH1 0x12 PUSH1 0x4 MSTORE PUSH1 0x24 PUSH0 REVERT JUMPDEST PUSH0 PUSH2 0x2694 DUP3 PUSH2 0x1F1A JUMP JUMPDEST SWAP2 POP PUSH2 0x269F DUP4 PUSH2 0x1F1A JUMP JUMPDEST SWAP3 POP DUP3 PUSH2 0x26AF JUMPI PUSH2 0x26AE PUSH2 0x265D JUMP JUMPDEST JUMPDEST DUP3 DUP3 DIV SWAP1 POP SWAP3 SWAP2 POP POP JUMP JUMPDEST PUSH0 PUSH2 0x26C4 DUP3 PUSH2 0x1F1A JUMP JUMPDEST SWAP2 POP PUSH2 0x26CF DUP4 PUSH2 0x1F1A JUMP JUMPDEST SWAP3 POP DUP3 DUP3 SUB SWAP1 POP DUP2 DUP2 GT ISZERO PUSH2 0x26E7 JUMPI PUSH2 0x26E6 PUSH2 0x25EF JUMP JUMPDEST JUMPDEST SWAP3 SWAP2 POP POP JUMP JUMPDEST PUSH32 0x5265656E7472616E637947756172643A207265656E7472616E742063616C6C00 PUSH0 DUP3 ADD MSTORE POP JUMP JUMPDEST PUSH0 PUSH2 0x2721 PUSH1 0x1F DUP4 PUSH2 0x1F55 JUMP JUMPDEST SWAP2 POP PUSH2 0x272C DUP3 PUSH2 0x26ED JUMP JUMPDEST PUSH1 0x20 DUP3 ADD SWAP1 POP SWAP2 SWAP1 POP JUMP JUMPDEST PUSH0 PUSH1 0x20 DUP3 ADD SWAP1 POP DUP2 DUP2 SUB PUSH0 DUP4 ADD MSTORE PUSH2 0x274E DUP2 PUSH2 0x2715 JUMP JUMPDEST SWAP1 POP SWAP2 SWAP1 POP JUMP JUMPDEST PUSH32 0x4E487B7100000000000000000000000000000000000000000000000000000000 PUSH0 MSTORE PUSH1 0x41 PUSH1 0x4 MSTORE PUSH1 0x24 PUSH0 REVERT JUMPDEST PUSH32 0x4E487B7100000000000000000000000000000000000000000000000000000000 PUSH0 MSTORE PUSH1 0x32 PUSH1 0x4 MSTORE PUSH1 0x24 PUSH0 REVERT JUMPDEST PUSH0 DUP2 MLOAD SWAP1 POP PUSH2 0x27BD DUP2 PUSH2 0x2029 JUMP JUMPDEST SWAP3 SWAP2 POP POP JUMP JUMPDEST PUSH0 PUSH1 0x20 DUP3 DUP5 SUB SLT ISZERO PUSH2 0x27D8 JUMPI PUSH2 0x27D7 PUSH2 0x1FF5 JUMP JUMPDEST JUMPDEST PUSH0 PUSH2 0x27E5 DUP5 DUP3 DUP6 ADD PUSH2 0x27AF JUMP JUMPDEST SWAP2 POP POP SWAP3 SWAP2 POP POP JUMP JUMPDEST PUSH0 DUP2 SWAP1 POP SWAP2 SWAP1 POP JUMP JUMPDEST PUSH0 PUSH2 0x2811 PUSH2 0x280C PUSH2 0x2807 DUP5 PUSH2 0x27EE JUMP JUMPDEST PUSH2 0x22E6 JUMP JUMPDEST PUSH2 0x1F1A JUMP JUMPDEST SWAP1 POP SWAP2 SWAP1 POP JUMP JUMPDEST PUSH2 0x2821 DUP2 PUSH2 0x27F7 JUMP JUMPDEST DUP3 MSTORE POP POP JUMP JUMPDEST PUSH0 DUP2 MLOAD SWAP1 POP SWAP2 SWAP1 POP JUMP JUMPDEST PUSH0 DUP3 DUP3 MSTORE PUSH1 0x20 DUP3 ADD SWAP1 POP SWAP3 SWAP2 POP POP JUMP JUMPDEST PUSH0 DUP2 SWAP1 POP PUSH1 0x20 DUP3 ADD SWAP1 POP SWAP2 SWAP1 POP JUMP JUMPDEST PUSH2 0x2859 DUP2 PUSH2 0x2018 JUMP JUMPDEST DUP3 MSTORE POP POP JUMP JUMPDEST PUSH0 PUSH2 0x286A DUP4 DUP4 PUSH2 0x2850 JUMP JUMPDEST PUSH1 0x20 DUP4 ADD SWAP1 POP SWAP3 SWAP2 POP POP JUMP JUMPDEST PUSH0 PUSH1 0x20 DUP3 ADD SWAP1 POP SWAP2 SWAP1 POP JUMP JUMPDEST PUSH0 PUSH2 0x288C DUP3 PUSH2 0x2827 JUMP JUMPDEST PUSH2 0x2896 DUP2 DUP6 PUSH2 0x2831 JUMP JUMPDEST SWAP4 POP PUSH2 0x28A1 DUP4 PUSH2 0x2841 JUMP JUMPDEST DUP1 PUSH0 JUMPDEST DUP4 DUP2 LT ISZERO PUSH2 0x28D1 JUMPI DUP2 MLOAD PUSH2 0x28B8 DUP9 DUP3 PUSH2 0x285F JUMP JUMPDEST SWAP8 POP PUSH2 0x28C3 DUP4 PUSH2 0x2876 JUMP JUMPDEST SWAP3 POP POP PUSH1 0x1 DUP2 ADD SWAP1 POP PUSH2 0x28A4 JUMP JUMPDEST POP DUP6 SWAP4 POP POP POP POP SWAP3 SWAP2 POP POP JUMP JUMPDEST PUSH0 PUSH1 0xA0 DUP3 ADD SWAP1 POP PUSH2 0x28F1 PUSH0 DUP4 ADD DUP9 PUSH2 0x1F23 JUMP JUMPDEST PUSH2 0x28FE PUSH1 0x20 DUP4 ADD DUP8 PUSH2 0x2818 JUMP JUMPDEST DUP2 DUP2 SUB PUSH1 0x40 DUP4 ADD MSTORE PUSH2 0x2910 DUP2 DUP7 PUSH2 0x2882 JUMP JUMPDEST SWAP1 POP PUSH2 0x291F PUSH1 0x60 DUP4 ADD DUP6 PUSH2 0x2255 JUMP JUMPDEST PUSH2 0x292C PUSH1 0x80 DUP4 ADD DUP5 PUSH2 0x1F23 JUMP JUMPDEST SWAP7 SWAP6 POP POP POP POP POP POP JUMP JUMPDEST PUSH0 PUSH1 0xC0 DUP3 ADD SWAP1 POP PUSH2 0x2949 PUSH0 DUP4 ADD DUP10 PUSH2 0x2255 JUMP JUMPDEST PUSH2 0x2956 PUSH1 0x20 DUP4 ADD DUP9 PUSH2 0x1F23 JUMP JUMPDEST PUSH2 0x2963 PUSH1 0x40 DUP4 ADD DUP8 PUSH2 0x2818 JUMP JUMPDEST PUSH2 0x2970 PUSH1 0x60 DUP4 ADD DUP7 PUSH2 0x2818 JUMP JUMPDEST PUSH2 0x297D PUSH1 0x80 DUP4 ADD DUP6 PUSH2 0x2255 JUMP JUMPDEST PUSH2 0x298A PUSH1 0xA0 DUP4 ADD DUP5 PUSH2 0x1F23 JUMP JUMPDEST SWAP8 SWAP7 POP POP POP POP POP POP POP JUMP JUMPDEST PUSH0 DUP1 PUSH0 PUSH1 0x60 DUP5 DUP7 SUB SLT ISZERO PUSH2 0x29AC JUMPI PUSH2 0x29AB PUSH2 0x1FF5 JUMP JUMPDEST JUMPDEST PUSH0 PUSH2 0x29B9 DUP7 DUP3 DUP8 ADD PUSH2 0x241F JUMP JUMPDEST SWAP4 POP POP PUSH1 0x20 PUSH2 0x29CA DUP7 DUP3 DUP8 ADD PUSH2 0x241F JUMP JUMPDEST SWAP3 POP POP PUSH1 0x40 PUSH2 0x29DB DUP7 DUP3 DUP8 ADD PUSH2 0x241F JUMP JUMPDEST SWAP2 POP POP SWAP3 POP SWAP3 POP SWAP3 JUMP JUMPDEST PUSH0 PUSH1 0x60 DUP3 ADD SWAP1 POP PUSH2 0x29F8 PUSH0 DUP4 ADD DUP7 PUSH2 0x1F23 JUMP JUMPDEST PUSH2 0x2A05 PUSH1 0x20 DUP4 ADD DUP6 PUSH2 0x1F23 JUMP JUMPDEST PUSH2 0x2A12 PUSH1 0x40 DUP4 ADD DUP5 PUSH2 0x1F23 JUMP JUMPDEST SWAP5 SWAP4 POP POP POP POP JUMP JUMPDEST PUSH0 PUSH2 0x2A24 DUP3 PUSH2 0x1F1A JUMP JUMPDEST SWAP2 POP PUSH2 0x2A2F DUP4 PUSH2 0x1F1A JUMP JUMPDEST SWAP3 POP DUP3 DUP3 ADD SWAP1 POP DUP1 DUP3 GT ISZERO PUSH2 0x2A47 JUMPI PUSH2 0x2A46 PUSH2 0x25EF JUMP JUMPDEST JUMPDEST SWAP3 SWAP2 POP POP JUMP INVALID LOG2 PUSH5 0x6970667358 0x22 SLT KECCAK256 EXP 0x4D SUB BLOBHASH 0xD9 0xA9 0x4E RETURNDATASIZE SWAP12 0xB2 0xF9 CALLER REVERT 0x23 DUP8 0xC3 PUSH19 0x98FC04E09197C88EC59A1EFA477C7064736F6C PUSH4 0x43000818 STOP CALLER "
				},
				"gasEstimates": {
					"creation": {
						"codeDepositCost": "2176600",
						"executionCost": "infinite",
						"totalCost": "infinite"
					},
					"external": {
						"BUY_TAX()": "372",
						"SELL_TAX()": "392",
						"allowance(address,address)": "infinite",
						"approve(address,uint256)": "infinite",
						"artistTax()": "2469",
						"artistWallet()": "2553",
						"balanceOf(address)": "2875",
						"decimals()": "428",
						"devTax()": "2536",
						"devWallet()": "2575",
						"enableTrading()": "infinite",
						"isExcludedFromFee(address)": "2878",
						"lpTax()": "2471",
						"marketingTax()": "2537",
						"marketingWallet()": "2598",
						"name()": "infinite",
						"owner()": "2560",
						"pair()": "2575",
						"renounceOwnership()": "infinite",
						"router()": "infinite",
						"setExcludedFromFee(address,bool)": "infinite",
						"setSwapThreshold(uint256)": "infinite",
						"swapThreshold()": "2494",
						"symbol()": "infinite",
						"totalSupply()": "2522",
						"tradingEnabled()": "2629",
						"transfer(address,uint256)": "infinite",
						"transferFrom(address,address,uint256)": "infinite",
						"transferOwnership(address)": "infinite",
						"updateWallets(address,address,address)": "infinite",
						"withdrawStuckTokens(address)": "infinite"
					},
					"internal": {
						"_customTransfer(address,address,uint256)": "infinite",
						"swapAndLiquify()": "infinite"
					}
				},
				"methodIdentifiers": {
					"BUY_TAX()": "02af37bb",
					"SELL_TAX()": "54ad8aee",
					"allowance(address,address)": "dd62ed3e",
					"approve(address,uint256)": "095ea7b3",
					"artistTax()": "d862686b",
					"artistWallet()": "a3342fba",
					"balanceOf(address)": "70a08231",
					"decimals()": "313ce567",
					"devTax()": "665c6de9",
					"devWallet()": "8ea5220f",
					"enableTrading()": "8a8c523c",
					"isExcludedFromFee(address)": "5342acb4",
					"lpTax()": "1de3b450",
					"marketingTax()": "1d2cb02d",
					"marketingWallet()": "75f0a874",
					"name()": "06fdde03",
					"owner()": "8da5cb5b",
					"pair()": "a8aa1b31",
					"renounceOwnership()": "715018a6",
					"router()": "f887ea40",
					"setExcludedFromFee(address,bool)": "6612e66f",
					"setSwapThreshold(uint256)": "9d0014b1",
					"swapThreshold()": "0445b667",
					"symbol()": "95d89b41",
					"totalSupply()": "18160ddd",
					"tradingEnabled()": "4ada218b",
					"transfer(address,uint256)": "a9059cbb",
					"transferFrom(address,address,uint256)": "23b872dd",
					"transferOwnership(address)": "f2fde38b",
					"updateWallets(address,address,address)": "147c9f6d",
					"withdrawStuckTokens(address)": "cb963728"
				}
			},
			"storageLayout": {
				"storage": [
					{
						"astId": 372,
						"contract": "AutomatorCoin.sol:ATC",
						"label": "_balances",
						"offset": 0,
						"slot": "0",
						"type": "t_mapping(t_address,t_uint256)"
					},
					{
						"astId": 378,
						"contract": "AutomatorCoin.sol:ATC",
						"label": "_allowances",
						"offset": 0,
						"slot": "1",
						"type": "t_mapping(t_address,t_mapping(t_address,t_uint256))"
					},
					{
						"astId": 380,
						"contract": "AutomatorCoin.sol:ATC",
						"label": "_totalSupply",
						"offset": 0,
						"slot": "2",
						"type": "t_uint256"
					},
					{
						"astId": 382,
						"contract": "AutomatorCoin.sol:ATC",
						"label": "_name",
						"offset": 0,
						"slot": "3",
						"type": "t_string_storage"
					},
					{
						"astId": 384,
						"contract": "AutomatorCoin.sol:ATC",
						"label": "_symbol",
						"offset": 0,
						"slot": "4",
						"type": "t_string_storage"
					},
					{
						"astId": 8,
						"contract": "AutomatorCoin.sol:ATC",
						"label": "_owner",
						"offset": 0,
						"slot": "5",
						"type": "t_address"
					},
					{
						"astId": 295,
						"contract": "AutomatorCoin.sol:ATC",
						"label": "_status",
						"offset": 0,
						"slot": "6",
						"type": "t_uint256"
					},
					{
						"astId": 1068,
						"contract": "AutomatorCoin.sol:ATC",
						"label": "router",
						"offset": 0,
						"slot": "7",
						"type": "t_contract(IPancakeRouter)1049"
					},
					{
						"astId": 1070,
						"contract": "AutomatorCoin.sol:ATC",
						"label": "pair",
						"offset": 0,
						"slot": "8",
						"type": "t_address"
					},
					{
						"astId": 1082,
						"contract": "AutomatorCoin.sol:ATC",
						"label": "lpTax",
						"offset": 0,
						"slot": "9",
						"type": "t_uint256"
					},
					{
						"astId": 1085,
						"contract": "AutomatorCoin.sol:ATC",
						"label": "devTax",
						"offset": 0,
						"slot": "10",
						"type": "t_uint256"
					},
					{
						"astId": 1088,
						"contract": "AutomatorCoin.sol:ATC",
						"label": "artistTax",
						"offset": 0,
						"slot": "11",
						"type": "t_uint256"
					},
					{
						"astId": 1091,
						"contract": "AutomatorCoin.sol:ATC",
						"label": "marketingTax",
						"offset": 0,
						"slot": "12",
						"type": "t_uint256"
					},
					{
						"astId": 1093,
						"contract": "AutomatorCoin.sol:ATC",
						"label": "devWallet",
						"offset": 0,
						"slot": "13",
						"type": "t_address"
					},
					{
						"astId": 1095,
						"contract": "AutomatorCoin.sol:ATC",
						"label": "artistWallet",
						"offset": 0,
						"slot": "14",
						"type": "t_address"
					},
					{
						"astId": 1097,
						"contract": "AutomatorCoin.sol:ATC",
						"label": "marketingWallet",
						"offset": 0,
						"slot": "15",
						"type": "t_address"
					},
					{
						"astId": 1104,
						"contract": "AutomatorCoin.sol:ATC",
						"label": "swapThreshold",
						"offset": 0,
						"slot": "16",
						"type": "t_uint256"
					},
					{
						"astId": 1106,
						"contract": "AutomatorCoin.sol:ATC",
						"label": "swapping",
						"offset": 0,
						"slot": "17",
						"type": "t_bool"
					},
					{
						"astId": 1108,
						"contract": "AutomatorCoin.sol:ATC",
						"label": "tradingEnabled",
						"offset": 1,
						"slot": "17",
						"type": "t_bool"
					},
					{
						"astId": 1112,
						"contract": "AutomatorCoin.sol:ATC",
						"label": "isExcludedFromFee",
						"offset": 0,
						"slot": "18",
						"type": "t_mapping(t_address,t_bool)"
					}
				],
				"types": {
					"t_address": {
						"encoding": "inplace",
						"label": "address",
						"numberOfBytes": "20"
					},
					"t_bool": {
						"encoding": "inplace",
						"label": "bool",
						"numberOfBytes": "1"
					},
					"t_contract(IPancakeRouter)1049": {
						"encoding": "inplace",
						"label": "contract IPancakeRouter",
						"numberOfBytes": "20"
					},
					"t_mapping(t_address,t_bool)": {
						"encoding": "mapping",
						"key": "t_address",
						"label": "mapping(address => bool)",
						"numberOfBytes": "32",
						"value": "t_bool"
					},
					"t_mapping(t_address,t_mapping(t_address,t_uint256))": {
						"encoding": "mapping",
						"key": "t_address",
						"label": "mapping(address => mapping(address => uint256))",
						"numberOfBytes": "32",
						"value": "t_mapping(t_address,t_uint256)"
					},
					"t_mapping(t_address,t_uint256)": {
						"encoding": "mapping",
						"key": "t_address",
						"label": "mapping(address => uint256)",
						"numberOfBytes": "32",
						"value": "t_uint256"
					},
					"t_string_storage": {
						"encoding": "bytes",
						"label": "string",
						"numberOfBytes": "32"
					},
					"t_uint256": {
						"encoding": "inplace",
						"label": "uint256",
						"numberOfBytes": "32"
					}
				}
			},
			"userdoc": {
				"kind": "user",
				"methods": {},
				"version": 1
			}
		}
	}
}